:020000040800F2
:100000000000052035320008A93E0008AB3E00087C
:10001000AD3E0008AF3E0008B13E00080000000001
:10002000000000000000000000000000156800084B
:10003000B33E000800000000AD680008B53E0008AF
:1000400085320008853200088532000885320008B4
:1000500085320008853200088532000885320008A4
:100060008532000885320008853200088532000894
:100070008532000885320008853200088532000884
:100080008532000885320008853200088532000874
:100090008532000885320008853200088532000864
:1000A0008532000885320008853200088532000854
:1000B0008532000885320008853200088532000844
:1000C0008532000885320008853200088532000834
:1000D0008532000885320008853200088532000824
:1000E0008532000885320008853200088532000814
:1000F0008532000885320008853200088532000804
:1001000085320008853200088532000885320008F3
:1001100085320008853200088532000885320008E3
:1001200085320008853200088532000885320008D3
:1001300085320008853200088532000885320008C3
:10014000853200088532000885320008C93E000863
:1001500085320008853200088532000885320008A3
:100160008532000885320008853200088532000893
:100170008532000885320008853200080000000042
:100180008532000885320008853200088532000873
:100190008532000885320008853200088532000863
:1001A0008532000885320008853200088532000853
:1001B0008532000885320008853200088532000843
:0801C0008532000885320008B9
:1001C8001C309FE51C009FE5033060E0060053E308
:1001D8001EFF2F9110309FE5000053E31EFF2F01F3
:1001E80013FF2FE1DF0E0020DC0E002000000000CE
:1001F80024109FE524009FE5011060E04111A0E173
:10020800A11F81E0C110B0E11EFF2F0110309FE552
:10021800000053E31EFF2F0113FF2FE1DC0E002027
:10022800DC0E00200000000010402DE92C409FE566
:100238000030D4E5000053E30600001ADFFFFFEBAF
:100248001C309FE5000053E318009F1500F02013B1
:100258000130A0E30030C4E51040BDE81EFF2FE1E7
:10026800E00E002000000000C89B050808402DE9AA
:100278003C309FE5000053E338009F1538109F1568
:1002880000F0201334009FE5003090E5000053E3B0
:100298000100001A0840BDE8D4FFFFEA20309FE5BE
:1002A800000053E3FAFFFF0A0FE0A0E113FF2FE17C
:1002B800F7FFFFEA00000000C89B0508E40E0020D5
:1002C800DC0E00200000000001C020E003001CE359
:1002D8002100001A03C010E20300C0E30310C1E3C9
:1002E800042090E4043091040600000A03C02CE2C4
:1002F800FF34E0E38CC1A0E133CCA0E1043091E409
:100308000C2082E10C3083E104402DE50140A0E39C
:10031800044484E1044884E104C042E0030052E15B
:1003280002C0CC0184031C01042090040430910411
:10033800F8FFFF0A020CA0E12224A0E1010050E32B
:10034800030C50212334A001F9FFFF0AFF3003E218
:10035800200C63E004409DE41EFF2FE1030010E33E
:100368000600000A0120D0E40130D1E4010052E384
:1003780003005221F8FFFF0A030042E01EFF2FE1AD
:1003880030002DE90140A0E3044484E1044884E1FD
:10039800042090E4035001E20310C1E3043091E427
:1003A800020055E31700000A2D00008AFF54C2E33B
:1003B800230455E104C042E002C0CCE10700001A62
:1003C80084C31CE0043091040600001A025025E0A2
:1003D800030C55E10800001A042090E4F2FFFFEA3C
:1003E8002334A0E1360000EAFFC4DCE33100001A40
:1003F8000030D1E5225CA0E1310000EA225CA0E1F6
:10040800FF3003E22E0000EA0258A0E104C042E0F7
:100418002558A0E102C0CCE1230855E10E00001ADE
:1004280084C31CE0043091040400001A025025E043
:10043800030855E10600001A042090E4F1FFFFEAE2
:100448000CC8B0E11B00001AB030D1E12258A0E17D
:100458001B0000EA0338A0E12258A0E12338A0E1FC
:10046800170000EAFF5002E2230C55E104C042E005
:1004780002C0CCE10700001A84C31CE004309104D8
:100488000600001A025025E0030455E10600001A90
:10049800042090E4F2FFFFEA233CA0E1080000EA10
:1004A800FF0012E30300000A043091E42254A0E1A3
:1004B800FF34C3E3020000EA0000A0E33000BDE817
:1004C8001EFF2FE1FF2005E2FF0003E2010050E3D9
:1004D800020050212554A0012334A001F8FFFF0A8F
:1004E800000042E03000BDE81EFF2FE1012051E28C
:1004F8001EFF2F013600003A010050E12200009A49
:10050800020011E12300000A0E0211E38111A0018B
:100518000830A0030130A013010251E3000051315B
:100528000112A0310332A031FAFFFF3A020151E370
:10053800000051318110A0318330A031FAFFFF3A19
:100548000020A0E3010050E10100402003208221A7
:10055800A10050E1A1004020A3208221210150E107
:100568002101402023218221A10150E1A101402045
:10057800A3218221000050E32332B0112112A011DF
:10058800EFFFFF1A0200A0E11EFF2FE10100A00308
:100598000000A0131EFF2FE1010851E32118A0213C
:1005A8001020A0230020A033010C51E32114A02126
:1005B80008208222100051E32112A0210420822267
:1005C800040051E303208282A12082903002A0E13E
:1005D8001EFF2FE1000050E30000E013070000EACF
:1005E800000051E3FAFFFF0A03402DE9BEFFFFEBCD
:1005F8000640BDE8920003E0031041E01EFF2FE132
:100608001EFF2FE1203052E220C062E23002A041FA
:100618003103A051110C80413112A0E11EFF2FE1DE
:10062800203052E220C062E21112A0411013A05102
:10063800301C81411002A0E11EFF2FE1021121E2CE
:10064800000000EA023123E230402DE98140A0E1B8
:100658008350A0E1050034E10200300100C094118C
:1006680002C09511C4CAF011C5CAF0118C00000A65
:10067800A44AA0E1A55A74E0005065B2060000DA69
:10068800054084E0022020E0033021E0000022E061
:10069800011023E0022020E0033021E0360055E37A
:1006A8003040BD881EFF2F81020111E30116A0E131
:1006B80001C6A0E321168CE10100000A000070E2E7
:1006C8000010E1E2020113E30336A0E123368CE1D6
:1006D8000100000A002072E20030E3E2050034E184
:1006E8006900000A014044E220E075E2050000BA12
:1006F80012CEA0E1320590E00010A1E2130E90E0C6
:100708005315B1E0060000EA205045E220E08EE2F1
:10071800010052E313CEA0E102C08C23530590E000
:10072800C31FB1E0025101E20200005A00C07CE29E
:100738000000F0E20010E1E2010651E30F00003A88
:10074800020651E30600003AA110B0E16000B0E1F2
:100758006CC0A0E1014084E2842AA0E1010572E3B3
:100768006B00002A02015CE3A0C0B0010000B0E207
:10077800041AA1E0051081E13040BDE81EFF2FE119
:100788008CC0B0E10000B0E00110A1E0010611E367
:10079800014044E2F2FFFF1A000031E31430A013D5
:1007A8003430A0030010A0010000A0030120A0E144
:1007B800010852E32228A02110304322010C52E301
:1007C8002224A02108304322100052E32222A02133
:1007D80004304322040052E302304322A230433063
:1007E800A23143E0202053E2070000AA0C2092E245
:1007F800040000DA14C082E20C2062E2110CA0E1CD
:100808003112A0E1040000EA142082E220C062D282
:100818001112A0E1301C81D11002A0D1034054E094
:10082800041A81A0051081A13040BDA81EFF2FA188
:100838000440E0E11F4054E20F0000AA0C4094E29B
:10084800060000CA144084E2202064E23004A0E1DB
:10085800110280E1311485E13040BDE81EFF2FE12F
:100868000C4064E2202064E23002A0E1110480E13F
:100878000510A0E13040BDE81EFF2FE13104A0E1E2
:100888000510A0E13040BDE81EFF2FE1000034E371
:10089800013623E20116210201408402015045126B
:1008A8008FFFFFEAC4CAF0E1C5CAF0111D00000AB3
:1008B800050034E1020030010400000A00C094E1A0
:1008C8000310A0010200A0013040BDE81EFF2FE187
:1008D800030031E10010A0130000A0133040BD1840
:1008E8001EFF2F11A4CAB0E10400001A8000B0E175
:1008F8000110B1E0021181233040BDE81EFF2FE155
:10090800014594E2011681323040BD381EFF2F3177
:10091800025101E27F1485E30F1681E30000A0E392
:100928003040BDE81EFF2FE1C4CAF0E10310A0115A
:100938000200A011C5CAF0010130A0110020A011C9
:10094800014690E103569201030031010217811319
:100958003040BDE81EFF2FE1000030E30010A00387
:100968001EFF2F0130402DE9014BA0E3324084E205
:100978000050A0E30010A0E386FFFFEA000030E388
:100988000010A0031EFF2F0130402DE9014BA0E30A
:10099800324084E2025110E2000060420010A0E3FD
:1009A8007CFFFFEA8020B0E1C211A0E16110A0E164
:1009B800020EA0E1FF341212FF0433130E132112AA
:1009C8001EFF2F11000032E3FF0433131EFF2F0117
:1009D80030402DE90E4DA0E3025101E20211C1E3BE
:1009E8006CFFFFEA012090E11EFF2F0130402DE946
:1009F8000050A0E3060000EA012090E11EFF2F014D
:100A080030402DE9025111E20100005A000070E265
:100A18000010E1E2014BA0E3324084E221CBB0E1D7
:100A280044FFFF0A0320A0E3ACC1B0E10320821217
:100A3800ACC1B0E103208212AC2182E0203062E236
:100A480010C3A0E13002A0E1110380E13112A0E15E
:100A5800024084E037FFFFEA70402DE9FFC0A0E3C1
:100A680007CC8CE3214A1CE0235A1C100C003411DB
:100A78000C0035117500000B054084E0036021E08F
:100A88008C1AC1E18C3AC3E1015690E103569211E8
:100A9800011681E3013683E31D00000A90C28EE04F
:100AA8000050A0E391E2A5E0022106E290E3A5E070
:100AB8000060A0E39153A6E000003CE301E08E1340
:100AC800FF4044E2020C56E3034CC4E20200002A51
:100AD8008EE0B0E10550B5E00660A6E0861582E13B
:100AE800A51A81E18505A0E1AE0A80E18EE5A0E1C5
:100AF800FDC054E2070C5C831100008A02015EE32A
:100B0800A0E0B0010000B0E2041AA1E07040BDE826
:100B18001EFF2FE1026106E2011086E1020080E17A
:100B2800031021E0AC4054E00C5074C0041A81C199
:100B38007040BDC81EFF2FC1011681E300E0A0E38D
:100B4800014054E25D0000CA360074E30000A0D3FF
:100B5800021101D27040BDD81EFF2FD1004064E2BF
:100B6800204054E21A0000AA0C4094E20C0000CA8B
:100B7800144084E2205064E21035A0E13004A0E182
:100B8800110580E1022101E20211C1E3A30F90E007
:100B98003114A2E083E09EE1A30FC0017040BDE8DC
:100BA8001EFF2FE10C4064E2205064E21034A0E103
:100BB8003005A0E1110480E1021101E2A30F90E0E9
:100BC8000010A1E283E09EE1A30FC0017040BDE8E0
:100BD8001EFF2FE1205064E210E58EE13034A0E1E1
:100BE800113583E13104A0E1021101E23104C0E1D1
:100BF800A30F80E083E09EE1A30FC0017040BDE831
:100C08001EFF2FE1000034E30800001A026101E230
:100C18008000B0E10110A1E0010611E301404402A7
:100C2800FAFFFF0A061081E1000035E31EFF2F11CD
:100C3800026103E28220B0E10330A3E0010613E37E
:100C480001504502FAFFFF0A063083E11EFF2FE13B
:100C58000C0034E1235A0CE00C0035110700000A9F
:100C6800816090E183609211E5FFFF1A031021E093
:100C7800021101E20000A0E37040BDE81EFF2FE171
:100C8800816090E10200A0010310A001836092112D
:100C98001000000A0C0034E10100001A016690E11E
:100CA8000C00001A0C0035E10300001A036692E1FB
:100CB8000200A0110310A0110600001A031021E081
:100CC800021101E27F1481E30F1681E30000A0E323
:100CD8007040BDE81EFF2FE17F1481E33E1781E3DA
:100CE8007040BDE81EFF2FE170402DE9FFC0A0E372
:100CF80007CC8CE3214A1CE0235A1C100C00341149
:100D08000C0035115E00000B054044E003E021E0D3
:100D1800035692E10116A0E14C00000A0336A0E157
:100D28000152A0E3233285E1223C83E10224A0E1C1
:100D3800215285E1205C85E10064A0E102110EE208
:100D4800030055E102005601FD40A4E2034C84E291
:100D58000100002AA330B0E16220A0E1026056E061
:100D68000350C5E0A330B0E16220A0E10106A0E392
:100D780002C7A0E302E056E003E0D5E002604620A7
:100D88000E50A0210C008021A330B0E16220A0E128
:100D980002E056E003E0D5E0026046200E50A021B4
:100DA800AC008021A330B0E16220A0E102E056E06F
:100DB80003E0D5E0026046200E50A0212C018021DE
:100DC800A330B0E16220A0E102E056E003E0D5E004
:100DD800026046200E50A021AC01802106E095E17A
:100DE8000D00000A0552A0E1265E85E10662A0E139
:100DF8008331A0E1A23E83E18221A0E12CC2B0E1CF
:100E0800DBFFFF1A010611E30600001A001081E15A
:100E18000000A0E302C1A0E3D5FFFFEA010611E349
:100E2800001081010000A003FDC054E2070C5C83A0
:100E380043FFFF8A03C055E002C05600A0C0B001BE
:100E48000000B0E2041AA1E07040BDE81EFF2FE1E7
:100E580002E10EE221168EE1AC4094E00C5074C021
:100E6800041A81C17040BDC81EFF2FC1011681E35D
:100E780000E0A0E3014054E231FFFFEA06E085E12B
:100E88002FFFFFEA235A0CE00C0034E10C00350177
:100E980090FFFF0A0C0034E10600001A014690E1B9
:100EA8008CFFFF1A0C0035E183FFFF1A0200A0E156
:100EB8000310A0E187FFFFEA0C0035E10400001AE7
:100EC800035692E168FFFF0A0200A0E10310A0E1C7
:100ED80080FFFFEA816090E18360921148FFFF1A6A
:100EE800814090E174FFFF1A835092E15EFFFF1A80
:100EF80078FFFFEA00C0E0E3020000EA01C0A0E3D7
:100F0800000000EA01C0A0E304C02DE581C0A0E113
:100F1800CCCAF0E183C0A0E1CCCAF0110E00000AEF
:100F280004D08DE281C090E183C0920103003111A9
:100F3800020030010000A0031EFF2F01000070E333
:100F4800030031E10300515102005001C30FA021F9
:100F5800C30FE031010080E31EFF2FE181C0A0E153
:100F6800CCCAF0E10100001A01C690E10400001AA1
:100F780083C0A0E1CCCAF0E1E8FFFF1A03C692E102
:100F8800E6FFFF0A04009DE41EFF2FE100C0A0E178
:100F98000200A0E10C20A0E101C0A0E10310A0E143
:100FA8000C30A0E1FFFFFFEA01402DE9D4FFFFEB81
:100FB800000050E3000070430140BDE81EFF2FE130
:100FC80008E02DE5F7FFFFEB0100A0030000A013E8
:100FD80008E09DE41EFF2FE108E02DE5F1FFFFEB9F
:100FE8000100A0330000A02308E09DE41EFF2FE1CC
:100FF80008E02DE5EBFFFFEB0100A0930000A083C4
:1010080008E09DE41EFF2FE108E02DE5DEFFFFEB81
:101018000100A0930000A08308E09DE41EFF2FE1DB
:1010280008E02DE5D8FFFFEB0100A0330000A02366
:1010380008E09DE41EFF2FE18120A0E1022692E254
:101048000C00002A0900005A3E3EE0E3C22A53E0A1
:101058000A00009A8135A0E1023183E3A03A83E1D6
:10106800020111E33302A0E1000060121EFF2FE12C
:101078000000A0E31EFF2FE1010690E10200001A24
:10108800020111E20201E0031EFF2FE10000A0E3CC
:101098001EFF2FE18120B0E10A00002A022692E219
:1010A8000A00002A0700005A3E3EE0E3C22A53E045
:1010B8000800004A8135A0E1023183E3A03A83E1C8
:1010C8003302A0E11EFF2FE10000A0E31EFF2FE185
:1010D800010690E10100001A0000E0E31EFF2FE185
:1010E8000000A0E31EFF2FE18120A0E1073252E2B9
:1010F80002C653227FC57C220600009A02C101E283
:101108008021A0E1A00E8CE1020152E30301A0E0DE
:101118000100C0031EFF2FE1010111E30F00001AB7
:101128002E2693E2020101B21EFF2FB1011681E3C0
:10113800A22AA0E1182062E220C062E2103CB0E1DD
:101148003002A0E1010080138135A0E1A335A0E1C0
:10115800130C80E13332A0E18330A0E1E6FFFFEA1F
:10116800C23AF0E10300001A013690E17F04A013AF
:10117800030580131EFF2F11020101E27F0480E3A3
:10118800020580E31EFF2FE1020120E2000000EAD1
:10119800021121E28020B0E18130B0110300321148
:1011A80042CCF01143CCF0114700000A222CA0E1F8
:1011B800233C72E0032082C0011020C0000021C03F
:1011C800011020C0003063B2190053E31EFF2F81C5
:1011D800020110E3020580E3FF04C0E3000060128F
:1011E800020111E3021581E3FF14C1E3001061124B
:1011F800030032E12E00000A012042E2510390E090
:10120800203063E21113A0E1023100E20100005A2C
:10121800001071E20000E0E2020550E30B00003A22
:10122800010450E30400003AA000B0E16110A0E11D
:10123800012082E2FE0052E33800002A020151E355
:10124800820BA0E00100C003030080E11EFF2FE134
:101258008110B0E10000A0E0020510E3012042E2A5
:10126800F5FFFF1A20C6B0E10006A0010C204202DB
:10127800FF0810E30004A001082042020F0610E353
:101288000002A00104204202030510E30001A001AE
:1012980002204202020550E38000A0310020D2E281
:1012A800820B80A0002062B2030080A1300283B1CB
:1012B8001EFF2FE1000032E3021521E202052002A1
:1012C8000120820201304312CAFFFFEA8130A0E107
:1012D80042CCF0E143CCF0111300000A030032E1E4
:1012E8000200000A000032E30100A0011EFF2FE106
:1012F800010030E10000A0131EFF2F11FF0412E3CC
:101308000200001A8000B0E1020180231EFF2FE1D5
:10131800022492E2020580321EFF2F31023100E2E0
:101328007F0483E3020580E31EFF2FE1422CF0E1F6
:101338000100A011433CF0010010A0118024B0E18D
:101348008134B00101003001010580131EFF2FE137
:101358000030A0E3010000EA023110E20000604220
:1013680000C0B0E11EFF2F014B3483E30010A0E161
:101378000000A0E30F0000EA012090E11EFF2F010A
:101388000030A0E3050000EA012090E11EFF2F01D4
:10139800023111E20100005A000070E20010E1E29F
:1013A80001C0B0E100C0A0010010A0010000A0032E
:1013B8005B3483E301324302023543E21720A0E3A2
:1013C80001085CE32CC8A02110204222010C5CE338
:1013D8002CC4A0210820422210005CE32CC2A021CA
:1013E8000420422204005CE302204222AC20423066
:1013F800AC2152E0823B43E0060000BA113283E0A0
:1014080010C2A0E1202062E202015CE33002A3E006
:101418000100C0031EFF2FE1202082E211C2A0E1DB
:10142800202062E28C0090E13102A3E0AC0FC00101
:101438001EFF2FE1000053E3000052030700001ACB
:10144800000051E30211A0B30000A0B3020000BAEB
:10145800000050030211E0130000E01367FCFFEAEC
:1014680008D04DE200602DE96C0000EB04E09DE53A
:1014780008D08DE20C00BDE81EFF2FE1000053E309
:10148800000052030400001A000051E3000050035A
:101498000010E0130000E01358FCFFEA08D04DE20A
:1014A80000602DE96E0000EB04E09DE508D08DE2B8
:1014B8000C00BDE81EFF2FE110402DE90010A0E34D
:1014C8000040A0E17E0600EB000050E30300001A94
:1014D8000400A0E11A0000EB1040BDE81EFF2FE158
:1014E800020184E2160000EB000070E20010E1E265
:1014F8001040BDE81EFF2FE1F8402DE90020A0E3D1
:101508000030A0E30070A0E10160A0E1B1FEFFEBB4
:10151800000050E30700A0E10300001A0610A0E154
:10152800230000EBF840BDE81EFF2FE1021186E220
:101538001F0000EB000070E20010E1E2F840BDE897
:101548001EFF2FE1D0402DE915FDFFEB0020A0E3A1
:1015580054309FE50060A0E10170A0E13DFDFFEB84
:10156800CBFEFFEB0040A0E1FAFCFFEB0020A0E37C
:1015780038309FE537FDFFEB0020A0E10130A0E106
:101588000600A0E10710A0E12DFCFFEBC0FEFFEB79
:101598000430A0E10020A0E3002082E10200A0E1E5
:1015A8000310A0E1D040BDE81EFF2FE10000F03D90
:1015B8000000F041D0402DE90020A0E354309FE521
:1015C8000060A0E10170A0E122FDFFEBB0FEFFEB9F
:1015D8000040A0E1DFFCFFEB0020A0E338309FE5EE
:1015E8001CFDFFEB0020A0E10130A0E10600A0E116
:1015F8000710A0E112FCFFEBA5FEFFEB0430A0E111
:101608000020A0E3002082E10200A0E10310A0E195
:10161800D040BDE81EFF2FE10000F03D0000F04182
:10162800F0472DE920609DE50270A0E103A0A0E14C
:101638000040A0E10150A0E1390600EB0030A0E134
:10164800970102E0978089E09A2323E0084054E05C
:10165800099083E00950C5E0300086E8F047BDE80E
:101668001EFF2FE1F0412DE918509DE50240A0E151
:101678000380A0E10060A0E10170A0E1860600EB14
:10168800900808E0902483E0918424E0026056E00A
:10169800033084E00370C7E0C00085E8F041BDE88E
:1016A8001EFF2FE1003090E5010113E3023183139F
:1016B8000231C303030080E01EFF2FE1F04F2DE944
:1016C800000051E30CD04DE22900000A013041E24C
:1016D8000270A0E10050A0E10380A0E10060A0E357
:1016E80004308DE5084086E0A44F84E0C440A0E1C2
:1016F80084A1A0E10AB085E00B00A0E1E8FFFFEBC0
:1017080004309DE50090A0E1040053E108008AE25E
:10171800000085E00B00000AE1FFFFEB070059E13C
:10172800010040E20300009A060054E10B00000AA1
:10173800018044E2EAFFFFEA070050E10300002AC3
:10174800016084E2E6FFFFEA070059E1F5FFFF8A3E
:101758000B00A0E10CD08DE2F04FBDE81EFF2FE199
:1017680000B0A0E30B00A0E10CD08DE2F04FBDE883
:101778001EFF2FE101B0A0E10B00A0E10CD08DE22B
:10178800F04FBDE81EFF2FE1010050E30600000AFC
:10179800020050E30600000A1C309FE5000050E3F9
:1017A8000300A0010000A0131EFF2FE10C009FE51D
:1017B8001EFF2FE108009FE51EFF2FE138230008D8
:1017C800402300084823000830402DE918319FE5E0
:1017D800000053E30CD04DE20040A0E1025041E28A
:1017E8002D00000A0500A0E104108DE200F020E3BE
:1017F800000050E32100000A04109DE50520A0E147
:10180800ADFFFFEB005050E21C00000AA4FFFFEB05
:10181800043095E5010053E3480084E51000000A10
:10182800000053E3230000BA040085E29CFFFFEBAD
:101838000030A0E34C0084E5503084E5003090E5AA
:10184800000053E3200000BA95FFFFEB0030A0E34F
:10185800100084E50300A0E10CD08DE23040BDE823
:101868001EFF2FE10530A0E30020A0E30300A0E164
:10187800102084E50CD08DE23040BDE81EFF2FE13A
:101888000930A0E30020A0E30300A0E1102084E5D4
:101898000CD08DE23040BDE81EFF2FE14C109FE5D3
:1018A8004C309FE50100A0E1031061E0C111A0E107
:1018B80004108DE5D0FFFFEA0130A0E3040085E2C3
:1018C8004C0084E5503084E5DBFFFFEA230CA0E1FF
:1018D8000F0000E2ABFFFFEB000050E3100084E5CF
:1018E8000930A0030030A013D9FFFFEA0000000070
:1018F80078BB060890E60608003090E5010013E37F
:1019080010402DE90040A0E10400001A020013E392
:10191800480080E20A00000AA20300EB003094E5C8
:10192800040013E30A00000A080013E30D00000A8C
:10193800100013E31D0E8402C403000B1040BDE821
:101948001EFF2FE1930300EB003094E5040013E33E
:10195800F4FFFF1AD00084E2960300EB003094E510
:10196800080013E3F1FFFF1A150E84E2950300EB5C
:10197800003094E5EDFFFFEA003090E5000053E306
:10198800000083100300A0011EFF2FE10900A0E35F
:101998001EFF2FE11EFF2FE170402DE90040A0E15E
:1019A8000150A0E1090000EA403095E50100A0E3FC
:1019B800143084E50410A0E10520A0E110C094E5EE
:1019C8000FE0A0E11CFF2FE1080050E30500001A1A
:1019D8000400A0E1401095E57AFFFFEB006050E2BB
:1019E800F0FFFF0A584B01EB070050E3FCFFFF1A1A
:1019F8000600A0E1401095E5E5FFFFEB040085E255
:101A08005D0300EBF0472DE90050A0E10260A0E182
:101A18000040A0E304E081E2F2DF4DE20F00BEE8FF
:101A28000CC08DE20F00ACE80F00BEE80F00ACE878
:101A38000F00BEE80F00ACE80F009EE8040056E176
:101A48000C8095E5189095E50F008CE80500A0E15D
:101A580048109DE508408DE50960A0030A60A013C1
:101A680058FFFFEB0040A0E108708DE2000054E34E
:101A78000E00000A40309DE580028DE84C308DE56F
:101A8800101086E30100A0E30520A0E10530A0E1E5
:101A98000FE0A0E118FF2FE1000050E32900001A31
:101AA8000400A0E1F2DF8DE2F047BDE81EFF2FE160
:101AB80048309DE50710A0E1143085E51E2EA0E30F
:101AC8007A0F8DE2AA4E01EB0510A0E17A2F8DE284
:101AD8000600A0E110C095E50FE0A0E11CFF2FE192
:101AE80020329DE500A0A0E14C308DE580028DE814
:101AF8000610A0E10100A0E30520A0E10530A0E167
:101B08000FE0A0E118FF2FE1000050E30D00001ADC
:101B18000700A0E17A1F8DE21E2EA0E3944E01EB90
:101B280008005AE30500001A0500A0E148109DE5E9
:101B380024FFFFEB0960A0E30040A0E1CAFFFFEA31
:101B480007005AE30300000A0900A0E3F2DF8DE270
:101B5800F047BDE81EFF2FE10400A0E148109DE515
:101B68008BFFFFEB0C008DE2030300EB440090E5D4
:101B78001EFF2FE1F0402DE90050E0E33C3091E5F5
:101B8800403081E504E081E279DF4DE20170A0E1B7
:101B98000040A0E10F00BEE804C08DE20F00ACE8F1
:101BA8000F00BEE80F00ACE80F00BEE80F00ACE87D
:101BB8000F009EE81E6E8DE20F008CE8E05126E5CE
:101BC800070000EA0410A0E10620A0E110C094E597
:101BD8000FE0A0E11CFF2FE1080050E30050A0E156
:101BE8000800001A0400A0E140109DE5F5FEFFEB97
:101BF800000050E3F2FFFF0A0900A0E379DF8DE25D
:101C0800F040BDE81EFF2FE10600A0E139FFFFEB21
:101C1800060055E3F7FFFF1A0400A0E10710A0E152
:101C28005CFFFFEB04E02DE53CE093E50C1080E55C
:101C3800182080E50310A0E140E083E50020A0E340
:101C480004E09DE46EFFFFEA70402DE90C6090E52A
:101C5800143090E5000056E30040A0E10150A0E1F7
:101C6800403081E50200000A0120A0E364FFFFEB99
:101C7800B54A01EB0200A0E30410A0E10520A0E1B1
:101C880010C094E50FE0A0E11CFF2FE1070050E32E
:101C98000400000A080050E30400A0010510A00198
:101CA8003CFFFF0BA84A01EB0600A0E1401095E5B8
:101CB80037FFFFEB040085E2AF0200EB0C3090E544
:101CC800000053E33CC091150020A01340C08115CB
:101CD8004BFFFF1AA6FFFFEA1EFF2FE1083090E531
:101CE800000053E31EFF2F010010A0E10100A0E354
:101CF80013FF2FE1040051E301F19F97090000EA67
:101D08001C1D0008381D0008301D0008381D00087B
:101D1800381D00080F0052E3000053930130A01350
:101D28000030A0030300000A0200A0E31EFF2FE119
:101D38000100A0E31EFF2FE1022180E0042092E5CC
:101D48000300A0E100309DE5002083E51EFF2FE1A0
:101D58000120A0E10010A0E304E02DE514D04DE23D
:101D68000CC08DE20130A0E100C08DE5E0FFFFEB83
:101D78000C009DE514D08DE204E09DE41EFF2FE1E8
:101D8800040051E301F19F97090000EAA81D00082B
:101D9800C41D0008BC1D0008C41D0008C41D00089F
:101DA8000F0052E3000053930130A0130030A0034A
:101DB8000300000A0200A0E31EFF2FE10100A0E3D8
:101DC8001EFF2FE100109DE5001091E5022180E043
:101DD800041082E50300A0E11EFF2FE104E02DE5D9
:101DE80001E0A0E10010A0E314D04DE210C08DE2A4
:101DF80004202CE50130A0E100C08DE50E20A0E113
:101E0800DEFFFFEB14D08DE204E09DE41EFF2FE11E
:101E180070402DE90040E0E33C3092E5403082E537
:101E280004C082E28EDF4DE20060A0E10150A0E133
:101E38000F00BCE85CE08DE20F00AEE80F00BCE8E4
:101E48000F00AEE80F00BCE80F00AEE80F009CE8FA
:101E58000F008EE858408DE5130000EA58008DE227
:101E68000C10A0E30D20A0E1DBFFFFEB58008DE292
:101E78000510A0E10FE0A0E116FF2FE1000050E3FC
:101E88000E00001A0800A0E30D10A0E158208DE212
:101E980010C09DE50FE0A0E11CFF2FE1053040E2F6
:101EA800FB0013E30040A0E10500000A0D00A0E1DB
:101EB80098109DE543FEFFEB000050E3E6FFFF0AA4
:101EC8000940A0E358008DE28AFEFFEB0400A0E180
:101ED8008EDF8DE27040BDE81EFF2FE1F04F2DE947
:101EE8004C6091E50150A0E1001096E524D04DE248
:101EF800046086E2007053E204008DE50290A0E1E0
:101F080014108DE518608DE5038000E27600001A54
:101F18000330A0E30114A0E114108DE51D70CDE598
:101F28001C30CDE5503095E5020058E33860950542
:101F3800013013E26100001A00308DE5583085E267
:101F480008308DE5004096E5000054E35D00000A86
:101F5800020057E304B09605B2B0D611483095E5B3
:101F680001A0CBE30900A0E10F10A0E3B040D61117
:101F7800086086020460861203A08AE073FFFFEB04
:101F880000005AE101B00BE23C00008A0130C4E3D2
:101F980003A08AE00A0050E13800002A014004E268
:101FA8008B4084E1010054E35E00000A5900003AC6
:101FB800020054E34800001A003096E5000058E398
:101FC8000241C3E39000001A04209DE5080012E3D3
:101FD8000120A0030020A013000054E30120820385
:101FE800000052E33000000A000054E31A00000A1F
:101FF80007A0A0E104B086E20470A0E10C808DE5A2
:1020080008409DE5030000EA070053E10380A0E1D2
:1020180004B08BE21000000A0B00A0E110408DE52F
:1020280054FEFFEB10308DE20010A0E10020A0E389
:102038000500A0E1FA4301EB000050E3013088E21B
:10204800F0FFFF0A0740A0E10A70A0E108A0A0E1A4
:1020580004005AE10C809DE57100001A0900A0E116
:102068000D10A0E339FFFFEB10309DE5200085E55A
:10207800286085E5243085E50600A0E3170000EA1E
:10208800014004E28B4084E1010054E34400000A6B
:102098002200003A020054E30F00001A003096E5CF
:1020A800000058E30241C3E35700001A000053E35D
:1020B800046086B2014084E2046186E0A0FFFFEA82
:1020C8000030A0E300308DE5020057E3380000DA65
:1020D8002DFEFFEB000050E33A00000A0900A0E3E0
:1020E80024D08DE2F04FBDE81EFF2FE1020057E338
:1020F8008BFFFFCA0220A0E32138A0E11D30CDE507
:102108000118A0E1FF3003E214108DE51C20CDE595
:10211800036186E082FFFFEA000058E37000001ABE
:10212800046086E286FFFFEA000058E33E00001ADA
:102138000C0096E8020073E3A24FA0E1E6FFFF0A55
:10214800010073E308309DE510308DE55B00000A5F
:10215800040086E207FEFFEB0420A0E10010A0E1E6
:1021680010308DE20500A0E1AD4301EB000050E323
:102178000D00000A0040A0E10D10A0E30900A0E155
:10218800F2FEFFEB020054E3200085E54F00001A41
:102198000530A0E110209DE52C20A3E5243085E53D
:1021A8004C0000EA000058E31F00001A086086E2AD
:1021B80063FFFFEA0900A0E114108DE2FF0100EBC4
:1021C800000050E3C4FFFF1A00309DE5000053E310
:1021D8000800A003C1FFFF0A0F10A0E30900A0E157
:1021E800DAFEFFEB0E10A0E30020A0E10900A0E159
:1021F800F9FEFFEB0900A0E10F10A0E328219FE5FD
:10220800F5FEFFEB0700A0E3B4FFFFEA0900A0E139
:102218000D10A0E320A095E5CCFEFFEB00005AE1ED
:102228001600000A003096E59FFFFFEA0900A0E1CA
:102238000D10A0E3204095E5C4FEFFEB000054E13B
:10224800D9FFFF1A283095E5030056E1D6FFFF1A9B
:102258000600A0E112FDFFEB0F10A0E30020A0E1B3
:102268000900A0E1DCFEFFEB0900A0E10520A0E1E8
:102278000010A0E3D8FEFFEB0700A0E397FFFFEAFA
:10228800283095E5030056E1E5FFFF1A0020A0E39A
:102298002C2085E50420A0E3043086E2284085E56B
:1022A800302085E5343085E5003096E5000053E3BD
:1022B8001A0000BA0130A0E300308DE57CFFFFEA88
:1022C8000900A0E10D10A0E3A0FEFFEB200085E5CA
:1022D80010309DE5243085E5286085E50600A0E3FB
:1022E8007EFFFFEA0600A0E1EDFCFFEB046086E25A
:1022F8000040A0E1386085E50500A0E19D4301EBC1
:10230800000050E374FFFF0A0900A0E10420A0E1E7
:102318000F10A0E3B0FEFFEB0700A0E36FFFFFEA9A
:10232800010084E2000186E0C9FFFFEA8C2D050860
:102338000030A0E3E8FEFFEA0130A0E3E6FEFFEA92
:102348000230A0E3E4FEFFEAF0432DE90040A0E1FB
:1023580045DF4DE2040051E301F19F97060000EAD2
:1023680064250008FC230008842300087C23000857
:1023780094230008030053E39C00000A0200A0E332
:1023880045DF8DE2F043BDE81EFF2FE1100052E368
:1023980000005393F8FFFF1A003090E5100013E394
:1023A800B100001A88508DE20500A0E104208DE5F7
:1023B8002B0100EB0030A0E30100A0E3381094E506
:1023C80004209DE510C312E000C0911503C18517D4
:1023D800013083E204108112040053E3F8FFFF1A6E
:1023E8000500A0E1381084E5180100EB0000A0E327
:1023F800E2FFFFEAFB1003E2010051E3DEFFFF1AF0
:102408000268A0E12668A0E12288A0E1010053E368
:10241800081086E06300000A200051E3D6FFFF8A17
:102428000F0058E39600009A0670A0E1000057E3F9
:10243800050053130190A0130090A003CEFFFF1ACC
:102448000F0058E39600008A002094E5010012E38B
:102458009300000A050053E30130C2E3003084E52D
:10246800BB00000A0400A0E10320C2E3482080E486
:10247800CA0000EB000057E39900000A003094E519
:10248800040013E3AD00001A000059E3B700001A76
:102498000F0058E30400008A88508DE20500A0E18F
:1024A800C20000EB000057E39B00000A08008DE221
:1024B800C20000EB103068E2000053E3381094E5E6
:1024C8000D0000DA88508DE20100A0E183E0A0E170
:1024D800882185E0042042E201304EE2013043E2E7
:1024E80004C090E4010073E304C0A2E5FAFFFF1AF8
:1024F800000057E30E1181E00D00000A100058E3B8
:102508000820A0211020A033113E8DE2822183E013
:10251800622F42E28700A0E10130A0E1042042E2FC
:10252800001181E0040093E4010053E10400A2E5F6
:10253800FBFFFF1A000059E37B00001A0F0058E365
:10254800381084E57A00009A000057E308008D12DD
:102558009800001B0000A0E388FFFFEA000053E397
:1025680085FFFF1A01E0A0E30208A0E138C094E566
:102578002008A0E1041084E21E5310E000509C15CE
:10258800013083E20050811504C08C12100053E31F
:10259800041081E2F7FFFF1A020A12E238C084052C
:1025A80076FFFF0AEAFFFFEA100051E372FFFF8A95
:1025B8000F0058E30390A0916FFFFF8A002094E575
:1025C800010012E34600000A050053E30130C2E3AC
:1025D800003084E50070A0E3A1FFFF1A0400A0E129
:1025E800023083E3483080E4700000EBA9FFFFEA83
:1025F8000278A0E12778A0E12268A0E1063087E010
:10260800100053E35CFFFF8A003090E5080013E3F5
:102618001F00001A88508DE28770A0E10500A0E134
:10262800790000EB000057E3862185E0013047E29E
:1026380038C094E50700000A0C10A0E1042042E22B
:10264800013043E2040091E4010073E30400A2E5D1
:10265800FAFFFF1A07C18CE00500A0E138C084E545
:10266800580000EB0000A0E344FFFFEA1030C3E38A
:10267800D03180E404208DE5790000EB04209DE54D
:1026880047FFFFEA100051E31300009A107041E27F
:1026980065FFFFEA0830C3E3503180E45A0000EBDD
:1026A800DBFFFFEA000057E373FFFF1A0F0058E350
:1026B8000090A0930970A09176FFFF9A0090A0E384
:1026C800000056E30630A0E1381094E50970A01127
:1026D8007BFFFF1A0670A0E197FFFFEA0090A0E3D6
:1026E800B5FFFFEA000059E3EFFFFF0A88508DE2CB
:1026F8000500A0E1290000EB003056E2381094E50F
:102708000070A0136FFFFF1A041081E2381084E5EF
:102718000500A0E11F0000EB8DFFFFEA003056E244
:10272800381094E567FFFF1A81FFFFEA88508DE2B1
:10273800F4FFFFEA88008DE21A0000EB81FFFFEA50
:102748000400A0E10430C3E3D03080E41B0000EBB8
:102758004CFFFFEA0400A0E1023083E3483080E444
:10276800120000EB000057E343FFFF1A49FFFFEA9E
:1027780088008DE2090000EB4DFFFFEA341080E28B
:10278800380091E80520A0E11C002DE9FF0F90E832
:1027980000709DE81CFF2FE1210B90EC1EFF2FE13C
:1027A800210B80EC1EFF2FE1200B90EC1EFF2FE188
:1027B800200B80EC1EFF2FE1200BD0EC1EFF2FE139
:1027C800200BC0EC1EFF2FE10201F0EC0211F0EC2F
:1027D8000221F0EC0231F0EC0241F0EC0251F0EC95
:1027E8000261F0EC0271F0EC0281F0EC0291F0EC85
:1027F80002A1F0EC02B1F0EC02C1F0EC02D1F0EC75
:1028080002E1F0EC02F1F0EC1EFF2FE10201E0EC36
:102818000211E0EC0221E0EC0231E0EC0241E0ECD4
:102828000251E0EC0261E0EC0271E0EC0281E0ECC4
:102838000291E0EC02A1E0EC02B1E0EC02C1E0ECB4
:1028480002D1E0EC02E1E0EC02F1E0EC1EFF2FE146
:102858000181B0FC0191B0FC01A1B0FC01B1B0FC58
:102868001EFF2FE10181A0FC0191A0FC01A1A0FCA9
:1028780001B1A0FC1EFF2FE100E02DE9FF1F2DE9AB
:102888000030A0E30C002DE904108DE2B8FCFFEB4A
:1028980040E09DE548D08DE21EFF2FE100E02DE9E4
:1028A800FF1F2DE90030A0E30C002DE904108DE294
:1028B800E4FCFFEB40E09DE548D08DE21EFF2FE1F0
:1028C80000E02DE9FF1F2DE90030A0E30C002DE901
:1028D80004108DE2F8FCFFEB40E09DE548D08DE266
:1028E8001EFF2FE100E02DE9FF1F2DE90030A0E3D6
:1028F8000C002DE904308DE2C9FCFFEB40E09DE5BA
:1029080048D08DE21EFF2FE100E02DE9FF1F2DE9E1
:102918000030A0E30C002DE904208DE23BFDFFEB25
:1029280040E09DE548D08DE21EFF2FE10830D0E55C
:10293800000053E30400001A0930D0E5000053E317
:102948000800001AB000A0E31EFF2FE1013043E2A7
:102958000830C0E5003090E50324A0E1002080E5C0
:10296800230CA0E11EFF2FE10310A0E3042090E553
:10297800013043E20930C0E504C082E2003092E54C
:1029880004C080E50810C0E5F2FFFFEA0010A0E3EC
:1029980004E02DE514D04DE20C208DE200208DE5F9
:1029A8000130A0E10C20A0E3D1FCFFEB0C009DE579
:1029B80014D08DE204E09DE41EFF2FE1F2FFFFEA50
:1029C800F0412DE90070A0E10150A0E10080A0E3F2
:1029D80010D04DE20500A0E1D3FFFFEBB00050E3BB
:1029E8000040A0E17D00000A801010E21A00000AF1
:1029F800F03000E2800053E35400000A900053E3F3
:102A08002B00000AA00053E33400000AB00053E38F
:102A18004000000AC00053E35E00000AF83000E2FC
:102A2800D00053E30800001A072000E2012082E2E8
:102A3800022782E30700A0E10110A0E30530A0E32C
:102A480040FEFFEB000050E3E1FFFF0A0900A0E3AE
:102A580010D08DE2F041BDE81EFF2FE10C308DE271
:102A68000061A0E100308DE50700A0E10130A0E1A0
:102A78000D20A0E39EFCFFEBFF6006E20C309DE515
:102A8800046086E2400014E3036066100660830079
:102A98000C608DE50010A0E30C308DE200308DE570
:102AA8000700A0E10130A0E10D20A0E3B3FCFFEB9B
:102AB800C7FFFFEA0D3000E20D0053E3E2FFFF0A13
:102AC8000010A0E30C308DE200308DE50F2000E20D
:102AD8000130A0E10700A0E185FCFFEBECFFFFEA75
:102AE8000020E0E1FF3EA0E30010A0E3072002E29F
:102AF8005322A0E1080010E3032002E00129821319
:102B08000130A0E10700A0E10EFEFFEB000050E35A
:102B1800CDFFFF1AAEFFFFEAB10050E34100000A03
:102B2800B20050E34B00000AB30050E36B00000A08
:102B3800FC3000E2B40053E3C3FFFF0A0110A0E336
:102B4800072000E2012082E0022782E3EBFFFFEA90
:102B58000500A0E174FFFFEB0444A0E1044080E11C
:102B6800020954E3B8FFFF0A0010A0E3042AA0E119
:102B78000130A0E12228A0E10700A0E1F1FDFFEB70
:102B8800000050E30442A0E1AFFFFF1A020914E37A
:102B98000180A0138EFFFFEAC60050E35700000A29
:102BA800C70050E35D00000AF83000E2C00053E3BC
:102BB8006600000AC80050E36900000AC90050E333
:102BC800A1FFFF1A0500A0E157FFFFEB0F2000E26D
:102BD800012082E2F00000E2002682E194FFFFEA91
:102BE800000058E30000A01398FFFF1A0C408DE284
:102BF8000810A0E10E20A0E30830A0E100408DE518
:102C08000700A0E13AFCFFEB00408DE50700A0E1DA
:102C18000810A0E10F20A0E30830A0E157FCFFEB6B
:102C28000800A0E189FFFFEA0500A0E13EFFFFEBF5
:102C3800002050E284FFFF0AF01012E282FFFF1A20
:102C48000700A0E10130A0E1BEFDFFEB000050E36A
:102C58007DFFFF1A5EFFFFEA0010A0E30C308DE253
:102C680000308DE50D20A0E30130A0E10700A0E1D0
:102C78001FFCFFEB0500A0E12BFFFFEB800010E33A
:102C88000240A0E30800000A0C309DE57F0000E246
:102C9800103483E00500A0E10C308DE522FFFFEB46
:102CA800800010E3074084E2F6FFFF1A0010A0E35B
:102CB8000C309DE50C208DE27F0000E2813F83E22D
:102CC800104483E000208DE50130A0E10700A0E179
:102CD8000D20A0E30C408DE528FCFFEB3CFFFFEA4C
:102CE8000500A0E110FFFFEB0110A0E30F2000E2B8
:102CF800012082E0F00000E2002682E17FFFFFEA87
:102D08000500A0E108FFFFEB0F2000E2012082E2AE
:102D1800F00000E20310A0E3002682E177FFFFEA5B
:102D28000500A0E100FFFFEB002050E246FFFF0A8C
:102D3800F03012E244FFFF1A0700A0E10410A0E3FC
:102D480080FDFFEB000050E33FFFFF1A20FFFFEA82
:102D58000F2000E2012082E20310A0E30A2882E3A8
:102D680066FFFFEA0500A0E1EFFEFFEBF02000E2BE
:102D78000F3000E2102082E2013083E2022683E174
:102D88002BFFFFEA03C0A0E304E02DE54C3090E5FB
:102D980014D04DE2042093E50CC0CDE507C0D3E57F
:102DA8000224A0E1083083E20100A0E104108DE2D2
:102DB80004208DE50DC0CDE508308DE5FFFEFFEB65
:102DC80014D08DE204E09DE41EFF2FE108402DE9B8
:102DD800F9FEFFEB0840BDE8480090E51EFF2FE133
:102DE80008402DE9F4FEFFEB4C3090E50700D3E5F1
:102DF800000183E0080080E20840BDE81EFF2FE1E3
:102E080008402DE9504601EB08402DE94E4601EBFC
:102E180000C0E0E3020000EA01C0A0E3000000EA0D
:102E280001C0A0E304C02DE58020A0E18130A0E12D
:102E380042CCF0E143CCF0110700000A04D08DE247
:102E4800A3C092E10100301103005250C10FA081CC
:102E5800C10FE031010080131EFF2FE142CCF0E1E9
:102E68000100001A80C4B0E10300001A43CCF0E16D
:102E7800F1FFFF1A81C4B0E1EFFFFF0A04009DE4EF
:102E88001EFF2FE100C0A0E10100A0E10C10A0E1AD
:102E9800FFFFFFEA0F402DE9E0FFFFEB000050E3E2
:102EA800000070430F40BDE81EFF2FE108E02DE54C
:102EB800F7FFFFEB0100A0030000A01308E09DE46A
:102EC8001EFF2FE108E02DE5F1FFFFEB0100A03325
:102ED8000000A02308E09DE41EFF2FE108E02DE597
:102EE800EBFFFFEB0100A0930000A08308E09DE446
:102EF8001EFF2FE108E02DE5E1FFFFEB0100A093A5
:102F08000000A08308E09DE41EFF2FE108E02DE506
:102F1800DBFFFFEB0100A0330000A02308E09DE4E5
:102F28001EFF2FE1000051E3F84F2DE90040A0A15A
:102F38000150A0A100A0A0A3530000BA000053E3D1
:102F48000280A0A10390A0A14B0000BA090055E19E
:102F5800080054010020A0330030A0333B00003AA1
:102F68000910A0E10800A0E1930000EB0510A0E122
:102F780000B0A0E10400A0E18F0000EB0B0060E0CE
:102F880020E040E21970A0E1187E87E120C060E2ED
:102F9800387C87E1070055E11860A0E1060054017C
:102FA8000010A0E10020A0330030A0330500003A53
:102FB8000180A0E3064054E0183EA0E1383C83E1DC
:102FC8000750C5E01820A0E1000050E31F00000AE8
:102FD800A770B0E16660A0E1070000EA064054E08F
:102FE8000750C5E0044094E00550A5E0014094E294
:102FF8000050A5E2010050E20600000A050057E172
:1030080004005601F4FFFF9A044094E00550A5E03F
:10301800010050E2F8FFFF1A20C061E23401A0E18C
:10302800042092E020E041E2150C80E13541A0E166
:10303800350E80E11471A0E1107E87E11061A0E1F6
:103048000530A3E0307C87E1062052E00730C3E07A
:1030580000009AE20100A0130010A0E3004070E213
:103068000050E1E2042022E0053023E0020090E075
:103078000310A1E0F84FBDE81EFF2FE1008072E2C7
:103088000AA0E0E10090E3E2AFFFFFEA004070E24F
:103098000050E1E200A0E0E3A7FFFFEA030051E1EE
:1030A80002005001F0472DE90040A0E10150A0E1E5
:1030B8000280A0E10390A0E10000A0330010A0333B
:1030C8003B00003A0310A0E10200A0E13A0000EB47
:1030D8000510A0E100A0A0E10400A0E1360000EB8B
:1030E8000A3060E020E043E21973A0E1187E87E12E
:1030F80020C063E2387C87E1070055E11863A0E14E
:10310800060054010320A0E10000A0330010A03302
:103118000500003A0180A0E3064054E0181EA0E133
:10312800381C81E10750C5E01803A0E1000053E313
:103138001F00000AA770B0E16660A0E1070000EA7E
:10314800064054E00750C5E0044094E00550A5E06F
:10315800014094E20050A5E2013053E20600000A63
:10316800050057E104005601F4FFFF9A044094E07B
:103178000550A5E0013053E2F8FFFF1A008094E003
:103188000190A5E03432A0E1201062E2200042E282
:10319800153183E135C2A0E1353083E11C72A0E12D
:1031A800137087E11362A0E1337187E1060058E0EC
:1031B8000710C9E0F047BDE81EFF2FE110402DE9D8
:1031C800000051E30200001A050000EB200080E235
:1031D800010000EA0100A0E1010000EB1040BDE899
:1031E8001EFF2FE11C10A0E3010850E32008A021D6
:1031F80010104122010C50E32004A02108104122A4
:10320800100050E32002A0210410412208208FE280
:103218000000D2E7010080E01EFF2FE10403020254
:10322800010101010000000000000000DFF834D0B7
:10323800002103E00C4B5B58435004310B480C4B06
:1032480042189A42F6D30B4A02E0002342F8043BA4
:10325800094B9A42F9D303F071FC51F0C7FA02F016
:1032680075FC704700000520ACE806080000002047
:10327800DC0E0020E00E002070680020FEE7000051
:10328800012300228360C36003610375034BC2718D
:103298001B88026082718380704700BF6C0F00201A
:1032A80070B58CB0144606460D4601A8002109F0F9
:1032B80023FF236807A800210093A3798DF806301F
:1032C800A388ADF80430237D8DF81430E3798DF8A8
:1032D8000730A3680293E36803932369049309F012
:1032E8000BFF0E4B294630461A6806929A798DF8DC
:1032F8001E209A88ADF81C201A7D8DF82C20DA79CA
:103308008DF81F209A680892DA681B6909926A4644
:103318000A930FF087FA0CB070BD00BF780F002039
:10332800C0B2072828BF0720704700002DE9F04FDA
:10333800844B00244FF0FF324FF003081C604FF01D
:10334800060C814B4FF0080A87B0804D1A606FF069
:1033580002027F4B01267F4F4FF002091A606FF07F
:1033680001027D4B2146DFF8A8B21A604FF0040233
:103378007A4B7B4883F800807A4BCDF814C01A70DA
:103388004FF00502784B2C701A704FF00702774BFC
:103398003E7083F800C0764B8BF800901A70754B1E
:1033A800754A83F800A0092313706246534609F052
:1033B800A5FE21469BF800202023704809F09EFEB8
:1033C80021469BF8002040236D4809F097FE2146CE
:1033D8009BF8002080236B4809F090FE21462A784C
:1033E8002346694809F08AFE21462A7853466748E9
:1033F80009F084FE21463A785346654809F07EFE76
:1034080021462A781023634809F078FE21463A7845
:103418001023614809F072FE21462A7820235F486C
:1034280009F06CFE21463A7820235D4809F066FED3
:1034380021462A7840235B4809F060FE21463A7805
:103448004023594809F05AFE464B314657481A78E6
:10345800202309F053FE434B214655481A78202370
:1034680009F04CFE444B214652481A78234609F08D
:1034780045FE3A4B214650481A78202309F03EFE73
:103488004E4D21464E4809F037FE22462346214636
:103498000094019402944B480BF0E0FE2146281D4D
:1034A80009F02AFE2846FFF7EBFE474BDDF814C06B
:1034B8004FF007021C702046444B1E70444B83F8A3
:1034C8000090444B83F80080434B83F800C0434B83
:1034D8001A704FF00402424B1C70424B1E70424B54
:1034E80083F80090414B83F80080414B1C70414B9E
:1034F8001E70414B414E83F80090414B83F8008089
:10350800404B1A704FF005023F4B1A703F4B83F83F
:1035180000C0FFF705FF3368400623F0606300F042
:10352800606520461D43AB0C05F060659B04336065
:10353800FFF7F6FE800400F4E0100543356007B09D
:10354800BDE8F08F140F00205C0F0020FC0E002057
:103558000C0F0020960F0020480F0020080F0020B5
:10356800560F0020760F00201C100020580F002056
:10357800710F0020100F00206E0F0020181000207F
:103588004E0F0020460F00206C0F0020420F002035
:10359800920F0020600F0020000F0020FE0E002078
:1035A800740F0020640F0020060F0020040F002075
:1035B800680F0020940F00204C0F0020780F002087
:1035C800020F0020180F00200A0F0020770F00209C
:1035D8001B100020720F0020FD0E0020400F00205D
:1035E800970F00201A1000206F0F0020900F002066
:1035F800110F0020440F0020620F0020500F002000
:103608006A0F0020700F0020660F0020540F002062
:10361800090F002010B592B080220C461B480021EB
:103628000AF01CF9802207A818491AF0A7FE07A873
:10363800002200231AF02AFE02A8002109F05CFDEE
:1036480001A8FFF71DFE002307A811498DF80A30CD
:1036580001AA104B01941B88ADF80830FFF720FE33
:1036680007A81AF0ECFD421C0B4B0849186892B2E7
:103678004FF0FF3301F066F807A81AF007FF12B001
:1036880010BD07A81AF002FF4FF0C4FC980F0020E5
:10369800849D0508040F00202401002080687047DD
:1036A80070470000044B10B5036000230446836094
:1036B8000DF05CF8204610BDD09D050810B50446F5
:1036C800FFF7F0FF20464EF065FE204610BD0000D3
:1036D8001FB50C4803AC0AF01DF84FF400630A4903
:1036E8002046029309F0FDFB01230848002102AAA5
:1036F8008DE81800064B43F005FB0020054943F010
:1037080095FAFAE71D3600089C100020153B0008C2
:10371800F89D05080000F03F2DE9F04F904B00247C
:103728004FF0FF324FF003091C604FF006088D4B35
:103738004FF0080C87B001251A606FF002028A4B1F
:103748004FF0020A894E21461A606FF00102884B39
:10375800884F1A604FF00402874BDFF8DCB283F819
:103768000090864B86481A704FF00502854BCDF8BD
:1037780014C01A704FF00702834B347083F800802E
:10378800824B3D701A70824B824A83F800C009232D
:103798008BF800A013706346424609F0AFFC21463F
:1037A8009BF8002020237C4809F0A8FC21469BF8C0
:1037B80000204023794809F0A1FC9BF80020DFF89D
:1037C8007CB221468023764809F098FC214632785D
:1037D8002346584609F092FCDDF814C02146327899
:1037E8006346704809F08AFCDDF814C021463A782F
:1037F80063466D4809F082FC2146327810236B48F5
:1038080009F07CFC21463A781023694809F076FCD7
:10381800214632782023674809F070FC21463A781F
:103828002023654809F06AFC214632784023634822
:1038380009F064FC21463A784023614809F05EFCAF
:103848004E4B29465F481A78202309F057FC4B4B0A
:1038580021465D481A78202309F050FC4D4B21463B
:103868005A481A78234609F049FC434B21465848E0
:103878001A782023574E09F041FC2146564809F092
:103888003BFC224623460094019421460294534867
:103898000BF0E4FC2146301D09F02EFCBBF800308B
:1038A8004FF00702F471B38020464D4BB5601C7091
:1038B8004C4BF5601D704C4B356183F800A04B4BA9
:1038C800357583F800904A4B346083F80080494B83
:1038D800B4711A704FF00402474B484E1C70484BA5
:1038E8001D70484B83F800A0474B83F80090474B66
:1038F8001C70474B1D70474B83F800A0464B83F85C
:103908000090464B1A704FF00502454B1A70454B14
:1039180083F80080FFF704FD3368400623F06063F6
:1039280000F0606520461D43AB0C05F060659B0404
:103938003360FFF7F5FC214680043B4C00F4E010AF
:1039480005433A48356009F0CAFA20461BF080F969
:1039580020463749374A07B0BDE8F04F50F090BAD3
:103968003810002080100020301000201D1000208A
:1039780090100020C01000202A100020A110002064
:1039880022100020F51000207C1000209710002045
:103998003410002094100020C21000207210002063
:1039A8006A10002066100020BE100020841000203D
:1039B800BC100020201000209A1000208810002041
:1039C80028100020261000208C1000207A100020DB
:1039D8006E100020A4100020241000203C100020AD
:1039E8002C100020A0100020F410002098100020B7
:1039F8001E100020641000206C100020741000209D
:103A0800C4100020951000208B10002068100020A2
:103A1800C1100020861000208E1000209610002073
:103A28008A10002078100020C81000209C10002068
:103A3800C9EC0108000000202B10002070100020A5
:103A4800002282600CF083BE30B587B005460CF0CA
:103A58001BFF044670B1686820B111490023114A60
:103A680050F03AFC0446A860B8B928460CF06FFE3E
:103A7800AC6012E006A801230B49224640F8043D39
:103A88000A4B009401934FF48A730293084B0393F3
:103A9800234609F0E3FD204600E0012007B030BDD1
:103AA8001C15060868530608099E0508349E050873
:103AB80046A3050810B504460CF031FE18B1A068FD
:103AC800003018BF012010BD38B503680D46044604
:103AD800DB6898472B6828461B69984780B12046C1
:103AE80029460CF056FE606820B106490023064AB4
:103AF80050F0F2FBA06018B923682046DB689847AD
:103B0800204638BD1C1506086853060830B5ADF5C3
:103B1800677D49480AF036F9451C13A81CF0F6FFE2
:103B28002C204FF0A7F844492A4604461AF04EFCC8
:103B3800236820460022996A00238847236820A822
:103B480013AA53F8401C0023214427F03BF820A86F
:103B580026F02CFE2368054620465B6898475DB131
:103B68000CF034FB04460DF01EF92368204613A917
:103B7800DB689847054600E02C4605A80CF01EFEB9
:103B88002E4B05930023069307935DB301A80CF011
:103B980015FE03A821462A4A01AB0CF06DFC05A8C6
:103BA80003A9FFF791FF03A80CF0E0FD01A80CF0B2
:103BB800DDFD05A8FFF77EFFA0B1079837F074FC7C
:103BC80080B108A81F49079C1BF014F9204608A9D2
:103BD80037F060F9044608A81BF072F814B9079882
:103BE80036F0EAF905A8FFF75DFD20A826F0D6FF14
:103BF80013A81CF081FE0DF5677D30BD20464EF000
:103C0800C9FB13E003A80CF0B1FDFFE701A80CF015
:103C1800ADFD03E008A81BF053F8FFE705A8FFF780
:103C280041FDFFE720A826F0B9FFFFE713A81CF025
:103C380063FE4FF0EFF900BF839E0508D09D05088D
:103C480032A305083FA3050808B580B1D0F814329F
:103C580013B10023C0F8143209B1C0F810120123BF
:103C6800027080F8FC3102F06FF8002008BD0220D5
:103C780008BD19B1C0F8141200207047022070471F
:103C880008B502F091F8002008BD08B5D0F8143244
:103C98000BB9022008BD1B6898470028F9D108BD58
:103CA80008B5D0F814325B689847002008BD38B5CD
:103CB80000F502750446284603F079FC012394F8C0
:103CC8000812C4F8F431B4F80E32C4F8F83101F02F
:103CD8001F03012B0CD006D3022B0ED120462946F8
:103CE80003F0B4FD0EE02046294603F07FFC09E00E
:103CF8002046294603F092FD04E0204601F08001A9
:103D080002F06AF8002038BD10B5044609BBD0F8A7
:103D1800F431032B26D1D0F80C11D0F81031994288
:103D28000AD9C91A8B42C0F80C1128BF0B46114694
:103D38009AB202F0BEFE15E0D0F814321B6923B126
:103D480090F8FC21032A00D19847204602F0BAFED9
:103D580008E0D0F814329B6923B190F8FC21032ABB
:103D680000D19847002010BD70B504460E460029C2
:103D78003DD1D0F8F431022B31D1C569036A9D4297
:103D880008D9EB1A1146C3619AB202F079FE2046AF
:103D9800314612E08269B2FBF3F503FB15258DB9B4
:103DA8009A420FD3D0F8F8319A420BD22A4602F041
:103DB80067FE20462946C4F8F8510A460B4602F029
:103DC8003AF80CE0D4F81432DB682BB194F8FC21F3
:103DD800032A01D120469847204602F07EFE94F837
:103DE8000032012B0CD1002384F8003208E0D0F80F
:103DF80014325B6923B190F8FC21032A00D198475B
:103E0800002070BD002138B5044640250A464023ED
:103E180001F0D1FF2B46C4F8105120468021002222
:103E280001F0C9FF0123256284F8FC31D4F8183267
:103E38002BB1D4F81432204621795B6898470020CA
:103E480038BD01740020704790F8FC3180F8FD31CE
:103E5800042380F8FC310020704790F8FD3180F889
:103E6800FC310020704708B590F8FC21032A04D1E2
:103E7800D0F81432DB6903B19847002008BD002050
:103E8800704700207047002070470122017908B56B
:103E980080F8FC21D0F8142252689047002008BD11
:103EA8007047FEE7FEE7FEE7FEE7704708B501F05A
:103EB8000DFB00F02BF8BDE8084007F067BF0000D5
:103EC800014802F073BF00BF605F002008B503F02F
:103ED800EBFE002008BD30B5B0F9084087B0028A73
:103EE8000B46842C14BF0334002490E8220000946D
:103EF80005A80024019028460294039403F042FE8A
:103F080001280CBF0598204607B030BD08B504F05D
:103F1800A5F9012803D0BDE8084002F0F5BC08BDAA
:103F280038B51546026C044632B9056845BB406889
:103F380004F0EAF9656024E06DB9806851F01AFB75
:103F4800A268236C134462689342A36018D3236861
:103F58002846A36015E0C06851F00CFB236CE268AA
:103F68005B4221681A448A42E2603EBF62689B183D
:103F7800E360022D04D1A36B13B1A36B013BA363D0
:103F88000020A36B0133A36338BD026C034610B550
:103F980072B1C4681444C4604068844228BF186879
:103FA800BDE8104028BFD8600846D96851F0E2BA89
:103FB80010BD10B5044602F039FCA36C002B0CDDD3
:103FC800636A53B104F1240004F0A2F808B104F0C4
:103FD80039F9A36C013BA364EFE74FF0FF33A36407
:103FE80002F04AFC02F022FC636C002B0CDD236912
:103FF80053B104F1100004F08BF808B104F022F971
:10400800636C013B6364EFE74FF0FF336364BDE823
:10401800104002F031BC000038B50D46044650B9D6
:104028004FF0500372B683F31188BFF36F8FBFF35D
:104038004F8F62B6FEE702F0F9FB206CE36B226853
:104048004343A260D1181B1A134461600021E36046
:104058004FF0FF33A1636364A36485B92369B3B1E7
:1040680004F1100004F054F8012810D14FF08052E8
:10407800094B1A60BFF34F8FBFF36F8F07E004F14E
:10408800100001F090F904F1240001F08CF902F01D
:10409800F3FB012038BD00BF04ED00E0F8B50D4684
:1040A8001746064650B94FF0500372B683F311888D
:1040B800BFF36F8FBFF34F8F62B6FEE711B148436E
:1040C800013000E00846543000F0CCFA044630B124
:1040D8000DB920600EE000F1540303600AE04FF0D0
:1040E800500372B683F31188BFF36F8FBFF34F8FFE
:1040F80062B6FEE7E663204625640121FFF78CFFE0
:1041080084F850702046F8BD10B50C4650B94FF0F1
:10411800500372B683F31188BFF36F8FBFF34F8FCD
:1041280062B6FEE781420AD94FF0500372B683F3B4
:104138001188BFF36F8FBFF34F8F62B6FEE7002180
:104148000222FFF7ABFF08B1846310BD4FF05003A4
:1041580072B683F31188BFF36F8FBFF34F8F62B6C8
:10416800FEE700002DE9FF41884601921F460446FC
:1041780050B94FF0500372B683F31188BFF36F8FB5
:10418800BFF34F8F62B6FEE761B9036C53B14FF0CE
:10419800500372B683F31188BFF36F8FBFF34F8F4D
:1041A80062B6FEE7022F0DD1E36B012B0AD04FF068
:1041B800500372B683F31188BFF36F8FBFF34F8F2D
:1041C80062B6FEE704F04AF810B9019E0EB16EE03F
:1041D800002602F02BFBA26BE36B9A4201D3022F5D
:1041E8001AD1204641463A46FFF79AFE636A33B130
:1041F80004F1240003F08CFF012809D100E038B154
:104208004FF08052314B1A60BFF34F8FBFF36F8F5F
:1042180002F032FB012055E0019D15B902F02CFB9C
:1042280043E016B902A803F0B7FF02F025FB03F03C
:1042380077FD02F0FBFA636C013301D1002363645C
:10424800A36C013301D10023A36402F015FB02A87B
:1042580001A903F0B9FF18BB02F0E8FAA66BE56BF9
:1042680002F00AFBAE4215D104F11000019903F0E7
:1042780015FF2046FFF79DFE03F0E6FD08B1012675
:10428800A7E74FF08052114B1A60BFF34F8FBFF36F
:104298006F8FF4E72046FFF78CFE03F0D5FDEEE7BD
:1042A8002046FFF786FE03F0CFFD00200AE04FF01E
:1042B800500372B683F31188BFF36F8FBFF34F8F2C
:1042C80062B6FEE704B0BDE8F08100BF04ED00E08F
:1042D80070B50D46044650B94FF0500372B683F3DB
:1042E8001188BFF36F8FBFF34F8F62B6FEE7036C81
:1042F80053B14FF0500372B683F31188BFF36F8F39
:10430800BFF34F8F62B6FEE703680BB943684BBB38
:1043180002F076FBEFF311864FF0500372B683F389
:104328001188BFF36F8FBFF34F8F62B6A26BE36B39
:104338009A4215D2A36B0133A363A36C01330AD14C
:10434800636A5BB104F1240003F0E2FE30B12DB1E1
:104358000120286011E0A36C0133A36401200CE064
:1043680000200AE04FF0500372B683F31188BFF3C0
:104378006F8FBFF34F8F62B6FEE786F3118870BD6B
:104388002DE9FF410F4601929846044650B94FF077
:10439800500372B683F31188BFF36F8FBFF34F8F4B
:1043A80062B6FEE761B9036C53B14FF0500372B6C1
:1043B80083F31188BFF36F8FBFF34F8F62B6FEE7A9
:1043C80003F04CFF10B9019E0EB183E0002602F005
:1043D8002DFAA36B63B320463946E568FFF7D5FD90
:1043E800B8F1000F10D1A36B013BA363236813B985
:1043F80003F0DEFF60602369B3B104F1100003F03D
:1044080087FE012810D107E0636AE56063B104F113
:10441800240003F07DFE38B14FF08052344B1A600F
:10442800BFF34F8FBFF36F8F02F026FA01205CE0D5
:10443800019D15B902F020FA4AE016B902A803F066
:10444800ABFE02F019FA03F06BFC02F0EFF9636CB3
:10445800013301D100236364A36C013301D100232C
:10446800A36402F009FA02A801A903F0ADFE50BB4B
:1044780002F0DCF9A56B02F0FFF9F5B9236833B94E
:1044880002F0D4F9606803F0F9FE02F0F5F904F1DE
:104498002400019903F002FE2046FFF78AFD03F08D
:1044A800D3FC08B1012692E74FF08052104B1A60F6
:1044B800BFF34F8FBFF36F8FF4E72046FFF779FD07
:1044C80003F0C2FCEEE72046FFF773FD03F0BCFCE7
:1044D80000200AE04FF0500372B683F31188BFF34F
:1044E8006F8FBFF34F8F62B6FEE704B0BDE8F0816F
:1044F80004ED00E00023074A02EBC301496881424A
:1045080003D1002142F8331070470133082BF2D150
:10451800704700BF5463002010B5044650B94FF0EF
:10452800500372B683F31188BFF36F8FBFF34F8FB9
:1045380062B6FEE7FFF7DEFF2046BDE8104000F058
:104548009DB8000070470000026882B0074B9A428D
:104558000AD103F50A331A6C42F010021A641B6C74
:1045680003F010030193019B02B070470010004054
:104578002E4A0368904212D0B0F1804F0FD0A2F5B6
:104588007C4290420BD002F58062904207D002F53F
:104598008062904203D002F57842904218D14A686E
:1045A80023F070031343214A904237D0B0F1804F73
:1045B80034D01F4A904231D002F5806290422DD00B
:1045C80002F58062904229D002F57842904225D0C7
:1045D800184A904222D002F5806290421ED002F51D
:1045E800806290421AD0A2F59832904216D002F515
:1045F8008062904212D002F5806290420ED0036031
:104608008B68C3620B688362084B98420BD003F532
:104618008063984207D001234361704723F44073B5
:10462800CA681343EBE70B690363F4E70000014032
:10463800000400400040014010B5044680B190F8E5
:1046480039300BB9FFF780FF02232068211D84F859
:104658003930FFF78DFF0123002084F8393010BD71
:10466800012010BD10B5044603F05AFB204650F057
:10467800D5FA044603F0E8FB204610BD10B5044601
:1046880040B103F04DFB204650F0D8FABDE8104089
:1046980003F0DABB10BD0000704700007FB5026868
:1046A8000E4B9A4217D103F5F6330D4801A91A6C3F
:1046B80042F400221A6402221B6C0292012203F4C3
:1046C800002303920093009B032301930493082380
:1046D800059300F075FB07B05DF804FB004C004043
:1046E800000002402DE9F041069D04460E4617469B
:1046F80098462268D0693040831B58425841B842D6
:104708001DD1691CF6D09DB9236803201A6822F4CC
:10471800D0721A609A6822F001029A60202384F805
:10472800693084F86A30002384F86830BDE8F08185
:1047380000F0D4FEC8EB0000A842DAD3E4E700207A
:10474800BDE8F0812DE9F3411F4690F86930044631
:104758000D46202B164647D1002943D0002A41D0C8
:1047680090F86830012B3FD0012380F8683000238F
:10477800C366212380F8693000F0B0FE8046A4F8B3
:104788005060A4F85260B4F85220EAB1013A009798
:1047980020468021A4F8522043460022FFF7A2FFBA
:1047A80008B1032021E0A3682268B3F5805F07D130
:1047B80023692BB935F8023BC3F308039362E2E798
:1047C8002B7801359362DEE7009720464021434667
:1047D800FFF788FF0028E4D1202384F8680084F8D4
:1047E800693002E0012000E0022002B0BDE8F0815B
:1047F80038B504460568C369A26821692868114369
:1048080062690A4342EA0301894A0240206A0A436C
:104818002A606A6822F44051E2680A43A1696A6022
:104828000143AA6822F430620A43AA60814A954289
:1048380007D102F594328049D2F8902002F00302A1
:1048480009E07E4A95420CD102F5FA327C49D2F849
:10485800902002F00C02B3F5004F8A5C40F0BA8059
:1048680072E0784A95420DD102F5F832D2F89020DC
:1048780002F03002102A00F086805DD9202A78D014
:10488800302A0EE0704A95420DD102F5F632D2F880
:10489800902002F0C002402A75D04DD9802A68D0F5
:1048A800C02A7CD089E0694A95420FD102F5F432DA
:1048B800D2F8902002F44072B2F5807F63D03BD9E1
:1048C800B2F5007F55D0B2F5407FEAE7604A9542DD
:1048D80012D102F59232D2F8902002F44062B2F579
:1048E800806F50D002D8002A3DD066E0B2F5006F44
:1048F8003FD0B2F5406FD4E7564A95420FD102F542
:10490800E032D2F8902002F44052B2F5805F3AD0FB
:1049180012D9B2F5005F2CD0B2F5405FC1E74E4A1C
:1049280095424AD102F5DE32D2F8902002F4404294
:10493800B2F5804F27D001D87AB13EE0B2F5004FEA
:1049480017D0B2F5404FACE7082A39D8DFE802F0B3
:10495800080E14381E3838382A00B3F5004F42D1F3
:1049680001F060F814E0B3F5004F3FD101F072F8A0
:104978000EE0B3F5004F3CD16068420802F1F473D1
:1049880003F5904314E0B3F5004F39D100F058FF18
:1049980063685A0802EB4000B0FBF3F30AE0B3F592
:1049A800004F37D16068420802F5F41303F59063AD
:1049B800B3FBF0F39BB2002004E0B3F5004F35D110
:1049C8000120002323F00F01C3F3420322680B43A5
:1049D800D36038BD082A29D8DFE802F005080B287B
:1049E800122828281C0001F01DF80BE001F032F80D
:1049F80008E061684A0802F5740303F510530FE0F4
:104A080000F01EFF636800EB5300B0FBF3F080B2C8
:104A1800E86009E061684A0802F5742303F5107339
:104A2800B3FBF1F39BB2EB60002038BD012038BD29
:104A3800F369FFEF0010014051A30508004400404E
:104A480055A3050800480040004C004000500040B5
:104A58000014014000780040007C0040436ADA07F7
:104A680010B506D50468626822F40031826A0A43E8
:104A780062609C0706D50468626822F48031C26AC5
:104A88000A436260590706D50468626822F48021E7
:104A9800026B0A4362601A0706D50468626822F44A
:104AA8000041426B0A436260DC0606D50468A268CE
:104AB80022F48051826B0A43A260990606D50468E5
:104AC800A26822F40051C26B0A43A2605A0610D5AC
:104AD8000168046C4A68B4F5801F22F4801242EA27
:104AE80004024A6005D14A6822F4C004426C224399
:104AF8004A601B0606D501684B6823F40022836CC4
:104B080013434B6010BD73B500260446C66600F01B
:104B1800E5FC236805461B681A0704D423681B684C
:104B28005B071AD50DE06FF07E4320464FF4001165
:104B3800324600932B46FFF7D5FD0028EED0032020
:104B480013E06FF07E4320464FF48001002200936B
:104B58002B46FFF7C7FD0028F1D12023002084F859
:104B6800693084F8680084F86A3002B070BD10B506
:104B7800044660B390F8693003F0FF021BB980F86F
:104B88006820FFF78BFD22682423204684F86930CB
:104B9800136823F001031360FFF72AFE012816D0DB
:104BA800636A13B12046FFF759FF236820465A6805
:104BB80022F490425A609A6822F02A029A601A688F
:104BC80042F00102BDE810401A60FFF79CBF0120C7
:104BD80010BD00207047002070470000034B0020E4
:104BE8000A6858609A6001221A737047446300206B
:104BF80038B50B4C00210B4B40220B4D20461C6056
:104C080050F0C6FD00222846084900F094FB2846CB
:104C1800214600F098FB0122054B00201A7038BD90
:104C280068680020446300209463002040630020EB
:104C3800F610002038B50F4D6B68AC68E41A8C424A
:104C4800A8BF0C46002C10DD29682246194450F0F4
:104C580091FC6B68AA68234493426B6007DB0023CE
:104C680005482B7300F08CFB01E0002038BD20467E
:104C780038BD00BF4463002094630020014B1878BE
:104C8800704700BFF610002008B5002209490A48FD
:104C9800FEF7DAFF09490848FEF7EBFF064808491E
:104CA80000F042FB0448FEF7EBFF064B1B78002B95
:104CB800FBD008BD3001002094630020580000207C
:104CC80004000020F61000202DE9F7430D68804607
:104CD8000E461746B5F5007F18D900242B1B02A9EC
:104CE80008EB04003A46B3F5007FA8BF4FF4007301
:104CF80041F8043DFFF7E8FF18B9019B1C443460F4
:104D08001EE004F50074AC42E8D317E00E4BD3F86C
:104D18001892D9F81442002CFBD10B484146AAB28C
:104D280000F009FB084800F014FB10B1356020467C
:104D380006E01FB9D9F81432002BFBD101203560E9
:104D480003B0BDE8F08300BF94630020F8B50746C0
:104D58000E460C684AB10C4B1B7B1BB12146FFF772
:104D680069FF00E0184604460BE01546A54208D244
:104D7800054B187B18B17819611BFFF75BFF0544D9
:104D8800F4E734600120F8BD4463002010B5094CF5
:104D9800237B6BB108480021402250F0F9FC002326
:104DA80006486360A3602373BDE8104000F0E8BACA
:104DB80010BD00BF44630020686800209463002091
:104DC8002DE9F34100220F680123934003EA070508
:104DD8009D4240F0D4804C6824F0100CBCF1020FC6
:104DE80014D14FEAD20E02F007064FF00F0800EB7D
:104DF8008E0EB600DEF8203008FA06F823EA080816
:104E08000B69B34048EA0303CEF820304FEA420E5C
:104E1800032306680CF1FF3C03FA0EF3BCF1010F03
:104E28006FEA030303EA060804F0030606FA0EF61F
:104E380048EA0606066011D8866803EA060CCE68BA
:104E480006FA0EF64CEA06068660466826EA050C5F
:104E5800C4F3001696404CEA06064660C66803EAA4
:104E6800060C8B6803FA0EF64CEA0603C360E300EF
:104E780040F18580454B02F0030C5E6C4FEA8C0CC8
:104E880046F480465E6422F003065B6C06F18046B9
:104E980003F4804306F59C360193019B0F23D6F853
:104EA80008E003FA0CF32EEA030E394B984226D099
:104EB80003F58063984224D003F58063984222D09A
:104EC80003F58063984220D003F5806398421ED092
:104ED80003F5806398421CD003F5806398421AD08A
:104EE80003F58063984218D003F58063984216D082
:104EF80003F5806398420CBF09230A2310E00023BE
:104F08000EE001230CE002230AE0032308E0042357
:104F180006E0052304E0062302E0072300E0082357
:104F280003FA0CF314F4803F43EA0E03DFF864E05D
:104F3800B3606FEA0506DEF8003014BF2B43334038
:104F480014F4003FCEF80030DEF80430DFF844E017
:104F580014BF2B43334014F4801FCEF80430DEF81E
:104F6800083014BF2B433340A402CEF80830DEF8D3
:104F78000C3054BF06EA03051D43064BDD600132C1
:104F8800102A7FF421AF02B0BDE8F081003802405A
:104F980000000240003C014070B50468606A19B91D
:104FA80040EA0243A36215E0A36A002600EB13431C
:104FB800F0B24D1E0136A84206DA403004EB8000FC
:104FC800406803EB1043F3E73F3143EA024304EB45
:104FD80081046360002070BD036800205962704737
:104FE800012102680346C0F8B813002083F8B00313
:104FF800936943F000639361536D43F0805343F02A
:1050080003035365704700007047000010B504465D
:1050180011B1012916D010BD036A33B100F032FD79
:10502800124A136923F0060313612268D4F8BC03FB
:10503800D2F8003E23F00103BDE81040C2F8003E5C
:10504800FEF70BBF0268D0F8BC03D2F8003E43F06D
:105058000103C2F8003EFEF7F7FE236A23B1034AB4
:10506800136943F00603136110BD00BF00ED00E0B3
:10507800074A00F00700D36823F4E0631B041B0C05
:1050880043F0BF6343F4003343EA0023D36070471F
:1050980000ED00E0194BDB68C3F3022370B5C3F1E0
:1050A80007051C1D042D28BF0425062C4FF00104FC
:1050B8008CBF033B0023002804FA03F604FA05F426
:1050C80004F1FF3406F1FF3601EA040102EA0602A0
:1050D80001FA03F142EA01024FEA021205DA00F08E
:1050E8000F00D2B2064B1A5470BD00F16040D2B224
:1050F80000F5614080F8002370BD00BF00ED00E0BE
:1051080014ED00E04109012300F01F00024A83402A
:1051180042F82130704700BF00E100E00138B0F1EB
:10512800807F0AD2064BF021064A5860002082F898
:105138002310072298601A6070470120704700BF4B
:1051480010E000E000ED00E0044B04281A680CBFF2
:1051580042F0040222F004021A60704710E000E0F6
:10516800D0F818321BB10020C3F81402704702208F
:105178007047D0F81C3210B5D0F818425BB194F8DB
:105188000002FF2807D09B68214694F8012298471F
:10519800FF2384F80032002010BD00004323038061
:1051A80000487047140000204323038000487047DC
:1051B800E000002043230380004870479C00002043
:1051C8000A230380004870479000002038B5054640
:1051D800D0F8184200F036FED5F81832C4F80C02A0
:1051E8004BB1D5F81C3204F50371D4F80402DB681E
:1051F8009847002038BD022038BD0000F8B50F7868
:1052080006460C46D0F8185217F0600320D0202B21
:1052180025D1CA884B78AAB1390609D5D0F81C120D
:1052280018468F682946B84730462946E28814E070
:1052380085F800322946E38885F80132E28801F0D2
:1052480028FC0CE0D0F81C0284681846A04706E049
:105258004B780A2B03D10349012201F003FC0020FB
:10526800F8BD00BFF710002010B50446812100F0FA
:10527800ACFD0121204600F0A8FD2046822100F067
:10528800A4FDD4F8183253B1D4F81C325B6898479F
:10529800D4F818024FF0D2FC0023C4F818320020CA
:1052A80010BDF8B5037C0446812102224BB94FF4A6
:1052B800007300F080FD2046012102224FF40073A4
:1052C80006E0402300F077FD20460121022240231A
:1052D80000F071FD822103220823204600F06BFDB7
:1052E8004FF407704FF09AFC0646C4F81802C8B18C
:1052F800D4F81C3200251B689847277CC6F814523E
:105308002046C6F818520121D6F804222FB94FF4C6
:10531800007300F090FD3846F8BD402300F08BFD87
:105328002846F8BD0120F8BD19B1C0F81C120020AC
:10533800704702207047D0F818320020C3F80812CE
:10534800C3F810227047D0F818320020C3F80412AE
:10535800704738B5D0F8184274B1D4F81452012304
:1053680065B9C4F814328121D4F80822B4F810328F
:1053780000F05AFD284638BD022038BD184638BD11
:10538800D0F8183210B563B1047C0121D3F8042297
:1053980014B94FF4007300E0402300F04CFD0020E6
:1053A80010BD022010BD00F108034FF0FF3243602A
:1053B800C3600361002382600360704700230361B8
:1053C800704743689A684B608A609A685160996030
:1053D800036808610133036070470A68531C30B5DD
:1053E80001D1036907E000F108035C68256895426C
:1053F80001D82346F9E75A684A6091608B60596082
:10540800036808610133036030BD4168826803693D
:105418008A60826851605968814208BF5A600022D8
:1054280002611868013818607047704708B5032092
:10543800FFF71EFE00216FF00B000A46FFF72AFE59
:1054480000216FF00A000A46FFF724FE00216FF0E2
:1054580009000A46FFF71EFE00216FF004000A4605
:10546800FFF718FE00216FF003000A46FFF712FE4F
:105478006FF001000F210022FFF70CFE4FF0FF3004
:105488000F210022BDE80840FFF704BE084B10B505
:10549800044618684FF47A73B0FBF3F0FFF73EFE4A
:1054A8004FF0FF3021460022FFF7F4FD002010BD29
:1054B8002C01002008B50320FFF7DAFD0F20FFF7C5
:1054C800E5FFFFF7B3FF002008BD0000024A13689C
:1054D80001331360704700BF3C630020014B18681C
:1054E800704700BF3C63002013B50190FFF7F6FF3B
:1054F8000446FFF7F3FF019B001B9842F9D302B063
:1055080010BD0000036873B50446D80703D42368A8
:10551800990753D4A5E0984B9A6802F00C02042A24
:1055280007D09A6802F00C02082A0BD15B685A026D
:1055380008D5914B1B689B03E9D56368002BE6D11E
:10554800012078E162688C4BB2F5803F13D05AB9DC
:105558001A6822F480321A601A6822F480221A60CB
:10556800FFF7BCFF054624E0B2F5A02F1A6806D164
:1055780042F480221A601A6842F4803205E022F46C
:1055880080321A601A6822F480221A60FFF7A6FF98
:105598000546794B1B689E03B9D4FFF79FFF401B54
:1055A8006428F6D9032046E1FFF798FF401B6428DA
:1055B800F8D8714B1B689803F6D4A8E76E4B9A6825
:1055C80012F00C0F07D09A6802F00C02082A16D1C4
:1055D8005B68590213D4684B1A68920702D5E268CF
:1055E800012AADD11968F82090FAA0F02269B0FA22
:1055F80080F021F0F80182400A431A6031E0E26845
:105608005D4BEAB11A6842F001021A60FFF766FFC3
:105618000546594803689B0705D4FFF75FFF401B01
:105628000228F6D9BEE70268F82191FAA1F12369A8
:10563800B1FA81F122F0F8028B401343036010E0C5
:105648001A6822F001021A60FFF748FF05464A4B24
:105658001B689E0705D5FFF741FF401B0228F6D9B6
:10566800A0E723681D0703D4236858074AD524E018
:105678006269414B82B15A6F42F001025A67FFF7E3
:105688002DFF05463C4B5B6F9907EDD4FFF726FFCE
:10569800401B0228F6D985E75A6F22F001025A67A3
:1056A800FFF71CFF0546344B5B6F9A07DCD5FFF705
:1056B80015FF401B0228F6D974E72F4B1A6C42F0ED
:1056C80080521A641B6C2D4A03F080530193019B8E
:1056D800136843F480731360FFF700FF0546274BF8
:1056E8001B68DB0512D5A268234B012A14D11A6F57
:1056F80042F001021A67FFF7F1FE05461E4B1B6FC9
:105708009E0724D5A16900293AD179E0FFF7E6FE82
:10571800401B6428E3D945E75AB91A6F22F0010201
:105728001A671A6F22F004021A67FFF7D7FE0546B8
:105738001DE0052A1A6F03D142F004021A67D6E762
:1057480022F001021A671A6F22F00402D2E7FFF76B
:10575800C5FE41F28833401B9842CFD922E7FFF7B4
:10576800BDFE41F28833401B98423FF61BAF024B07
:105778001B6F9807F3D4C5E700380240007000405B
:105788002E4B9A6802F00C02082A3FF4D9AE1A6828
:10579800022922F080721A6040D1FFF79FFE054669
:1057A8002648036899012DD447F6C07696FAA6F6DE
:1057B8004FF44035B6FA86F695FAA5F54FF07061C4
:1057C800B5FA85F591FAA1F1E369B1FA81F1226A96
:1057D8001A43636AB3401A43A36A5B08013BAB40B0
:1057E8001343E26A8A4013434360036843F08073BB
:1057F8000360FFF773FE0446104B1B689A0107D538
:10580800002018E0FFF76AFE401B0228C8D9C9E645
:10581800FFF764FE001B0228EED9C3E6FFF75EFE21
:105828000446064B1B689B01EAD5FFF757FE001B91
:105838000228F6D9B6E602B070BD00BF00380240B3
:1058480010B51C4CA36803F00C03042B2ED0082BB6
:105858002ED1626847F6C07102F03F03626812F405
:10586800800F626891FAA1F147F6C070B1FA81F130
:1058780000EA020008BF104A20FA01F016BF0F49DB
:10588800B2FBF3F2B1FBF3F202FB00F3094A5068F2
:105898004FF4403292FAA2F2B2FA82F200F44030A7
:1058A800D04001304000B3FBF0F010BD034810BDFC
:1058B800014810BD003802400024F40000127A00AC
:1058C800514A136803F00F03994270B504460D4618
:1058D8000AD82168880713D54C48836823F0F0025A
:1058E800A368134383600BE0136823F00F030B4393
:1058F8001360136803F00F038B42EAD0012070BDD8
:10590800C90706D4404A136803F00F039D4247D3E2
:1059180050E062683D4B012A196802D111F4003F3A
:1059280006E0022A02D111F0007F01E011F0020F17
:10593800E4D0996821F003010A439A60FFF7CEFD8D
:1059480063680646012B0ED1304B9B6803F00C03AD
:10595800042BD7D0FFF7C2FD41F28833801B984251
:10596800F2D9032070BD022B14D1284B9B6803F099
:105978000C03082BC6D0FFF7B1FD41F28833801B1A
:105988009842F2D9EDE7FFF7A9FD41F28833801B71
:105998009842E6D81D4B9B6813F00C0FF3D1B1E782
:1059A800136823F00F032B431360136803F00F03EE
:1059B800AB42A3D121684A0706D51448836823F46B
:1059C800E052E368134383600B0707D50F4A216948
:1059D800936823F4604343EAC1039360FFF730FF01
:1059E8000A4BF0229B6892FAA2F2B2FA82F203F012
:1059F800F003D340064AD35CD840064B18600F200A
:105A0800FFF744FD002070BD003C02400038024012
:105A1800CDA305082C010020014B1868704700BF72
:105A28002C010020084B4FF4E0529B6892FAA2F236
:105A3800B2FA82F203F4E053D340044AD35C044A36
:105A48001068D840704700BF00380240DDA3050841
:105A58002C010020084B4FF460429B6892FAA2F296
:105A6800B2FA82F203F46043D340044AD35C044A96
:105A78001068D840704700BF00380240DDA3050811
:105A88002C0100202E4B1A6C42F0805230B51A645B
:105A9800B5B01B6C022407A803F080530093009B49
:105AA800284B1A6842F440421A601B680D9403F4AC
:105AB800404311940193019B012307934FF48033D2
:105AC80008934FF480030E9308230F934FF4D87371
