:020000040800F2
:1000000000000220B9270008915600089356000806
:100010009556000897560008995600080000000001
:100020000000000000000000000000000938000887
:100030009B56000800000000953800089D560008F7
:1000400009280008092800080928000809280008CC
:1000500009280008092800080928000809280008BC
:1000600009280008092800080928000809280008AC
:10007000092800080928000809280008092800089C
:10008000092800080928000809280008092800088C
:10009000092800080928000809280008092800087C
:1000A000092800080928000809280008092800086C
:1000B000092800080928000809280008092800085C
:1000C000092800080928000809280008092800084C
:1000D000092800080928000809280008092800083C
:1000E000092800080928000809280008092800082C
:1000F000092800080928000809280008092800081C
:10010000092800080928000809280008092800080B
:1001100009280008092800080928000809280008FB
:1001200009280008092800080928000809280008EB
:1001300009280008092800080928000809280008DB
:10014000092800080928000809280008AD560008F9
:1001500009280008092800080928000809280008BB
:1001600009280008092800080928000809280008AB
:1001700009280008092800080928000800000000D4
:08018000092800080928000805
:1001880008B540F66C60074BC2F200001B1A062B3C
:1001980000D808BD40F20003C0F20003002BF8D0DD
:1001A8009847F6E76F0E002008B540F66C6040F6F9
:1001B8006C63C2F20003C2F200001B1A9B1003EB2F
:1001C800D373591000D108BD40F20002C0F20002FA
:1001D800002AF8D09047F6E710B540F67064C2F2EE
:1001E8000004237873B9FFF7CBFF40F20003C0F295
:1001F80000032BB14AF6C070C0F60400AFF30080CC
:100208000123237010BD00BF08B540F20003C0F2FF
:1002180000034BB14AF6C07040F67461C0F60400A2
:10022800C2F20001AFF3008040F66C60C2F2000039
:1002380003682BB140F20003C0F2000303B19847F2
:10024800BDE80840B0E700BF844641EA000313F068
:1002580003036DD1403A41D351F8043B40F8043BC5
:1002680051F8043B40F8043B51F8043B40F8043B88
:1002780051F8043B40F8043B51F8043B40F8043B78
:1002880051F8043B40F8043B51F8043B40F8043B68
:1002980051F8043B40F8043B51F8043B40F8043B58
:1002A80051F8043B40F8043B51F8043B40F8043B48
:1002B80051F8043B40F8043B51F8043B40F8043B38
:1002C80051F8043B40F8043B51F8043B40F8043B28
:1002D80051F8043B40F8043B403ABDD2303211D3C8
:1002E80051F8043B40F8043B51F8043B40F8043B08
:1002F80051F8043B40F8043B51F8043B40F8043BF8
:10030800103AEDD20C3205D351F8043B40F8043BC7
:10031800043AF9D2043208D0D2071CBF11F8013BC5
:1003280000F8013B01D30B8803806046704700BF8B
:10033800082A13D38B078DD010F003038AD0C3F19A
:100348000403D21ADB071CBF11F8013B00F8013B7C
:1003580080D331F8023B20F8023B7BE7043AD9D33B
:10036800013A11F8013B00F8013BF9D20B78037010
:100378004B7843708B7883706046704740EA010C75
:100388001CF0070F23D1BDF1100DCDE90245CDE9D1
:1003980000676FF000064FF0000700BFF0E8022387
:1003A800F1E80245A24282FA46FCA7FA86FC08BF99
:1003B800BCF1000F40F0D780AB4283FA46FCA7FAA5
:1003C80086FC08BFBCF1000F40F0CA80E6E710F0D9
:1003D800030C21D020F0030050F8042B5FEACC7CFA
:1003E80008D00FD211F801CB5FFA92F3B3EB0C0CE3
:1003F80010D17BB111F801CB5FFAA2F3B3EB0C0C6F
:1004080008D13BB111F801CB5FFAB2F3B3EB0C0C96
:1004180000D10BB960467047BDF1100DCDE902451A
:10042800CDE900676FF000064FF0000711F0030CEC
:100438002DD110F0040F0DD050F8042B51F8044BB7
:10044800A24282FA46FCA7FA86FC08BFBCF1000F5C
:1004580040F0898011F0040F9FD051F8045B00BF71
:10046800F0E80223AA4282FA46FCA7FA86FC08BFF3
:10047800BCF1000F71D1F1E80245A34283FA46FCB2
:10048800A7FA86FC08BFBCF1000F63D1E8E721F0AA
:100498000301BCF1020F1ED03BDA51F8045B00BF28
:1004A80050F8043B4FEA152583FA46FCA7FA86FC68
:1004B800B7EB0C2F03EA162208BFAA424DD151F818
:1004C800045BBCF1000F82EA03034FEA056208BF30
:1004D80093423CD1E4E751F8045B00BF50F8043B79
:1004E8004FEA154583FA46FCA7FA86FCB7EB0C4F92
:1004F80003EA164208BFAA422FD151F8045BBCF1A7
:10050800000F82EA03034FEA054208BF93421ED157
:10051800E4E751F8045B00BF50F8043B4FEA156567
:1005280083FA46FCA7FA86FCB7EB0C6F03EA16625F
:1005380008BFAA4211D151F8045BBCF1000F82EA4E
:1005480003034FEA052208BF934200D1E4E719BA32
:1005580012BA0AE019BA22BA07E011BA2ABA04E0B4
:1005680019BA2ABA01E011BA22BA9CFA8CF0DDE96C
:100578000067DDE902451DF1100D38B1B0FA80F0D1
:10058800C0F1180021FA00F122FA00F2012091428C
:1005980098BF8041704700BFD0400B1CD1409C469B
:1005A800203AD34018435242634693401843704759
:1005B8009140031C90409C46203A93401943524274
:1005C8006346D3401943704781F0004102E000BF01
:1005D80083F0004330B54FEA41044FEA430594EAFB
:1005E800050F08BF90EA020F1FBF54EA000C55EA36
:1005F800020C7FEA645C7FEA655C00F0E2804FEA07
:100608005454D4EB5555B8BF6D420CDD2C4480EAE8
:10061800020281EA030382EA000083EA010180EA18
:10062800020281EA0303362D88BF30BD11F0004F66
:100638004FEA01314FF4801C4CEA113102D040429C
:1006480061EB410113F0004F4FEA03334CEA1333D7
:1006580002D0524263EB430394EA050F00F0A780EF
:10066800A4F10104D5F1200E0DDB02FA0EFC22FAEA
:1006780005F2801841F1000103FA0EF2801843FADE
:1006880005F359410EE0A5F120050EF1200E012ACF
:1006980003FA0EFC28BF4CF0020C43FA05F3C0180D
:1006A80051EBE37101F0004507D54FF0000EDCF186
:1006B800000C7EEB00006EEB0101B1F5801F1BD32F
:1006C800B1F5001F0CD349085FEA30004FEA3C0C33
:1006D80004F101044FEA445212F5800F80F09A8029
:1006E800BCF1004F08BF5FEA500C50F1000041EB2D
:1006F800045141EA050130BD5FEA4C0C404141EB31
:10070800010111F4801FA4F10104E9D191F0000F57
:1007180004BF01460020B1FA81F308BF2033A3F1DA
:100728000B03B3F120020CDA0C3208DD02F1140CD1
:10073800C2F10C0201FA0CF021FA02F10CE002F10C
:100748001402D8BFC2F1200C01FA02F120FA0CFC05
:10075800DCBF41EA0C019040E41AA2BF01EB04514E
:10076800294330BD6FEA04041F3C1CDA0C340EDC4C
:1007780004F11404C4F1200220FA04F001FA02F38F
:1007880040EA030021FA04F345EA030130BDC4F14D
:100798000C04C4F1200220FA02F001FA04F340EA42
:1007A8000300294630BD21FA04F0294630BD94F0F3
:1007B800000F83F4801306BF81F480110134013DDA
:1007C8004EE77FEA645C18BF7FEA655C29D094EA4B
:1007D800050F08BF90EA020F05D054EA000C04BFC9
:1007E8001946104630BD91EA030F1EBF00210020B4
:1007F80030BD5FEA545C05D14000494128BF41F053
:10080800004130BD14F580043CBF01F5801130BDB6
:1008180001F0004545F0FE4141F470014FF0000041
:1008280030BD7FEA645C1ABF194610467FEA655CF2
:100838001CBF0B46024650EA013406BF52EA033594
:1008480091EA030F41F4002130BD00BF90F0000F82
:1008580004BF0021704730B54FF4806404F13204BE
:100868004FF000054FF0000150E700BF90F0000F77
:1008780004BF0021704730B54FF4806404F132049E
:1008880010F0004548BF40424FF000013EE700BF6E
:1008980042004FEAE2014FEA31014FEA02701FBFFE
:1008A80012F07F4393F07F4F81F06051704792F0D0
:1008B800000F14BF93F07F4F704730B54FF460744A
:1008C80001F0004521F0004120E700BF50EA010295
:1008D80008BF704730B54FF000050AE050EA010242
:1008E80008BF704730B511F0004502D5404261EBB2
:1008F80041014FF4806404F132045FEA915C3FF4F3
:10090800DCAE4FF003025FEADC0C18BF03325FEA8B
:10091800DC0C18BF033202EBDC02C2F1200300FA40
:1009280003FC20FA02F001FA03FE40EA0E0021FA65
:1009380002F11444C1E600BF70B54FF0FF0C4CF44F
:10094800E06C1CEA11541DBF1CEA135594EA0C0F05
:1009580095EA0C0F00F0DEF82C4481EA030621EA40
:100968004C5123EA4C5350EA013518BF52EA03357B
:1009780041F4801143F4801338D0A0FB02CE4FF02D
:100988000005E1FB02E506F00042E0FB03E54FF05D
:100998000006E1FB03569CF0000F18BF4EF0010E55
:1009A800A4F1FF04B6F5007F64F5407404D25FEA51
:1009B8004E0E6D4146EB060642EAC62141EA555104
:1009C8004FEAC52040EA5E504FEACE2EB4F1FD0C46
:1009D80088BFBCF5E06F1ED8BEF1004F08BF5FEAC4
:1009E800500E50F1000041EB045170BD06F0004676
:1009F80046EA010140EA020081EA0301B4EB5C0423
:100A0800C2BFD4EB0C0541EA045170BD41F480111A
:100A18004FF0000E013C00F3AB8014F1360FDEBF3F
:100A2800002001F0004170BDC4F10004203C35DA1B
:100A38000C341BDC04F11404C4F1200500FA05F39E
:100A480020FA04F001FA05F240EA020001F000423F
:100A580021F0004110EBD37021FA04F642EB0601B5
:100A68005EEA430E08BF20EAD37070BDC4F10C04DF
:100A7800C4F1200500FA04F320FA05F001FA04F2A3
:100A880040EA020001F0004110EBD37041F100018F
:100A98005EEA430E08BF20EAD37070BDC4F120059A
:100AA80000FA05F24EEA020E20FA04F301FA05F202
:100AB80043EA020321FA04F001F0004121FA04F2AA
:100AC80020EA020000EBD3705EEA430E08BF20EA7A
:100AD800D37070BD94F0000F0FD101F000464000B4
:100AE80041EB010111F4801F08BF013CF7D041EA36
:100AF800060195F0000F18BF704703F0004652003A
:100B080043EB030313F4801F08BF013DF7D043EA0A
:100B18000603704794EA0C0F0CEA135518BF95EAC0
:100B28000C0F0CD050EA410618BF52EA4306D1D147
:100B380081EA030101F000414FF0000070BD50EA66
:100B4800410606BF1046194652EA430619D094EAF0
:100B58000C0F02D150EA013613D195EA0C0F05D1DA
:100B680052EA03361CBF104619460AD181EA03012E
:100B780001F0004141F0FE4141F470014FF00000E6
:100B880070BD41F0FE4141F4780170BD70B54FF081
:100B9800FF0C4CF4E06C1CEA11541DBF1CEA135501
:100BA80094EA0C0F95EA0C0F00F0A7F8A4EB0504E3
:100BB80081EA030E52EA03354FEA013100F08880DA
:100BC8004FEA03334FF0805545EA131343EA1263A3
:100BD8004FEA022245EA111545EA10654FEA002658
:100BE8000EF000419D4208BF964244F1FD0404F511
:100BF800407402D25B084FEA3202B61A65EB03056D
:100C08005B084FEA32024FF480104FF4002CB6EB29
:100C1800020E75EB030E22BFB61A754640EA0C00A9
:100C28005B084FEA3202B6EB020E75EB030E22BFE9
:100C3800B61A754640EA5C005B084FEA3202B6EB2A
:100C4800020E75EB030E22BFB61A754640EA9C00E9
:100C58005B084FEA3202B6EB020E75EB030E22BFB9
:100C6800B61A754640EADC0055EA060E18D04FEA77
:100C7800051545EA16754FEA06164FEAC30343EA17
:100C880052734FEAC2025FEA1C1CC0D111F4801FE4
:100C98000BD141EA00014FF000004FF0004CB6E7DD
:100CA80011F4801F04BF01430020B4F1FD0C88BF7C
:100CB800BCF5E06F3FF6AFAEB5EB030C04BFB6EB87
:100CC800020C5FEA500C50F1000041EB045170BD7A
:100CD8000EF0004E4EEA113114EB5C04C2BFD4EBA7
:100CE8000C0541EA045170BD41F480114FF0000E2B
:100CF800013C90E645EA060E8DE60CEA135594EAA7
:100D08000C0F08BF95EA0C0F3FF43BAF94EA0C0FA9
:100D18000AD150EA01347FF434AF95EA0C0F7FF41E
:100D280025AF104619462CE795EA0C0F06D152EA72
:100D380003353FF4FDAE1046194622E750EA410656
:100D480018BF52EA43067FF4C5AE50EA41047FF467
:100D58000DAF52EA43057FF4EBAE12E74FF0FF3CCC
:100D680006E000BF4FF0010C02E000BF4FF0010C9D
:100D78004DF804CD4FEA410C7FEA6C5C4FEA430C16
:100D880018BF7FEA6C5C1BD001B050EA410C0CBF65
:100D980052EA430C91EA030F02BF90EA020F0020C7
:100DA800704710F1000F91EA030F58BF994208BF2E
:100DB80090422CBFD8176FEAE37040F001007047EB
:100DC8004FEA410C7FEA6C5C02D150EA013C07D142
:100DD8004FEA430C7FEA6C5CD6D152EA033CD3D08D
:100DE8005DF8040B704700BF8446104662468C4687
:100DF8001946634600E000BF01B5FFF7B7FF0028BA
:100E080048BF10F1000F01BD4DF808EDFFF7F4FFE2
:100E18000CBF012000205DF808FB00BF4DF808ED6D
:100E2800FFF7EAFF34BF012000205DF808FB00BF90
:100E38004DF808EDFFF7E0FF94BF012000205DF8B2
:100E480008FB00BF4DF808EDFFF7CEFF94BF012067
:100E580000205DF808FB00BF4DF808EDFFF7C4FF60
:100E680034BF012000205DF808FB00BF4FEA4102B3
:100E780012F5001215D211D56FF47873B3EB6252E4
:100E880012D94FEAC12343F0004343EA505311F00B
:100E9800004F23FA02F018BF404270474FF000009D
:100EA800704750EA013005D111F0004008BF6FF0DB
:100EB800004070474FF00000704700BF4A0011D251
:100EC80012F5001211D20DD56FF47873B3EB62529C
:100ED8000ED44FEAC12343F0004343EA505323FAA8
:100EE80002F070474FF00000704750EA013002D11D
:100EF8004FF0FF3070474FF0000070474FEA410253
:100F0800B2F1E04324BFB3F5001CDCF1FE5C0DD95F
:100F180001F0004C4FEAC0024CEA5070B2F1004FA9
:100F280040EB830008BF20F00100704711F0804FAC
:100F380021D113F13872BCBF01F00040704741F471
:100F480080114FEA5252C2F11802C2F1200C10FA75
:100F58000CF320FA02F018BF40F001004FEAC12359
:100F68004FEAD32303FA0CFC40EA0C0023FA02F3FD
:100F78004FEA4303CCE77FEA625307D150EA0133D3
:100F88001EBF4FF0FE4040F44000704701F00040A3
:100F980040F0FE4040F40000704700BF80F0004081
:100FA80002E000BF81F0004142001FBF5FEA410339
:100FB80092EA030F7FEA226C7FEA236C6AD04FEA39
:100FC8001262D2EB1363C1BFD2184140484041407E
:100FD800B8BF5B42192B88BF704710F0004F40F430
:100FE800000020F07F4018BF404211F0004F41F44C
:100FF800000121F07F4118BF494292EA030F3FD018
:10100800A2F1010241FA03FC10EB0C00C3F120032A
:1010180001FA03F100F0004302D5494260EB4000B9
:10102800B0F5000F13D3B0F1807F06D340084FEA24
:10103800310102F10102FE2A51D2B1F1004F40EB19
:10104800C25008BF20F0010040EA03007047490081
:1010580040EB000010F4000FA2F10102EDD1B0FA4C
:1010680080FCACF1080CB2EB0C0200FA0CF0AABF41
:1010780000EBC25052421843BCBFD04018437047DF
:1010880092F0000F81F4000106BF80F400000132E5
:10109800013BB5E74FEA41037FEA226C18BF7FEABC
:1010A800236C21D092EA030F04D092F0000F08BFFE
:1010B8000846704790EA010F1CBF0020704712F0E5
:1010C8007F4F04D1400028BF40F00040704712F124
:1010D80000723CBF00F50000704700F0004343F089
:1010E800FE4040F4000070477FEA226216BF0846BF
:1010F8007FEA23630146420206BF5FEA412390EA82
:10110800010F40F4800070474FF0000304E000BF77
:1011180010F0004348BF40425FEA000C08BF704728
:1011280043F0964301464FF000001CE050EA0102EC
:1011380008BF70474FF000030AE000BF50EA010201
:1011480008BF704711F0004302D5404261EB4101EE
:101158005FEA010C02BF84460146002043F0B64313
:1011680008BFA3F18053A3F50003BCFA8CF2083A38
:10117800A3EBC25310DB01FA02FC634400FA02FC41
:10118800C2F12002BCF1004F20FA02F243EB020048
:1011980008BF20F00100704702F1200201FA02FCAA
:1011A800C2F1200250EA4C0021FA02F243EB02009D
:1011B80008BF20EADC70704773B96AB9002908BF14
:1011C8000028BCBF00204FF00041C4BF6FF00041B1
:1011D8004FF0FF3001F056B882B0EC462DE90050D0
:1011E80000F090F8DDF804E002B00CBC704700BFD6
:1011F8004BB942B9002908BF002802D04FF0FF318F
:10120800084601F03FB882B0EC462DE9005000F0E6
:1012180091F8DDF804E002B00CBC704707EE900AC4
:10122800F5EEC07AF1EE10FA08B503D4BDE808402F
:1012380000F022B8F1EE677A17EE900A00F01CF879
:10124800404261EB410108BD38B500220023054644
:101258000C46FFF7E3FD28B928462146BDE838408B
:1012680000F02EB8284604F1004100F029F8404269
:1012780061EB410138BD00BF70B5FFF709FB0023E2
:101288000022C3F6F05304460D46FFF755FBFFF75F
:1012980015FE0646FFF7DAFA00230022C4F2F0131F
:1012A800FFF74AFB02460B4620462946FFF790F90E
:1012B800FFF704FE002242EA00042046314670BDD2
:1012C800002370B50022C3F6F05304460D46FFF71D
:1012D80033FBFFF7F3FD0646FFF7B8FA00230022B9
:1012E800C4F2F013FFF728FB02460B4620462946B6
:1012F800FFF76EF9FFF7E2FD002242EA00042046FC
:10130800314670BD2DE9F041069C154606460F464C
:10131800984600F0B9FF05FB01F300FB0838A5FB70
:1013280000234344B21A67EB0303C4E90023BDE872
:10133800F08100BF2DE9F041069C154606460F4690
:10134800984601F0F7F800FB08F8A0FB052305FB19
:1013580001884344B21A67EB0303C4E90023BDE8DC
:10136800F08100BF03685A004CBF43F0004323F0EC
:1013780000431844704700BF2DE9F04F064683B07C
:10138800914621B3013901918846002707EB0804EB
:1013980004EBD4746410E50006EB050B5846FFF720
:1013A800E1FF019B8246A34205F10800304419D0B1
:1013B800FFF7D8FFCA4500F1FF3004D9BC420BD073
:1013C80004F1FF38E2E7484502D2671CDEE78B46A6
:1013D800584603B0BDE8F08F4FF0000B584603B0F5
:1013E800BDE8F08FCA45E9D8F2E700BF01280AD066
:1013F80002280DD041F61D33C0F6000300280CBFAB
:1014080018460020704741F62130C0F600007047AA
:1014180041F62530C0F60000704700BF30B540F2F5
:101428000003C0F2000383B004468D1E002B42D097
:10143800284601A9AFF30080034643B32A46019921
:10144800FFF79AFF054638B3FFF78CFF6B68A06477
:10145800012B16D0002B05F10400BEBF0123E06468
:10146800236504DBFFF77EFF0023E0642365036840
:10147800002B16DBFFF776FF00232061184603B028
:1014880030BD002323610523184603B030BD236116
:101498000923184603B030BD09232061184603B05C
:1014A80030BDC3F30360FFF7A1FF206100280CBF24
:1014B80009230023E2E740F244634EF26C70C0F661
:1014C8000503C0F604001B1ADB100193B6E700BF42
:1014D800036810B50446D80706D4990704F14800F4
:1014E80009D500F06DFC23685A0709D518070ED5F1
:1014F800D90613D510BD00F05BFC23685A07F5D454
:1015080004F1D00000F064FC23681807F0D404F557
:10151800A87000F065FC2368D906EBD404F5E870E0
:10152800BDE8104000F0A0BC03680BB11844704738
:101538001846704709207047704700BF70B50446C9
:101548000D4608E02A6C23696261012021462A467B
:101558009847082808D12046296CFFF75FFF064600
:101568000028EFD03FF09AFD0728FBD13046296CC0
:10157800FFF7E2FF281D00F00FFC00BF2DE9F04740
:101588000C1D054617460FCCADF5727D03AE0FC690
:101598000FCC0FC60FCC0FC694E80F0002AC4FF06B
:1015A800000ED5F80C80D5F8189086E80F0028466C
:1015B800216CC4F800E0774514BF0A270927FFF714
:1015C8002DFF06468EB1A06B0094CDF804902A46F4
:1015D800606447F010012B460120C04700282FD136
:1015E80030460DF5727DBDE8F087236C21466B61AE
:1015F8004FF4F0727AA8FEF727FE2B6929467AAADB
:1016080038469847889B82468DE8100239466364BD
:1016180001202A462B46C04790B920467AA94FF4A4
:10162800F072FEF711FEBAF1080F06D12846216CB8
:10163800FFF7F4FE09270646C4E7BAF1070F04D0FE
:1016480009200DF5727DBDE8F0873046216CFFF763
:1016580073FF03A800F0A0FB406C7047CB6BF0B59C
:101668000B640E1D0F4604460FCEF9B001AD0FC531
:101678000FCE0FC50FCE0FC596E80F004FF0FF36FF
:1016880085E80F00009606E0236921466A469847D8
:101698000828054608D120461099FFF7BFFE002804
:1016A800F2D0092079B0F0BD6846FFF711FF062D8A
:1016B800F7D120463946FFF741FF00BF30B4DD6B54
:1016C800C160826119461D64002230BC56E700BF24
:1016D80070B54369C6680B6404460D4626B10122FD
:1016E800FFF74CFF3FF0DAFC0369214602202A4647
:1016F8009847072807D0082803D120462946FFF72E
:101708001DFF3FF0CBFC3046296CFFF715FF281D65
:1017180000F042FBC26810B42AB1CC6B00220C6402
:101728005DF8044B2AE75DF8044B97E7704700BF64
:1017380008B5836813B101460120984708BD00BF6A
:1017480010B404290FD8DFE801F007030E030300E3
:1017580001205DF8044B70470F2A98BF002B0CBF7F
:101768000023012303D002205DF8044B704700EBEF
:10177800820218465368019A5DF8044B136070475B
:1017880000B585B00A4603AB002100930B46FFF76E
:10179800D7FF039805B05DF804FB00BF10B4042917
:1017A8000FD8DFE801F007030E03030001205DF8FE
:1017B800044B70470F2A98BF002B0CBF002301234E
:1017C80003D002205DF8044B704700EB82020198B9
:1017D8005DF8044B016818465160704710B584B035
:1017E80004AB0C4643F8042D0021009322460B4617
:1017F800FFF7D4FF04B010BDD36BF0B51364151D0B
:1018080007460E460FCDADF50F7D17AC0FC40FCDB3
:101818000FC40FCD0FC495E80F004FF0FF3584E8D3
:101828000F00169510E016A8FFF7D8FF314616A846
:10183800B847694616AA78B9049B0820984709282A
:1018480018BF0528044608D026996846FFF7E6FD24
:101858006A460C210028E6D0092416A8FFF738FEAE
:1018680020460DF50F7DF0BD2DE9F04FCE6C8BB005
:101878000C46316804361D4690460791089600F0DC
:101888000307002B40F089800902032307918DF894
:1018980025508DF82430236D022F08BFA66B13F056
:1018A80001036ED100F00800C0B204F158010193A1
:1018B80003900291BA463768002F64D0022D0CBFFE
:1018C800D6F80490B6F80290A36C18BF378829F0B0
:1018D800010B40464FF00F010CBF083604369B44FD
:1018E800FFF74EFF834588BF002006D827F0010385
:1018F8009B4458452CBF0020012009F0010907F03E
:10190800010747EA4907012F71D066D3022F40D15A
:10191800336823F0004BBAF1000F4ED1002854D0A1
:101928000399002918BFBBF1000F4ED1BBF1000F7E
:101938001DD00595371DD146CDF810A0029D02E0B7
:10194800DA4514D0D14638460695FFF7EDFD00225A
:10195800014606AB20463FF07DF809F1010A04373D
:101968000028EDD0CB45DDF810A0059D2CD14046D0
:101978000D21FFF705FF069B2062A6626362062021
:1019880008E000230193022D4BDDFFF7D3FD00286B
:101998004DD009200BB0BDE8F08F022B3FF77BAF8D
:1019A8000B0C5FFA83FE090402228DF8253006EB42
:1019B8008E0607918DF824206DE740460D21276A91
:1019C800FFF7DEFE874262D03368002BB8BF0436CB
:1019D8000BF1010B06EB8B066DE7BAF1000F0CBF9C
:1019E800002000F0010000286CD1043663E7BAF14A
:1019F800000F33D198B196E80C00D70F9A1CC8D0C5
:101A0800029A0133069253D0301DFFF78DFD3A46F6
:101A1800014606AB20463FF01DF800286AD108367B
:101A280049E7404607A900F0B7FA0028B1D1019963
:101A380008200029AED00F214046FFF7A1FE0E2155
:101A480002464046FFF7CAFE40F6CD424046C0F681
:101A580004020F21FFF7C2FE07209BE740460D2135
:101A6800276AFFF78DFE8742D9D1A36A9E42D6D155
:101A78003046FFF777FC0F2102464046FFF7AEFEDF
:101A8800404622460021FFF7A9FE072082E7A36A05
:101A98009E4299D10422B3180021C4F828B0E1620B
:101AA8002263636333688B421FDB012201928FE755
:101AB80040460D21FFF764FE2062069B6362A66222
:101AC800062067E73046FFF74DFC04360546A66357
:101AD80020463FF017F800283FF45BAF40462A46FF
:101AE8000F21FFF77BFE072054E70BF1010006EBFF
:101AF8008000BEE703460D2140460093FFF740FEF5
:101B0800009B2062022BD8D12346069A43F82C2F3B
:101B18006362D4E70023A7E60123A5E60223A3E630
:101B28002DE9F0410446C4B0042907D8DFE801F0E4
:101B3800B32E06030A00032B00F0C880022044B02D
:101B4800BDE8F081102A98BF002BF7D12368D90689
:101B580000F1E38022AE3046019200F08FF9A56BC8
:101B6800019A0023012000FA03F111421CBF2968E1
:101B780046F8231003F1010318BF0435042BF2D1F2
:101B88003046A56300F070F90020D8E703F0FB01A8
:101B98000129D3D1150C96B27219012B14BF20213B
:101BA80010219142CAD3B3F1010CDCF1000757EBC5
:101BB8000C070F2D94BF002101210F42BED1B04662
:101BC80021B9102A40F2CB80A2F11008B8F1000F19
:101BD80018BF052BB2D10F2D0FD82268D0070CD50E
:101BE80022F00101052B2160204600F0CD8022F073
:101BF800030240F8482B00F0DFF8B8F1000F03D0DB
:101C08002368590700F19B80002F40F0B6800F2D04
:101C180040F28D80B8F1000F40F0A9803346A66BE2
:101C2800002B314610DD4FEA430C22AB03EBC50015
:101C3800801B0CF1FF31331F53F8042F0139C250B8
:101C48004A1CF9D106EB8C01B8F1000F16D044A854
:101C5800102D2CBF2E46102600EBC6064FEA480C66
:101C6800A6F5C4760CF1FF33084650F8042B013B67
:101C780046F8042B5A1CF8D101EB8C01002F70D1C7
:101C88000F2DA16357D9B8F1000F02D002A800F0B8
:101C98009FF8002053E7002B7FF450AFA56B96B256
:101CA800012000FA03F131421CBF2F6804EB8301C5
:101CB80003F101031CBF04354F60102BF1D112F45E
:101CC800005008BFA5633FF43AAFE2E7150C97B29E
:101CD8007B19102B3FF632AF23681E0737D422AE8C
:101CE800304600F09FF8D4F838E07F0006EBC500D6
:101CF8007B1E72465FB1CEEB0000AEF1040252F8D3
:101D0800041F013B5D1C8150F9D10EEB8702304660
:101D1800A26300F065F8002011E723F010032360A8
:101D280004F5E870019200F0A9F8019A12E722A8D8
:101D380000F04AF86EE722A800F042F8A3E7204630
:101D480023F0040340F8D03B00F046F85CE723F0AA
:101D58000803236004F5A87000F064F8BFE788461C
:101D680039E70431A16322A800F022F891E702A81C
:101D780000F032F8C5F1100351E722A800F01CF872
:101D8800B8F1000FF6D149E741F0020140F8481BCD
:101D980000F01AF831E700BF00F1340191E838008B
:101DA8009C46A6464CF8045D90E8FF0FE54600BD4A
:101DB80090EC210B704700BF80EC210B704700BFEF
:101DC80090EC200B704700BF80EC200B704700BFE1
:101DD800D0EC200B704700BFC0EC200B704700BF51
:101DE800F0EC0201F0EC0211F0EC0221F0EC02310F
:101DF800F0EC0241F0EC0251F0EC0261F0EC0271FF
:101E0800F0EC0281F0EC0291F0EC02A1F0EC02B1EE
:101E1800F0EC02C1F0EC02D1F0EC02E1F0EC02F1DE
:101E2800704700BFE0EC0201E0EC0211E0EC022197
:101E3800E0EC0231E0EC0241E0EC0251E0EC02613E
:101E4800E0EC0271E0EC0281E0EC0291E0EC02A12E
:101E5800E0EC02B1E0EC02C1E0EC02D1E0EC02E11E
:101E6800E0EC02F1704700BFB0FC0181B0FC0191C9
:101E7800B0FC01A1B0FC01B1704700BFA0FC01811A
:101E8800A0FC0191A0FC01A1A0FC01B1704700BF1A
:101E9800EC4600B52DE900502DE9FF1F4FF0000377
:101EA8002DE90C0001A9FFF7D9FBDDF840E012B0DD
:101EB800704700BFEC4600B52DE900502DE9FF1F23
:101EC8004FF000032DE90C0001A9FFF701FCDDF834
:101ED80040E012B0704700BFEC4600B52DE9005055
:101EE8002DE9FF1F4FF000032DE90C0001A9FFF7B2
:101EF80011FCDDF840E012B0704700BFEC4600B5B9
:101F08002DE900502DE9FF1F4FF000032DE90C00CB
:101F180001ABFFF7D3FBDDF840E012B0704700BF1C
:101F2800EC4600B52DE900502DE9FF1F4FF00003E6
:101F38002DE90C0001AAFFF75FFCDDF840E012B0C4
:101F4800704700BF037A1BB9437A43B9B020704782
:101F58000268013B037213020360100E7047416868
:101F6800013B43720A680323037204311302416080
:101F78000360100E704700BF00B585B003AB0021A9
:101F880000930C220B46FFF7DBFB039805B05DF8C6
:101F980004FB00BFF0E700BF2DE9F041064684B01E
:101FA8000D4600272846FFF7CDFFB028044600F06D
:101FB800B18020F07F0212F0FF0120D000F0F00283
:101FC800802A75D0902A37D0A02A43D0B02A57D07B
:101FD800C02A00F0858000F0F803D02B0BD100F068
:101FE8000704621C42F40022304601210523FFF752
:101FF80097FD0028D6D0092004B0BDE8F08103AAD7
:102008004FEA800800920B4630460D22FFF798FBF6
:102018005FFA88F8039B08F1040860064CBFC8EB18
:1020280003034344039303AB0021009330460B465C
:102038000D22FFF7B3FBB5E700F00D030D2BDAD047
:1020480003AA002100920B4600F00F023046FFF76A
:1020580077FBE8E7C2434FF47F6302F0070243FAD5
:1020680002F2010702EA03024FF0000148BF42F4FE
:1020780080420B463046FFF753FD0028BBD191E75D
:10208800B1285CD0B22865D0B32800F0918000F068
:10209800FC03B42BAFD000F007020132012142F457
:1020A80000220B463046FFF73BFD0028A3D179E715
:1020B8002846FFF747FF24022043B0F5004F9AD087
:1020C80004014FF6F072002122400B463046FFF71C
:1020D80027FD00288FD114F4004F18BF012761E7AE
:1020E800C62871D0C7287BD000F0F803C02B00F0B9
:1020F8008A80C82800F08E80C9287FF47CAF2846E3
:10210800FFF720FF00F00F03013300F0F00243EA6D
:10211800023269E70020002F7FF46EAF03AC394626
:102128000E223B4600943046FFF70AFB00943046E7
:1021380039460F223B46FFF731FB38465CE7284615
:10214800FFF700FF024600283FF455AF10F0F001FA
:10215800A7D050E7002103AA00920B460D22304673
:10216800FFF7EEFA2846FFF7EDFE02064FF00204ED
:102178000CD5039B00F07F00A0400344284603933E
:10218800FFF7E0FE030604F10704F2D4039B00F016
:102198007F0003AA00FA04F403F5017300211C442C
:1021A80000920B4630460D220394FFF7F7FAF9E642
:1021B8002846FFF7C7FE00F00F03013300F0F002D6
:1021C800012143EA02326CE72846FFF7BBFE00F024
:1021D8000F03013300F0F002032143EA023260E703
:1021E8002846FFF7AFFE024600283FF404AF10F080
:1021F800F0037FF400AF30460421FFF791FC00287C
:102208007FF4F9AECEE600F00F020132032142F46A
:10221800202246E72846FFF795FE00F0F00200F07E
:102228000F031032013343EA0232DDE610B5C36C06
:1022380084B003225C688DF80C20DA7908460833EC
:10224800240201A901948DF80D200293FFF7A4FE42
:1022580004B010BD08B5FFF79DFE806C08BD00BF37
:1022680008B5FFF797FEC36CDA7903EB82000830F4
:1022780008BD00BF08B53EF011FF00BF08B53EF02D
:102288000DFF00BF704700BF00292DE9F00FA8BF60
:102298000026C0F2A980002BC0F2A1808946904692
:1022A8009C46144605460F46002B47D18A425BD907
:1022B800B2FA82F353B1C3F1200201FA03F720FA0C
:1022C80002F208FA03F4174300FA03F5210CB7FBEE
:1022D800F1F22B0C01FB127CA0B243EA0C4700FB85
:1022E80002F3BB4209D93F1902F1FF3C04D2BB42B9
:1022F80084BF023A3F1900D86246FF1AB7FBF1F3D0
:10230800ADB201FB137145EA014100FB03F08842BD
:1023180008D9091903F1FF3703D2884288BF023B65
:1023280000D83B4643EA024300221846114616B13C
:10233800404261EB4101BDE8F00F70478B4284BF1A
:1023480000221346F1D8BCFA8CF1002940F09080A5
:10235800CC4528BF80458CBF002201229CBF0123A9
:102368000A46E2D91346E0E712B90123B3FBF2F4B7
:10237800B4FA84F3002B3DD13F1B200C1FFA84FCD8
:102388000122B7FBF0F12B0C00FB117743EA07475A
:102398000CFB01F3BB420AD93F1901F1FF3880F069
:1023A800C180BB4284BF02393F1940F2BB80FF1A8B
:1023B800B7FBF0F3ADB200FB137045EA00400CFB2D
:1023C80003FC844508D9001903F1FF3703D284457B
:1023D80088BF023B00D83B4643EA0143A5E7F643E2
:1023E800524263EB430359E7404261EB41014FF02E
:1023F800FF3650E79C40C3F1200227FA02F1200C77
:1024080025FA02F29F401743B1FBF0F24FEA174852
:1024180000FB12111FFA84FC48EA01410CFB02F888
:10242800884505FA03F508D9091902F1FF337FD267
:10243800884584BF023A09197AD9C8EB0101B1FB72
:10244800F0F300FB1311BFB247EA01470CFB03F19D
:10245800B94209D93F1903F1FF3804D2B94284BF00
:10246800023B3F1900D843467F1A43EA024288E7F5
:10247800C1F1200328FA03F20CFA01FC42EA0C0C21
:1024880029FA03F44FEA1C4A20FA03F309FA01F97E
:1024980043EA0900B4FBFAF70AFB1744030C1FFAD6
:1024A8008CF943EA044409FB07FBA34508FA01F247
:1024B80009D914EB0C0407F1FF3337D2A34584BFC5
:1024C800023F644432D9CBEB0404B4FBFAF30AFBB1
:1024D800134480B240EA044009FB03F4844209D95A
:1024E80010EB0C0003F1FF381ED2844284BF023B7C
:1024F800604419D943EA0747001BA7FB0223984207
:102508000DD314BF0023012305FA01F191422CBF1A
:10251800002203F001023B46002A3FF406AF7B1E6F
:10252800002202E7414642E74346E3E71F46CAE77F
:102538001A4682E72DE9F003144605460E46002B9D
:1025480041D18A4254D9B2FA82F34BB1C3F1200681
:10255800994020FA06F602FA03F40E4300FA03F54E
:10256800220CB6FBF2F02B0C02FB1061A7B243EA77
:10257800014607FB00F3B34209D9361900F1FF31D0
:1025880004D2B34284BF0238361900D80846F61A76
:10259800B6FBF2F3ADB202FB136245EA024207FB57
:1025A80003F7974209D9121903F1FF3180F0EA8045
:1025B800974288BF023B40F2E58043EA0040002191
:1025C800BDE8F00370478B4284BF00210846F7D866
:1025D800B3FA83F4002C49D18B4228BF82428CBFC6
:1025E800002101219CBF01202146E9D90846E7E7DF
:1025F80012B90124B4FBF2F4B4FA84F7002F40F0C6
:1026080082800B1B260CA7B20121B3FBF6F02A0C23
:1026180006FB103342EA034307FB00F29A420AD949
:102628001B1900F1FF3C80F0AF809A4284BF02384A
:102638001B1940F2A9809B1AB3FBF6F2ADB206FB58
:10264800123345EA034507FB02F7AF4209D92C19B3
:1026580002F1FF3380F09A80A74288BF023A40F225
:10266800958042EA0040BDE8F0037047C4F12005B8
:1026780022FA05F6A34033434FEA134821FA05F638
:10268800A14020FA05F5B6FBF8FC0D4308FB1C66D3
:10269800290C1FFA83F941EA064609FB0CF7B742F1
:1026A80002FA04F204D9F6180CF1FF3176D38C46FD
:1026B800F61BB6FBF8F708FB1766ADB245EA064508
:1026C80009FB07F6AE4204D9ED1807F1FF315FD3D5
:1026D8000F4647EA0C47AD1BA7FB02239D420DD3CB
:1026E80000FA04F114BF0025012591422CBF0021F6
:1026F80005F00101384600293FF462AF781E002139
:10270800BDE8F0037047BC40C7F1200321FA03FC81
:10271800260CB94020FA03F30B43BCFBF6F11A0C64
:1027280006FB11CC1FFA84F842EA0C4C08FB01F2B4
:10273800624500FA07F509D91CEB040C01F1FF30DA
:1027480033D2624584BF0239A4442ED9C2EB0C0CA3
:10275800BCFBF6F29BB206FB12CC43EA0C4308FB27
:1027680002F0984209D91B1902F1FF3704D29842A6
:1027780084BF023A1B1900D83A461B1A42EA0141A3
:10278800474642E70B4618E7604654E71A4668E7AB
:10279800AE4284BF023FED189BD899E7B74284BF89
:1027A800ACF1020CF61883D881E70146CEE700BFEA
:1027B800DFF834D0002103E00C4B5B584350043160
:1027C8000B480C4B42189A42F6D30B4A02E00023FE
:1027D80042F8043B094B9A42F9D303F0FDFB3EF063
:1027E8008FFC00F037FF704700000220E40705085F
:1027F800000000206C0E0020700E0020849D002038
:10280800FEE7000001238360C36003610375044B86
:102818001B880022C271026082718380704700BFEA
:10282800EA0E002070B514468CB006460D4601A885
:1028380000210AF07FFA23680093A3798DF8063007
:10284800A388ADF80430237D8DF81430E3798DF832
:102858000730A3680293E3680393236907A800215C
:1028680004930AF067FA0E4B1A6806929A798DF863
:102878001E209A88ADF81C201A7D8DF82C20DA7954
:102888008DF81F209A680892DA681B690992304609
:1028980029466A460A9310F0ACF90CB070BD00BF27
:1028A8001C0F0020C0B2072828BF0720704700006F
:1028B8009D4B2DE9F74F00241C609C4B9C499D4E75
:1028C8004FF480521A604FF400530B609A493470E9
:1028D8004FF480400860994901270F6098494FF0EC
:1028E800020AC1F800A097490420086096494FF0F1
:1028F8000808C1F8008095491020086094492025EF
:102908000D6094494FF04009C1F800909249802029
:10291800086092494FF48070086091494FF4007044
:10292800086090494FF4806008608F494FF4006058
:1029380008608E498E480A608E4A13608E4B1C6070
:102948008E4B6FF002021A608D4B6FF001021A6015
:102958008C4A8D4B17708D4A83F800A04FF0040302
:102968004FF0030C13708A4B80F800C04FF005003D
:102978001870884B88484FF0060B83F800B0874BD7
:102988004FF007021A70864B83F800800923037002
:1029980021465A4643468348CDF804C00AF0CCF98C
:1029A800794B81481A7821462B460AF0C5F9764BAF
:1029B8007E481A7821464B460AF0BEF9724B7C488D
:1029C8001A78214680230AF0B7F9214632787948E7
:1029D80023460AF0B1F921463278774843460AF08F
:1029E800ABF9684B75481A78214643460AF0A4F9B2
:1029F80021463278724810230AF09EF9614B7148DB
:102A08001A78214610230AF097F9214632786E4841
:102A18002B460AF091F95B4B6C481A7821462B46F5
:102A28000AF08AF92146327869484B460AF084F957
:102A3800544B68481A7821464B460AF07DF9534BA7
:102A480065481A7839462B460AF076F94F4B6348A1
:102A58001A7821462B460AF06FF94F4B60481A78CE
:102A6800214623460AF068F9414B5E481A78214608
:102A78002B465D4D0AF060F921465C480AF05AF988
:102A88002146281D0AF056F92846FFF7BBFE584B89
:102A9800584D1C70584B1F70584B83F800A0DDF838
:102AA80004C0574B83F800C0564B83F800B0564B10
:102AB8004FF007001870554B1C70554B1F70554B45
:102AC80083F800A0544B83F800C0544B1C70544B3F
:102AD8001F70544B83F800A0534B83F800C0534B2E
:102AE8004FF004021A70524B4FF005001870514B0A
:102AF800204683F800B0FFF7D5FE2B68400600F0AB
:102B0800606623F060631E43B30C9B042B60204671
:102B1800FFF7C8FE800400F4E01006F06066064384
:102B28002E6003B0BDE8F08FD00E0020180F0020F3
:102B3800C40E00208C0E0020F80E0020E40E0020A9
:102B4800A40E00203C0F0020140F0020EC0E0020E3
:102B58000C0F0020980E0020100F00209C0E002063
:102B6800F40E0020C40F0020CC0F0020AC0E002073
:102B7800B80E0020040F0020B40E0020A80E00207C
:102B8800C00E00203A0F0020920E0020080F0020EF
:102B9800D20F0020D60E0020F00E0020FD0E0020DF
:102BA800090F0020D40E0020C80E0020CA0E0020F5
:102BB800BE0E0020EA0E0020BA0E0020C00F002032
:102BC800DA0E0020900E00208E0E0020000F00204C
:102BD800DE0E0020960E0020940E0020C80F002064
:102BE800380F0020360F00201C0F0020E80E0020B0
:102BF800A00E0020CC0E0020B00E0020D10F002027
:102C0800FE0E00208D0E0020D80E0020E10E0020C0
:102C1800D00F0020D70E0020340F0020B10E002066
:102C2800BC0E0020DC0E0020B90E0020FC0E002097
:102C3800E00E00200A0F002010B5802292B00C464A
:102C48001D4800213EF02AFE802207A81A491AF0E2
:102C580029FF07A8002200231AF0CEFE02A80021AF
:102C68000AF068F801A8FFF7CDFD00238DF80A30B7
:102C7800124B13491B88019407A801AAADF8083024
:102C8800FFF7D0FD07A81AF06EFE0130019004F09E
:102C980021F848B1084801A9002204F041F807A822
:102CA8001AF086FE12B010BD04F01AF8F2E707A871
:102CB8001AF07EFE3DF0C8FE400F0020940E002062
:102CC800D8270408806870477047000010B5044B87
:102CD80003600023044683600DF07CFD204610BD90
:102CE8002828040810B50446FFF7F0FF20463DF0F9
:102CF80073FF204610BDFEE71FB50C4803AC0AF071
:102D0800FDFA4FF400630A490293204609F082FE57
:102D180001238DE818000748074B002102AA3CF060
:102D2800ADFD002005493CF095FCFAE7412C000870
:102D380050100020653100085B2804080000F03FAF
:102D4800A84B2DE9F74F00241C60A74BA749A84FB3
:102D5800DFF8A8A33C704FF480521A604FF4005378
:102D68000B60A4494FF480400860A34901250D6019
:102D7800A2494FF00208C1F80080A1498AF80080F2
:102D8800042008609F494FF00809C1F800909E4947
:102D9800102008609D4920260E609D49402008604B
:102DA8009C49802008609C494FF4807008609B49CA
:102DB8004FF4007008609A494FF4806008609949A0
:102DC8004FF400600860984998480A60984A136070
:102DD800984B1C60984B6FF002021A60974B6FF08B
:102DE80001021A60964A974B15704FF0030B83F84F
:102DF80000B04FF00402944B02704FF005001870B9
:102E0800924B93484FF0060C83F800C0914B4FF05B
:102E180007021A70904B83F80090092362460370EA
:102E280021464B468D48CDF804C009F085FF214660
:102E38009AF800208A48334609F07EFF21469AF81E
:102E480000208848402309F077FF9AF80020DFF82F
:102E5800B0A285482146802309F06EFF21463A78C2
:102E68002346504609F068FF21463A787F484B468A
:102E780009F062FF724B7E481A7821464B4609F0EA
:102E88005BFF21463A787B48102309F055FF6C4BCD
:102E980079481A782146102309F04EFF21463A78DE
:102EA8007648334609F048FF654B75481A7821463D
:102EB800334609F041FF21463A787248402309F029
:102EC8003BFF5F4B70481A782146402309F034FFD6
:102ED800564B6E481A782946334609F02DFF534B56
:102EE8006B481A782146334609F026FF584B694843
:102EF8001A782146234609F01FFF524B66481A7874
:102F080021463346654E09F017FF2146644809F00B
:102F180011FF2146301D09F00DFFBAF80030F47199
:102F2800B380604BB4711C705F4BB5601D705F4B14
:102F3800F56083F800805E4B356183F800B0DDF8FA
:102F480004C05C4B357583F800C05B4B34604FF0B0
:102F580007001870594B1C70594B1D70594B83F85A
:102F68000080594B83F800B0584B1C70584B1D70AB
:102F7800584B594D83F80080584B83F800B0584B94
:102F88004FF004021A70574B4FF005001870564B5B
:102F9800204683F800C0FFF785FC2B68400600F048
:102FA800606623F060631E43B30C9B042B602046CD
:102FB800FFF778FC800400F4E01006F06066214614
:102FC80006434A4C2E604A4809F022FD20461BF071
:102FD80059FA4849484A204603B0BDE8F04F3CF04A
:102FE800FDBD00BF18100020641000200C10002048
:102FF800D30F0020401000202C100020EC0F0020E0
:103008008C10002060100020341000205810002080
:10301800E00F00205C100020E40F00203C1000208E
:10302800941000209C100020F40F0020891000202C
:103038004C100020FC0F0020F00F0020081000208A
:103048008810002000100020CD1000201E10002045
:103058003810002045100020541000201C100020BB
:1030680090100020121000200610002002100020EE
:103078008210002022100020D80F0020D60F002038
:103088004810002026100020DE0F0020DC0F002052
:10309800981000208610002084100020681000205E
:1030A80030100020E80F0020F80F0020CC1000207E
:1030B80046100020D40F00202010002029100020E6
:1030C800101000201F10002080100020F90F002091
:1030D80004100020241000201410002001100020EB
:1030E800441000202810002055100020A0100020B7
:1030F80050100020EDE4010800000020DA0F002045
:103108003210002038B503680D46DB68044698473E
:103118002B6828461B69984780B1204629460DF040
:103128006CFB606820B10649064A00233DF012FB9B
:10313800A06018B923682046DB689847204638BD48
:103148007878040830A6040810B504460DF01BFB77
:1031580018B1A068003018BF012010BD30B5424832
:10316800ADF5577D0AF0A2FD451C07A81DF080F8B3
:103178002C203DF0DFFB3C492A4604461AF0BCFCF3
:1031880023682046996A00220023884710A8214610
:1031980007AA002326F05EF910A825F049FF236846
:1031A80005465B68204698475DB10DF001F8044676
:1031B8000EF0F4F923682046DB6807A9984705460E
:1031C80000E02C4604A80DF02DFB284B04930023A7
:1031D800059306931DB368460DF024FB02A821460B
:1031E800234A6B460DF08CF904A802A9FFF78AFF61
:1031F80002A80DF0EFFA68460DF0ECFA04A8FFF704
:10320800A3FF60B1069832F0C5F940B10698194994
:103218000368DB69984710B1069831F097F904A85C
:10322800FFF754FD10A826F001F907A81CF074FF59
:103238000DF5577D30BD20463DF0CEFC0FE002A8CD
:103248000DF0C8FAFFE768460DF0C4FAFFE704A8D6
:10325800FFF73CFDFFE710A826F0E8F8FFE707A80E
:103268001CF05AFF3DF0F0FB6C28040828280408DD
:10327800702F04087D2F0408002282600DF09BBA8D
:1032880037B504460DF02CFB054670B1606820B1D7
:103298000D490E4A00233DF05DFA0546A06078B955
:1032A80020460DF088FAA5600AE0094B094800930A
:1032B80009490A4A4FF48A7309F0FAFF284600E0E0
:1032C800012003B030BD00BF7878040830A6040898
:1032D800502804082C100020842F0408AF2F04085D
:1032E80008B503F02FF8002008BD30B5B0F9084044
:1032F800028A87B0842C0B4690E8220014BF03345E
:103308000024009405A80024019002940394284600
:1033180002F0C2FE01280CBF0598204607B030BD58
:1033280008B503F0DFFA012803D0BDE8084000F033
:10333800DDBA08BD10B50F4B1A68824201D2134698
:10334800FAE759685C18844203D14068014459601F
:10335800184641684418944207D1074C2468A24291
:1033680003D054681268214441608342026018BF48
:10337800186010BDD8100020D41000202DE9F041AD
:10338800054603F01BF8424B42481A689E4612BB9A
:10339800414A540707D0D31D23F0070302F57052A2
:1033A800D11A1A4601E04FF470511144083921F03E
:1033B80007013A4CCEF800100023636022604B608E
:1033C8000B608B1A82E80A00354A1360354A13608D
:1033D8004FF0004303600668354248D1002D47D0BE
:1033E80005F1080358071CBF23F007030833002B17
:1033F8003BD02C4A1768BB42904638D827490C68FE
:1034080062689A4204D3DEF80000844206D12EE0B6
:1034180020680028F7D021460446F1E720680D68A7
:103428000860D21A102A0FD9E018410708D04FF0C7
:10343800500383F31188BFF36F8FBFF34F8FFEE7FD
:1034480042606360FFF776FF1548616803687A1A7F
:103458009A4241EA06064FF00003C8F8002038BF38
:10346800026008356660236002E01D4600E0002522
:1034780003F038F86B0708D04FF0500383F3118836
:10348800BFF36F8FBFF34F8FFEE72846BDE8F0818B
:10349800D4100020E04C0020E0100020D8100020BC
:1034A800E44C0020D010002010B5044670B3184A30
:1034B80050F8043C12681A4208D14FF0500383F3C5
:1034C8001188BFF36F8FBFF34F8FFEE750F8081CCA
:1034D80041B14FF0500383F31188BFF36F8FBFF3EF
:1034E8004F8FFEE723EA020340F8043C02F066FF30
:1034F800084B54F8041C1A68A4F108000A441A601E
:10350800FFF718FFBDE8104002F0ECBF10BD00BF88
:10351800E04C0020D010002000F1080343604FF079
:10352800FF32C36003610023826003607047002399
:103538000361704743689A684B608A609A68516073
:1035480099600368086101330360704730B50C68FF
:10355800631C01D1036907E000F108035A68156884
:10356800A54201D81346F9E75A684A6091608B6012
:103578005960036808610133036030BD416882689F
:1035880003698A60826851605968814208BF5A603D
:10359800002202611868013818607047014B53F81F
:1035A800200070470400002030B595B00022274B5A
:1035B8000192196C41F0805119641B6C03F080531F
:1035C8000193019B224B02921A6842F480421A60CE
:1035D8001B6803F480430293029B01230893099319
:1035E8004FF480030F93082310934FF4A873022419
:1035F800119308A807230E941294139301F046FC24
:1036080000B1FEE74FF4A053059006930F254FF441
:10361800805303A8052104940395079301F0D6FD70
:10362800044600B1FEE701F08BFE4FF47A73B0FB5D
:10363800F3F000F0E1FD042000F0F4FD4FF0FF305E
:103648002946224600F09AFD15B030BD00380240E8
:10365800007000402DE9F0418AB000F047FDFFF707
:10366800A3FF3C4B3C4C00220192196B41F08001B6
:103678001963196B01F08001019101990292196B8C
:1036880041F0010119631B6BA26003F0010302936F
:10369800029B324B2261532740F2E736204684E8EA
:1036A8008800E660626101F0B3FF00B1FEE70AAD91
:1036B8004FF4805845F8148D2046294601F08AFEBB
:1036C80000B1FEE70390049003A9204601F0BAFF79
:1036D80000B1FEE7224C4FF08043A06020612046F5
:1036E80084E88800E66001F093FF00B1FEE7204619
:1036F8002946CDF8148001F06DFE00B1FEE7039075
:10370800049003A9204601F09DFF00B1FEE7154C87
:10371800154BA060204684E88800E66001F078FF39
:1037280000B1FEE7059006902946204601F08AFF81
:10373800074600B1FEE70D4E0FCE2C460FC4336886
:10374800284639462360FFF7D0FD094B1860FFF77C
:10375800C7FDFEE700380240409D00200000014000
:10376800009D0020C49C0020001000405C26040836
:103778003C9D0020FEE700000A4B1B68013308D07F
:103788004FF0500383F31188BFF36F8FBFF34F8F50
:10379800FEE74FF0500383F31188BFF36F8FBFF339
:1037A8004F8FFEE72400002006480068006880F379
:1037B800088862B661B6BFF34F8FBFF36F8F00DF23
:1037C80000BF000008ED00E0DFF80C00016841F4DC
:1037D800700101607047000088ED00E04FF08073D1
:1037E80000E90A00054B40F8202C40F80C3C6FF02B
:1037F800020340F8243C4438704700BF8137000872
:10380800064B19680868B0E8F04F80F30988BFF3E1
:103818006F8F4FF0000080F311887047BC4D002077
:103828004FF0500383F31188BFF36F8FBFF34F8FAF
:103838000A4A13680133012B13600DD1084B1B682A
:1038480013F0FF0F08D04FF0500383F31188BFF334
:103858006F8FBFF34F8FFEE7704700BF2400002033
:1038680004ED00E0084A136843B94FF0500383F3AE
:103878001188BFF36F8FBFF34F8FFEE7013B1360D3
:103888000BB983F31188704724000020EFF30980F7
:10389800BFF36F8F144B1A681EF0100F08BF20ED8E
:1038A800108A20E9F04F10604DF8043D4FF05000A9
:1038B80080F31188BFF34F8FBFF36F8F02F000FFC3
:1038C8004FF0000080F3118808BC19680868B0E858
:1038D800F04F1EF0100F08BFB0EC108A80F3098873
:1038E800BFF36F8F704700BFBC4D002008B5EFF3E2
:1038F80011834FF0500282F31188BFF36F8FBFF32B
:103908004F8F02F063FD18B1034B4FF080521A60DD
:10391800002383F3118808BD04ED00E0064B1A6804
:103928004FF47A73B2FBF3F2044B013A1A600722A0
:1039380043F8042C704700BF2800002014E000E082
:10394800304B07B51968304A914208D14FF05003FF
:1039580083F31188BFF36F8FBFF34F8FFEE71A68A9
:103968002A4B9A4208D14FF0500383F31188BFF3D2
:103978006F8FBFF34F8FFEE7254B1A78D2B20192B3
:10398800FF221A701B78DBB28DF803309DF80320F4
:10399800204B02F050021A701F4A072313609DF84B
:1039A8000310090603F1FF3007D59DF803305B00CB
:1039B800DBB28DF803300346F1E71B0203F4E06342
:1039C8001360019A124BD2B21A70D3F8202942F42C
:1039D8007002C3F82029D3F8202942F07042C3F8B6
:1039E8002029FFF79BFF0D4B00221A60FFF7ECFE22
:1039F8000B4B1A6842F040421A60FFF7D5FEFFF7FA
:103A0800BBFE00BF00ED00E071C20F4170C20F4164
:103A180000E400E0E84C0020EC4C002024000020EA
:103A280034EF00E0EFF305830F2B0ED9104A9B5CAF
:103A3800104A12789A4208D94FF0500383F311883C
:103A4800BFF36F8FBFF34F8FFEE70B4B1A680B4B1B
:103A58001B6802F4E0629A4208D94FF0500383F3DE
:103A68001188BFF36F8FBFF34F8FFEE7704700BF1A
:103A7800F0E300E0E84C00200CED00E0EC4C002006
:103A880038B51546026C044632B9056845BB40682E
:103A980002F082FF656024E06DB98068FCF7D4FB12
:103AA800A268236C13446268A360934218D3236806
:103AB8002846A36015E0C068FCF7C6FB236CE268E3
:103AC80021685B421A448A42E26002D26268134467
:103AD800E360022D04D1A36B13B1A36B013BA36375
:103AE8000020A36B0133A36338BD026C30B50346D5
:103AF8006AB1C46845681444AC42C46024BF046811
:103B0800C460BDE830400846D968FCF79DBB30BDAD
:103B180010B50446FFF784FEA36C002B0CDD636A26
:103B280053B104F1240002F045FE08B102F0D4FEBE
:103B3800A36C013BA364EFE74FF0FF33A364FFF7E7
:103B480091FEFFF76DFE636C002B0CDD236953B10A
:103B580004F1100002F02EFE08B102F0BDFE636C05
:103B6800013B6364EFE74FF0FF336364BDE8104047
:103B7800FFF778BE38B50D46044640B94FF05003FC
:103B880083F31188BFF36F8FBFF34F8FFEE7FFF703
:103B980047FE226CE06B23685043821A1918A36011
:103BA80013446160E36000214FF0FF33A163636455
:103BB800A36485B92369B3B104F1100002F0FAFDDA
:103BC800012810D10A4B4FF080521A60BFF34F8F73
:103BD800BFF36F8F07E004F11000FFF79DFC04F1BD
:103BE8002400FFF799FCFFF73DFE012038BD00BF18
:103BF80004ED00E0F8B50D461746064640B94FF00B
:103C0800500383F31188BFF36F8FBFF34F8FFEE725
:103C180011B14843013000E008465430FFF7AEFBCD
:103C2800044630B10DB920600CE000F15403036084
:103C380008E04FF0500383F31188BFF36F8FBFF391
:103C48004F8FFEE7E663256420460121FFF792FFC8
:103C580084F850702046F8BD10B50C4640B94FF0B6
:103C6800500383F31188BFF36F8FBFF34F8FFEE7C5
:103C7800814208D94FF0500383F31188BFF36F8F47
:103C8800BFF34F8FFEE700210222FFF7B3FF08B111
:103C9800846310BD4FF0500383F31188BFF36F8F17
:103CA800BFF34F8FFEE700002DE9FF410E4601925A
:103CB8001D46044640B94FF0500383F31188BFF303
:103CC8006F8FBFF34F8FFEE751B9036C43B14FF0CD
:103CD800500383F31188BFF36F8FBFF34F8FFEE755
:103CE800022D0BD1E36B012B08D04FF0500383F367
:103CF8001188BFF36F8FBFF34F8FFEE702F0F2FD1D
:103D080010B9019B002B72D10027FFF789FDA26B28
:103D1800E36B9A4201D3022D1AD1204631462A4636
:103D2800FFF7AEFE636A33B104F1240002F042FDEE
:103D3800012809D100E038B1334B4FF080521A60A6
:103D4800BFF34F8FBFF36F8FFFF78CFD012057E054
:103D5800DDF80480B8F1000F02D1FFF783FD44E0DD
:103D680017B902A802F068FDFFF77CFD02F026FBF8
:103D7800FFF756FD636C013304BF00236364A36C33
:103D8800013304BF0023A364FFF76CFD02A801A957
:103D980002F068FD20BBFFF743FDD4F83880E76BDD
:103DA800FFF760FDB84515D104F11000019902F044
:103DB800C9FC2046FFF7ACFE02F094FB08B10127CE
:103DC800A3E7114B4FF080521A60BFF34F8FBFF338
:103DD8006F8FF4E72046FFF79BFE02F083FBEEE7C8
:103DE8002046FFF795FE02F07DFB002008E04FF02B
:103DF800500383F31188BFF36F8FBFF34F8FFEE734
:103E080004B0BDE8F08100BF04ED00E070B50D46D8
:103E1800044640B94FF0500383F31188BFF36F8F06
:103E2800BFF34F8FFEE7036C43B14FF0500383F3AA
:103E38001188BFF36F8FBFF34F8FFEE703680BB98D
:103E480043684BBBFFF7EEFDEFF311864FF05003CD
:103E580083F31188BFF36F8FBFF34F8FA26BE36BB0
:103E68009A4217D2A36B0133A363A36C01330AD11F
:103E7800636A5BB104F1240002F09CFC30B12DB1FF
:103E88000120286003E0A36C0133A364012086F3BA
:103E9800118870BD0020FAE74FF0500383F31188B2
:103EA800BFF36F8FBFF34F8FFEE700002DE9FF418F
:103EB8000D4601929846044640B94FF0500383F3EB
:103EC8001188BFF36F8FBFF34F8FFEE751B9036CB3
:103ED80043B14FF0500383F31188BFF36F8FBFF3E3
:103EE8004F8FFEE702F0FEFC18B9019B002B40F053
:103EF80084800026FFF794FCA36B63B32046294611
:103F0800E668FFF7F2FDB8F1000F10D1A36B013B93
:103F1800A363236813B902F091FD60602369B3B10C
:103F280004F1100002F046FC012810D107E0636A92
:103F3800E66063B104F1240002F03CFC38B1354B73
:103F48004FF080521A60BFF34F8FBFF36F8FFFF7A8
:103F580089FC01205AE0019F17B9FFF783FC4AE06A
:103F680016B902A802F068FCFFF77CFC02F026FAFA
:103F7800FFF756FC636C013304BF00236364A36C32
:103F8800013304BF0023A364FFF76CFC02A801A956
:103F980002F068FC50BBFFF743FCA66BFFF762FC1E
:103FA800F6B9236833B9FFF73BFC606802F0AAFC56
:103FB800FFF758FC04F12400019902F0C3FB2046E6
:103FC800FFF7A6FD02F08EFA08B1012692E7114B21
:103FD8004FF080521A60BFF34F8FBFF36F8FF4E733
:103FE8002046FFF795FD02F07DFAEEE72046FFF741
:103FF8008FFD02F077FA002008E04FF0500383F3BA
:104008001188BFF36F8FBFF34F8FFEE704B0BDE891
:10401800F08100BF04ED00E00023074A02EBC30172
:104028004968814203D1002142F8331070470133B7
:10403800082BF2D1704700BF6098002010B50446E5
:1040480040B94FF0500383F31188BFF36F8FBFF36C
:104058004F8FFEE7FFF7E0FF2046BDE81040FFF76F
:1040680023BA704708B5032000F076F800210A4605
:104078006FF00B0000F082F800210A466FF00A008A
:1040880000F07CF800210A466FF0090000F076F88D
:1040980000210A466FF0040000F070F800210A467B
:1040A8006FF0030000F06AF86FF001000F210022A2
:1040B80000F064F84FF0FF300F210022BDE80840FF
:1040C80000F05CB8084B10B5044618684FF47A73D2
:1040D800B0FBF3F000F090F84FF0FF3021460022DB
:1040E80000F04CF8002010BD2800002008B50B4B4C
:1040F8001A6842F400721A601A6842F480621A6000
:104108001A6842F480721A60032000F025F80F2024
:10411800FFF7D8FFFFF7A6FF002008BD003C0240CC
:10412800024B1A6801321A60704700BF4898002095
:10413800014B1868704700BF4898002013B50190DC
:10414800FFF7F6FF0446FFF7F3FF019B001B9842B9
:10415800F9D302B010BD0000074AD1684FF6FF033B
:104168000B4043F0BF6343F4003300F0070043EA19
:104178000023D360704700BF00ED00E0164BDB68FA
:10418800C3F3022370B51D1DC3F10704042C28BF17
:104198000424062D4FF001058CBF033B002305FACC
:1041A80004F405FA03F6013C013E2140324001FACD
:1041B80003F3134300284FEA031305DADAB200F0D9
:1041C8000F00064B1A5470BD00F1604000F56140C5
:1041D800DBB280F8003370BD00ED00E014ED00E0C4
:1041E8004209012300F01F0003FA00F0014B43F8D5
:1041F8002200704700E100E00138B0F1807F0AD268
:10420800064B074A5860F02182F823100020072245
:1042180098601A6070470120704700BF10E000E006
:1042280000ED00E0044B1A6804280CBF42F00402B9
:1042380022F004021A60704710E000E02DE9F7430D
:104248000F68002301229A4002EA0705954240F0D0
:10425800CA804A6822F01006022E16D14FEAD30C03
:1042680000EB8C0C03F00708DCF820404FEA8808C4
:104278004FF00F0909FA08F924EA09090C6904FA48
:1042880008F849EA0804CCF820405C004FF0030C19
:10429800D0F800900CFA04FC6FEA0C0C02F003084A
:1042A8000CEA090908FA04F8013E49EA0808012E4F
:1042B800C0F8008010D886680CEA0608CE68A640C8
:1042C80048EA06068660466826EA0508C2F300162C
:1042D8009E4048EA06064660C6680CEA060C8E68E8
:1042E800A6404CEA0604C460D4007CD5414E0024A4
:1042F8000194D6F844C04CF4804CC6F844C0766C9F
:1043080006F480460196019E23F0030606F18046D6
:1043180006F59C3603F0030CD6F808904FEA8C0C8F
:104328004FF00F0808FA0CF829EA0808DFF8D090CF
:10433800484528D0304CA0421AD004F58064A042E9
:1043480018D004F58064A04216D004F58064A04219
:1043580014D004F58064A04212D004F58064A04211
:1043680010D004F58064A04214BF082407240AE092
:10437800012408E0022406E0032404E0042402E007
:10438800052400E0062404FA0CF444EA0804B460A6
:104398001A4ED6F800C0EC4312F4803F14BF45EA29
:1043A8000C0C04EA0C0CC6F800C0766812F4003F46
:1043B80014BF45EA060C04EA060C104EC6F804C001
:1043C800D6F808C012F4801F14BF45EA0C0C04EAA2
:1043D8000C0CC6F808C0F6689202084A54BF04EAF2
:1043E80006053543D5600133102B7FF42BAF03B09E
:1043F800BDE8F0830038024000040240003C014060
:10440800000002400368194A934284B00CD100238B
:104418000193174B5A6C42F001025A645B6C03F02B
:1044280001030193019B1EE0B3F1804F0CD10023DF
:1044380002930F4B1A6C42F001021A641B6C03F0D2
:1044480001030293029B0EE00A4A93420BD1002318
:104458000393074B1A6C42F010021A641B6C03F0AA
:1044680010030393039B04B0704700BF0000014092
:1044780000380240001000407047000070470000FC
:1044880010B50368B3F1A04F86B025D14FF4C053DF
:104498000193022302930323002404930F480394F7
:1044A8000A2301A90593FFF7C9FE0D4B5A6B42F089
:1044B80080025A6300945A6C42F480425A645B6CDE
:1044C80003F480430093432005212246009BFFF715
:1044D80055FE4320FFF784FE06B010BD00000240E1
:1044E800003802402DE9F04106468AB0002864D021
:1044F8000323344680F88133FFF7C2FF54F8100BCA
:1045080001F02BF90FCC6D460FC50FCC0FC594E801
:10451800030085E8030006F1040898E80E003068F7
:1045280001F0DEF80021306801F01DF906F11005F0
:1045380033460021012283F83810D987013183F8E6
:1045480039200F294FF0000283F83B201A645A647F
:10455800DA6403F11C03EDD1D6F800E0334602F12A
:10456800400183F8DC21DA870EEB81010132002754
:104578000F2A83F8DD7183F8DF71C3F8E471C3F89B
:10458800E871C3F8F0714F6003F11C03E7D10FCD58
:104598006C460FC40FCD0FC495E8030084E80300F0
:1045A800704698E80E0001F01FF9012386F8813360
:1045B800306801F09AFC384600E001200AB0BDE8F6
:1045C800F08190F88033012B10B504460CD00123FC
:1045D80080F88033006801F07CFC206801F0B7F8AF
:1045E800002084F8800310BD022010BD70471C23F2
:1045F80003FB0103D0F8B403D3F8E82102F0B6BCFA
:1046080070471C2303FB0103D0F8B4035A6C02F073
:10461800DDBC7047014601F56171D0F8B40302F0C2
:1046280078BC7047D0F8B40302F04FBD704710B59E
:10463800C16804460031D0F8B40318BF012102F064
:1046480032FDD4F8B403BDE8104002F00DBD0000FF
:104658007047000010B50446D0F8B40302F026FDF8
:104668002368D3F8002E42F00102C3F8002E236A13
:1046780023B1034B1A6942F006021A6110BD00BF4C
:1046880000ED00E07047D0F8B40302F018BD7047A1
:10469800D0F8B40302F027BD7047D0F8B40302F095
:1046A80020BD7047D0F8B40302F01FBD7047D0F8A2
:1046B800B40302F01CBD00002DE9F04F056887B077
:1046C8000446284601F048FC002840F0878220680C
:1046D80001F017FC002800F08182206801F011FC2D
:1046E800820704D523685A6902F002025A612068D9
:1046F80001F007FC10F400204DD0206801F005FC03
:1047080005F530668146A0460027B9F1000F43D071
:1047180019F0010F38D05FFA87FB2068594601F07D
:1047280003FC10F0010F824621D00123B3602369F6
:10473800012B0CD13269D8F8E431C2F312029A1A6B
:10474800C8F8F421D8F8E8211344C8F8E8315946E4
:104758002046FFF74CFF2169012908D13FB9D4F859
:10476800F03123B9206804F5617201F015FC1AF0E4
:10477800080F04D02046FFF74DFF0823B3601AF056
:10478800100F1CBF1023B36001374FEA59092036B8
:1047980008F11C08B9E70746206801F0B2FB43039B
:1047A80040F1A680206801F0B7FB2646824605F551
:1047B80010680027BAF1000F00F09A801AF0010F74
:1047C80000F08F805FFA87FB2068594601F0B4FB40
:1047D80010F0010F814620D0D5F83428012303FAC0
:1047E80007F122EA0102C5F83428C8F8083023691D
:1047F800012B03D1726C336C134473645946204601
:10480800FFF7FFFE2169012907D137B9E36C23B906
:10481800206804F5617201F0BFFB19F0080F1CBF96
:104828000823C8F8083019F0100F1CBF1023C8F867
:10483800083019F0400F1CBF4023C8F8083019F0A1
:10484800020F1CBF0223C8F8083019F0800F48D0A7
:10485800336DF26CD4F800C0D21A336C9A4234BF6C
:104868009146994609F103039B0804930CF51063DC
:1048780003EB47130593059A9369049A9BB29342F5
:104888000BD8B9F1000F2CD1DCF834280123BB4038
:1048980022EA0303CCF8343823E0326DF36C9A42F1
:1048A800EFD2002BEDD0316CC2EB0309894528BF4C
:1048B800894609F103039B080493237C009360460F
:1048C800716CCDF80CC01FFA89F35A4601F069F9EA
:1048D800736C4B447364336D4B443365DDF80CC023
:1048E800C9E701374FEA5A0A1C3608F1200861E780
:1048F800206801F006FB00280DDAD5F8043823F00B
:104908000103C5F804382046FFF7BDFE23685A693D
:1049180002F000425A61206801F0F3FA06050BD54F
:10492800D5F80838D80702D52046FFF793FE236844
:104938005A6902F400625A61206801F0E2FAC1047F
:104948004CD5D5F80438206823F00103C5F804389D
:10495800002100F01FFF606805F5006605F510638B
:104968000022824206D0FF2199600132C3F8081262
:104978002033F6E74FF0FF33C5F81838D5F81C3860
:1049880043F00113C5F81C38236B63B1D5F884389C
:1049980043F00B03C5F88438D5F8443843F00B03CB
:1049A800C5F8443809E0D5F8143843F00B03C5F8C6
:1049B8001438336943F00B033361D5F800382068A5
:1049C800217C23F4FE63C5F8003804F5617201F018
:1049D800E3FA23685A6902F480525A61206801F0A8
:1049E80090FA820478D5206801F0BAFA2068C36882
:1049F80023F47053C36000F08FFF28B94FF400739D
:104A08006361E060236845E00323E360402363615A
:104A180000F096FC734B744A03449342236803D80E
:104A2800DA6842F470524EE0704A714902448A4290
:104A380003D8DA6842F4605245E0A0F574016D4A83
:104A4800A1F51051914203D8DA6842F450523AE085
:104A5800A0F18371684AA1F5E741914203D8DA6869
:104A680042F440522FE0654A654902448A4203D81D
:104A7800DA6842F4305226E0624A634902448A42C4
:104A880003D8DA6842F420521DE0604A60490244C3
:104A98008A4203D8DA6842F4105214E0A0F1B771E0
:104AA8005C4AA1F55851914203D8DA6842F40052A1
:104AB80009E0594A594902448A42DA6894BF42F4E3
:104AC800E05242F4C052DA602046FFF7B0FD236896
:104AD8005A6902F400525A61206801F012FAC306BA
:104AE80036D523689A6922F010029A61D5F8208099
:104AF8001C2608F00F0306FB0346C8F34343022BAA
:104B080006F5EE7612D147F6F07208EA0202D2B143
:104B18004FEA121842462846F16801F069F9F3682D
:104B2800B26943444244F360B2610CE0062B0AD1F7
:104B3800284604F56171082201F05AF9B369C8F3EF
:104B48000A184344B36123689A6942F010029A61D3
:104B5800206801F0D6F9060707D52046FFF762FD61
:104B680023685A6902F008025A61206801F0C9F9FD
:104B7800C50208D52046F9B2FFF78FFD23685A69A8
:104B880002F480125A61206801F0BBF9800208D54E
:104B98002046F9B2FFF77CFD23685A6902F4001237
:104BA8005A61206801F0ADF9410007D52046FFF7AA
:104BB80079FD23685A6902F080425A61206801F041
:104BC800A0F942070AD523685D686B0702D520461D
:104BD800FFF76DFD23685A6815435D6007B0BDE8AF
:104BE800F08F00BF405327FFFF340C00401E1BFF0F
:104BF8003F420F007F4F12001FD6130060B6E5FE3C
:104C08005FE3160000D3CEFE3F771B00C05BB3FE08
:104C1800BF9121001F753800E05459FEDF9C410008
:104C280090F88033012B10B5044609D0012380F891
:104C38008033006801F03DF9002084F8800310BD3E
:104C4800022010BD70B5CDB215F0800F04464FF0AC
:104C58001C0601F07F0015BF06FB004106FB014161
:104C6800383101F5EE71C0B2ED0908704D708A60F7
:104C7800CB7005B1C880022B04BF00230B7194F8D8
:104C88008033012B09D0012384F88033206800F099
:104C980060FE002084F8800370BD022070BDCBB296
:104CA80013F0800F01F07F0210B504464FF01C008E
:104CB80015BF00FB024100FB0141383101F5EE71DF
:104CC800DB090A704B7094F88033012B09D001235B
:104CD80084F88033206800F081FE002084F8800387
:104CE80010BD022010BD38B504461C2501F07F0018
:104CF80005FB004505F5EE714B6100234B70CA605A
:104D08008B6185F8DC012369012B08BF0A6194F8DF
:104D18008023012A0FD0012284F88023DAB218B93F
:104D2800206800F096FE02E0206800F04DFF0020A9
:104D380084F8800338BD022038BD01F07F011C23B0
:104D480003FB0100B0F8F401704738B504461C2590
:104D580001F07F004543383561194B6100238B61B1
:104D680001234B70CA6060552369012B08BF0A6193
:104D780094F88023012A0FD0012284F88023DAB224
:104D880018B9206800F065FE02E0206800F01CFFFA
:104D9800002084F8800338BD022038BDCAB238B577
:104DA80012F0800F01F07F054FF01C0315BF03FBC5
:104DB800050103FB0101383101F5EE710123D20928
:104DC800EDB28B700D704A7090F880239A420446B9
:104DD8000FD080F88033006801F01BF82DB92068E7
:104DE800217C04F5617201F0D7F8002084F8800373
:104DF80038BD022038BD38B5CBB213F0800F01F0B2
:104E08007F0204464FF01C0015BF00FB024100FB67
:104E18000141383101F5EE71DB0900258D700A700A
:104E28004B7094F88033012B09D0012384F8803328
:104E3800206801F020F884F88053284638BD022005
:104E480038BD036830B55C6A19B944EA02449C620B
:104E580016E0986A04EB104400204D1EA84209D2BF
:104E680000F1400503EB850501306D68C0B204EB25
:104E78001544F2E73F3103EB810344EA02445C60E6
:104E8800002030BD03680020596270470368F7B5F9
:104E9800D907044603D423689A0737D479E0A14B8D
:104EA8009A6802F00C02042A07D09A6802F00C02F1
:104EB800082A0BD15B685B0208D59A4B1B689F03D5
:104EC800E9D56368002BE6D1012028E1964B2279C9
:104ED8001A7063686BB1FFF72BF90546914B1B6895
:104EE8009E03D8D4FFF724F9401B6428F6D9032081
:104EF80015E1FFF71DF905468A4B1B689803CAD5CB
:104F0800FFF716F9401B6428F6D9F0E7854B9A6835
:104F180012F00C0F07D09A6802F00C02082A0AD186
:104F28005B68590207D47F4B1A68920715D5E26867
:104F3800012AC9D111E0E2687C4BE2B101221A6072
:104F4800FFF7F6F80546774B1A68970705D4FFF779
:104F5800EFF8401B0228F6D9C9E71A68F82191FA38
:104F6800A1F12369B1FA81F122F0F8028B401343D1
:104F78006C4A13600DE01A60FFF7DAF80546694BD2
:104F88001B689E0705D5FFF7D3F8401B0228F6D902
:104F9800ADE72368180703D42368590744D51FE0F1
:104FA8006269634B72B101221A60FFF7C1F80546C6
:104FB8005C4B5B6F9A07EFD4FFF7BAF8401B0228E7
:104FC800F6D994E71A60FFF7B3F80546554B5B6FBF
:104FD8009B07E1D5FFF7ACF8401B0228F6D986E716
:104FE800002301934F4B1A6C42F080521A641B6CD9
:104FF80003F080530193019B4E4B1A6842F4807270
:105008001A60FFF795F805464A4B1B68DF050ED571
:10501800494B227A1A70A368BBB1FFF789F8054695
:10502800404B1B6F9E0708D5A369EBB95CE0FFF7FF
:105038007FF8401B0228E7D959E7FFF779F841F2D2
:105048008833401B9842EBD951E7FFF771F80546C2
:10505800344B1B6F9807E7D5FFF76AF841F288339E
:10506800401B9842F4D942E72E4A926802F00C029B
:10507800082A3FF429AF022B304B4FF000021A6088
:1050880040D1FFF755F80546264B1B6899012DD4EA
:1050980047F6C07797FAA7F74FF44036B7FA87F77D
:1050A80096FAA6F64FF07065B6FA86F695FAA5F563
:1050B800A36A206AE169626AE46A5B080143BA404C
:1050C800013B0A43B340B5FA85F51A43AC40154B8A
:1050D80022435A60194B01221A60FFF729F8044647
:1050E800104B1B689A0107D5002018E0FFF720F83D
:1050F800401B0228C8D9FAE6FFF71AF8001B022855
:10510800EED9F4E6FFF714F80446064B1B689B013A
:10511800EAD5FFF70DF8001B0228F6D9E7E603B039
:10512800F0BD00BF0038024002380240000047428C
:10513800800E4742007000407038024060004742CD
:105148001F4B9A6802F00C02042A10B536D0082AC0
:1051580001D01C4810BD59685A685C6812F4800F69
:1051680001F03F0147F6C0720CD092FAA2F2B2FAEF
:1051780082F347F6C0722240DA40134BB3FBF1F3D7
:1051880053430BE092FAA2F247F6C0730D48B2FA05
:1051980082F22340D340B0FBF1F14B43084A5068F8
:1051A8004FF4403292FAA2F2B2FA82F200F440309E
:1051B800D04001304000B3FBF0F010BD024810BDF4
:1051C800003802400024F40000127A00584B1A6894
:1051D80002F00F02914270B504460D460AD82368C2
:1051E8009A0710D5534AA168906820F0F00001434F
:1051F800916008E0CAB21A701B6803F00F038B4273
:10520800EDD0012070BDDE0706D4494B1A6802F0C4
:105218000F0295425BD361E06368464A012B03D1D4
:10522800126812F4003F08E0991E0129126802D89A
:1052380012F0007F01E012F0020FE2D03D4A9168BF
:1052480021F003010B439360FEF772FF6368012BA3
:1052580006460ED1374B9B6803F00C03042BD4D0C1
:10526800FEF766FF41F28833801B9842F2D903208B
:1052780070BD022B0DD12F4B9B6803F00C03082B3C
:10528800C3D0FEF755FF41F28833801B9842F2D90C
:10529800EDE7032B0CD0274B9B6813F00C0F0ED1B6
:1052A800B3E7FEF745FF41F28833801B9842DED80A
:1052B800204B9B6803F00C030C2BF2D1A5E7FEF7FB
:1052C80037FF41F28833801B9842E4D9CFE7EAB22E
:1052D8001A701B6803F00F03AB4292D123685D0775
:1052E80006D5144AE168906820F4E05001439160C3
:1052F800180707D50F4B21699A6822F4604242EAE1
:10530800C1029A60FFF71CFF0A4BF0229B6892FAD1
:10531800A2F2B2FA82F203F0F003D340064AD35C59
:10532800D840064B18600F20FEF7CCFE002070BD59
:10533800003C0240003802406A300408280000207F
:10534800014B1868704700BF28000020022380F82E
:10535800393003681A6842F001021A60012380F8A4
:10536800393000207047022380F839300368196A01
:1053780041F211120A4042B9196A40F244420A4005
:105388001AB91A6822F001021A60012380F839302C
:10539800002070470368DA6842F00102DA601A6890
:1053A80042F001021A60002070470368DA6822F0B0
:1053B8000102DA60196A41F211120A4042B9196A07
:1053C80040F244420A401AB91A6822F001021A60EF
:1053D8000020704790F83830012B30B54FF00203A9
:1053E80000F0B08080F839300368012280F8382056
:1053F8009A6822F47F4222F077029A600A68402A6B
:1054080077D018D8102A00F08B8008D8002A40F0EE
:1054180093809A6822F0700242F007028BE0202AFB
:1054280000F08480302A40F087809A6822F0700269
:1054380042F037027FE0702A35D01BD8502A41D07D
:10544800602A79D11A6A4C68CD6822F010021A6273
:1054580099691A6A21F4704122F0A00242EA041202
:1054680041EA053199611A629A6822F0700242F0A5
:10547800670260E0B2F5805F11D0B2F5005F5BD1E2
:105488009D684C688A6825F47F452243CC682A4386
:1054980042EA04229A609A6842F480424BE09A6891
:1054A80022F0070247E09D684C688A6825F47F452A
:1054B8002243CC682A4342EA04229A609A6842F05E
:1054C800770238E01A6A4C68CD68196A21F0010140
:1054D8001962996922F00A0221F0F001224341EA97
:1054E800051199611A629A6822F0700242F0570217
:1054F80021E01A6A4C68CD68196A21F00101196225
:10550800996922F00A0221F0F001224341EA0511CB
:1055180099611A629A6822F0700242F047020AE022
:105528009A6822F0700242F0170204E09A6822F0AA
:10553800700242F027029A60012380F83930002374
:1055480080F83830184630BD2E4A0368904212D091
:10555800B0F1804F0FD0A2F57C4290420BD002F5FB
:105568008062904207D002F58062904203D002F533
:105578007842904218D14A6823F070031343214AB5
:10558800904237D0B0F1804F34D01F4A904231D08A
:1055980002F5806290422DD002F58062904229D0B7
:1055A80002F57842904225D0184A904222D002F55E
:1055B800806290421ED002F5806290421AD0A2F515
:1055C8009832904216D002F58062904212D002F5CD
:1055D800806290420ED003608B68C3620B6883625E
:1055E800084B98420BD003F58063984207D00123FB
:1055F80043617047CA6823F440731343EBE70B69B0
:105608000363F4E70000014000040040004001404B
:1056180010B50446A0B190F8393003F0FF021BB969
:1056280080F83820FEF7EEFE022384F8393020682F
:10563800211DFFF789FF012384F83930002010BDB0
:10564800012010BD90F83830012B10B54FF002033F
:1056580018D080F8393003685A6822F070025A600E
:105668005C680A6822435A609A6822F080029A604D
:105678009C684A6822439A60012380F839300023E5
:1056880080F83830184610BD7047FEE7FEE7FEE7A1
:10569800FEE7704708B5FEF743FDBDE80840FDF793
:1056A8003FBE00000148FFF707B800BF7094002014
:1056B8000A4B013B01D1032070470269002AF8DA3E
:1056C800036943F001030361044B013BF3D0026912
:1056D80012F00102F9D11046704700BF410D0300D6
:1056E80084B038B505AD85E80E000A9B012B044649
:1056F80018D1836B23F480338363C36823F4840352
:1057080023F04003C360C36823F44013C360119BB4
:10571800012B03D1C36843F48013C3602046FFF70D
:10572800C7FF08E0C36843F04003C360FFF7C0FF4A
:105738004FF48033A363089B012B03D1A36843F084
:105748002003A360BDE83840002004B07047836898
:1057580043F00103836000207047836823F001034E
:1057680083600020704708B5C368012923F0C0434F
:10577800C36004D1C36843F00053C36004E019B99F
:10578800C36843F08043C3603220FEF7D7FC002093
:1057980008BD0000890141F02001064B0161013B71
:1057A80005D0026912F02002F9D110467047032093
:1057B800704700BF410D030010230361054B013BF7
:1057C80005D0026912F01002F9D110467047032083
:1057D800704700BF410D0300D0F800381943C0F8E6
:1057E800001800207047000084B02DE9F0410446FD
:1057F80007A880E80E00A36B119E0A9F43F40023BC
:105808008846A3631EB9A36B43F40013A363002364
:10581800C4F8003ED4F80038C4F800380C9B012BBB
:1058280004F5006506D10999204629B11946FFF704
:10583800D3FF03E020460321FFF7CEFF10212046C7
:10584800FFF7A8FF2046FFF7B7FF00224FF0FF330E
:105858002A61C4F81428C4F81838C4F81C2804F5B8
:10586800106342450FD019680029B8BF4FF0904027
:105878004FF00001ACBF196018601961FF219960F1
:1058880001322033EDE704F53063002242450FD0A2
:1058980019680029B8BF4FF090404FF00001ACBF25
:1058A800196018601961FF21996001322033EDE712
:1058B8002B69012F23F480732B6108D1144B2B63C0
:1058C8002B6B43F4803343F003032B632B6B0023D0
:1058D800A3616FF0804363611FB9A36943F01003AC
:1058E800A361A2690B4B1343A3610D9B1BB1A36971
:1058F80043F00803A361012E05D1A36943F0804357
:1059080043F00403A361BDE8F041002004B07047F0
:105918000001800000383C80D0F8083813F0060FEA
:1059280001D100207047D0F8083803F00603022B95
:105938000DD0D0F8083803F00603062B07D0D0F8AE
:10594800083803F00603042BEBD10220704703202C
:10595800704730B54A780B78012A1FD1D0F81C4817
:1059680002FA03F39BB22343C0F81C380A784FF4B9
:10597800106303EB42131C5824042DD41D588C6863
:10598800C97845F0805545F40045C4F30A042C4312
:1059980044EA814444EA82521A501DE0D0F81C2897
:1059A8004FF4803404FA03F31343C0F81C380A7820
:1059B8004FF4306303EB42131A5812040CD41C58EA
:1059C8008A68C97844F0805444F40044C2F30A0257
:1059D800224342EA81421A50002030BD4B780A78AF
:1059E800012B10B5D0F83C4819D103FA02F292B253
:1059F80024EA0202C0F83C280C78D0F81C28A340FE
:105A08009BB222EA0303C0F81C380A784FF41063EB
:105A180003EB42131A5822F400421A5017E00123EC
:105A280003FA02F224EA0242C0F83C280C78D0F8C3
:105A38001C28A34022EA0343C0F81C380A784FF414
:105A4800306303EB42131A5822F400421A50002024
:105A580010BD4B78012BF0B54D690E7861D120242B
:105A68004FF4106314FB06360644B5B9356925F0C2
:105A7800FF5525F4C01535610D7814FB053505442F
:105A88002E6946F400262E610D7814FB0533034475
:105A98001D69ED0CED041D6126E03769FF0CFF045C
:105AA80037610E7814FB063303441C6924F0FF5455
:105AB80024F4C0141C618B689D420D7888BF4B612B
:105AC8004FF41064202313FB054505442E6946F462
