:020000040800F2
:1000000000000220B5280008A15E0008A35E0008D9
:10001000A55E0008A75E0008A95E000800000000B9
:100020000000000000000000000000004D5000082B
:10003000AB5E000800000000D9500008AD5E00086B
:1000400005290008052900080529000805290008D8
:1000500005290008052900080529000805290008C8
:1000600005290008052900080529000805290008B8
:1000700005290008052900080529000805290008A8
:100080000529000805290008052900080529000898
:100090000529000805290008052900080529000888
:1000A0000529000805290008052900080529000878
:1000B0000529000805290008052900080529000868
:1000C0000529000805290008052900080529000858
:1000D0000529000805290008052900080529000848
:1000E0000529000805290008052900080529000838
:1000F0000529000805290008052900080529000828
:100100000529000805290008052900080529000817
:100110000529000805290008052900080529000807
:1001200005290008052900080529000805290008F7
:1001300005290008052900080529000805290008E7
:10014000052900080529000805290008C15E0008E6
:1001500005290008052900080529000805290008C7
:1001600005290008052900080529000805290008B7
:1001700005290008052900080529000800000000DD
:0801800005290008052900080B
:1001A000044B05481B1A062B02D9044B03B1184710
:1001B000704700BFC70E0020C40E002000000000E2
:1001C00005490648091A891001EBD171491002D07E
:1001D000034B03B118477047C40E0020C40E002023
:1001E0000000000010B5064C237843B9FFF7D8FF94
:1001F000044B13B10448AFF300800123237010BDFA
:10020000C80E002000000000A05E050808B5084BDD
:100210001BB108480849AFF300800848036813B9C8
:10022000BDE80840CCE7064B002BF9D09847F7E72C
:1002300000000000A05E0508CC0E0020C40E0020C7
:1002400000000000844641EA000313F003036DD16F
:10025000403A41D351F8043B40F8043B51F8043B89
:1002600040F8043B51F8043B40F8043B51F8043B90
:1002700040F8043B51F8043B40F8043B51F8043B80
:1002800040F8043B51F8043B40F8043B51F8043B70
:1002900040F8043B51F8043B40F8043B51F8043B60
:1002A00040F8043B51F8043B40F8043B51F8043B50
:1002B00040F8043B51F8043B40F8043B51F8043B40
:1002C00040F8043B51F8043B40F8043B51F8043B30
:1002D00040F8043B403ABDD2303211D351F8043BD0
:1002E00040F8043B51F8043B40F8043B51F8043B10
:1002F00040F8043B51F8043B40F8043B103AEDD27F
:100300000C3205D351F8043B40F8043B043AF9D2CF
:10031000043208D0D2071CBF11F8013B00F8013BA2
:1003200001D30B8803806046704700BF082A13D3AF
:100330008B078DD010F003038AD0C3F10403D21AC7
:10034000DB071CBF11F8013B00F8013B80D331F8FB
:10035000023B20F8023B7BE7043AD9D3013A11F87B
:10036000013B00F8013BF9D20B7803704B784370E6
:100370008B7883706046704700000000000000002A
:10038000A2EB0300704700BF02780B78012A28BF58
:100390009A42F5D16DE9044540EA0104CDE90267CE
:1003A0006FF0000C4FEA447212B380EA010414F0BB
:1003B000070F6AD100F0070420F0070004F00305DE
:1003C00021F007014FEAC505F0E8042314F0040FFB
:1003D000F1E804670CFA05F462EA040266EA04062E
:1003E0000AD063EA0403624667EA0407664603E04C
:1003F000F0E80423F1E8046782FA4CF582EA060487
:10040000A4FA8CF46CBB83FA4CF583EA0705A5FAD1
:100410008CF595B950E9022351E9026782FA4CF54F
:1004200082EA0604A4FA8CF483FA4CF583EA070501
:10043000A5FA8CF52543DBD09CB92DBAB5FA85F425
:1004400024F0070427FA04F1DDE9026723FA04F334
:1004500003F0FF0001F0FF01FDE80445A0EB0100FF
:10046000704724BAB4FA84F424F0070426FA04F19D
:10047000DDE9026722FA04F202F0FF0001F0FF0159
:10048000FDE80445A0EB0100704714F0030F3CD1D8
:1004900010F0030428D150F8082B51F8083B82FAD9
:1004A0004CF582EA0305A5FA8CF55DB950F8042CE9
:1004B00051F8043C82FA4CF582EA0305A5FA8CF562
:1004C000002DE8D02DBAB5FA85F424F0070423FAFC
:1004D00004F122FA04F202F0FF0001F0FF01FDE84E
:1004E0000445A0EB010070474FEAC40420F003006C
:1004F00050F8082B21F0030151F8083B0CFA04F4E2
:1005000062EA040263EA0403C9E710F003041AD0A4
:10051000A1EB040120F00300E40750F8042B06D0FF
:100520000FD28B785FFAA2F4E41A06D12BB1CB7804
:100530005FFAB2F4E41A00D11BB920465DF8104B03
:10054000704701F1040150F8042BCC0721F003019E
:1005500051F8043B48D824D222F07F4482FA4CF56B
:1005600094EA1325A5FA8CF50AD165B951F8043B34
:1005700084EA0204B4EB036F0ED150F8042BEBE7CE
:100580004FEA132355E035F07F454DD10878FDE85B
:100590000445C0F1000070474FEA126203F0FF0308
:1005A00047E002EA1C4482FA4CF594EA1345A5FAA6
:1005B0008CF50AD165B951F8043B84EA0204B4EB26
:1005C000034F0CD150F8042BEBE74FEA134330E014
:1005D00015EA1C4528D10B884FEA124229E04FEA60
:1005E000124203EA1C4324E002F0FF0482FA4CF5B5
:1005F00094EA1365A5FA8CF50AD165B951F8043B64
:1006000084EA0204B4EB032F09D150F8042BEBE782
:100610004FEA13630DE015F0FF0F05D10B684FEAA9
:10062000122223F07F4304E04FF00000FDE8044570
:10063000704712BA1BBA82FA4CF482EA0304A4FA95
:100640008CF5B5FA85F402FA04F203FA04F34FEAE2
:100650001260FDE80445A0EB13607047AFF3008023
:10066000D0400B1CD1409C46203AD3401843524204
:1006700063469340184370479140031C90409C464A
:10068000203A9340194352426346D340194370477E
:1006900081F0004102E000BF83F0004330B54FEA33
:1006A00041044FEA430594EA050F08BF90EA020FA0
:1006B0001FBF54EA000C55EA020C7FEA645C7FEA33
:1006C000655C00F0E2804FEA5454D4EB5555B8BF56
:1006D0006D420CDD2C4480EA020281EA030382EAC7
:1006E000000083EA010180EA020281EA0303362D59
:1006F00088BF30BD11F0004F4FEA01314FF4801C2C
:100700004CEA113102D0404261EB410113F0004F3D
:100710004FEA03334CEA133302D0524263EB4303F4
:1007200094EA050F00F0A780A4F10104D5F1200E92
:100730000DDB02FA0EFC22FA05F2801841F10001ED
:1007400003FA0EF2801843FA05F359410EE0A5F1C1
:1007500020050EF1200E012A03FA0EFC28BF4CF0F2
:10076000020C43FA05F3C01851EBE37101F00045A8
:1007700007D54FF0000EDCF1000C7EEB00006EEBB5
:100780000101B1F5801F1BD3B1F5001F0CD349083F
:100790005FEA30004FEA3C0C04F101044FEA445296
:1007A00012F5800F80F09A80BCF1004F08BF5FEA1D
:1007B000500C50F1000041EB045141EA050130BDFD
:1007C0005FEA4C0C404141EB010111F4801FA4F1A0
:1007D0000104E9D191F0000F04BF01460020B1FAF5
:1007E00081F308BF2033A3F10B03B3F120020CDA2D
:1007F0000C3208DD02F1140CC2F10C0201FA0CF00B
:1008000021FA02F10CE002F11402D8BFC2F1200C6F
:1008100001FA02F120FA0CFCDCBF41EA0C01904025
:10082000E41AA2BF01EB0451294330BD6FEA04046E
:100830001F3C1CDA0C340EDC04F11404C4F1200259
:1008400020FA04F001FA02F340EA030021FA04F36B
:1008500045EA030130BDC4F10C04C4F1200220FAC2
:1008600002F001FA04F340EA0300294630BD21FA00
:1008700004F0294630BD94F0000F83F4801306BFC6
:1008800081F480110134013D4EE77FEA645C18BFBA
:100890007FEA655C29D094EA050F08BF90EA020F51
:1008A00005D054EA000C04BF1946104630BD91EA49
:1008B000030F1EBF0021002030BD5FEA545C05D14C
:1008C0004000494128BF41F0004130BD14F580048B
:1008D0003CBF01F5801130BD01F0004545F0FE41FF
:1008E00041F470014FF0000030BD7FEA645C1ABF34
:1008F000194610467FEA655C1CBF0B46024650EA6B
:10090000013406BF52EA033591EA030F41F4002196
:1009100030BD00BF90F0000F04BF0021704730B51C
:100920004FF4806404F132044FF000054FF00001F1
:1009300050E700BF90F0000F04BF0021704730B5B2
:100940004FF4806404F1320410F0004548BF404287
:100950004FF000013EE700BF42004FEAE2014FEADC
:1009600031014FEA02701FBF12F07F4393F07F4FB7
:1009700081F06051704792F0000F14BF93F07F4FE9
:10098000704730B54FF4607401F0004521F000412C
:1009900020E700BF50EA010208BF704730B54FF0B2
:1009A00000050AE050EA010208BF704730B511F0B7
:1009B000004502D5404261EB41014FF4806404F1EF
:1009C00032045FEA915C3FF4DCAE4FF003025FEA71
:1009D000DC0C18BF03325FEADC0C18BF033202EBF9
:1009E000DC02C2F1200300FA03FC20FA02F001FA53
:1009F00003FE40EA0E0021FA02F11444C1E600BFF2
:100A000070B54FF0FF0C4CF4E06C1CEA11541DBFA4
:100A10001CEA135594EA0C0F95EA0C0F00F0DEF86F
:100A20002C4481EA030621EA4C5123EA4C5350EA54
:100A3000013518BF52EA033541F4801143F48013A5
:100A400038D0A0FB02CE4FF00005E1FB02E506F036
:100A50000042E0FB03E54FF00006E1FB03569CF08B
:100A6000000F18BF4EF0010EA4F1FF04B6F5007F91
:100A700064F5407404D25FEA4E0E6D4146EB060603
:100A800042EAC62141EA55514FEAC52040EA5E508C
:100A90004FEACE2EB4F1FD0C88BFBCF5E06F1ED836
:100AA000BEF1004F08BF5FEA500E50F1000041EB6D
:100AB000045170BD06F0004646EA010140EA02001A
:100AC00081EA0301B4EB5C04C2BFD4EB0C0541EA3C
:100AD000045170BD41F480114FF0000E013C00F351
:100AE000AB8014F1360FDEBF002001F0004170BD75
:100AF000C4F10004203C35DA0C341BDC04F114048E
:100B0000C4F1200500FA05F320FA04F001FA05F219
:100B100040EA020001F0004221F0004110EBD370E6
:100B200021FA04F642EB06015EEA430E08BF20EA12
:100B3000D37070BDC4F10C04C4F1200500FA04F3B5
:100B400020FA05F001FA04F240EA020001F0004147
:100B500010EBD37041F100015EEA430E08BF20EABA
:100B6000D37070BDC4F1200500FA05F24EEA020E02
:100B700020FA04F301FA05F243EA020321FA04F031
:100B800001F0004121FA04F220EA020000EBD370E8
:100B90005EEA430E08BF20EAD37070BD94F0000FE8
:100BA0000FD101F00046400041EB010111F4801F1C
:100BB00008BF013CF7D041EA060195F0000F18BFCD
:100BC000704703F00046520043EB030313F4801F09
:100BD00008BF013DF7D043EA0603704794EA0C0FC3
:100BE0000CEA135518BF95EA0C0F0CD050EA4106D9
:100BF00018BF52EA4306D1D181EA030101F0004156
:100C00004FF0000070BD50EA410606BF104619467D
:100C100052EA430619D094EA0C0F02D150EA013689
:100C200013D195EA0C0F05D152EA03361CBF1046CA
:100C300019460AD181EA030101F0004141F0FE4169
:100C400041F470014FF0000070BD41F0FE4141F4ED
:100C5000780170BD70B54FF0FF0C4CF4E06C1CEAED
:100C600011541DBF1CEA135594EA0C0F95EA0C0FA2
:100C700000F0A7F8A4EB050481EA030E52EA03355D
:100C80004FEA013100F088804FEA03334FF080557E
:100C900045EA131343EA12634FEA022245EA1115AB
:100CA00045EA10654FEA00260EF000419D4208BF5C
:100CB000964244F1FD0404F5407402D25B084FEA09
:100CC0003202B61A65EB03055B084FEA32024FF4B5
:100CD00080104FF4002CB6EB020E75EB030E22BF12
:100CE000B61A754640EA0C005B084FEA3202B6EBD2
:100CF000020E75EB030E22BFB61A754640EA5C0081
:100D00005B084FEA3202B6EB020E75EB030E22BF10
:100D1000B61A754640EA9C005B084FEA3202B6EB11
:100D2000020E75EB030E22BFB61A754640EADC00D0
:100D300055EA060E18D04FEA051545EA16754FEA32
:100D400006164FEAC30343EA52734FEAC2025FEA50
:100D50001C1CC0D111F4801F0BD141EA00014FF0DF
:100D600000004FF0004CB6E711F4801F04BF0143B0
:100D70000020B4F1FD0C88BFBCF5E06F3FF6AFAECC
:100D8000B5EB030C04BFB6EB020C5FEA500C50F15C
:100D9000000041EB045170BD0EF0004E4EEA1131DF
:100DA00014EB5C04C2BFD4EB0C0541EA045170BDE6
:100DB00041F480114FF0000E013C90E645EA060E2A
:100DC0008DE60CEA135594EA0C0F08BF95EA0C0F58
:100DD0003FF43BAF94EA0C0F0AD150EA01347FF4A0
:100DE00034AF95EA0C0F7FF425AF104619462CE777
:100DF00095EA0C0F06D152EA03353FF4FDAE1046DA
:100E0000194622E750EA410618BF52EA43067FF42A
:100E1000C5AE50EA41047FF40DAF52EA43057FF4BA
:100E2000EBAE12E74FF0FF3C06E000BF4FF0010CC5
:100E300002E000BF4FF0010C4DF804CD4FEA410C29
:100E40007FEA6C5C4FEA430C18BF7FEA6C5C1BD0F6
:100E500001B050EA410C0CBF52EA430C91EA030F77
:100E600002BF90EA020F0020704710F1000F91EAD4
:100E7000030F58BF994208BF90422CBFD8176FEAA2
:100E8000E37040F0010070474FEA410C7FEA6C5C70
:100E900002D150EA013C07D14FEA430C7FEA6C5C77
:100EA000D6D152EA033CD3D05DF8040B704700BFA3
:100EB0008446104662468C461946634600E000BFF1
:100EC00001B5FFF7B7FF002848BF10F1000F01BDC3
:100ED0004DF808EDFFF7F4FF0CBF012000205DF88E
:100EE00008FB00BF4DF808EDFFF7EAFF34BF012013
:100EF00000205DF808FB00BF4DF808EDFFF7E0FFAC
:100F000094BF012000205DF808FB00BF4DF808EDFC
:100F1000FFF7CEFF94BF012000205DF808FB00BF63
:100F20004DF808EDFFF7C4FF34BF012000205DF845
:100F300008FB00BF4FEA410212F5001215D211D58D
:100F40006FF47873B3EB625212D94FEAC12343F0C6
:100F5000004343EA505311F0004F23FA02F018BF48
:100F6000404270474FF00000704750EA013005D111
:100F700011F0004008BF6FF0004070474FF00000D4
:100F8000704700BF4A0011D212F5001211D20DD5E0
:100F90006FF47873B3EB62520ED44FEAC12343F07F
:100FA000004343EA505323FA02F070474FF0000029
:100FB000704750EA013002D14FF0FF3070474FF0D8
:100FC000000070474FEA4102B2F1E04324BFB3F59D
:100FD000001CDCF1FE5C0DD901F0004C4FEAC002B0
:100FE0004CEA5070B2F1004F40EB830008BF20F094
:100FF0000100704711F0804F21D113F13872BCBF4E
:1010000001F00040704741F480114FEA5252C2F1A2
:101010001802C2F1200C10FA0CF320FA02F018BFEB
:1010200040F001004FEAC1234FEAD32303FA0CFC3E
:1010300040EA0C0023FA02F34FEA4303CCE77FEACD
:10104000625307D150EA01331EBF4FF0FE4040F417
:101050004000704701F0004040F0FE4040F40000C6
:10106000704700BF80F0004002E000BF81F0004107
:1010700042001FBF5FEA410392EA030F7FEA226C3E
:101080007FEA236C6AD04FEA1262D2EB1363C1BFCE
:10109000D218414048404140B8BF5B42192B88BF3D
:1010A000704710F0004F40F4000020F07F4018BF60
:1010B000404211F0004F41F4000121F07F4118BF80
:1010C000494292EA030F3FD0A2F1010241FA03FC28
:1010D00010EB0C00C3F1200301FA03F100F0004310
:1010E00002D5494260EB4000B0F5000F13D3B0F1D8
:1010F000807F06D340084FEA310102F10102FE2A47
:1011000051D2B1F1004F40EBC25008BF20F00100B6
:1011100040EA03007047490040EB000010F4000F64
:10112000A2F10102EDD1B0FA80FCACF1080CB2EBF7
:101130000C0200FA0CF0AABF00EBC2505242184356
:10114000BCBFD0401843704792F0000F81F40001FB
:1011500006BF80F400000132013BB5E74FEA4103CE
:101160007FEA226C18BF7FEA236C21D092EA030F3A
:1011700004D092F0000F08BF0846704790EA010FB4
:101180001CBF0020704712F07F4F04D1400028BFE1
:1011900040F00040704712F100723CBF00F50000C3
:1011A000704700F0004343F0FE4040F400007047F9
:1011B0007FEA226216BF08467FEA236301464202A5
:1011C00006BF5FEA412390EA010F40F480007047B8
:1011D0004FF0000304E000BF10F0004348BF40425E
:1011E0005FEA000C08BF704743F0964301464FF09A
:1011F00000001CE050EA010208BF70474FF00003F6
:101200000AE000BF50EA010208BF704711F0004336
:1012100002D5404261EB41015FEA010C02BF844606
:101220000146002043F0B64308BFA3F18053A3F565
:101230000003BCFA8CF2083AA3EBC25310DB01FAAC
:1012400002FC634400FA02FCC2F12002BCF1004F30
:1012500020FA02F243EB020008BF20F001007047C1
:1012600002F1200201FA02FCC2F1200250EA4C0015
:1012700021FA02F243EB020008BF20EADC7070475B
:101280007BB972B90029BEBF00204FF0004106E0D3
:1012900008BF00281CBF6FF000414FF0FF3001F085
:1012A00083B882B0EC462DE9005000F091F8DDF8EB
:1012B00004E002B00CBC704753B94AB9002908BF1A
:1012C00000281CBF4FF0FF314FF0FF3001F06CB829
:1012D00082B0EC462DE9005000F092F8DDF804E011
:1012E00002B00CBC704700BF07EE900AF5EEC07A62
:1012F000F1EE10FA01D400F021B808B580F00040FA
:1013000000F01CF8404261EB410108BD38B50022F5
:10131000002304460D46FFF7E5FD28B9204629467F
:10132000BDE8384000F030B8204605F1004100F03B
:101330002BF8404261EB410138BD00BFD0B5FFF74B
:101340000BFB00220E4B06460F46FFF759FBFFF73B
:1013500019FE0446FFF7DEFA00220A4BFFF750FBA6
:1013600002460B4630463946FFF796F9FFF70AFE6C
:101370002346002242EA000210461946D0BD00BFB3
:101380000000F03D0000F041D0B500220E4B0646B3
:101390000F46FFF735FBFFF7F5FD0446FFF7BAFAF6
:1013A00000220A4BFFF72CFB02460B46304639461B
:1013B000FFF772F9FFF7E6FD2346002242EA00023A
:1013C00010461946D0BD00BF0000F03D0000F041BE
:1013D0002DE9F041069C154606460F46984600F05A
:1013E000E5FF05FB01F300FB0838A5FB0023B21A5B
:1013F000434467EB0303C4E90023BDE8F08100BF69
:101400002DE9F041069C904606460F461D4601F028
:101410001BF900FB05F5A0FB082308FB0155B21AD8
:101420002B4467EB0303C4E90023BDE8F08100BF50
:1014300003685A004CBF43F0004323F000431844B4
:10144000704700BF2DE9F04F83B099B34B1E17468C
:10145000054601939846002606EB080404EBD47475
:1014600064104FEAC40A05EB0A0B5846FFF7E0FF89
:10147000019B8146A3420AF1080028440ED0FFF7E1
:10148000D7FFB94500F1FF3004D9B4420CD004F1C4
:10149000FF38E1E7B84203D2661CDDE7B945F4D86E
:1014A000584603B0BDE8F08F4FF0000B584603B02C
:1014B000BDE8F08F8B46584603B0BDE8F08F00BF03
:1014C000012807D0022807D0044B00280CBF18467B
:1014D000002070470248704702487047CD1B000843
:1014E000D11B0008D51B000830B5244B83B004463F
:1014F0008D1E7BB3284601A9AFF3008020B301996C
:101500002A46FFF79FFF0546F0B1FFF791FF6B6892
:10151000A064012B12D0002B05F1040020DBFFF7A3
:1015200087FF0023E06423650368002B1CDBFFF7C3
:101530007FFF00232061184603B030BD00232361E4
:101540000523184603B030BD002323610923184644
:1015500003B030BD0A490B48091AC9100191CFE701
:101560000123E0642365DFE7C3F30360FFF7A8FF0F
:10157000002820610CBF09230023DCE700000000E5
:1015800080B40508908E05080368DA0710B5044694
:1015900006D49B0700F1480009D500F085FC2368BC
:1015A000590709D51A070ED5DB0613D510BD00F073
:1015B00073FC23685907F5D404F1D00000F07CFCDB
:1015C00023681A07F0D404F5A87000F07DFC2368A6
:1015D000DB06EBD404F5E870BDE8104000F0B8BCC1
:1015E00003680BB1184470471846704709207047CC
:1015F000704700BF70B504460D4608E02B6C636170
:101600000120236921462A469847082808D1204608
:10161000296CFFF769FF06460028EFD044F0A2FFCF
:101620000728FBD13046296CFFF7E2FF281D00F0A8
:1016300027FC00BF2DE9F0470C1D064617460FCCCE
:10164000ADF5727D03AD0FC50FCC0FC50FCC0FC527
:1016500094E80F0002AC4FF0000ED6F80C80D6F8DC
:10166000189085E80F003046216CC4F800E0FFF7C1
:101670003BFF002F05460CBF09270A277DB1A36B4E
:1016800047F010018DE810020120636432463346B2
:10169000C04778BB28460DF5727DBDE8F087236C06
:1016A000736121464FF4F0727AA8FEF7CBFD3369DF
:1016B00031467AAA38469847889B82468DE81002C0
:1016C00039466364012032463346C04790B920460C
:1016D0007AA94FF4F072FEF7B5FDBAF1080F06D102
:1016E0003046216CFFF700FF09270546C6E7BAF12F
:1016F000070F04D009200DF5727DBDE8F08728465C
:10170000216CFFF775FF03A800F0BAFB406C70472F
:10171000F0B5CB6B0B640E1D0F4604460FCEF9B02F
:1017200001AD0FC50FCE0FC50FCE0FC596E80F0048
:101730004FF0FF3685E80F00009606E0236921464A
:101740006A4698470828054608D120461099FFF7B1
:10175000CBFE0028F2D0092079B0F0BD6846FFF733
:1017600013FF062DF7D120463946FFF743FF00BF90
:1017700030B4DD6BC160826119461D64002230BC4B
:1017800058E700BF70B5C66843690B6404460D4650
:1017900026B10122FFF74EFF44F0E4FE0369214623
:1017A00002202A469847072807D0082803D1204658
:1017B0002946FFF71FFF44F0D5FE3046296CFFF79E
:1017C00017FF281D00F05CFBC2681AB1CA6B0A64DF
:1017D00000222FE79CE700BF704700BF836813B16A
:1017E000014601201847704700B5042907D8DFE8F3
:1017F00001F00309060909000BB90F2A05D90220D7
:101800005DF804FB01205DF804FB00EB8202184642
:101810005368019A13605DF804FB00BF00B585B002
:101820000A4603AB002100930B46FFF7DDFF039848
:1018300005B05DF804FB00BF00B5042907D8DFE858
:1018400001F00309060909000BB90F2A05D9022086
:101850005DF804FB01205DF804FB019900EB8202B6
:101860000968516018465DF804FB00BF10B584B0EC
:1018700004AB0C4643F8042D0021009322460B468E
:10188000FFF7DAFF04B010BDF0B5D36B1364151D7C
:1018900007460E460FCDADF50F7D17AC0FC40FCD2B
:1018A0000FC40FCD0FC495E80F004FF0FF3584E84B
:1018B0000F00169510E016A8FFF7D8FF314616A8BE
:1018C000B847694616AA78B9049B082098470528A6
:1018D00004460AD0092807D026996846FFF704FE77
:1018E0006A460C210028E6D0092416A8FFF74CFE12
:1018F00020460DF50F7DF0BD2DE9F04F0D46C96C6A
:101900008BB00C1D096807919046089400F00309FC
:101910001E46002B64D10902032307918DF8256030
:101920008DF824302B6DB9F1020F08BFAC6B13F0AA
:10193000010343D100F00800C2B20392019327686B
:10194000002F3DD0022E47D02788B4F802A00434DF
:10195000AB6C2AF0010B40460F219B44FFF75EFF62
:10196000834537D827F001039B4458452CBF0020FE
:1019700001200AF0010A07F0010747EA4A0ABAF112
:10198000010F43D03AD3BAF1020F1FD1236823F0DD
:1019900000420292B9F1000F7BD138B1039A002ABC
:1019A00000F08380029A002A00F0A680002B7ADBE8
:1019B000029B03F1010A04EB8A04C0E700230193B0
:1019C000022E40DDFFF712FE002842D009200BB0A6
:1019D000BDE8F08F0020CCE7D4F804A00834B7E7C6
:1019E000022B9FDC0B0CDFB2090402228DF825309C
:1019F00004EB870407918DF8242093E7B9F1000FD9
:101A000002D0002840F0AD80043498E7B9F1000F0F
:101A100026D1B0B194E80C00D70F9A1CD6D005F1AE
:101A200058020133069200F09280201DFFF7D8FD86
:101A30003A46014606AB284643F060FE002840F0D7
:101A4000B58008347BE7404607A900F01BFB00285F
:101A5000BCD1019B002B59D108200BB0BDE8F08F01
:101A600040460D212F6AFFF7D9FE8742E9D1AB6AC4
:101A70009C42E6D12046FFF7DBFC0F2102464046A0
:101A8000FFF7F4FE40462A460021FFF7EFFE07204D
:101A90009DE740460D212F6AFFF7C0FE874245D0E3
:101AA0002368002B84DA043482E7029B23B305F118
:101AB0005803059604F1040A039FDDF808B0CDF839
:101AC00010901E4602E0D9454F4615D05046069666
:101AD000FFF786FD0022014606AB284643F00EFEC6
:101AE00007F101090AF1040A0028ECD0029BDDF895
:101AF0001090059E9F42D3D140460D21FFF78EFEE8
:101B0000069B2862AC626B62062060E70F214046AC
:101B1000FFF784FE0E2102464046FFF7A7FE40462F
:101B20000F21294AFFF7A2FE072050E7AB6A9C422B
:101B3000B6D104220027A3180299A962EF622A6392
:101B40006B632368BB421FDB0123019330E74046F0
:101B50000D21FFF763FE2862069B6B62AC620620D4
:101B600035E72046FFF764FC04340646AC6328469C
:101B700043F01CFE00283FF429AF404632460F21B7
:101B8000FFF774FE072022E70846013004EB8000CF
:101B9000FFF74EFC0F2102464046FFF767FE404626
:101BA00039462A46FFF762FE072010E707460D2157
:101BB0004046FFF733FE022F2862CDD12B46069A0E
:101BC00043F82C2F6B62C9E759550408002393E6AC
:101BD000012391E602238FE6F0B50546C5B004293E
:101BE0000CD8DFE801F056030B300E00012B4FEA52
:101BF000124496B265D0052B00F08480022045B0D7
:101C0000F0BD002BFAD1102AF8D82B68DC0600F1C1
:101C1000EB8022AE3046019200F0A4F9A86B019A45
:101C20000023012404FA03F1114203D0016846F8AD
:101C3000231004300133042BF4D1A863304600F0A4
:101C400087F90020DBE7032BD8D1140C97B23B199E
:101C5000102BD3D82B681E0700F1E68022AE304649
:101C60007F0000F053F906EBC4027B1EAC6B57B14A
:101C7000043A214651F8040B42F8040F013B581C6A
:101C8000F8D104EB87043046AC6300F01DF9002066
:101C9000B5E7002BB2D1AC6B97B2281D012606FA2E
:101CA00003F1394203F1010302D0216801600434D9
:101CB000102B00F10400F2D112F4005020D1AC63DB
:101CC0009DE73219102A99D80F2C97D82968C80790
:101CD0004FF0000755D422A8019300F0E1F8019BD2
:101CE00019E008463746012B00F098800F2CA863B6
:101CF00002D822A800F0D8F817B102A800F0DCF84A
:101D000000207CE73719202F3FF678AF0F2C30D911
:101D10003746002E45D1A96B3246002EE1D0002770
:101D200044A84FEA420C00EBC4000CF1FF328C389F
:101D30008E465EF8046B40F8046F013A561CF8D1E9
:101D400001EB8C00002FCED0102C224644A938BFC6
:101D5000102201EBC202A2F5C47201467800043AD7
:101D600001EB800051F8046B42F8046F8142F9D115
:101D7000B9E7102F42D92A68D007A7F110071146FA
:101D800010D521F00102052B2A60019328465BD073
:101D900021F0030140F8481B00F082F8019B002F5E
:101DA0004AD02A6851075BD4012B63D00F2C04D88A
:101DB00022A8019300F07CF8019B002FABD002A871
:101DC000019300F07DF8019BA96BC4F11002002A79
:101DD000A6DC102C224644A838BF102200EBC20219
:101DE000A2F5C4727800BAE723F010032B6005F562
:101DF000E870019200F0B6F8019A0AE72968C8076E
:101E00001DD521F00102284642F0020240F8482B7D
:101E10000193002700F04CF8019BC9E70430A86348
:101E200022A800F039F86BE723F008032B6005F5D2
:101E3000A87000F06BF811E7012B3FF44CAF0F2CAA
:101E400098BF0027B4D966E742F0020240F8482B59
:101E500000F02EF8019B002FAAD02A685107A5D5C3
:101E6000284622F0040240F8D02B019300F028F815
:101E7000019B99E722A8019300F012F8019BA3E7C8
:101E800000F1340191E838009C46A6464CF8045D08
:101E900090E8FF0FE54600BD90EC210B704700BFB6
:101EA00080EC210B704700BF90EC200B704700BF07
:101EB00080EC200B704700BFD0EC200B704700BFB8
:101EC000C0EC200B704700BFF0EC0201F0EC0211F7
:101ED000F0EC0221F0EC0231F0EC0241F0EC0251A6
:101EE000F0EC0261F0EC0271F0EC0281F0EC029196
:101EF000F0EC02A1F0EC02B1F0EC02C1F0EC02D186
:101F0000F0EC02E1F0EC02F1704700BFE0EC0201FE
:101F1000E0EC0211E0EC0221E0EC0231E0EC0241E5
:101F2000E0EC0251E0EC0261E0EC0271E0EC0281D5
:101F3000E0EC0291E0EC02A1E0EC02B1E0EC02C1C5
:101F4000E0EC02D1E0EC02E1E0EC02F1704700BF0E
:101F5000B0FC0181B0FC0191B0FC01A1B0FC01B169
:101F6000704700BFA0FC0181A0FC0191A0FC01A171
:101F7000A0FC01B1704700BFEC4600B52DE9005050
:101F80002DE9FF1F4FF000032DE90C0001A9FFF719
:101F9000BFFBDDF840E012B0704700BFEC4600B573
:101FA0002DE900502DE9FF1F4FF000032DE90C0033
:101FB00001A9FFF7E7FBDDF840E012B0704700BF72
:101FC000EC4600B52DE900502DE9FF1F4FF000034E
:101FD0002DE90C0001A9FFF7F7FBDDF840E012B096
:101FE000704700BFEC4600B52DE900502DE9FF1FFA
:101FF0004FF000032DE90C0001ABFFF7B9FBDDF852
:1020000040E012B0704700BFEC4600B52DE900502B
:102010002DE9FF1F4FF000032DE90C0001AAFFF787
:1020200033FCDDF840E012B0704700BF037A1BB903
:10203000437A43B9B02070475A1E036802721A02ED
:102040000260180E70474268013B10B44372136877
:102050000321141D01721A02446002605DF8044BF2
:10206000180E704700B585B003AB002100930C2219
:102070000B46FFF7B9FB039805B05DF804FB00BF02
:10208000F0E700BF2DE9F043064685B00D464FF05E
:1020900000082846FFF7CAFFB028044600F0B580C4
:1020A00020F07F0111F0FF0120D000F0F003802B21
:1020B0007AD0902B36D0A02B49D0B02B5CD0C02B3F
:1020C00000F0898000F0F803D02B0BD100F007025C
:1020D000013242F40022304601210523FFF77CFD46
:1020E0000028D6D0092005B0BDE8F0830DF10C0919
:1020F0000B468700CDF8009030460D22FFF774FBA9
:10210000FFB2039BCDF80090043760064FF000014A
:102110004CBFDF1BFF1830460B460D220397FFF71D
:102120008BFBB6E700F00D030D2BDBD003AF0021D6
:1021300000F00F020B4600973046FFF755FB0021D9
:1021400000970B4630460D22FFF776FBA1E7C3430D
:1021500003F007034FF47F621A41010702F47F6224
:102160004FF0000148BF42F480420B463046FFF773
:1021700033FD0028B6D18CE7B1284CD0B2285DD011
:10218000B32800F08A8000F0FC03B42BAAD000F042
:1021900007020132012142F400220B463046FFF7CC
:1021A0001BFD00289ED174E72846FFF73FFF24025D
:1021B0002043B0F5004F95D004010021A2B20B4698
:1021C0003046FFF709FD00288CD114F4004F18BFEA
:1021D0004FF001085DE7C62872D0C7287AD000F01A
:1021E000F803C02B00F08980C82800F0A580C9281A
:1021F0007FF478AF2846FFF719FF00F00F02013295
:1022000000F0F00042EA003265E7B8F1000F00F09C
:102210008280002067E72846FFF708FF0246002873
:102220003FF460AF10F0F0017FF45CAF30460B4636
:10223000FFF7D2FC00287FF455AF2AE700210DF10B
:102240000C090D220B46CDF800903046FFF7CCFA72
:102250002846FFF7EBFE02064FF002040CD5039B65
:1022600000F07F00A040034428460393FFF7DEFE02
:10227000030604F10704F2D4039BCDF8009000F0AC
:102280007F00A04003F5017300211C180D220B46AE
:1022900030460394FFF7D0FAFBE62846FFF7C6FE68
:1022A00000F00F02013200F0F000012142EA00329A
:1022B0000B463046FFF790FC00287FF413AFE8E6AA
:1022C0002846FFF7B3FE00F00F02013200F0F000E5
:1022D0000321EBE72846FFF7A9FE024600283FF45A
:1022E00001AF10F0F0037FF4FDAE30460421FFF79C
:1022F00073FC00287FF4F6AECBE600F00F0201324B
:10230000032142F420220B463046FFF765FC0028EB
:102310007FF4E8AEBDE603AC41460E22434600948E
:102320003046FFF761FA0094304641460F2243469B
:10233000FFF782FA4046D6E62846FFF777FE00F020
:10234000F00200F00F031032013343EA0232C2E61A
:1023500010B5C36C84B05A6803208DF80C00DC798A
:102360008DF80D4012020833084601A9019202932C
:10237000FFF788FE04B010BD08B5FFF781FE806C42
:1023800008BD00BF08B5FFF77BFEC36CD87903EB2F
:102390008000083008BD00BF08B544F0E3F800BF76
:1023A00008B544F0DFF800BF704700BF00292DE9F1
:1023B000F043C0F2A6800026002BC0F29C80884625
:1023C00094469E46154604460F46002B3DD18A4250
:1023D00059D9B2FA82F33BB1C3F120029F4020FAEF
:1023E00002F29D4017439C40290C220CB7FBF1FEE2
:1023F000A8B201FB1E7742EA074700FB0EF3BB427F
:102400000AD97F190EF1FF3280F00581BB4240F2FC
:102410000281AEF1020E2F44FF1AA4B2B7FBF1F312
:1024200001FB137744EA074700FB03F0B84208D9E1
:102430007F1903F1FF3280F0F080B84240F2ED8066
:10244000023B43EA0E43002203E08B420FD90022F5
:102450001346341C18BF012460424FF0000565EBA1
:1024600045015840514000196941BDE8F083B3FA75
:1024700083F2002A40F086808B4202D3844500F22A
:10248000DB800123E5E712B90123B3FBF2F5B5FACE
:1024900085F000283BD1781B4FEA154E1FFA85FCCA
:1024A0000122B0FBFEF8210C0EFB180741EA07479A
:1024B0000CFB08F3BB4207D97F1908F1FF3102D2A8
:1024C000BB4200F2BD808846FF1AA4B2B7FBFEF300
:1024D0000EFB137744EA07470CFB03FCBC4507D906
:1024E0007F1903F1FF3102D2BC4500F2A7800B46F1
:1024F00043EA0843ADE752426FEA060663EB430343
:102500005DE7404261EB41014FF0FF3654E7C0F117
:10251000200224FA02F107FA00F385404FEA154E33
:10252000D7401943B7FBFEF20B0C0EFB12771FFAD4
:1025300085FC43EA07430CFB02F79F4204FA00F4D0
:1025400007D95B1902F1FF3074D29F4272D9023A67
:102550002B44DF1B89B2B7FBFEF80EFB187341EA70
:1025600003430CFB08F79F4208D95B1908F1FF31C0
:102570005CD29F425AD9A8F102082B44D81B48EAE2
:1025800002428EE7C2F120032CFA03F10EFA02FE9A
:1025900020FA03F741EA0E0E08FA02F028FA03F1D6
:1025A0004FEA1E453843B1FBF5F8030C05FB181143
:1025B0001FFA8EF743EA014107FB08F38B420CFA3E
:1025C00002FC09D911EB0E0108F1FF3930D28B4220
:1025D0002ED9A8F102087144C91A80B2B1FBF5F3F3
:1025E00005FB131140EA014107FB03F78F4208D9AD
:1025F00011EB0E0103F1FF3016D28F4214D9023BCA
:10260000714443EA0843C91BA3FB0C89494509D31C
:1026100005D000221DE79646FEE6134611E79440DA
:102620004445F6D2013BF4E70346EAE78846A5E7CE
:10263000C846D1E702468CE713460AE7023B57E754
:10264000A8F102082F443FE72DE9F041002B44D1C7
:102650008A42154604464FD9B2FA82F70E464FB168
:10266000C7F12003B94020FA03F602FA07F50E433A
:1026700000FA07F44FEA154E230CB6FBFEF0AFB29A
:102680000EFB106143EA014307FB00F1994209D9AF
:102690005B1900F1FF3280F0EC80994240F2E98052
:1026A00002382B445A1AA4B2B2FBFEF30EFB1322DB
:1026B00044EA024207FB03F7974208D9521903F193
:1026C000FF3180F0D880974240F2D580023B43EA48
:1026D000004000263146BDE8F0818B4247D8B3FA6E
:1026E00083F6002E48D18B4202D3824200F2CD8085
:1026F00001203146BDE8F08112B90125B5FBF2F5A4
:10270000B5FA85F8B8F1000F77D14A1B4FEA154E9C
:10271000AFB20126B2FBFEF0230C0EFB102143EA00
:10272000014107FB00F38B4207D9491900F1FF3241
:1027300002D28B4200F2BA801046C91AA4B2B1FB91
:10274000FEF30EFB131144EA014407FB03F7A74213
:1027500008D9641903F1FF3280F08F80A74240F25C
:102760008C80023B43EA00403146BDE8F081002600
:1027700030463146BDE8F081C6F1200422FA04F566
:10278000B3402B4320FA04FC01FA06F721FA04F5C2
:102790004FEA134E4CEA0707B5FBFEF8390C0EFB67
:1027A00018551FFA83FC41EA05450CFB08F1A942C4
:1027B00002FA06F204D9ED1808F1FF3467D3A046F7
:1027C0006D1ABFB2B5FBFEF40EFB145547EA054186
:1027D0000CFB04FC8C4504D9C91804F1FF355CD30B
:1027E0002C4644EA0844CCEB0101A4FB02239942A5
:1027F00048D344D0204600266CE7C8F1200401FAF3
:1028000008F305FA08F520FA04F7E1404FEA154EFF
:102810001F43B1FBFEF63A0C0EFB16111FFA85FCA6
:1028200042EA01430CFB06F29A4200FA08F407D987
:102830005B1906F1FF3137D29A4235D9023E2B445B
:102840009B1ABFB2B3FBFEF00EFB103347EA034303
:102850000CFB00F1994207D95B1900F1FF3221D23C
:1028600099421FD902382B445A1A40EA0646674655
:1028700050E7104616E70B4629E7134672E7B040CB
:102880009042B7D2601E002624E7304622E7A942D4
:1028900095D9A8F102081D4492E78C45A0D9023CC5
:1028A00019449EE71046DFE70E46C9E7023829447F
:1028B00043E700BFDFF834D0002103E00C4B5B5846
:1028C000435004310B480C4B42189A42F6D30B4A42
:1028D00002E0002342F8043B094B9A42F9D304F08A
:1028E00029FB43F06DFE01F013FA7047000002204F
:1028F0008CB6050800000020C40E0020C80E002081
:10290000F4650020FEE700007FB50C4808F08CFB62
:1029100006A84FF4004340F8043D094B0193AE2351
:1029200000220293074B039300920749134608F0D5
:102930001FFB4FF47A7036F05FFFE9E7B9960008A5
:102940005D9C04086E9C0408589C0408C0B20728CB
:1029500028BF072070470000914B92482DE9F04FA7
:1029600000241C60904B914E914FDFF80CB33470F3
:102970004FF0FF321A608F4B6FF002021A608E4BDD
:102980006FF001021A608D4B4FF0030983F800903D
:102990008B4B4FF004021A708A4B4FF005021A70ED
:1029A000894B4FF0060883F80080884B4FF00702F0
:1029B0001A70874B874A4FF0080C87B083F800C025
:1029C000092301254FF0020A13702146634642464F
:1029D000CDF814C03D708BF800A008F019F821461E
:1029E0009BF800207C48202308F012F821469BF831
:1029F00000207A48402308F00BF89BF80020DFF80D
:102A00007CB277482146802308F002F821463278CC
:102A10002346584607F0FCFFDDF814C032787148B1
:102A20002146634607F0F4FFDDF814C03A786E489B
:102A30006346214607F0ECFF214632786B481023AD
:102A400007F0E6FF21463A786948102307F0E0FFD7
:102A5000214632786748202307F0DAFF21463A788A
:102A60006548202307F0D4FF214632786348644E3E
:102A7000402307F0CDFF21463A786248402307F013
:102A8000C7FF4F4B60481A782946202307F0C0FF44
:102A90004B4B5E481A782146202307F0B9FF4D4B77
:102AA0005B481A782146234607F0B2FF434B59484A
:102AB0001A782146202307F0ABFF2146564807F03D
:102AC000A5FF2246234600940194029421465348D0
:102AD0000AF050F82146301D07F098FFBBF800308F
:102AE000B3804F4BF4711C704E4BB5601D704E4B54
:102AF000F56083F800A04D4B356183F800904C4B96
:102B0000357583F800804B4B34604FF007021A7024
:102B1000494BB4711C70494B494E1D70494B83F8A9
:102B200000A0494B83F80090484B1C70484B1D7027
:102B3000484B83F800A0484B83F80090474B4FF078
:102B400004021A70464B4FF005021A70454B20469E
:102B500083F80080FFF7FAFE3368400600F06065F6
:102B600023F060631D43AB0C9B0433602046FFF7EA
:102B7000EDFE800400F4E01005F060652146054399
:102B8000394C3560394807F034FE204619F094FC82
:102B90003749384A204607B0BDE8F04F43F00ABA3B
:102BA000640F0020E80E0020440F0020E40E0020F7
:102BB000880F0020F80E0020540F0020F00E002097
:102BC000600F0020BD0F0020400F00205B0F002091
:102BD000FC0E0020580F00208A0F0020360F002026
:102BE0002E0F00202A0F0020860F0020480F002003
:102BF000840F0020E60E00205E0F00204C0F002006
:102C00006C0F0020EE0E0020EC0E0020F20E0020D3
:102C10003E0F0020320F0020EA0E0020000F00209F
:102C2000F40E0020610F0020BC0F00205C0F00207C
:102C3000E50E0020280F0020300F00208C0F002010
:102C4000380F0020590F00204F0F00202C0F0020BC
:102C5000890F00204A0F0020500F00205A0F00203B
:102C60004E0F00203C0F0020900F0020680F002026
:102C700029C5010800000020FD0E0020340F0020AF
:102C800008B5032002F00CF900210A466FF00B0092
:102C900002F018F900210A466FF00A0002F012F95A
:102CA00000210A466FF0090002F00CF900210A46E3
:102CB0006FF0040002F006F900210A466FF00300ED
:102CC00002F000F96FF001000F21002202F0FAF883
:102CD0004FF0FF300F210022BDE8084002F0F2B8AB
:102CE000704700000268094B9A4282B00BD1002362
:102CF0000193074B1A6C42F010021A641B6C03F02C
:102D000010030193019B02B0704700BF0010004008
:102D100000380240704700007FB502680F4B9A42AE
:102D200018D1002300930E4B0E481A6C42F4002277
:102D30001A641B6C03F4002300930222009B02928E
:102D4000032301930122049301A90823039205930D
:102D500001F0A8FF07B05DF804FB00BF004C004085
:102D60000038024000000240704708B503F056FBEF
:102D7000002008BD30B5B0F90840028A87B0842C25
:102D80000B4690E8220014BF03340024009405A8E9
:102D90000024019002940394284603F0B3FA01281A
:102DA0000CBF0598204607B030BD08B503F0FAFD0A
:102DB000012803D0BDE8084002F0BEB908BD0000FC
:102DC00010B50368B3F1A04F86B025D14FF4C053BE
:102DD0000193022302930323002404930F480394D6
:102DE0000A2301A9059301F05DFF0D4B5A6B42F0D8
:102DF00080025A6300945A6C42F480425A645B6CBD
:102E000003F480430093432005212246009B02F0F7
:102E100059F8432002F086F806B010BD00000240C9
:102E2000003802407047014601F56171D0F8B403E3
:102E300001F012B870471C2303FB0103D0F8B40360
:102E4000D3F8E82101F035B870471C2303FB0103D8
:102E5000D0F8B4035A6C01F05CB87047D0F8B403F2
:102E600001F0D6B8704710B5C16804460031D0F8FB
:102E7000B40318BF012101F0B9F8D4F8B403BDE8D8
:102E8000104001F094B8704710B50446D0F8B40370
:102E900001F0AFF82268D2F8003E43F00103C2F817
:102EA000003E236A23B1034A136943F0060313610A
:102EB00010BD00BF00ED00E07047D0F8B40301F092
:102EC000A1B87047D0F8B40301F0B0B87047D0F89B
:102ED000B40301F0A9B87047D0F8B40301F0A8B862
:102EE0007047D0F8B40301F0A5B8704708B5027870
:102EF00052BB164B0421C3F8B403C0F820324FF084
:102F0000A04083E8030002211846D9601A615A6183
:102F10009961DA611A625A62DA621A6302F01CFA83
:102F200020B10B484FF4A57100F062FF80210748E3
:102F300001F0CBFB00214022044801F0A5FB03482F
:102F40000121802201F0A0FB002008BD185B0020B9
:102F5000879C040808B5D0F8200202F06CFA032818
:102F60009ABF024B185C022008BD00BF0F9D0408E9
:102F700010B51446D0F820021A46234602F03AFD56
:102F800003289ABF014B185C022010BD139D040852
:102F900008B5D0F8200202F05AFD03289ABF024B70
:102FA000185C022008BD00BF1B9D040808B5D0F8BE
:102FB000200202F0D7FD03289ABF024B185C0220C2
:102FC00008BD00BF179D040808B5D0F8200202F024
:102FD000F6FD03289ABF024B185C022008BD00BF13
:102FE0001F9D040811F0800FD0F8202218BF01F0B7
:102FF0007F034FF01C0015BF00FB032100FB0121E4
:1030000091F83A0091F8DE017047000008B5D0F859
:10301000200202F0DDFC03289ABF024B185C02205C
:1030200008BD00BF239D040808B5D0F8200202F0B7
:103030006CFD03289ABF024B185C022008BD00BF3C
:103040007F9C040808B5D0F8200202F024FD032874
:103050009ABF024B185C022008BD00BF839C040885
:1030600008B5D0F8200202F048FD08BD10B50446AE
:1030700003F00CFA204643F0FFFB044603F09AFAF3
:10308000204610BD10B5044640B103F0FFF92046BC
:1030900043F0FAFBBDE8104003F08CBA10BD0020ED
:1030A0007047002070470000034B0A689A600020B8
:1030B000012258601A737047F860002038B50B4C35
:1030C0000B4B0C4D1C6020460021402243F056FF64
:1030D00000222846084902F0E4FF2846214602F073
:1030E000E8FF064B01221A70002038BDEC65002075
:1030F000F860002048610020F4600020BE0F00202E
:10310000014B1878704700BFBE0F002008B50022A1
:1031100009490A4800F06DFE0949084800F07EFEA2
:103120000648084902F0B6FF044800F07EFE064B50
:103130001B78002BFBD008BD28010020486100202F
:103140005C00002004000020BE0F00202DE9F743A2
:103150000D68B5F5007F80460E46174618D9002445
:103160002B1BB3F5007F02A9A8BF4FF4007341F8F1
:10317000043D08EB04003A46FFF7E8FF18B9019B4D
:103180001C4434601EE004F50074AC42E8D317E040
:103190000E4BD3F81892D9F81442002CFBD10B48EF
:1031A0004146AAB202F07DFF084802F088FF10B144
:1031B0003560204606E01FB9D9F81432002BFBD148
:1031C0003560012003B0BDE8F08300BF48610020F6
:1031D00000F1080343604FF0FF32C3600361002336
:1031E00082600360704700230361704743684B604F
:1031F0009A688A609A68516099600368086101332F
:10320000036070470A68531C30B501D1036907E0B9
:1032100000F108035C682568954201D82346F9E768
:103220005A684A6091608B60596003680861013395
:10323000036030BD4168826803698A6082685160BA
:103240005968814208BF5A6000220261186801383B
:10325000186070470A4B013B01D103207047026997
:10326000002AF8DA0369064A43F001030361013AD0
:10327000F3D0036913F00103F9D11846704700BF7A
:10328000410D030084B038B505AD85E80E000A9BFA
:10329000012B044617D1836B23F480338363C36807
:1032A00023F4840323F04003C360C36823F4401372
:1032B000C360119B012B02BFC36843F48013C3603A
:1032C000FFF7C8FF08E0C36843F04003C360FFF79F
:1032D000C1FF4FF48033A363089B012B02BFA36897
:1032E00043F02003A360BDE83840002004B07047DD
:1032F000836843F00103836000207047836823F0F4
:10330000010383600020704708B5C368012923F0DA
:10331000C043C36004D1C36843F00053C36004E0FA
:1033200019B9C36843F08043C360322000F060FCE9
:10333000002008BD890141F02001064A0161013ADF
:1033400005D0036913F02003F9D118467047032014
:10335000704700BF410D03001023064A0361013A84
:1033600005D0036913F01003F9D118467047032004
:10337000704700BF410D0300D0F800381943C0F872
:10338000001800207047000084B02DE9F041044689
:1033900007A880E80E00A36B119E0A9F43F4002348
:1033A0008846A3631EB9A36B43F40013A3630023F1
:1033B000C4F8003ED4F80038C4F800380C9B012B48
:1033C00004F5006506D10999204629B11946FFF791
:1033D000D3FF03E020460321FFF7CEFF1021204654
:1033E000FFF7A8FF2046FFF7B7FF00234FF0FF329B
:1033F0002B616B61AA61EB6104F5106243450FD04C
:1034000011680029B8BF4FF090404FF00001ACBFE9
:10341000116010601161FF21916001332032EDE7EE
:1034200004F53063002242450FD019680029B8BF67
:103430004FF090404FF00001ACBF19601860196167
:10344000FF21996001322033EDE72B69012F23F42E
:1034500080732B6108D1154B2B632B6B43F48033A6
:1034600043F003032B632B6B0023A3616FF08043B6
:1034700063611FB9A36943F01003A361A2690C4BF8
:103480001343A3610D9B1BB1A36943F00803A36120
:10349000012E01BFA36943F0804343F00403A361FD
:1034A000BDE8F041002004B0704700BF000180007B
:1034B00000383C80D0F8083800F5006213F00600B0
:1034C00012D0936803F00603022B0CD0936803F02C
:1034D0000603062B07D0936803F00603042B14BFE2
:1034E0000020022070470320704770B54B780D789C
:1034F000D0F81C4800F50062012B1BD1AB409BB2F9
:103500002343D3610E784FF4106404EB4614235820
:103510001A0429D422588B6842F0805545F400459E
:10352000C3F30A02CB782A4342EA834343EA865331
:10353000235019E04FF48033AB402343D3610A7822
:103540004FF4306303EB421213581B040CD413588E
:1035500043F080548B68C97844F40044C3F30A03F1
:10356000234343EA81431350002070BD4A78012A67
:1035700070B500F500630E7817D1DD6B02FA06F422
:10358000A4B225EA0404DC630D78DC69AA4092B297
:1035900024EA0202DA610A784FF4106303EB421363
:1035A0001A5822F400421A5015E0DC6B012202FA8C
:1035B00006F524EA0544DC630D78DC69AA4024EAB8
:1035C0000242DA610A784FF4306303EB42131A586F
:1035D00022F400421A50002070BD4B78012BF0B548
:1035E0000B784D694FF0200460D14FF4106614FB46
:1035F00003630344B5B91D6925F0FF5525F4C015D3
:103600001D610B7814FB036303441D6945F4002519
:103610001D610B7814FB036404442369DB0CDB0499
:10362000236126E01F69FF0CFF041F610B7814FB68
:1036300003640444236923F0FF5323F4C01323617C
:103640008B689D420D7888BF4B6120244FF4106336
:1036500014FB053505442E6946F400262E610D78CD
:1036600014FB053303444C691D69C4F312042C4355
:103670001C61012A0B7805D100EB43130A69C3F8DA
:10368000142909E04A693AB1D0F83428012404FA2F
:1036900003F31343C0F834380A784FF4106303EB94
:1036A0004213C25842F00442C2503CE04FF430672B
:1036B00014FB037303441E69F60CF6041E610B78B9
:1036C00014FB037303441E6926F0FF5626F4C0164C
:1036D0001E618E6805B14E610B784FF4306514FBA6
:1036E00003530344C6F312061F6947F400271F6102
:1036F0000B7814FB03540444012A236946EA0306A9
:10370000266101BF0B78202212FB03531B1804BF54
:10371000CA685A610A784FF4306303EB4213C25807
:1037200042F00442C2500020F0BD10B59DF80840A0
:103730006CB9033300EB023023F0030300F5805033
:103740000B44994203D051F8042B0260F9E70020A2
:1037500010BD00002DE9F3414B780C78012B4B692B
:1037600040F09C8020254FF4106615FB046404444F
:103770002769ABB927F0FF5727F4C01727610C78EA
:1037800015FB04640444276947F4002727610C787B
:1037900015FB046505442C69E40CE4042C613FE04E
:1037A000FF0CFF0427610C78D1F808C015FB0464F6
:1037B0000444276927F0FF5727F4C01727610F78C3
:1037C00015FB0767074403EB0C04013CB4FBFCF456
:1037D000DFF8B4C1D7F810E0E40404EA0C0C4CEABA
:1037E0000E043C610C7815FB04640444C3F3120E10
:1037F00027694EEA07072761CC78012C40F0BB808F
:103800000C7815FB04640444276927F0C04727613E
:103810000C7815FB046505442C6944F000542C61B8
:10382000012A06D10C780D6900EB4414C4F8145930
:103830000BE0CC78012C08D03BB10F78D0F834588D
:103840000124BC402C43C0F83448CC78012C11D161
:10385000D0F8084814F4807F0C784FF020054FF41E
:10386000106615FB046425580CBF45F0005545F063
:10387000805525500D784FF4106404EB451405591C
:1038800045F004450551CC78012C78D10C78009294
:10389000C96822469BB2FFF748FF70E020264FF42C
:1038A000306716FB04740444D1F808E02569ED0C78
:1038B000ED0425610C7816FB04740444256925F099
:1038C000FF5525F4C01525610D7816FB05757BB9EC
:1038D0000544CEF3120E2B694EEA03032B610C78DC
:1038E00016FB04740619336943F4002333611BE0AB
:1038F00044197344013BDFF890C0B3FBFEF39BB265
:1039000025694FEAC34808EA0C0C4CEA0505256115
:103910000C7816FB047404440EFB03FE2569CEF3F9
:10392000120E4EEA05032361012A01BF0B78CA6813
:1039300000EB4313C3F8142BCB78012B11D1D0F833
:10394000083813F4807F0B784FF020024FF4306476
:1039500012FB0343C2580CBF42F0005242F08052A7
:10396000C2500A784FF4306303EB4213C25842F05E
:103970000442C25003E0012A7FF45EAF52E7002008
:1039800002B0BDE8F08100BF0000F81F033222F052
:1039900003020A44914205D000F580531B6841F8A8
:1039A000043BF7E7084670474B78012B10B54FF002
:1039B00020020C7814D14FF4106312FB0433C25868
:1039C000002AA2BFC25822F08042C2500A784FF4A7
:1039D000106303EB4213C25842F40012C25013E0CA
:1039E0004FF4306312FB0433C258002AA2BFC258FE
:1039F00022F08042C2500A784FF4306303EB421346
:103A0000C25842F40012C250002010BD4B78012B66
:103A10000B7830B54FF020020CBF4FF410654FF417
:103A2000306512FB03531C5824F400141C50CB784F
:103A3000023B012B9FBF0B7812FB0352135843F03C
:103A4000805398BF1350002030BDD0F8003823F4C5
:103A5000FE63C0F80038D0F80038090101F4FE61B7
:103A60000B43C0F800380020704708B5D0F8043880
:103A700023F00203C0F80438032000F0B9F8002056
:103A800008BD08B5D0F8043843F00203C0F8043884
:103A9000032000F0ADF8002008BD4369806918409C
:103AA0007047D0F8183800F50060C0691840000C65
:103AB000704700F50063D0F81808DB69184080B241
:103AC000704700EB411100F50060D1F8083B4069F8
:103AD0001840704710B5D0F81048D0F8343800EBD3
:103AE0004110CB40DB01D0F80809DBB2234318407A
:103AF00010BD406900F001007047D0F8003923F490
:103B0000FF6323F00703C0F8003900F500639A68EB
:103B100002F00602042A02BFD0F8002942F0030294
:103B2000C0F800295A6842F480725A600020704739
:103B300010B50024C0F8104BD0F8104B44F400240A
:103B4000C0F8104BD0F8104B44F01804C0F8104BDC
:103B5000D0F8104B012900F5306344F0C04408BF91
:103B60004FF08023C0F8104B04BFC0F8142BC0F8EE
:103B7000003B002010BD000010B5084B044618683B
:103B80004FF47A73B0FBF3F001F0D8F94FF0FF3047
:103B90002146002201F096F9002010BD5C010020B2
:103BA00008B50B4B1A6842F400721A601A6842F4A6
:103BB00080621A601A6842F480721A60032001F071
:103BC0006FF90F20FFF7D8FFFFF75AF8002008BD64
:103BD000003C0240024A136801331360704700BF83
:103BE000F0600020014B1868704700BFF0600020B3
:103BF00013B50190FFF7F6FF0446FFF7F3FF019BB3
:103C0000001B9842F9D302B010BD00000649074AD4
:103C10000B68074842F8330002EBC30205485060C6
:103C200001330B60704700BFC00F0020D05E002042
:103C3000939C0408AC6500200649074A0B680748B6
:103C400042F8330002EBC3020548506001330B60B9
:103C5000704700BFC00F0020D05E0020999C040870
:103C60006C65002030B595B0274B002101911A6C8E
:103C700042F080521A641B6C03F080530193019B45
:103C8000224B02911A6842F480421A601B6803F4C6
:103C900080430293029B0123089309934FF480030E
:103CA0000F93082310934FF490730224119308A8E4
:103CB00006230E941294139300F0C8F900B1FEE7A6
:103CC0004FF4A053059006930F254FF4805303A89B
:103CD000042104940395079300F05AFB044600B1B5
:103CE000FEE700F00FFC4FF47A73B0FBF3F001F045
:103CF00025F9042001F038F94FF0FF30294622461B
:103D000001F0E0F815B030BD00380240007000400E
:103D100070B58CB0FFF744FFFFF7A4FF00232C4AD7
:103D20000093116B2B4841F080011163116B01F07E
:103D30008001009100990193116B41F00101116321
:103D4000126B2549836002F001020192019AC3605F
:103D50004FF4E13280E806000C2203614261836186
:103D6000C36102F06FF800B1FEE71C4C1C4B6060B1
:103D7000A060E0602046236000F06CFC00B1FEE72C
:103D80000790089007A9204601F0FAF8064600B10E
:103D9000FEE7144C0FCC02AD0FC554F8043B2B606A
:103DA000314602A8FEF7E6FF0F4B18600F4801F0FE
:103DB0005DF800F0DDFB0FCC07AD0FC523682B606D
:103DC000314607A8FEF7D6FFFEF7CFFFFEE700BF9C
:103DD000003802406C650020004C0040AC650020BB
:103DE00000100040CC9A0408E8650020939C040869
:103DF000FEE708B580B1D0F8143213B10023C0F843
:103E0000143209B1C0F81012012380F8FC3102709D
:103E1000FFF76CF8002008BD022008BD19B1C0F8FA
:103E20001412002070470220704708B5FFF792F87F
:103E3000002008BD08B5D0F814320BB9022008BD27
:103E40001B6898470028F9D108BD08B5D0F814328E
:103E50005B689847002008BD38B5044600F5027538
:103E6000284602F0A3FE012394F80812C4F8F431A6
:103E7000B4F80E32C4F8F83101F01F03012B0CD056
:103E800006D3022B0ED12046294602F0D3FF0EE0C6
:103E90002046294602F0AAFE09E02046294602F003
:103EA000B1FF04E0204601F08001FFF77FF8002019
:103EB00038BD10B5044609BBD0F8F431032B26D128
:103EC000D0F80C11D0F8103199420AD9C91A8B4296
:103ED00028BF0B46C0F80C1111469AB201F01DFA2A
:103EE00015E0D0F814321B6923B190F8FC21032AA5
:103EF00000D19847204601F019FA08E0D0F81432B2
:103F00009B6923B190F8FC21032A00D19847002037
:103F100010BD70B504460E4600293DD1D0F8F431ED
:103F2000022B31D1C569036A9D4208D9EB1A1146AB
:103F3000C3619AB201F0D8F92046314612E0826995
:103F4000B2FBF3F503FB15258DB99A420FD3D0F8D8
:103F5000F8319A420BD22A4601F0C6F9C4F8F8515A
:103F6000204629460A460B46FFF76CF80CE0D4F8C9
:103F70001432DB682BB194F8FC21032A01D12046CE
:103F80009847204601F0DDF994F80032012B0CD15E
:103F9000002384F8003208E0D0F814325B6923B1C2
:103FA00090F8FC21032A00D19847002070BD38B555
:103FB000002104460A4640254023FEF7D9FF2B4640
:103FC000C4F81051204680210022FEF7D1FF0123C2
:103FD00084F8FC31D4F8183225622BB1D4F81432AD
:103FE00021795B6820469847002038BD0174002085
:103FF000704790F8FC3180F8FD31042380F8FC31E3
:104000000020704790F8FD3180F8FC3100207047A7
:1040100008B590F8FC21032A04D1D0F81432DB69EA
:1040200003B19847002008BD00207047002070476A
:104030000020704708B5012280F8FC21D0F8142236
:10404000017952689047002008BD00000368F7B569
:10405000D907044603D423689A0737D484E0A54BD4
:104060009A6802F00C02042A07D09A6802F00C0247
:10407000082A0BD15B685B0208D59E4B1B689F0327
:10408000E9D56368002BE6D1012030E19A4B227913
:104090001A7063686BB1FFF7A5FD0546954B1B6869
:1040A0009E03D8D4FFF79EFD401B6428F6D9032059
:1040B0001DE1FFF797FD05468E4B1B689803CAD597
:1040C000FFF790FD401B6428F6D9F0E7894B9A680A
:1040D00012F00C0F07D09A6802F00C02082A16D1D1
:1040E0005B68590213D4834B1A68920702D5E268C1
:1040F000012AC9D11968F82090FAA0F02269B0FA13
:1041000080F021F0F80182400A431A602CE0E26856
:104110007A4BDAB101221A60FFF764FD0546754853
:1041200003689F0705D4FFF75DFD401B0228F6D901
:10413000BDE70268F82191FAA1F12369B1FA81F192
:1041400022F0F8028B40134303600DE01A60FFF782
:1041500049FD0546674B1B689E0705D5FFF742FDE5
:10416000401B0228F6D9A2E72368180703D4236866
:10417000590744D51FE06269614B72B101221A6090
:10418000FFF730FD05465B4B5B6F9A07EFD4FFF7F7
:1041900029FD401B0228F6D989E71A60FFF722FDA6
:1041A0000546544B5B6F9B07E1D5FFF71BFD401B9A
:1041B0000228F6D97BE7002301934E4B1A6C42F09C
:1041C00080521A641B6C4F4A03F080530193019B89
:1041D000136843F480731360FFF704FD0546494BF1
:1041E0001B68DF050ED5484B227A1A70A368BBB155
:1041F000FFF7F8FC05463F4B1B6F9E0708D5A269E9
:10420000EAB959E0FFF7EEFC401B0228E7D94EE778
:10421000FFF7E8FC41F28833401B9842EBD946E7B0
:10422000FFF7E0FC0546334B1B6F9807E7D5FFF718
:10423000D9FC41F28833401B9842F4D937E72D4B23
:104240009B6803F00C03082B3FF41EAF2F4D002397
:10425000022A2B603ED1FFF7C5FC064625480368BD
:1042600099012BD447F6C07797FAA7F74FF4403659
:10427000B7FA87F796FAA6F64FF07061B6FA86F6A7
:1042800091FAA1F1E369226AB1FA81F11A43636AF2
:10429000BB401A43A36A5B08013BB3401343E26A85
:1042A0008A401343436001232B60FFF79BFC0446C5
:1042B000104B1B689A0107D5002018E0FFF792FC0D
:1042C000801B0228CAD9F2E6FFF78CFC001B0228EB
:1042D000EED9ECE6FFF786FC0446064B1B689B0113
:1042E000EAD5FFF77FFC001B0228F6D9DFE603B012
:1042F000F0BD00BF003802400238024000004742D3
:10430000800E474200700040703802406000474213
:1043100010B51C4CA36803F00C03042B2ED0082B03
:104320002ED1626802F03F03626847F6C07112F452
:10433000800F626891FAA1F147F6C07000EA0200AE
:1043400008BF114AB1FA81F120FA01F00EBFB2FBA9
:10435000F3F20E49B1FBF3F202FB00F3094A506895
:104360004FF4403292FAA2F200F44030B2FA82F2F4
:10437000D04001304000B3FBF0F010BD034810BD49
:10438000014810BD003802400024F40000127A00F9
:10439000584B1A6802F00F02914270B504460D4660
:1043A0000AD82168880710D55348836823F0F002A3
:1043B000A3681343836008E0CAB21A701B6803F055
:1043C0000F038B42EDD0012070BDC90706D4494BC5
:1043D0001A6802F00F0295425AD360E06368464AB9
:1043E000012B03D1126812F4003F08E0991E012945
:1043F000126802D812F0007F01E012F0020FE2D042
:104400003D498A6822F0030213438B60FFF7EAFB01
:104410006368012B06460ED1374B9B6803F00C03F3
:10442000042BD4D0FFF7DEFB41F28833801B984287
:10443000F2D9032070BD022B0DD12F4B9B6803F0E6
:104440000C03082BC3D0FFF7CDFB41F28833801B50
:104450009842F2D9EDE7032B14D1274B9B6803F068
:104460000C030C2BB3D0FFF7BDFB41F28833801B4C
:104470009842F2D9DDE7FFF7B5FB41F28833801BA4
:104480009842D6D81C4B9B6813F00C0FF3D19EE7D3
:10449000EAB21A701B6803F00F03AB4293D1216894
:1044A0004A0706D51448836823F4E052E3681343AF
:1044B00083600B0741BF104A2169936823F460436E
:1044C00044BF43EAC1039360FFF722FF0A4BF02287
:1044D0009B6892FAA2F203F0F003B2FA82F2D340A0
:1044E000064AD35CD840064B18600F20FFF744FB08
:1044F000002070BD003C024000380240279D0408A7
:104500005C010020014B1868704700BF5C0100206F
:10451000084B4FF4E0529B6892FAA2F203F4E05386
:10452000B2FA82F2D340044AD35C044A1068D840FD
:10453000704700BF00380240279D04085C0100203E
:10454000084B4FF460429B6892FAA2F203F4604376
:10455000B2FA82F2D340044AD35C044A1068D840CD
:10456000704700BF00380240279D04085C0100200E
:104570000268022380F83930136843F001031360A6
:10458000012380F839300020704700002E4A03686C
:10459000904212D0B0F1804F0FD0A2F57C429042F1
:1045A0000BD002F58062904207D002F58062904203
:1045B00003D002F57842904218D14A6823F0700384
:1045C0001343214A904237D0B0F1804F34D01F4A74
:1045D000904231D002F5806290422DD002F5806287
:1045E000904229D002F57842904225D0184A904254
:1045F00022D002F5806290421ED002F58062904285
:104600001AD0A2F59832904216D002F580629042FC
:1046100012D002F5806290420ED003608B68C362B4
:104620000B688362084B98420BD003F58063984275
:1046300007D0012343617047CA6823F440731343D2
:10464000EBE70B690363F4E700000140000400405E
:104650000040014010B50446A0B190F8393003F095
:10466000FF021BB980F83820FEF73CFB022384F8D8
:1046700039302068211DFFF789FF012384F8393084
:10468000002010BD012010BD70B50468606A19B922
:1046900040EA0243A36216E0A36A00EB1343002042
:1046A0004D1E461CC0B2A84207D2403004EB800029
:1046B000406803EB10433046F2E73F3104EB8104DE
:1046C00043EA02436360002070BD03680020596222
:1046D000704738B51546026C044632B9056845BBCB
:1046E000406802F0B5F9656024E06DB98068FBF7B9
:1046F000A9FDA268236C13446268A360934218D397
:104700002368A360284615E0C068FBF79BFD236C77
:10471000E26821685B421A448A42E2603EBF6268F6
:104720009B18E360022D04D1A36B13B1A36B013B73
:10473000A3630020A36B0133A36338BD026C10B5E3
:1047400003466AB1C4681444C4604068844224BF0C
:104750001868D860BDE810400846D968FBF772BDFC
:1047600010BD10B5044600F081FCA36C002B0CDDDD
:10477000636A53B104F1240002F078F808B102F042
:1047800005F9A36C013BA364EFE74FF0FF33A3648B
:1047900000F08EFC00F06AFC636C002B0CDD2369DA
:1047A00053B104F1100002F061F808B102F0EEF824
:1047B000636C013B6364EFE74FF0FF336364BDE874
:1047C000104000F075BC000038B50D46044640B9F5
:1047D0004FF0500383F31188BFF36F8FBFF34F8FF8
:1047E000FEE700F043FC206CE36B2268A2604343C9
:1047F000D1181B1A13446160E36000214FF0FF33AE
:10480000A1636364A36485B92369B3B104F11000A3
:1048100002F02CF8012810D10A4B4FF080521A6098
:10482000BFF34F8FBFF36F8F07E004F11000FEF767
:10483000CFFC04F12400FEF7CBFC00F039FC012092
:1048400038BD00BF04ED00E070B50D46064640B926
:104850004FF0500383F31188BFF36F8FBFF34F8F77
:10486000FEE711B14843013000E008464C30FEF746
:10487000FDFB044630B10DB920600CE000F14C03A3
:10488000036008E04FF0500383F31188BFF36F8F8C
:10489000BFF34F8FFEE7E663256420460121FFF753
:1048A00093FF204670BD10B50C4640B94FF0500341
:1048B00083F31188BFF36F8FBFF34F8FFEE7814201
:1048C00008D94FF0500383F31188BFF36F8FBFF304
:1048D0004F8FFEE700210222FFF7B6FF08B1846385
:1048E00010BD4FF0500383F31188BFF36F8FBFF3F8
:1048F0004F8FFEE72DE9FF41884601921F4604468F
:1049000040B94FF0500383F31188BFF36F8FBFF3AB
:104910004F8FFEE751B9036C43B14FF0500383F35F
:104920001188BFF36F8FBFF34F8FFEE7022F0BD1BC
:10493000E36B012B08D04FF0500383F31188BFF3D2
:104940006F8FBFF34F8FFEE702F02CF810B9019E76
:104950000EB16EE0002600F089FBA26BE36B9A4279
:1049600001D3022F1AD1204641463A46FFF7B1FE45
:10497000636A33B104F1240001F078FF012809D102
:1049800000E038B1314B4FF080521A60BFF34F8FC7
:10499000BFF36F8F00F08CFB012053E0019D15B930
:1049A00000F086FB43E016B902A801F09FFF00F07B
:1049B0007FFB01F06BFD00F059FB636C013304BF1A
:1049C00000236364A36C013304BF0023A36400F0DD
:1049D0006FFB02A801A901F09FFF18BB00F046FB86
:1049E000A66BE56B00F064FBAE4215D104F110003C
:1049F000019901F003FF2046FFF7B3FE01F0DAFD55
:104A000008B10126A7E7114B4FF080521A60BFF39F
:104A10004F8FBFF36F8FF4E72046FFF7A2FE01F040
:104A2000C9FDEEE72046FFF79CFE01F0C3FD002024
:104A300008E04FF0500383F31188BFF36F8FBFF38B
:104A40004F8FFEE704B0BDE8F08100BF04ED00E049
:104A500070B50D46044640B94FF0500383F31188FA
:104A6000BFF36F8FBFF34F8FFEE7036C43B14FF07F
:104A7000500383F31188BFF36F8FBFF34F8FFEE7AF
:104A800003680BB943683BBB00F0F2FBEFF3118600
:104A90004FF0500383F31188BFF36F8FBFF34F8F35
:104AA000A26BE36B9A4215D2A36B0133A363A36C91
:104AB00001330AD1636A5BB104F1240001F0D6FE30
:104AC00030B12DB1012028600FE0A36C0133A36445
:104AD00001200AE0002008E04FF0500383F3118822
:104AE000BFF36F8FBFF34F8FFEE786F3118870BD62
:104AF0002DE9FF410F4601929846044640B94FF018
:104B0000500383F31188BFF36F8FBFF34F8FFEE71E
:104B100051B9036C43B14FF0500383F31188BFF3D5
:104B20006F8FBFF34F8FFEE701F03CFF10B9019E7E
:104B30000EB183E0002600F099FAA36B63B3204620
:104B40003946E568FFF7FAFDB8F1000F10D1A36B05
:104B5000013BA363236813B901F0CAFF60602369B6
:104B6000B3B104F1100001F081FE012810D107E07B
:104B7000636AE56063B104F1240001F077FE38B1A7
:104B8000344B4FF080521A60BFF34F8FBFF36F8FDB
:104B900000F08EFA01205AE0019D15B900F088FA64
:104BA0004AE016B902A801F0A1FE00F081FA01F076
:104BB0006DFC00F05BFA636C013304BF0023636497
:104BC000A36C013304BF0023A36400F071FA02A8B0
:104BD00001A901F0A1FE50BB00F048FAA56B00F05E
:104BE00067FAF5B9236833B900F040FA606801F05C
:104BF000E9FE00F05DFA04F12400019901F0FEFDE8
:104C00002046FFF7AEFD01F0D5FC08B1012692E782
:104C1000104B4FF080521A60BFF34F8FBFF36F8F6E
:104C2000F4E72046FFF79DFD01F0C4FCEEE72046C7
:104C3000FFF797FD01F0BEFC002008E04FF05003A5
:104C400083F31188BFF36F8FBFF34F8FFEE704B07C
:104C5000BDE8F08104ED00E00023074A02EBC30148
:104C60004968814203D1002142F833107047013373
:104C7000082BF2D1704700BF0861002010B5044630
:104C800040B94FF0500383F31188BFF36F8FBFF328
:104C90004F8FFEE7FFF7E0FF2046BDE81040FEF72C
:104CA000F1B900002DE9F3410F6800220123934080
:104CB00003EA07059D4240F0CB804C6824F0100CBD
:104CC000BCF1020F14D14FEAD20E00EB8E0E02F0AF
:104CD0000706DEF82030B6004FF00F0808FA06F895
:104CE00023EA08080B69B34048EA0303CEF82030F2
:104CF0004FEA420E0323066803FA0EF3DB4303EA8E
:104D0000060804F0030606FA0EF60CF1FF3C48EA2A
:104D10000606BCF1010F066011D8866803EA060C8E
:104D2000CE6806FA0EF64CEA06068660466826EA63
:104D3000050CC4F3001696404CEA06064660C668A9
:104D400003EA060C8B6803FA0EF64CEA0603C3600E
:104D5000E3007DD5424E00230193D6F844E04EF4A3
:104D6000804EC6F844E0766C06F480460196019EBB
:104D700022F0030606F1804606F59C3602F0030C8D
:104D8000D6F808804FEA8C0C4FF00F0E0EFA0CFE8E
:104D900028EA0E0EDFF8D08040452BD003F1804387
:104DA00003F5013398421AD003F58063984218D076
:104DB00003F58063984216D003F58063984214D0BF
:104DC00003F58063984212D003F58063984210D0B7
:104DD00003F5806398420CBF072308230AE00123F0
:104DE00008E0022306E0032304E0042302E0052395
:104DF00000E0062303FA0CF343EA0E03DFF864E055
:104E0000B360DEF80030EE4314F4803F14BF2B4350
:104E10003340CEF80030DEF80430DFF848E014F418
:104E2000003F14BF2B433340CEF80430DEF8083087
:104E300014F4801F14BF2B433340CEF80830DEF843
:104E40000C30A40254BF06EA03051D43054BDD6088
:104E50000132102A7FF42AAF02B0BDE8F08100BF12
:104E600000380240003C014000000240F8B50A4B07
:104E70001D6806460024AC420CD0084B314653F85E
:104E8000340003EBC407FBF77FFA08B97868F8BD74
:104E90000134F0E70020F8BDC00F0020D05E0020F4
:104EA000074AD36823F4E0631B041B0C43F0BF6381
:104EB00043F4003300F0070043EA0023D360704757
:104EC00000ED00E0154BDB68C3F3022370B5C3F1BE
:104ED00007051C1D042D28BF0425062C8CBF033B91
:104EE0000023012404FA03F6AC40013C013E2140BA
:104EF00099403240002842EA01024FEA0212AFBF55
:104F000000F1604000F00F00054BD2B2A5BF00F5E4
:104F10006140D2B21A5480F8002370BD00ED00E069
:104F200014ED00E04109012300F01F00024A834014
:104F300042F82130704700BF00E100E00138B0F1D5
:104F4000807F3FBF064B074A5860F0213FBF82F881
:104F5000231000200722986034BF1A600120704798
:104F600010E000E000ED00E0044B1A6804280CBFDC
:104F700042F0040222F004021A60704710E000E0E0
:104F800090F83830012B10B54FF0020318D080F89C
:104F9000393003685A6822F070025A605C680A6807
:104FA00022435A609A6822F080029A609C684A689C
:104FB00022439A60012380F83930002380F838308A
:104FC000184610BD0A4B1B68013308D04FF0500340
:104FD00083F31188BFF36F8FBFF34F8FFEE74FF05E
:104FE000500383F31188BFF36F8FBFF34F8FFEE73A
:104FF0001400002006480068006880F3088862B644
:1050000061B6BFF34F8FBFF36F8F00DF00BF0000AB
:1050100008ED00E0DFF80C00016841F47001016068
:105020007047000088ED00E04FF0807300E90A004F
:10503000054B40F80C3C6FF0020340F8202C40F880
:10504000243C4438704700BFC54F0008064B196820
:105050000868B0E8F04F80F30988BFF36F8F4FF016
:10506000000080F3118870479C1000204FF050031F
:1050700083F31188BFF36F8FBFF34F8F0A4A136812
:105080000133012B13600DD1084B1B6813F0FF0F88
:1050900008D04FF0500383F31188BFF36F8FBFF335
:1050A0004F8FFEE7704700BF1400002004ED00E0C2
:1050B000084A136843B94FF0500383F31188BFF3D4
:1050C0006F8FBFF34F8FFEE7013B13600BB983F384
:1050D0001188704714000020EFF30980BFF36F8F31
:1050E000144B1A681EF0100F08BF20ED108A20E93B
:1050F000F04F10604DF8043D4FF0500080F31188E0
:10510000BFF34F8FBFF36F8F01F03EFB4FF00000F6
:1051100080F3118808BC19680868B0E8F04F1EF0E9
:10512000100F08BFB0EC108A80F30988BFF36F8FAF
:10513000704700BF9C10002008B5EFF311834FF0BB
:10514000500282F31188BFF36F8FBFF34F8F01F0CE
:10515000A5F918B1034B4FF080521A60002383F376
:10516000118808BD04ED00E0064B4FF47A721B680D
:10517000B3FBF2F3044A013B1360044B07221A60AD
:10518000704700BF5C01002014E000E010E000E088
:105190002E4B07B519682E4A914208D14FF05003A3
:1051A00083F31188BFF36F8FBFF34F8FFEE71A6849
:1051B000284B9A4208D14FF0500383F31188BFF374
:1051C0006F8FBFF34F8FFEE7234B1A78D2B2019255
:1051D000FF221A701B78214ADBB28DF803309DF84C
:1051E000033003F0500313701D4A072313609DF82A
:1051F0000310090603F1FF3007D59DF803305B006B
:10520000DBB28DF803300346F1E71B0203F4E063E1
:105210001360019B104ADBB21370124B1A6842F400
:1052200070021A601A6842F070421A60FFF79CFF21
:105230000D4B00221A60FFF7EDFE0C4A136843F095
:1052400040431360FFF7D6FEFFF7BCFE00ED00E021
:1052500071C20F4170C20F4100E400E0C40F002092
:10526000C80F002020ED00E01400002034EF00E023
:10527000EFF305830F2B0ED9104A9B5C104A12786E
:105280009A4208D94FF0500383F31188BFF36F8F10
:10529000BFF34F8FFEE70B4B0B4A1B68126803F4FA
:1052A000E063934208D94FF0500383F31188BFF3B2
:1052B0006F8FBFF34F8FFEE7704700BFF0E300E052
:1052C000C40F00200CED00E0C80F002038B51346D5
:1052D0000D460222C0F8F4218361C36100212A46F1
:1052E000FDF7A2FE002038BD10B50C461346002184
:1052F0002246FDF799FE002010BD38B513460D4635
:105300000322C0F8F421C0F80831C0F80C310021A4
:105310002A46FDF797FE002038BD10B50C4613460F
:1053200000212246FDF78EFE002010BD08B50021A9
:105330000423C0F8F4310A460B46FDF775FE002041
:1053400008BD08B500210523C0F8F4310A460B4614
:10535000FDF778FE002008BD2DE9F04106468AB031
:10536000002864D00323344680F88133FDF728FDFC
:1053700054F8100BFDF7C2FF0FCC6D460FC50FCCD4
:105380000FC594E8030085E8030006F1040898E8D7
:105390000E003068FDF776FF00213068FDF7B4FF9E
:1053A00006F11004324631460020012381F838000E
:1053B000C887013081F839300F284FF0000381F899
:1053C0003B300B644B64CB6401F11C01EDD1D6F88A
:1053D00000E082F8DC3103F14001D3870EEB81015C
:1053E000013300270F2B82F8DD7182F8DF71C2F8DC
:1053F000E471C2F8E871C2F8F0714F6002F11C026A
:10540000E7D10FCC6D460FC50FCC0FC594E8030054
:1054100085E80300704698E80E00FDF7B5FF01230C
:1054200086F881333068FEF72CFB384600E0012017
:105430000AB0BDE8F08190F88033012B10B5044626
:105440000CD0012380F880330068FEF70EFB206843
:10545000FDF74EFF002084F8800310BD022010BD30
:105460002DE9F04F076887B004463846FEF741FB48
:10547000002840F08B822068FEF70FFB002800F028
:1054800085822068FEF709FB820748BF22682068F2
:1054900042BF536903F002035361FEF7FEFA10F4B2
:1054A00000204DD02068FEF7FCFA07F530668046F4
:1054B000A2460025B8F1000F43D018F0010F38D0F4
:1054C0005FFA85FB20685946FEF7FBFA10F0010FE2
:1054D000814621D00123B3602369012B0CD13369AC
:1054E000DAF8E421C3F31203D31ACAF8F431DAF874
:1054F000E8311A44CAF8E82159462046FDF79BFCDA
:105500002169012908D13DB9D4F8F03123B92068C7
:1055100004F56172FEF70CFB19F0080F04D0204669
:10552000FDF781FC0823B36019F0100F1CBF102396
:10553000B36001354FEA580820360AF11C0AB9E772
:1055400005462068FEF7A9FA430340F1A6802068CB
:10555000FEF7AFFA2646824607F510690025BAF134
:10556000000F00F09A801AF0010F00F08F805FFAB0
:1055700085FB20685946FEF7ADFA10F0010F804612
:1055800020D00122D7F8343802FA05F023EA0003CC
:10559000C7F834382369C9F80820934201BF726CF8
:1055A000336C9B18736459462046FDF74EFC216905
:1055B000012907D135B9E36C23B9206804F561727C
:1055C000FEF7B6FA18F0080F1CBF0823C9F8083018
:1055D00018F0100F1CBF1023C9F8083018F0400F46
:1055E0001CBF4023C9F8083018F0020F1CBF02236B
:1055F000C9F8083018F0800F48D0F36C326DD4F839
:1056000000C0C2EB0308336C984528BF984608F1E8
:1056100003039B0803930CF5106303EB45130493FA
:10562000049B039A9B699BB293420BD8B8F1000F7D
:105630002CD1DCF834280123AB4022EA0303CCF858
:10564000343823E0326DF36C9A42EFD2002BEDD068
:10565000C2EB0308336CCDF814C0984528BF9846B8
:1056600008F103039B080393237C009360461FFA11
:1056700088F3716C5A46FEF758F8736CDDF814C065
:1056800043447364336D43443365C9E701354FEADE
:105690005A0A1C3609F1200961E72068FEF7FDF976
:1056A00000280DDAD7F8043823F00103C7F80438CE
:1056B0002046FDF702FC2268536903F00043536162
:1056C0002068FEF7EAF906050BD5D7F80838D807A1
:1056D00002D52046FDF7D8FB2268536903F4006326
:1056E00053612068FEF7D9F9C10443D507F5006678
:1056F0007368206823F0010373600021FDF71AFE30
:10570000606807F510630022824206D0FF2199608D
:105710000132C3F808122033F6E74FF0FF33B361CC
:10572000F36943F00113F361236B53B1D6F884306E
:1057300043F00B03C6F88430736C43F00B037364BF
:1057400007E0736943F00B037361336943F00B03A4
:105750003361D7F800382068217C23F4FE63C7F852
:10576000003804F56172FEF7E3F92268536903F427
:10577000805353612068FEF790F982047CD520683D
:10578000FEF7BBF92068C36823F47053C360FDF7CC
:1057900091FE48B92268E0604FF400736361D368FA
:1057A00043F41053D3605FE00323E360402363615D
:1057B000FEF7A8FE774B784A03449342236803D848
:1057C000DA6842F470524EE0744A754902448A42E3
:1057D00003D8DA6842F4605245E0A0F574027149DA
:1057E000A2F510528A4203D8DA6842F450523AE0E5
:1057F000A0F183726C49A2F5E7428A4203D8DA68C5
:1058000042F440522FE0694A694902448A4203D86F
:10581000DA6842F4305226E0664A674902448A4216
:1058200003D8DA6842F420521DE0644A6449024415
:105830008A4203D8DA6842F4105214E0A0F1B77239
:105840006049A2F558528A4203D8DA6842F40052FD
:1058500009E05D4A5D4902448A42DA6894BF42F435
:10586000E05242F4C052DA602046FDF7FCFA2268AA
:10587000536903F4005353612068FEF70EF9C30621
:105880003ED52268936923F010039361D7F82080F6
:10589000C8F34343022B08F00F061AD147F6F07203
:1058A00008EA02023AB31C2303FB06464FEA121829
:1058B00042463846D6F8E811FEF768F8D6F8E831DF
:1058C000D6F8F42143444244C6F8E831C6F8F4213E
:1058D00011E0062B0FD1384604F561710822FEF75E
:1058E00055F81C2303FB0646C8F30A18D6F8F43112
:1058F0004344C6F8F4312268936943F0100393617E
:105900002068FEF7CAF8070707D52046FDF7A6FA74
:105910002268536903F0080353612068FEF7BDF85D
:10592000C60208D52046E9B2FDF7D1FA22685369CC
:1059300003F4801353612068FEF7AFF8800208D5A6
:105940002046E9B2FDF7BEFA2268536903F400135A
:1059500053612068FEF7A1F8410007D52046FDF706
:10596000BBFA2268536903F0804353612068FEF755
:1059700094F842070AD523685D686B0702D5204674
:10598000FDF7AFFA23685A6815435D6007B0BDE8BC
:10599000F08F00BF405327FFFF340C00401E1BFF59
:1059A0003F420F007F4F12001FD6130060B6E5FE86
:1059B0005FE3160000D3CEFE3F771B00C05BB3FE53
:1059C000BF9121001F753800E05459FEDF9C410053
:1059D00090F88033012B10B5044609D0012380F8DC
:1059E00080330068FEF731F8002084F8800310BD92
:1059F000022010BD70B5CDB215F0800F04464FF0F7
:105A00001C0601F07F0015BF06FB004106FB0141AB
:105A1000383101F5EE71C0B2ED0908704D708A6041
:105A2000CB7005B1C880022B04BF00230B7194F822
:105A30008033012B09D0012384F880332068FDF7DF
:105A400054FD002084F8800370BD022070BDCBB2ED
:105A500013F0800F10B54FF01C02044601F07F00D8
:105A600015BF02FB004102FB0141383101F5EE7127
:105A7000DB0908704B7094F88033012B09D00123A7
:105A800084F880332068FDF771FD002084F88003DE
:105A900010BD022010BD70B5044601F07F051C202A
:105AA00000FB054000F5F471C0F8F0310023C0F8A8
:105AB000E821C0F8F43180F8DD3180F8DC51236949
:105AC000012B08BF4A6094F88023012A13D01C21BF
:105AD000012201FB054184F8802301F5EE71DAB261
:105AE000206815B9FDF779FD01E0FDF733FE0020D0
