:020000040800F2
:1000000000000220B9270008D34A0008D54A00089A
:10001000D74A0008D94A0008DB4A0008000000005F
:10002000000000000000000000000000C1340008D3
:10003000DD4A0008000000004D350008DF4A0008D6
:1000400009280008092800080928000809280008CC
:1000500009280008092800080928000809280008BC
:1000600009280008092800080928000809280008AC
:10007000092800080928000809280008092800089C
:10008000092800080928000809280008092800088C
:10009000092800080928000809280008092800087C
:1000A000092800080928000809280008092800086C
:1000B000092800080928000809280008092800085C
:1000C000092800080928000809280008092800084C
:1000D000092800080928000809280008092800083C
:1000E000092800080928000809280008092800082C
:1000F000092800080928000809280008092800081C
:10010000092800080928000809280008092800080B
:1001100009280008092800080928000809280008FB
:1001200009280008092800080928000809280008EB
:1001300009280008092800080928000809280008DB
:1001400009280008092800080928000809280008CB
:1001500009280008092800080928000809280008BB
:1001600009280008092800080928000809280008AB
:1001700009280008092800080928000800000000D4
:08018000092800080928000805
:1001880008B540F61450074BC2F200001B1A062BA4
:1001980000D808BD40F20003C0F20003002BF8D0DD
:1001A8009847F6E7170D002008B540F6145040F6BA
:1001B8001453C2F20003C2F200001B1A9B1003EB97
:1001C800D373591000D108BD40F20002C0F20002FA
:1001D800002AF8D09047F6E710B540F61854C2F256
:1001E8000004237873B9FFF7CBFF40F20003C0F295
:1001F80000032BB147F6C040C0F60400AFF30080FF
:100208000123237010BD00BF08B540F20003C0F2FF
:1002180000034BB147F6C04040F61C51C0F604003D
:10022800C2F20001AFF3008040F61450C2F20000A1
:1002380003682BB140F20003C0F2000303B19847F2
:10024800BDE80840B0E700BF844641EA000313F068
:1002580003036DD1403A41D351F8043B40F8043BC5
:1002680051F8043B40F8043B51F8043B40F8043B88
:1002780051F8043B40F8043B51F8043B40F8043B78
:1002880051F8043B40F8043B51F8043B40F8043B68
:1002980051F8043B40F8043B51F8043B40F8043B58
:1002A80051F8043B40F8043B51F8043B40F8043B48
:1002B80051F8043B40F8043B51F8043B40F8043B38
:1002C80051F8043B40F8043B51F8043B40F8043B28
:1002D80051F8043B40F8043B403ABDD2303211D3C8
:1002E80051F8043B40F8043B51F8043B40F8043B08
:1002F80051F8043B40F8043B51F8043B40F8043BF8
:10030800103AEDD20C3205D351F8043B40F8043BC7
:10031800043AF9D2043208D0D2071CBF11F8013BC5
:1003280000F8013B01D30B8803806046704700BF8B
:10033800082A13D38B078DD010F003038AD0C3F19A
:100348000403D21ADB071CBF11F8013B00F8013B7C
:1003580080D331F8023B20F8023B7BE7043AD9D33B
:10036800013A11F8013B00F8013BF9D20B78037010
:100378004B7843708B7883706046704740EA010C75
:100388001CF0070F23D1BDF1100DCDE90245CDE9D1
:1003980000676FF000064FF0000700BFF0E8022387
:1003A800F1E80245A24282FA46FCA7FA86FC08BF99
:1003B800BCF1000F40F0D780AB4283FA46FCA7FAA5
:1003C80086FC08BFBCF1000F40F0CA80E6E710F0D9
:1003D800030C21D020F0030050F8042B5FEACC7CFA
:1003E80008D00FD211F801CB5FFA92F3B3EB0C0CE3
:1003F80010D17BB111F801CB5FFAA2F3B3EB0C0C6F
:1004080008D13BB111F801CB5FFAB2F3B3EB0C0C96
:1004180000D10BB960467047BDF1100DCDE902451A
:10042800CDE900676FF000064FF0000711F0030CEC
:100438002DD110F0040F0DD050F8042B51F8044BB7
:10044800A24282FA46FCA7FA86FC08BFBCF1000F5C
:1004580040F0898011F0040F9FD051F8045B00BF71
:10046800F0E80223AA4282FA46FCA7FA86FC08BFF3
:10047800BCF1000F71D1F1E80245A34283FA46FCB2
:10048800A7FA86FC08BFBCF1000F63D1E8E721F0AA
:100498000301BCF1020F1ED03BDA51F8045B00BF28
:1004A80050F8043B4FEA152583FA46FCA7FA86FC68
:1004B800B7EB0C2F03EA162208BFAA424DD151F818
:1004C800045BBCF1000F82EA03034FEA056208BF30
:1004D80093423CD1E4E751F8045B00BF50F8043B79
:1004E8004FEA154583FA46FCA7FA86FCB7EB0C4F92
:1004F80003EA164208BFAA422FD151F8045BBCF1A7
:10050800000F82EA03034FEA054208BF93421ED157
:10051800E4E751F8045B00BF50F8043B4FEA156567
:1005280083FA46FCA7FA86FCB7EB0C6F03EA16625F
:1005380008BFAA4211D151F8045BBCF1000F82EA4E
:1005480003034FEA052208BF934200D1E4E719BA32
:1005580012BA0AE019BA22BA07E011BA2ABA04E0B4
:1005680019BA2ABA01E011BA22BA9CFA8CF0DDE96C
:100578000067DDE902451DF1100D38B1B0FA80F0D1
:10058800C0F1180021FA00F122FA00F2012091428C
:1005980098BF8041704700BFD0400B1CD1409C469B
:1005A800203AD34018435242634693401843704759
:1005B8009140031C90409C46203A93401943524274
:1005C8006346D3401943704781F0004102E000BF01
:1005D80083F0004330B54FEA41044FEA430594EAFB
:1005E800050F08BF90EA020F1FBF54EA000C55EA36
:1005F800020C7FEA645C7FEA655C00F0E2804FEA07
:100608005454D4EB5555B8BF6D420CDD2C4480EAE8
:10061800020281EA030382EA000083EA010180EA18
:10062800020281EA0303362D88BF30BD11F0004F66
:100638004FEA01314FF4801C4CEA113102D040429C
:1006480061EB410113F0004F4FEA03334CEA1333D7
:1006580002D0524263EB430394EA050F00F0A780EF
:10066800A4F10104D5F1200E0DDB02FA0EFC22FAEA
:1006780005F2801841F1000103FA0EF2801843FADE
:1006880005F359410EE0A5F120050EF1200E012ACF
:1006980003FA0EFC28BF4CF0020C43FA05F3C0180D
:1006A80051EBE37101F0004507D54FF0000EDCF186
:1006B800000C7EEB00006EEB0101B1F5801F1BD32F
:1006C800B1F5001F0CD349085FEA30004FEA3C0C33
:1006D80004F101044FEA445212F5800F80F09A8029
:1006E800BCF1004F08BF5FEA500C50F1000041EB2D
:1006F800045141EA050130BD5FEA4C0C404141EB31
:10070800010111F4801FA4F10104E9D191F0000F57
:1007180004BF01460020B1FA81F308BF2033A3F1DA
:100728000B03B3F120020CDA0C3208DD02F1140CD1
:10073800C2F10C0201FA0CF021FA02F10CE002F10C
:100748001402D8BFC2F1200C01FA02F120FA0CFC05
:10075800DCBF41EA0C019040E41AA2BF01EB04514E
:10076800294330BD6FEA04041F3C1CDA0C340EDC4C
:1007780004F11404C4F1200220FA04F001FA02F38F
:1007880040EA030021FA04F345EA030130BDC4F14D
:100798000C04C4F1200220FA02F001FA04F340EA42
:1007A8000300294630BD21FA04F0294630BD94F0F3
:1007B800000F83F4801306BF81F480110134013DDA
:1007C8004EE77FEA645C18BF7FEA655C29D094EA4B
:1007D800050F08BF90EA020F05D054EA000C04BFC9
:1007E8001946104630BD91EA030F1EBF00210020B4
:1007F80030BD5FEA545C05D14000494128BF41F053
:10080800004130BD14F580043CBF01F5801130BDB6
:1008180001F0004545F0FE4141F470014FF0000041
:1008280030BD7FEA645C1ABF194610467FEA655CF2
:100838001CBF0B46024650EA013406BF52EA033594
:1008480091EA030F41F4002130BD00BF90F0000F82
:1008580004BF0021704730B54FF4806404F13204BE
:100868004FF000054FF0000150E700BF90F0000F77
:1008780004BF0021704730B54FF4806404F132049E
:1008880010F0004548BF40424FF000013EE700BF6E
:1008980042004FEAE2014FEA31014FEA02701FBFFE
:1008A80012F07F4393F07F4F81F06051704792F0D0
:1008B800000F14BF93F07F4F704730B54FF460744A
:1008C80001F0004521F0004120E700BF50EA010295
:1008D80008BF704730B54FF000050AE050EA010242
:1008E80008BF704730B511F0004502D5404261EBB2
:1008F80041014FF4806404F132045FEA915C3FF4F3
:10090800DCAE4FF003025FEADC0C18BF03325FEA8B
:10091800DC0C18BF033202EBDC02C2F1200300FA40
:1009280003FC20FA02F001FA03FE40EA0E0021FA65
:1009380002F11444C1E600BF70B54FF0FF0C4CF44F
:10094800E06C1CEA11541DBF1CEA135594EA0C0F05
:1009580095EA0C0F00F0DEF82C4481EA030621EA40
:100968004C5123EA4C5350EA013518BF52EA03357B
:1009780041F4801143F4801338D0A0FB02CE4FF02D
:100988000005E1FB02E506F00042E0FB03E54FF05D
:100998000006E1FB03569CF0000F18BF4EF0010E55
:1009A800A4F1FF04B6F5007F64F5407404D25FEA51
:1009B8004E0E6D4146EB060642EAC62141EA555104
:1009C8004FEAC52040EA5E504FEACE2EB4F1FD0C46
:1009D80088BFBCF5E06F1ED8BEF1004F08BF5FEAC4
:1009E800500E50F1000041EB045170BD06F0004676
:1009F80046EA010140EA020081EA0301B4EB5C0423
:100A0800C2BFD4EB0C0541EA045170BD41F480111A
:100A18004FF0000E013C00F3AB8014F1360FDEBF3F
:100A2800002001F0004170BDC4F10004203C35DA1B
:100A38000C341BDC04F11404C4F1200500FA05F39E
:100A480020FA04F001FA05F240EA020001F000423F
:100A580021F0004110EBD37021FA04F642EB0601B5
:100A68005EEA430E08BF20EAD37070BDC4F10C04DF
:100A7800C4F1200500FA04F320FA05F001FA04F2A3
:100A880040EA020001F0004110EBD37041F100018F
:100A98005EEA430E08BF20EAD37070BDC4F120059A
:100AA80000FA05F24EEA020E20FA04F301FA05F202
:100AB80043EA020321FA04F001F0004121FA04F2AA
:100AC80020EA020000EBD3705EEA430E08BF20EA7A
:100AD800D37070BD94F0000F0FD101F000464000B4
:100AE80041EB010111F4801F08BF013CF7D041EA36
:100AF800060195F0000F18BF704703F0004652003A
:100B080043EB030313F4801F08BF013DF7D043EA0A
:100B18000603704794EA0C0F0CEA135518BF95EAC0
:100B28000C0F0CD050EA410618BF52EA4306D1D147
:100B380081EA030101F000414FF0000070BD50EA66
:100B4800410606BF1046194652EA430619D094EAF0
:100B58000C0F02D150EA013613D195EA0C0F05D1DA
:100B680052EA03361CBF104619460AD181EA03012E
:100B780001F0004141F0FE4141F470014FF00000E6
:100B880070BD41F0FE4141F4780170BD70B54FF081
:100B9800FF0C4CF4E06C1CEA11541DBF1CEA135501
:100BA80094EA0C0F95EA0C0F00F0A7F8A4EB0504E3
:100BB80081EA030E52EA03354FEA013100F08880DA
:100BC8004FEA03334FF0805545EA131343EA1263A3
:100BD8004FEA022245EA111545EA10654FEA002658
:100BE8000EF000419D4208BF964244F1FD0404F511
:100BF800407402D25B084FEA3202B61A65EB03056D
:100C08005B084FEA32024FF480104FF4002CB6EB29
:100C1800020E75EB030E22BFB61A754640EA0C00A9
:100C28005B084FEA3202B6EB020E75EB030E22BFE9
:100C3800B61A754640EA5C005B084FEA3202B6EB2A
:100C4800020E75EB030E22BFB61A754640EA9C00E9
:100C58005B084FEA3202B6EB020E75EB030E22BFB9
:100C6800B61A754640EADC0055EA060E18D04FEA77
:100C7800051545EA16754FEA06164FEAC30343EA17
:100C880052734FEAC2025FEA1C1CC0D111F4801FE4
:100C98000BD141EA00014FF000004FF0004CB6E7DD
:100CA80011F4801F04BF01430020B4F1FD0C88BF7C
:100CB800BCF5E06F3FF6AFAEB5EB030C04BFB6EB87
:100CC800020C5FEA500C50F1000041EB045170BD7A
:100CD8000EF0004E4EEA113114EB5C04C2BFD4EBA7
:100CE8000C0541EA045170BD41F480114FF0000E2B
:100CF800013C90E645EA060E8DE60CEA135594EAA7
:100D08000C0F08BF95EA0C0F3FF43BAF94EA0C0FA9
:100D18000AD150EA01347FF434AF95EA0C0F7FF41E
:100D280025AF104619462CE795EA0C0F06D152EA72
:100D380003353FF4FDAE1046194622E750EA410656
:100D480018BF52EA43067FF4C5AE50EA41047FF467
:100D58000DAF52EA43057FF4EBAE12E74FF0FF3CCC
:100D680006E000BF4FF0010C02E000BF4FF0010C9D
:100D78004DF804CD4FEA410C7FEA6C5C4FEA430C16
:100D880018BF7FEA6C5C1BD001B050EA410C0CBF65
:100D980052EA430C91EA030F02BF90EA020F0020C7
:100DA800704710F1000F91EA030F58BF994208BF2E
:100DB80090422CBFD8176FEAE37040F001007047EB
:100DC8004FEA410C7FEA6C5C02D150EA013C07D142
:100DD8004FEA430C7FEA6C5CD6D152EA033CD3D08D
:100DE8005DF8040B704700BF8446104662468C4687
:100DF8001946634600E000BF01B5FFF7B7FF0028BA
:100E080048BF10F1000F01BD4DF808EDFFF7F4FFE2
:100E18000CBF012000205DF808FB00BF4DF808ED6D
:100E2800FFF7EAFF34BF012000205DF808FB00BF90
:100E38004DF808EDFFF7E0FF94BF012000205DF8B2
:100E480008FB00BF4DF808EDFFF7CEFF94BF012067
:100E580000205DF808FB00BF4DF808EDFFF7C4FF60
:100E680034BF012000205DF808FB00BF4FEA4102B3
:100E780012F5001215D211D56FF47873B3EB6252E4
:100E880012D94FEAC12343F0004343EA505311F00B
:100E9800004F23FA02F018BF404270474FF000009D
:100EA800704750EA013005D111F0004008BF6FF0DB
:100EB800004070474FF00000704700BF4A0011D251
:100EC80012F5001211D20DD56FF47873B3EB62529C
:100ED8000ED44FEAC12343F0004343EA505323FAA8
:100EE80002F070474FF00000704750EA013002D11D
:100EF8004FF0FF3070474FF0000070474FEA410253
:100F0800B2F1E04324BFB3F5001CDCF1FE5C0DD95F
:100F180001F0004C4FEAC0024CEA5070B2F1004FA9
:100F280040EB830008BF20F00100704711F0804FAC
:100F380021D113F13872BCBF01F00040704741F471
:100F480080114FEA5252C2F11802C2F1200C10FA75
:100F58000CF320FA02F018BF40F001004FEAC12359
:100F68004FEAD32303FA0CFC40EA0C0023FA02F3FD
:100F78004FEA4303CCE77FEA625307D150EA0133D3
:100F88001EBF4FF0FE4040F44000704701F00040A3
:100F980040F0FE4040F40000704700BF80F0004081
:100FA80002E000BF81F0004142001FBF5FEA410339
:100FB80092EA030F7FEA226C7FEA236C6AD04FEA39
:100FC8001262D2EB1363C1BFD2184140484041407E
:100FD800B8BF5B42192B88BF704710F0004F40F430
:100FE800000020F07F4018BF404211F0004F41F44C
:100FF800000121F07F4118BF494292EA030F3FD018
:10100800A2F1010241FA03FC10EB0C00C3F120032A
:1010180001FA03F100F0004302D5494260EB4000B9
:10102800B0F5000F13D3B0F1807F06D340084FEA24
:10103800310102F10102FE2A51D2B1F1004F40EB19
:10104800C25008BF20F0010040EA03007047490081
:1010580040EB000010F4000FA2F10102EDD1B0FA4C
:1010680080FCACF1080CB2EB0C0200FA0CF0AABF41
:1010780000EBC25052421843BCBFD04018437047DF
:1010880092F0000F81F4000106BF80F400000132E5
:10109800013BB5E74FEA41037FEA226C18BF7FEABC
:1010A800236C21D092EA030F04D092F0000F08BFFE
:1010B8000846704790EA010F1CBF0020704712F0E5
:1010C8007F4F04D1400028BF40F00040704712F124
:1010D80000723CBF00F50000704700F0004343F089
:1010E800FE4040F4000070477FEA226216BF0846BF
:1010F8007FEA23630146420206BF5FEA412390EA82
:10110800010F40F4800070474FF0000304E000BF77
:1011180010F0004348BF40425FEA000C08BF704728
:1011280043F0964301464FF000001CE050EA0102EC
:1011380008BF70474FF000030AE000BF50EA010201
:1011480008BF704711F0004302D5404261EB4101EE
:101158005FEA010C02BF84460146002043F0B64313
:1011680008BFA3F18053A3F50003BCFA8CF2083A38
:10117800A3EBC25310DB01FA02FC634400FA02FC41
:10118800C2F12002BCF1004F20FA02F243EB020048
:1011980008BF20F00100704702F1200201FA02FCAA
:1011A800C2F1200250EA4C0021FA02F243EB02009D
:1011B80008BF20EADC70704773B96AB9002908BF14
:1011C8000028BCBF00204FF00041C4BF6FF00041B1
:1011D8004FF0FF3001F056B882B0EC462DE90050D0
:1011E80000F090F8DDF804E002B00CBC704700BFD6
:1011F8004BB942B9002908BF002802D04FF0FF318F
:10120800084601F03FB882B0EC462DE9005000F0E6
:1012180091F8DDF804E002B00CBC704707EE900AC4
:10122800F5EEC07AF1EE10FA08B503D4BDE808402F
:1012380000F022B8F1EE677A17EE900A00F01CF879
:10124800404261EB410108BD38B500220023054644
:101258000C46FFF7E3FD28B928462146BDE838408B
:1012680000F02EB8284604F1004100F029F8404269
:1012780061EB410138BD00BF70B5FFF709FB0023E2
:101288000022C3F6F05304460D46FFF755FBFFF75F
:1012980015FE0646FFF7DAFA00230022C4F2F0131F
:1012A800FFF74AFB02460B4620462946FFF790F90E
:1012B800FFF704FE002242EA00042046314670BDD2
:1012C800002370B50022C3F6F05304460D46FFF71D
:1012D80033FBFFF7F3FD0646FFF7B8FA00230022B9
:1012E800C4F2F013FFF728FB02460B4620462946B6
:1012F800FFF76EF9FFF7E2FD002242EA00042046FC
:10130800314670BD2DE9F041069C154606460F464C
:10131800984600F0B9FF05FB01F300FB0838A5FB70
:1013280000234344B21A67EB0303C4E90023BDE872
:10133800F08100BF2DE9F041069C154606460F4690
:10134800984601F0F7F800FB08F8A0FB052305FB19
:1013580001884344B21A67EB0303C4E90023BDE8DC
:10136800F08100BF03685A004CBF43F0004323F0EC
:1013780000431844704700BF2DE9F04F064683B07C
:10138800914621B3013901918846002707EB0804EB
:1013980004EBD4746410E50006EB050B5846FFF720
:1013A800E1FF019B8246A34205F10800304419D0B1
:1013B800FFF7D8FFCA4500F1FF3004D9BC420BD073
:1013C80004F1FF38E2E7484502D2671CDEE78B46A6
:1013D800584603B0BDE8F08F4FF0000B584603B0F5
:1013E800BDE8F08FCA45E9D8F2E700BF01280AD066
:1013F80002280DD041F61D33C0F6000300280CBFAB
:1014080018460020704741F62130C0F600007047AA
:1014180041F62530C0F60000704700BF30B540F2F5
:101428000003C0F2000383B004468D1E002B42D097
:10143800284601A9AFF30080034643B32A46019921
:10144800FFF79AFF054638B3FFF78CFF6B68A06477
:10145800012B16D0002B05F10400BEBF0123E06468
:10146800236504DBFFF77EFF0023E0642365036840
:10147800002B16DBFFF776FF00232061184603B028
:1014880030BD002323610523184603B030BD236116
:101498000923184603B030BD09232061184603B05C
:1014A80030BDC3F30360FFF7A1FF206100280CBF24
:1014B80009230023E2E74DF248134BF23830C0F617
:1014C8000403C0F604001B1ADB100193B6E700BF43
:1014D800036810B50446D80706D4990704F14800F4
:1014E80009D500F06DFC23685A0709D518070ED5F1
:1014F800D90613D510BD00F05BFC23685A07F5D454
:1015080004F1D00000F064FC23681807F0D404F557
:10151800A87000F065FC2368D906EBD404F5E870E0
:10152800BDE8104000F0A0BC03680BB11844704738
:101538001846704709207047704700BF70B50446C9
:101548000D4608E02A6C23696261012021462A467B
:101558009847082808D12046296CFFF75FFF064600
:101568000028EFD03CF0C0FE0728FBD13046296C9C
:10157800FFF7E2FF281D00F00FFC00BF2DE9F04740
:101588000C1D054617460FCCADF5727D03AE0FC690
:101598000FCC0FC60FCC0FC694E80F0002AC4FF06B
:1015A800000ED5F80C80D5F8189086E80F0028466C
:1015B800216CC4F800E0774514BF0A270927FFF714
:1015C8002DFF06468EB1A06B0094CDF804902A46F4
:1015D800606447F010012B460120C04700282FD136
:1015E80030460DF5727DBDE8F087236C21466B61AE
:1015F8004FF4F0727AA8FEF727FE2B6929467AAADB
:1016080038469847889B82468DE8100239466364BD
:1016180001202A462B46C04790B920467AA94FF4A4
:10162800F072FEF711FEBAF1080F06D12846216CB8
:10163800FFF7F4FE09270646C4E7BAF1070F04D0FE
:1016480009200DF5727DBDE8F0873046216CFFF763
:1016580073FF03A800F0A0FB406C7047CB6BF0B59C
:101668000B640E1D0F4604460FCEF9B001AD0FC531
:101678000FCE0FC50FCE0FC596E80F004FF0FF36FF
:1016880085E80F00009606E0236921466A469847D8
:101698000828054608D120461099FFF7BFFE002804
:1016A800F2D0092079B0F0BD6846FFF711FF062D8A
:1016B800F7D120463946FFF741FF00BF30B4DD6B54
:1016C800C160826119461D64002230BC56E700BF24
:1016D80070B54369C6680B6404460D4626B10122FD
:1016E800FFF74CFF3CF000FE0369214602202A4622
:1016F8009847072807D0082803D120462946FFF72E
:101708001DFF3CF0F1FD3046296CFFF715FF281D41
:1017180000F042FBC26810B42AB1CC6B00220C6402
:101728005DF8044B2AE75DF8044B97E7704700BF64
:1017380008B5836813B101460120984708BD00BF6A
:1017480010B404290FD8DFE801F007030E030300E3
:1017580001205DF8044B70470F2A98BF002B0CBF7F
:101768000023012303D002205DF8044B704700EBEF
:10177800820218465368019A5DF8044B136070475B
:1017880000B585B00A4603AB002100930B46FFF76E
:10179800D7FF039805B05DF804FB00BF10B4042917
:1017A8000FD8DFE801F007030E03030001205DF8FE
:1017B800044B70470F2A98BF002B0CBF002301234E
:1017C80003D002205DF8044B704700EB82020198B9
:1017D8005DF8044B016818465160704710B584B035
:1017E80004AB0C4643F8042D0021009322460B4617
:1017F800FFF7D4FF04B010BDD36BF0B51364151D0B
:1018080007460E460FCDADF50F7D17AC0FC40FCDB3
:101818000FC40FCD0FC495E80F004FF0FF3584E8D3
:101828000F00169510E016A8FFF7D8FF314616A846
:10183800B847694616AA78B9049B0820984709282A
:1018480018BF0528044608D026996846FFF7E6FD24
:101858006A460C210028E6D0092416A8FFF738FEAE
:1018680020460DF50F7DF0BD2DE9F04FCE6C8BB005
:101878000C46316804361D4690460791089600F0DC
:101888000307002B40F089800902032307918DF894
:1018980025508DF82430236D022F08BFA66B13F056
:1018A80001036ED100F00800C0B204F158010193A1
:1018B80003900291BA463768002F64D0022D0CBFFE
:1018C800D6F80490B6F80290A36C18BF378829F0B0
:1018D800010B40464FF00F010CBF083604369B44FD
:1018E800FFF74EFF834588BF002006D827F0010385
:1018F8009B4458452CBF0020012009F0010907F03E
:10190800010747EA4907012F71D066D3022F40D15A
:10191800336823F0004BBAF1000F4ED1002854D0A1
:101928000399002918BFBBF1000F4ED1BBF1000F7E
:101938001DD00595371DD146CDF810A0029D02E0B7
:10194800DA4514D0D14638460695FFF7EDFD00225A
:10195800014606AB20463CF0A3F909F1010A043719
:101968000028EDD0CB45DDF810A0059D2CD14046D0
:101978000D21FFF705FF069B2062A6626362062021
:1019880008E000230193022D4BDDFFF7D3FD00286B
:101998004DD009200BB0BDE8F08F022B3FF77BAF8D
:1019A8000B0C5FFA83FE090402228DF8253006EB42
:1019B8008E0607918DF824206DE740460D21276A91
:1019C800FFF7DEFE874262D03368002BB8BF0436CB
:1019D8000BF1010B06EB8B066DE7BAF1000F0CBF9C
:1019E800002000F0010000286CD1043663E7BAF14A
:1019F800000F33D198B196E80C00D70F9A1CC8D0C5
:101A0800029A0133069253D0301DFFF78DFD3A46F6
:101A1800014606AB20463CF043F900286AD1083657
:101A280049E7404607A900F0B7FA0028B1D1019963
:101A380008200029AED00F214046FFF7A1FE0E2155
:101A480002464046FFF7CAFE4DF619724046C0F6F8
:101A580003020F21FFF7C2FE07209BE740460D2136
:101A6800276AFFF78DFE8742D9D1A36A9E42D6D155
:101A78003046FFF777FC0F2102464046FFF7AEFEDF
:101A8800404622460021FFF7A9FE072082E7A36A05
:101A98009E4299D10422B3180021C4F828B0E1620B
:101AA8002263636333688B421FDB012201928FE755
:101AB80040460D21FFF764FE2062069B6362A66222
:101AC800062067E73046FFF74DFC04360546A66357
:101AD80020463CF03DF900283FF45BAF40462A46DB
:101AE8000F21FFF77BFE072054E70BF1010006EBFF
:101AF8008000BEE703460D2140460093FFF740FEF5
:101B0800009B2062022BD8D12346069A43F82C2F3B
:101B18006362D4E70023A7E60123A5E60223A3E630
:101B28002DE9F0410446C4B0042907D8DFE801F0E4
:101B3800B32E06030A00032B00F0C880022044B02D
:101B4800BDE8F081102A98BF002BF7D12368D90689
:101B580000F1E38022AE3046019200F08FF9A56BC8
:101B6800019A0023012000FA03F111421CBF2968E1
:101B780046F8231003F1010318BF0435042BF2D1F2
:101B88003046A56300F070F90020D8E703F0FB01A8
:101B98000129D3D1150C96B27219012B14BF20213B
:101BA80010219142CAD3B3F1010CDCF1000757EBC5
:101BB8000C070F2D94BF002101210F42BED1B04662
:101BC80021B9102A40F2CB80A2F11008B8F1000F19
:101BD80018BF052BB2D10F2D0FD82268D0070CD50E
:101BE80022F00101052B2160204600F0CD8022F073
:101BF800030240F8482B00F0DFF8B8F1000F03D0DB
:101C08002368590700F19B80002F40F0B6800F2D04
:101C180040F28D80B8F1000F40F0A9803346A66BE2
:101C2800002B314610DD4FEA430C22AB03EBC50015
:101C3800801B0CF1FF31331F53F8042F0139C250B8
:101C48004A1CF9D106EB8C01B8F1000F16D044A854
:101C5800102D2CBF2E46102600EBC6064FEA480C66
:101C6800A6F5C4760CF1FF33084650F8042B013B67
:101C780046F8042B5A1CF8D101EB8C01002F70D1C7
:101C88000F2DA16357D9B8F1000F02D002A800F0B8
:101C98009FF8002053E7002B7FF450AFA56B96B256
:101CA800012000FA03F131421CBF2F6804EB8301C5
:101CB80003F101031CBF04354F60102BF1D112F45E
:101CC800005008BFA5633FF43AAFE2E7150C97B29E
:101CD8007B19102B3FF632AF23681E0737D422AE8C
:101CE800304600F09FF8D4F838E07F0006EBC500D6
:101CF8007B1E72465FB1CEEB0000AEF1040252F8D3
:101D0800041F013B5D1C8150F9D10EEB8702304660
:101D1800A26300F065F8002011E723F010032360A8
:101D280004F5E870019200F0A9F8019A12E722A8D8
:101D380000F04AF86EE722A800F042F8A3E7204630
:101D480023F0040340F8D03B00F046F85CE723F0AA
:101D58000803236004F5A87000F064F8BFE788461C
:101D680039E70431A16322A800F022F891E702A81C
:101D780000F032F8C5F1100351E722A800F01CF872
:101D8800B8F1000FF6D149E741F0020140F8481BCD
:101D980000F01AF831E700BF00F1340191E838008B
:101DA8009C46A6464CF8045D90E8FF0FE54600BD4A
:101DB80090EC210B704700BF80EC210B704700BFEF
:101DC80090EC200B704700BF80EC200B704700BFE1
:101DD800D0EC200B704700BFC0EC200B704700BF51
:101DE800F0EC0201F0EC0211F0EC0221F0EC02310F
:101DF800F0EC0241F0EC0251F0EC0261F0EC0271FF
:101E0800F0EC0281F0EC0291F0EC02A1F0EC02B1EE
:101E1800F0EC02C1F0EC02D1F0EC02E1F0EC02F1DE
:101E2800704700BFE0EC0201E0EC0211E0EC022197
:101E3800E0EC0231E0EC0241E0EC0251E0EC02613E
:101E4800E0EC0271E0EC0281E0EC0291E0EC02A12E
:101E5800E0EC02B1E0EC02C1E0EC02D1E0EC02E11E
:101E6800E0EC02F1704700BFB0FC0181B0FC0191C9
:101E7800B0FC01A1B0FC01B1704700BFA0FC01811A
:101E8800A0FC0191A0FC01A1A0FC01B1704700BF1A
:101E9800EC4600B52DE900502DE9FF1F4FF0000377
:101EA8002DE90C0001A9FFF7D9FBDDF840E012B0DD
:101EB800704700BFEC4600B52DE900502DE9FF1F23
:101EC8004FF000032DE90C0001A9FFF701FCDDF834
:101ED80040E012B0704700BFEC4600B52DE9005055
:101EE8002DE9FF1F4FF000032DE90C0001A9FFF7B2
:101EF80011FCDDF840E012B0704700BFEC4600B5B9
:101F08002DE900502DE9FF1F4FF000032DE90C00CB
:101F180001ABFFF7D3FBDDF840E012B0704700BF1C
:101F2800EC4600B52DE900502DE9FF1F4FF00003E6
:101F38002DE90C0001AAFFF75FFCDDF840E012B0C4
:101F4800704700BF037A1BB9437A43B9B020704782
:101F58000268013B037213020360100E7047416868
:101F6800013B43720A680323037204311302416080
:101F78000360100E704700BF00B585B003AB0021A9
:101F880000930C220B46FFF7DBFB039805B05DF8C6
:101F980004FB00BFF0E700BF2DE9F041064684B01E
:101FA8000D4600272846FFF7CDFFB028044600F06D
:101FB800B18020F07F0212F0FF0120D000F0F00283
:101FC800802A75D0902A37D0A02A43D0B02A57D07B
:101FD800C02A00F0858000F0F803D02B0BD100F068
:101FE8000704621C42F40022304601210523FFF752
:101FF80097FD0028D6D0092004B0BDE8F08103AAD7
:102008004FEA800800920B4630460D22FFF798FBF6
:102018005FFA88F8039B08F1040860064CBFC8EB18
:1020280003034344039303AB0021009330460B465C
:102038000D22FFF7B3FBB5E700F00D030D2BDAD047
:1020480003AA002100920B4600F00F023046FFF76A
:1020580077FBE8E7C2434FF47F6302F0070243FAD5
:1020680002F2010702EA03024FF0000148BF42F4FE
:1020780080420B463046FFF753FD0028BBD191E75D
:10208800B1285CD0B22865D0B32800F0918000F068
:10209800FC03B42BAFD000F007020132012142F457
:1020A80000220B463046FFF73BFD0028A3D179E715
:1020B8002846FFF747FF24022043B0F5004F9AD087
:1020C80004014FF6F072002122400B463046FFF71C
:1020D80027FD00288FD114F4004F18BF012761E7AE
:1020E800C62871D0C7287BD000F0F803C02B00F0B9
:1020F8008A80C82800F08E80C9287FF47CAF2846E3
:10210800FFF720FF00F00F03013300F0F00243EA6D
:10211800023269E70020002F7FF46EAF03AC394626
:102128000E223B4600943046FFF70AFB00943046E7
:1021380039460F223B46FFF731FB38465CE7284615
:10214800FFF700FF024600283FF455AF10F0F001FA
:10215800A7D050E7002103AA00920B460D22304673
:10216800FFF7EEFA2846FFF7EDFE02064FF00204ED
:102178000CD5039B00F07F00A0400344284603933E
:10218800FFF7E0FE030604F10704F2D4039B00F016
:102198007F0003AA00FA04F403F5017300211C442C
:1021A80000920B4630460D220394FFF7F7FAF9E642
:1021B8002846FFF7C7FE00F00F03013300F0F002D6
:1021C800012143EA02326CE72846FFF7BBFE00F024
:1021D8000F03013300F0F002032143EA023260E703
:1021E8002846FFF7AFFE024600283FF404AF10F080
:1021F800F0037FF400AF30460421FFF791FC00287C
:102208007FF4F9AECEE600F00F020132032142F46A
:10221800202246E72846FFF795FE00F0F00200F07E
:102228000F031032013343EA0232DDE610B5C36C06
:1022380084B003225C688DF80C20DA7908460833EC
:10224800240201A901948DF80D200293FFF7A4FE42
:1022580004B010BD08B5FFF79DFE806C08BD00BF37
:1022680008B5FFF797FEC36CDA7903EB82000830F4
:1022780008BD00BF08B53CF037F800BF08B53CF012
:1022880033F800BF704700BF00292DE9F00FA8BF41
:102298000026C0F2A980002BC0F2A1808946904692
:1022A8009C46144605460F46002B47D18A425BD907
:1022B800B2FA82F353B1C3F1200201FA03F720FA0C
:1022C80002F208FA03F4174300FA03F5210CB7FBEE
:1022D800F1F22B0C01FB127CA0B243EA0C4700FB85
:1022E80002F3BB4209D93F1902F1FF3C04D2BB42B9
:1022F80084BF023A3F1900D86246FF1AB7FBF1F3D0
:10230800ADB201FB137145EA014100FB03F08842BD
:1023180008D9091903F1FF3703D2884288BF023B65
:1023280000D83B4643EA024300221846114616B13C
:10233800404261EB4101BDE8F00F70478B4284BF1A
:1023480000221346F1D8BCFA8CF1002940F09080A5
:10235800CC4528BF80458CBF002201229CBF0123A9
:102368000A46E2D91346E0E712B90123B3FBF2F4B7
:10237800B4FA84F3002B3DD13F1B200C1FFA84FCD8
:102388000122B7FBF0F12B0C00FB117743EA07475A
:102398000CFB01F3BB420AD93F1901F1FF3880F069
:1023A800C180BB4284BF02393F1940F2BB80FF1A8B
:1023B800B7FBF0F3ADB200FB137045EA00400CFB2D
:1023C80003FC844508D9001903F1FF3703D284457B
:1023D80088BF023B00D83B4643EA0143A5E7F643E2
:1023E800524263EB430359E7404261EB41014FF02E
:1023F800FF3650E79C40C3F1200227FA02F1200C77
:1024080025FA02F29F401743B1FBF0F24FEA174852
:1024180000FB12111FFA84FC48EA01410CFB02F888
:10242800884505FA03F508D9091902F1FF337FD267
:10243800884584BF023A09197AD9C8EB0101B1FB72
:10244800F0F300FB1311BFB247EA01470CFB03F19D
:10245800B94209D93F1903F1FF3804D2B94284BF00
:10246800023B3F1900D843467F1A43EA024288E7F5
:10247800C1F1200328FA03F20CFA01FC42EA0C0C21
:1024880029FA03F44FEA1C4A20FA03F309FA01F97E
:1024980043EA0900B4FBFAF70AFB1744030C1FFAD6
:1024A8008CF943EA044409FB07FBA34508FA01F247
:1024B80009D914EB0C0407F1FF3337D2A34584BFC5
:1024C800023F644432D9CBEB0404B4FBFAF30AFBB1
:1024D800134480B240EA044009FB03F4844209D95A
:1024E80010EB0C0003F1FF381ED2844284BF023B7C
:1024F800604419D943EA0747001BA7FB0223984207
:102508000DD314BF0023012305FA01F191422CBF1A
:10251800002203F001023B46002A3FF406AF7B1E6F
:10252800002202E7414642E74346E3E71F46CAE77F
:102538001A4682E72DE9F003144605460E46002B9D
:1025480041D18A4254D9B2FA82F34BB1C3F1200681
:10255800994020FA06F602FA03F40E4300FA03F54E
:10256800220CB6FBF2F02B0C02FB1061A7B243EA77
:10257800014607FB00F3B34209D9361900F1FF31D0
:1025880004D2B34284BF0238361900D80846F61A76
:10259800B6FBF2F3ADB202FB136245EA024207FB57
:1025A80003F7974209D9121903F1FF3180F0EA8045
:1025B800974288BF023B40F2E58043EA0040002191
:1025C800BDE8F00370478B4284BF00210846F7D866
:1025D800B3FA83F4002C49D18B4228BF82428CBFC6
:1025E800002101219CBF01202146E9D90846E7E7DF
:1025F80012B90124B4FBF2F4B4FA84F7002F40F0C6
:1026080082800B1B260CA7B20121B3FBF6F02A0C23
:1026180006FB103342EA034307FB00F29A420AD949
:102628001B1900F1FF3C80F0AF809A4284BF02384A
:102638001B1940F2A9809B1AB3FBF6F2ADB206FB58
:10264800123345EA034507FB02F7AF4209D92C19B3
:1026580002F1FF3380F09A80A74288BF023A40F225
:10266800958042EA0040BDE8F0037047C4F12005B8
:1026780022FA05F6A34033434FEA134821FA05F638
:10268800A14020FA05F5B6FBF8FC0D4308FB1C66D3
:10269800290C1FFA83F941EA064609FB0CF7B742F1
:1026A80002FA04F204D9F6180CF1FF3176D38C46FD
:1026B800F61BB6FBF8F708FB1766ADB245EA064508
:1026C80009FB07F6AE4204D9ED1807F1FF315FD3D5
:1026D8000F4647EA0C47AD1BA7FB02239D420DD3CB
:1026E80000FA04F114BF0025012591422CBF0021F6
:1026F80005F00101384600293FF462AF781E002139
:10270800BDE8F0037047BC40C7F1200321FA03FC81
:10271800260CB94020FA03F30B43BCFBF6F11A0C64
:1027280006FB11CC1FFA84F842EA0C4C08FB01F2B4
:10273800624500FA07F509D91CEB040C01F1FF30DA
:1027480033D2624584BF0239A4442ED9C2EB0C0CA3
:10275800BCFBF6F29BB206FB12CC43EA0C4308FB27
:1027680002F0984209D91B1902F1FF3704D29842A6
:1027780084BF023A1B1900D83A461B1A42EA0141A3
:10278800474642E70B4618E7604654E71A4668E7AB
:10279800AE4284BF023FED189BD899E7B74284BF89
:1027A800ACF1020CF61883D881E70146CEE700BFEA
:1027B800DFF834D0002103E00C4B5B584350043160
:1027C8000B480C4B42189A42F6D30B4A02E00023FE
:1027D80042F8043B094B9A42F9D302F083F93BF0E3
:1027E800B5FD00F0D1FD704700000220E4D20408D6
:1027F80000000020140D0020180D00204056002075
:10280800FEE77047C0B2072828BF072070470000BE
:10281800A14B2DE9F74F00241C60A04BA049A14F04
:10282800DFF87CA33C704FF480521A604FF40053D9
:102838000B609D494FF4804008609C4901250D605C
:102848009B494FF00208C1F800809A498AF8008035
:102858000420086098494FF00809C1F8009097498A
:1028680010200860964920260E609649402008608E
:1028780095498020086095494FF480700860944914
:102888004FF40070086093494FF4806008609249E3
:102898004FF400600860914991480A60914A1360BA
:1028A800914B1C60914B6FF002021A60904B6FF0D5
:1028B80001021A608F4A904B15704FF0030B83F892
:1028C80000B04FF004028D4B02704FF005001870F5
:1028D8008B4B8C484FF0060C83F800C08A4B4FF0A6
:1028E80007021A70894B83F8009009236246037027
:1028F80021464B468648CDF804C007F039FA2146F0
:102908009AF800208348334607F032FA21469AF8AD
:1029180000208148402307F02BFA9AF80020DFF8BE
:1029280084A27E482146802307F022FA21463A787D
:102938002346504607F01CFA21463A7878484B4619
:1029480007F016FA6B4B77481A7821464B4607F082
:102958000FFA21463A787448102307F009FA654BB4
:1029680072481A782146102307F002FA21463A786D
:102978006F48334607F0FCF95E4B6E481A782146DB
:10298800334607F0F5F921463A786B48402307F0BB
:10299800EFF9584B69481A782146402307F0E8F9BF
:1029A8004F4B67481A782946334607F0E1F94C4BF4
:1029B80064481A782146334607F0DAF9514B6248E1
:1029C8001A782146234607F0D3F94B4B5F481A780B
:1029D800214633465E4E07F0CBF921465D4807F0A5
:1029E800C5F92146301D07F0C1F9BAF80030F47175
:1029F800B380594BB4711C70584BB5601D70584B5F
:102A0800F56083F80080574B356183F800B0DDF836
:102A180004C0554B357583F800C0544B34604FF0F3
:102A280007001870524B1C70524B1D70524B83F8A4
:102A38000080524B83F800B0514B1C70514B1D70F5
:102A4800514B524D83F80080514B83F800B0514BE5
:102A58004FF004021A70504B4FF0050018704F4B9E
:102A6800204683F800C0FFF7CDFE2B68400600F033
:102A7800606623F060631E43B30C9B042B60204602
:102A8800FFF7C0FE800400F4E01006F0606606431D
:102A98002E6003B0BDE8F08F740D0020BC0D00203F
:102AA800680D0020340D00209C0D0020880D0020AA
:102AB800480D0020E40D0020B80D0020900D0020E6
:102AC800B00D0020400D0020B40D0020580D00204E
:102AD800980D0020EC0D0020F00D0020500D002076
:102AE800AC0D0020A80D0020F80D00204C0D002092
:102AF800640D0020E00D00205C0D0020FD0D00207D
:102B08007A0D0020940D0020A10D0020AD0D0020AD
:102B1800780D0020E80D00206C0D0020620D0020CB
:102B28005E0D0020DA0D00207E0D0020380D0020FB
:102B3800360D0020A40D0020820D00203E0D00203F
:102B48003C0D0020440D0020DE0D0020DC0D00208F
:102B5800C00D00208C0D0020460D0020540D0020D3
:102B6800FC0D0020A20D0020350D00207C0D00205A
:102B7800850D0020F40D00207B0D0020D80D0020CD
:102B8800550D0020600D0020800D0020700D0020E4
:102B98005D0D0020A00D0020840D0020AE0D00204A
:102BA8003A0D00208E0D00208068704770470000A5
:102BB80010B5044B03600023044683600AF036FE18
:102BC800204610BD58FA030810B50446FFF7F0FF79
:102BD80020463BF027F9204610BDFEE71FB50C48FC
:102BE80003AC07F0A7FB4FF400630A4902932046A1
:102BF80006F02CFF01238DE818000748074B002139
:102C080002AA39F061FF0020054939F049FEFAE7C8
:102C18000B2800087C0E0020493000088BFA0308B6
:102C28000000F03FA84B2DE9F74F00241C60A74B8C
:102C3800A749A84FDFF8A8A33C704FF480521A6048
:102C48004FF400530B60A4494FF480400860A34937
:102C580001250D60A2494FF00208C1F80080A14982
:102C68008AF80080042008609F494FF00809C1F8DD
:102C780000909E49102008609D4920260E609D49BD
:102C8800402008609C49802008609C494FF480706F
:102C980008609B494FF4007008609A494FF48060BF
:102CA800086099494FF400600860984998480A609C
:102CB800984A1360984B1C60984B6FF002021A6098
:102CC800974B6FF001021A60964A974B15704FF0B8
:102CD800030B83F800B04FF00402944B02704FF0DE
:102CE80005001870924B93484FF0060C83F800C00B
:102CF800914B4FF007021A70904B83F8009009230C
:102D08006246037021464B468D48CDF804C007F053
:102D18002FF821469AF800208A48334607F028F809
:102D280021469AF800208848402307F021F89AF8AD
:102D38000020DFF8B0A285482146802307F018F864
:102D480021463A782346504607F012F821463A7849
:102D58007F484B4607F00CF8724B7E481A7821469C
:102D68004B4607F005F821463A787B48102306F0D1
:102D7800FFFF6C4B79481A782146102306F0F8FFBC
:102D880021463A787648334606F0F2FF654B754897
:102D98001A782146334606F0EBFF21463A78724806
:102DA800402306F0E5FF5F4B70481A782146402320
:102DB80006F0DEFF564B6E481A782946334606F071
:102DC800D7FF534B6B481A782146334606F0D0FF9D
:102DD800584B69481A782146234606F0C9FF524BDA
:102DE80066481A7821463346654E06F0C1FF2146EB
:102DF800644806F0BBFF2146301D06F0B7FFBAF85D
:102E08000030F471B380604BB4711C705F4BB560D7
:102E18001D705F4BF56083F800805E4B356183F869
:102E280000B0DDF804C05C4B357583F800C05B4B1F
:102E380034604FF007001870594B1C70594B1D70C7
:102E4800594B83F80080594B83F800B0584B1C70DD
:102E5800584B1D70584B594D83F80080584B83F8D8
:102E680000B0584B4FF004021A70574B4FF0050052
:102E78001870564B204683F800C0FFF7C3FC2B6838
:102E8800400600F0606623F060631E43B30C9B04A9
:102E98002B602046FFF7B6FC800400F4E01006F033
:102EA8006066214606434A4C2E604A4806F0CCFD2F
:102EB800204618F03BFB4849484A204603B0BDE885
:102EC800F04F39F0B1BF00BF440E0020900E002033
:102ED800380E0020FE0D00206C0E0020580E002039
:102EE800180E0020B80E00208C0E0020600E002066
:102EF800840E00200C0E0020880E0020100E0020EA
:102F0800680E0020C00E0020C80E0020200E0020F1
:102F1800B50E0020780E0020280E00201C0E002080
:102F2800340E0020B40E00202C0E0020F90E0020D4
:102F38004A0E0020640E0020710E0020800E002032
:102F4800480E0020BC0E00203E0E0020320E00204D
:102F58002E0E0020AE0E00204E0E0020020E002085
:102F6800000E0020740E0020520E0020080E0020D3
:102F7800060E0020C40E0020B20E0020B00E002065
:102F8800940E00205C0E0020140E0020240E002059
:102F9800F80E0020720E0020FF0D00204C0E0020BD
:102FA800550E00203C0E00204B0E0020AC0E0020D9
:102FB800250E0020300E0020500E0020400E00206C
:102FC8002D0E0020700E0020540E0020810E0020CF
:102FD800CC0E00207C0E002095B5010800000020D2
:102FE800040E00205E0E002038B503680D46DB682D
:102FF800044698472B6828461B69984780B12046A5
:1030080029460AF026FC606820B10649064A0023D2
:103018003AF0C6FCA06018B923682046DB689847D8
:10302800204638BD004504083073040810B504462E
:103038000AF0D5FB18B1A068003018BF012010BDF8
:1030480030B54248ADF5577D07F04CFE451C07A842
:103058001AF062F92C203AF093FD3C492A460446BE
:1030680017F09EFD23682046996A002200238847AE
:1030780010A8214607AA002323F080FA10A823F0FD
:103088006BF8236805465B68204698475DB10AF0EF
:10309800BBF804460BF0AEFA23682046DB6807A9A4
:1030A8009847054600E02C4604A80AF0E7FB284BA1
:1030B80004930023059306931DB368460AF0DEFBCC
:1030C80002A82146234A6B460AF046FA04A802A938
:1030D800FFF78AFF02A80AF0A9FB68460AF0A6FBD8
:1030E80004A8FFF7A3FF60B106982FF05FFB40B17B
:1030F800069819490368DB69984710B106982EF0BD
:1031080031FB04A8FFF754FD10A823F023FA07A801
:103118001AF056F80DF5577D30BD20463AF082FE7C
:103128000FE002A80AF082FBFFE768460AF07EFB80
:10313800FFE704A8FFF73CFDFFE710A823F00AFA11
:10314800FFE707A81AF03CF83AF0A4FD9CFA030838
:1031580058FA0308F6FE030803FF030800228260FA
:103168000AF055BB37B504460AF0E6FB054670B1D0
:10317800606820B10D490E4A00233AF011FC05465B
:10318800A06078B920460AF042FBA5600AE0094B26
:103198000948009309490A4A4FF48A7307F0A4F8CA
:1031A800284600E0012003B030BD00BF00450408F8
:1031B8003073040880FA0308580E00200AFF030839
:1031C80035FF030808B501F043FE002008BD30B5FF
:1031D800B0F90840028A87B0842C0B4690E8220098
:1031E80014BF03340024009405A80024019002941D
:1031F8000394284601F0D6FC01280CBF0598204608
:1032080007B030BD08B502F0F3F8012803D0BDE8D7
:10321800084000F0C7B908BD10B5044601F054FED7
:1032280020463BF0C1F8044601F0E2FE204610BDFE
:1032380010B5044640B101F047FE20463BF0BCF80B
:10324800BDE8104001F0D4BE10BD00F10803436092
:103258004FF0FF32C3600361002382600360704750
:1032680000230361704743689A684B608A609A68D4
:10327800516099600368086101330360704730B595
:103288000C68631C01D1036907E000F108035A6860
:103298001568A54201D81346F9E75A684A60916053
:1032A8008B605960036808610133036030BD416871
:1032B800826803698A60826851605968814208BFE0
:1032C8005A600022026118680138186070470000CF
:1032D800014B53F8200070470400002030B595B02A
:1032E8000022274B0192196C41F0805119641B6C24
:1032F80003F080530193019B224B02921A6842F417
:1033080080421A601B6803F480430293029B0123E6
:10331800089309934FF480030F93082310934FF4F5
:10332800A8730224119308A807230E9412941393E8
:1033380000F0EEFE00B1FEE74FF4A05305900693AF
:103348000F254FF4805303A8052104940395079390
:1033580001F07EF8044600B1FEE701F033F94FF4BE
:103368007A73B0FBF3F000F089FD042000F09CFDB7
:103378004FF0FF302946224600F04EFD15B030BD13
:10338800003802400070004070B588B000F00AFDB7
:10339800FFF7A4FF1F4B204800220192196B41F050
:1033A80080011963196B01F0800101910199029262
:1033B8001A6B42F001021A631B6B03F001030293BC
:1033C800029B164B036001F033F900B1FEE7144B82
:1033D800144998604FF4E13283E80600D860186118
:1033E8000C229861D86118465A6101F089FA06469C
:1033F80000B1FEE70C4D0FCD03AC0FC42B6803A83A
:1034080031462360FFF7E3FE084B1860FFF7DAFE4A
:10341800FEE700BF00380240EC55002000080650C7
:10342800F8550020004C0040A8F803083856002042
:103438000A4B1B68013308D04FF0500383F31188FF
:10344800BFF36F8FBFF34F8FFEE74FF0500383F347
:103458001188BFF36F8FBFF34F8FFEE71C0000206A
:1034680006480068006880F3088862B661B6BFF352
:103478004F8FBFF36F8F00DF00BF000008ED00E043
:10348800DFF80C00016841F470010160704700002A
:1034980088ED00E04FF0807300E90A00054B40F822
:1034A800202C40F80C3C6FF0020340F8243C4438D0
:1034B800704700BF39340008064B19680868B0E83F
:1034C800F04F80F30988BFF36F8F4FF0000080F34F
:1034D80011887047CC0F00204FF0500383F31188F8
:1034E800BFF36F8FBFF34F8F0A4A13680133012B65
:1034F80013600DD1084B1B6813F0FF0F08D04FF075
:10350800500383F31188BFF36F8FBFF34F8FFEE72C
:10351800704700BF1C00002004ED00E0084A136853
:1035280043B94FF0500383F31188BFF36F8FBFF394
:103538004F8FFEE7013B13600BB983F31188704787
:103548001C000020EFF30980BFF36F8F144B1A683B
:103558001EF0100F08BF20ED108A20E9F04F106010
:103568004DF8043D4FF0500080F31188BFF34F8FA2
:10357800BFF36F8F01F02AFE4FF0000080F311882F
:1035880008BC19680868B0E8F04F1EF0100F08BFB3
:10359800B0EC108A80F30988BFF36F8F704700BFC3
:1035A800CC0F002008B5EFF311834FF0500282F3DF
:1035B8001188BFF36F8FBFF34F8F01F08DFC18B1E7
:1035C800034B4FF080521A60002383F3118808BD23
:1035D80004ED00E0064B1A684FF47A73B2FBF3F27D
:1035E800044B013A1A60072243F8042C704700BFC5
:1035F8002000002014E000E0304B07B51968304A7D
:10360800914208D14FF0500383F31188BFF36F8FB5
:10361800BFF34F8FFEE71A682A4B9A4208D14FF042
:10362800500383F31188BFF36F8FBFF34F8FFEE70B
:10363800254B1A78D2B20192FF221A701B78DBB29E
:103648008DF803309DF80320204B02F050021A70C9
:103658001F4A072313609DF80310090603F1FF3082
:1036680007D59DF803305B00DBB28DF803300346C5
:10367800F1E71B0203F4E0631360019A124BD2B224
:103688001A70D3F8202942F47002C3F82029D3F81D
:10369800202942F07042C3F82029FFF79BFF0D4B09
:1036A80000221A60FFF7ECFE0B4B1A6842F040420A
:1036B8001A60FFF7D5FEFFF7BBFE00BF00ED00E084
:1036C80071C20F4170C20F4100E400E0FA0E002001
:1036D800FC0E00201C00002034EF00E0EFF305830F
:1036E8000F2B0ED9104A9B5C104A12789A4208D9BF
:1036F8004FF0500383F31188BFF36F8FBFF34F8FE1
:10370800FEE70B4B1A680B4B1B6802F4E0629A4207
:1037180008D94FF0500383F31188BFF36F8FBFF3BD
:103728004F8FFEE7704700BFF0E300E0FA0E00207D
:103738000CED00E0FC0E002038B51546026C04467E
:1037480032B9056845BB406801F0ACFE656024E00D
:103758006DB98068FCF778FDA268236C1344626831
:10376800A360934218D323682846A36015E0C06875
:10377800FCF76AFD236CE26821685B421A448A42BE
:10378800E26002D262681344E360022D04D1A36BA5
:1037980013B1A36B013BA3630020A36B0133A363A5
:1037A80038BD026C30B503466AB1C4684568144434
:1037B800AC42C46024BF0468C460BDE83040084619
:1037C800D968FCF741BD30BD10B50446FFF784FE4B
:1037D800A36C002B0CDD636A53B104F1240001F0E3
:1037E8006FFD08B101F0FEFDA36C013BA364EFE798
:1037F8004FF0FF33A364FFF791FEFFF76DFE636C94
:10380800002B0CDD236953B104F1100001F058FDC1
:1038180008B101F0E7FD636C013B6364EFE74FF02B
:10382800FF336364BDE81040FFF778BE38B50D4636
:10383800044640B94FF0500383F31188BFF36F8FEC
:10384800BFF34F8FFEE7FFF747FE226CE06B23685C
:103858005043821A1918A36013446160E360002181
:103868004FF0FF33A1636364A36485B92369B3B1DF
:1038780004F1100001F024FD012810D10A4B4FF08B
:1038880080521A60BFF34F8FBFF36F8F07E004F1C8
:103898001000FFF7DAFC04F12400FFF7D6FCFFF76D
:1038A8003DFE012038BD00BF04ED00E0F8B50D462F
:1038B8001746064640B94FF0500383F31188BFF30B
:1038C8006F8FBFF34F8FFEE711B14843013000E01F
:1038D80008465430FFF7A0FC044630B10DB920600B
:1038E8000CE000F15403036008E04FF0500383F349
:1038F8001188BFF36F8FBFF34F8FFEE7E663256430
:1039080020460121FFF792FF84F850702046F8BD49
:1039180010B50C4640B94FF0500383F31188BFF33C
:103928006F8FBFF34F8FFEE7814208D94FF05003E6
:1039380083F31188BFF36F8FBFF34F8FFEE700212A
:103948000222FFF7B3FF08B1846310BD4FF05003A4
:1039580083F31188BFF36F8FBFF34F8FFEE700002B
:103968002DE9FF410E4601921D46044640B94FF02D
:10397800500383F31188BFF36F8FBFF34F8FFEE7B8
:1039880051B9036C43B14FF0500383F31188BFF36F
:103998006F8FBFF34F8FFEE7022D0BD1E36B012B27
:1039A80008D04FF0500383F31188BFF36F8FBFF334
:1039B8004F8FFEE701F01CFD10B9019B002B72D15F
:1039C8000027FFF789FDA26BE36B9A4201D3022D12
:1039D8001AD1204631462A46FFF7AEFE636A33B154
:1039E80004F1240001F06CFC012809D100E038B191
:1039F800334B4FF080521A60BFF34F8FBFF36F8F76
:103A0800FFF78CFD012057E0DDF80480B8F1000FC6
:103A180002D1FFF783FD44E017B902A801F092FC38
:103A2800FFF77CFD01F050FAFFF756FD636C013398
:103A380004BF00236364A36C013304BF0023A364A1
:103A4800FFF76CFD02A801A901F092FC20BBFFF76B
:103A580043FDD4F83880E76BFFF760FDB84515D112
:103A680004F11000019901F0F3FB2046FFF7ACFECA
:103A780001F0BEFA08B10127A3E7114B4FF08052BD
:103A88001A60BFF34F8FBFF36F8FF4E72046FFF73D
:103A98009BFE01F0ADFAEEE72046FFF795FE01F038
:103AA800A7FA002008E04FF0500383F31188BFF312
:103AB8006F8FBFF34F8FFEE704B0BDE8F08100BF02
:103AC80004ED00E070B50D46044640B94FF05003D0
:103AD80083F31188BFF36F8FBFF34F8FFEE7036C3B
:103AE80043B14FF0500383F31188BFF36F8FBFF3D7
:103AF8004F8FFEE703680BB943684BBBFFF7EEFD3A
:103B0800EFF311864FF0500383F31188BFF36F8FE3
:103B1800BFF34F8FA26BE36B9A4217D2A36B0133AB
:103B2800A363A36C01330AD1636A5BB104F1240077
:103B380001F0C6FB30B12DB10120286003E0A36C71
:103B48000133A364012086F3118870BD0020FAE7D1
:103B58004FF0500383F31188BFF36F8FBFF34F8F7C
:103B6800FEE700002DE9FF410D4601929846044604
:103B780040B94FF0500383F31188BFF36F8FBFF341
:103B88004F8FFEE751B9036C43B14FF0500383F3F5
:103B98001188BFF36F8FBFF34F8FFEE701F028FC4A
:103BA80018B9019B002B40F084800026FFF794FC95
:103BB800A36B63B320462946E668FFF7F2FDB8F128
:103BC800000F10D1A36B013BA363236813B901F065
:103BD800BBFC60602369B3B104F1100001F070FB15
:103BE800012810D107E0636AE66063B104F124009C
:103BF80001F066FB38B1354B4FF080521A60BFF3C5
:103C08004F8FBFF36F8FFFF789FC01205AE0019FA8
:103C180017B9FFF783FC4AE016B902A801F092FB36
:103C2800FFF77CFC01F050F9FFF756FC636C013399
:103C380004BF00236364A36C013304BF0023A3649F
:103C4800FFF76CFC02A801A901F092FB50BBFFF73B
:103C580043FCA66BFFF762FCF6B9236833B9FFF79C
:103C68003BFC606801F0D4FBFFF758FC04F124002A
:103C7800019901F0EDFA2046FFF7A6FD01F0B8F929
:103C880008B1012692E7114B4FF080521A60BFF33A
:103C98004F8FBFF36F8FF4E72046FFF795FD01F0D4
:103CA800A7F9EEE72046FFF78FFD01F0A1F9002004
:103CB80008E04FF0500383F31188BFF36F8FBFF311
:103CC8004F8FFEE704B0BDE8F08100BF04ED00E0CF
:103CD8000023074A02EBC3014968814203D100214E
:103CE80042F8331070470133082BF2D1704700BFF8
:103CF800AC55002010B5044640B94FF0500383F38B
:103D08001188BFF36F8FBFF34F8FFEE7FFF7E0FF18
:103D18002046BDE81040FFF78BBA704708B503206E
:103D280000F068F800210A466FF00B0000F074F804
:103D380000210A466FF00A0000F06EF800210A46DA
:103D48006FF0090000F068F800210A466FF00400DF
:103D580000F062F800210A466FF0030000F05CF8FA
:103D68006FF001000F21002200F056F84FF0FF30ED
:103D78000F210022BDE8084000F04EB8084B10B5EE
:103D8800044618684FF47A73B0FBF3F000F076F845
:103D98004FF0FF302146002200F03EF8002010BD11
:103DA8002000002008B50B4B1A6842F400721A6014
:103DB8001A6842F480621A601A6842F480721A60C3
:103DC800032000F017F80F20FFF7D8FFFFF7A6FF32
:103DD800002008BD003C0240024B1A6801321A60FC
:103DE800704700BFA8550020014B1868704700BFF6
:103DF800A8550020074AD1684FF6FF030B4043F04F
:103E0800BF6343F4003300F0070043EA0023D360A4
:103E1800704700BF00ED00E0164BDB68C3F30223D8
:103E280070B51D1DC3F10704042C28BF0424062DFA
:103E38004FF001058CBF033B002305FA04F405FA93
:103E480003F6013C013E2140324001FA03F31343DB
:103E580000284FEA031305DADAB200F00F00064B28
:103E68001A5470BD00F1604000F56140DBB280F883
:103E7800003370BD00ED00E014ED00E00138B0F152
:103E8800807F0AD2064B074A5860F02182F8231037
:103E98000020072298601A6070470120704700BF11
:103EA80010E000E000ED00E0044B1A6804280CBFA5
:103EB80042F0040222F004021A60704710E000E0A9
:103EC8002DE9F7430F68002301229A4002EA07050B
:103ED800954240F0CA804A6822F01006022E16D198
:103EE8004FEAD30C00EB8C0C03F00708DCF82040F9
:103EF8004FEA88084FF00F0909FA08F924EA090976
:103F08000C6904FA08F849EA0804CCF820405C0077
:103F18004FF0030CD0F800900CFA04FC6FEA0C0C7C
:103F280002F003080CEA090908FA04F8013E49EA14
:103F38000808012EC0F8008010D886680CEA060828
:103F4800CE68A64048EA06068660466826EA05085E
:103F5800C2F300169E4048EA06064660C6680CEAA8
:103F6800060C8E68A6404CEA0604C460D4007CD5D2
:103F7800414E00240194D6F844C04CF4804CC6F855
:103F880044C0766C06F480460196019E23F0030631
:103F980006F1804606F59C3603F0030CD6F8089027
:103FA8004FEA8C0C4FF00F0808FA0CF829EA0808B9
:103FB800DFF8D090484528D0304CA0421AD004F5FC
:103FC8008064A04218D004F58064A04216D004F59D
:103FD8008064A04214D004F58064A04212D004F595
:103FE8008064A04210D004F58064A04214BF082465
:103FF80007240AE0012408E0022406E0032404E080
:10400800042402E0052400E0062404FA0CF444EA3F
:104018000804B4601A4ED6F800C0EC4312F4803F8E
:1040280014BF45EA0C0C04EA0C0CC6F800C076680C
:1040380012F4003F14BF45EA060C04EA060C104EC1
:10404800C6F804C0D6F808C012F4801F14BF45EAA9
:104058000C0C04EA0C0CC6F808C0F6689202084A70
:1040680054BF04EA06053543D5600133102B7FF4AD
:104078002BAF03B0BDE8F0830038024000040240D3
:10408800003C0140000002400268094B9A4282B09D
:104098000BD100230193074B5A6B42F040025A633D
:1040A8005B6B03F040030193019B02B0704700BFB4
:1040B8000008065000380240704700007FB50268CB
:1040C8000F4B9A4218D1002300930E4B0E481A6CDE
:1040D80042F400221A641B6C03F4002300930222AA
:1040E800009B0292032301930122049301A9082350
:1040F80003920593FFF7E4FE07B05DF804FB00BFE9
:10410800004C0040003802400000024070470000A8
:104118000368F7B5D907044603D423689A0737D448
:1041280079E0A14B9A6802F00C02042A07D09A6839
:1041380002F00C02082A0BD15B685B0208D59A4B87
:104148001B689F03E9D56368002BE6D1012028E1AD
:10415800964B22791A7063686BB1FFF745FE0546E6
:10416800914B1B689E03D8D4FFF73EFE401B642882
:10417800F6D9032015E1FFF737FE05468A4B1B6881
:104188009803CAD5FFF730FE401B6428F6D9F0E73C
:10419800854B9A6812F00C0F07D09A6802F00C024F
:1041A800082A0AD15B68590207D47F4B1A6892071C
:1041B80015D5E268012AC9D111E0E2687C4BE2B169
:1041C80001221A60FFF710FE0546774B1A68970719
:1041D80005D4FFF709FE401B0228F6D9C9E71A687B
:1041E800F82191FAA1F12369B1FA81F122F0F802DC
:1041F8008B4013436C4A13600DE01A60FFF7F4FD1F
:104208000546694B1B689E0705D5FFF7EDFD401B6A
:104218000228F6D9ADE72368180703D4236859079D
:1042280044D51FE06269634B72B101221A60FFF73F
:10423800DBFD05465C4B5B6F9A07EFD4FFF7D4FDB7
:10424800401B0228F6D994E71A60FFF7CDFD054612
:10425800554B5B6F9B07E1D5FFF7C6FD401B022856
:10426800F6D986E7002301934F4B1A6C42F080522F
:104278001A641B6C03F080530193019B4E4B1A6820
:1042880042F480721A60FFF7AFFD05464A4B1B687F
:10429800DF050ED5494B227A1A70A368BBB1FFF728
:1042A800A3FD0546404B1B6F9E0708D5A369EBB9D4
:1042B8005CE0FFF799FD401B0228E7D959E7FFF7B3
:1042C80093FD41F28833401B9842EBD951E7FFF741
:1042D8008BFD0546344B1B6F9807E7D5FFF784FD28
:1042E80041F28833401B9842F4D942E72E4A92683B
:1042F80002F00C02082A3FF429AF022B304B4FF092
:1043080000021A6040D1FFF76FFD0546264B1B6877
:1043180099012DD447F6C07797FAA7F74FF440369E
:10432800B7FA87F796FAA6F64FF07065B6FA86F6EA
:1043380095FAA5F5A36A206AE169626AE46A5B08EE
:104348000143BA40013B0A43B340B5FA85F51A4325
:10435800AC40154B22435A60194B01221A60FFF7F3
:1043680043FD0446104B1B689A0107D5002018E04E
:10437800FFF73AFD401B0228C8D9FAE6FFF734FDDB
:10438800001B0228EED9F4E6FFF72EFD0446064B83
:104398001B689B01EAD5FFF727FD001B0228F6D909
:1043A800E7E603B0F0BD00BF003802400238024023
:1043B80000004742800E47420070004070380240BB
:1043C800600047421F4B9A6802F00C02042A10B59D
:1043D80036D0082A01D01C4810BD59685A685C6854
:1043E80012F4800F01F03F0147F6C0720CD092FA28
:1043F800A2F2B2FA82F347F6C0722240DA40134BB7
:10440800B3FBF1F353430BE092FAA2F247F6C07301
:104418000D48B2FA82F22340D340B0FBF1F14B438E
:10442800084A50684FF4403292FAA2F2B2FA82F285
:1044380000F44030D04001304000B3FBF0F010BD34
:10444800024810BD003802400024F40000127A002F
:10445800584B1A6802F00F02914270B504460D4697
:104468000AD823689A0710D5534AA168906820F0A3
:10447800F0000143916008E0CAB21A701B6803F0AB
:104488000F038B42EDD0012070BDDE0706D4494BE7
:104498001A6802F00F0295425BD361E06368464AEE
:1044A800012B03D1126812F4003F08E0991E01297C
:1044B800126802D812F0007F01E012F0020FE2D079
:1044C8003D4A916821F003010B439360FFF78CFC90
:1044D8006368012B06460ED1374B9B6803F00C032B
:1044E800042BD4D0FFF780FC41F28833801B98421C
:1044F800F2D9032070BD022B0DD12F4B9B6803F01E
:104508000C03082BC3D0FFF76FFC41F28833801BE4
:104518009842F2D9EDE7032B0CD0274B9B6813F098
:104528000C0F0ED1B3E7FFF75FFC41F28833801B15
:104538009842DED8204B9B6803F00C030C2BF2D179
:10454800A5E7FFF751FC41F28833801B9842E4D974
:10455800CFE7EAB21A701B6803F00F03AB4292D19F
:1045680023685D0706D5144AE168906820F4E05096
:1045780001439160180707D50F4B21699A6822F407
:10458800604242EAC1029A60FFF71CFF0A4BF02220
:104598009B6892FAA2F2B2FA82F203F0F003D340D7
:1045A800064AD35CD840064B18600F20FFF7E6FB9D
:1045B800002070BD003C024000380240A1FF030803
:1045C80020000020014B1868704700BF2000002021
:1045D800084B4FF4E0529B6892FAA2F2B2FA82F2C8
:1045E80003F4E053D340044AD35C044A1068D8402B
:1045F800704700BF00380240A1FF030820000020D8
:10460800084B4FF460429B6892FAA2F2B2FA82F227
:1046180003F46043D340044AD35C044A1068D8408A
:10462800704700BF00380240A1FF030820000020A7
:1046380010B50446B8B10379012B16D001230371D4
:10464800437903F0FF0213B90271FFF71DFD02233E
:10465800637123681A6842F004021A60002001237B
:104668006371207110BD012010BD022010BD000033
:104678002DE9F0470568C3682A69044622F44052C8
:104688001343A16822692B61E868E36911436269F1
:1046980020F416400A431A4320F00C000243EA6053
:1046A8006969A26921F440710A43B3F5004F6A6150
:1046B8007D4B7CD19D4203D003F580639D4232D16E
:1046C800FFF79EFF6368192778435B00B0FBF3F997
:1046D800FFF796FF636878435B00B0FBF3F8FFF7DA
:1046E8008FFF636878435B006426B0FBF3F3B3FB8A
:1046F800F6F306FB13884FEAC808FFF781FF08F1B5
:1047080032086368B8FBF6F8B9FBF6F978435B0042
:1047180008F0F8084FEA09194FEA4808B0FBF3FA1D
:10472800FFF76EFF31E0FFF753FF636819275B005F
:104738007843B0FBF3F9FFF74BFF636878435B00FE
:10474800B0FBF3F8FFF744FF636878435B00642627
:10475800B0FBF3F3B3FBF6F306FB13884FEAC80884
:10476800FFF736FF08F132086368B8FBF6F8B9FBC3
:10477800F6F908F0F80878435B004FEA09194FEAA0
:104788004808B0FBF3FAFFF723FF636878435B0040
:10479800B0FBF3F7B7FBF6F706FB17AA4FEACA0A0E
:1047A8000AF1320ABAFBF6F606F0070676E09D42F1
:1047B80002D03E4B9D4230D1FFF722FF6368192794
:1047C80078439B00B0FBF3F8FFF71AFF6368784360
:1047D8009B00B0FBF3F9FFF713FF636878439B0076
:1047E8006426B0FBF3F3B3FBF6F306FB1399FFF76C
:1047F80007FF4FEA0919636809F13209B8FBF6F8AF
:10480800B9FBF6F978439B004FEA081809F0F0095C
:10481800B0FBF3FAFFF7F4FE2FE0FFF7D9FE636869
:1048280019279B007843B0FBF3F8FFF7D1FE6368C4
:1048380078439B00B0FBF3F9FFF7CAFE636878433F
:104848009B006426B0FBF3F3B3FBF6F306FB139966
:10485800FFF7BEFE4FEA0919636809F13209B8FB90
:10486800F6F8B9FBF6F978439B004FEA081809F007
:10487800F009B0FBF3FAFFF7ABFE636878439B00DF
:10488800B0FBF3F7B7FBF6F706FB17AA4FEA0A1ACD
:104898000AF1320ABAFBF6F606F00F064E44464411
:1048A800AE60BDE8F08700BF001001400014014071
:1048B800F8B504460E4617461D462268136833406D
:1048C800B3421BD06B1CF9D095B92368DA6822F47F
:1048D800D072DA605A6922F001025A61202384F802
:1048E800393084F83A30002384F838300320F8BD92
:1048F800FFF77AFAC01BA842DFD9E6E70020F8BD27
:1049080010B5044640B390F8393003F0FF021BB9E4
:1049180080F83820FFF7D2FB242384F83930236845
:10492800DA6822F40052DA602046FFF7A1FE236815
:104938001A6922F490421A615A6922F02A025A61CD
:10494800DA6842F40052DA6000202023E06384F839
:10495800393084F83A3010BD012010BD2DE9F041FE
:104968001E4690F83930202B04460D4690464ED10D
:10497800002949D0002A47D090F83830012B46D07A
:10498800012380F838300023C363212380F83930AD
:10499800FFF72AFAA4F824800746A4F82680E38CB7
:1049A8001BB3013BE384A368B3F5805F20464FF057
:1049B80080013A4633460FD1FFF77AFF10B1032042
:1049C800BDE8F0812A882368C2F3080292B25A60CF
:1049D800236943B90235E2E7FFF76AFF0028EED101
:1049E80023682A785A600135D9E7204640213A469B
:1049F8003346FFF75DFF0028E1D1202384F83930E2
:104A080084F83800BDE8F0810120BDE8F08102207B
:104A1800BDE8F0812DE9F041984690F83A30202B16
:104A280004460D4616464DD1002948D0002A46D0E6
:104A380090F83830012B45D0012380F83830002316
:104A4800C363222380F83A30FFF7CEF9A6850746DC
:104A5800E685E18D59B3A3680139B3F5805FE18537
:104A680020464FF020013A46434612D1FFF720FF77
:104A780010B10320BDE8F081236822695B6822B980
:104A8800C3F3080325F8023BE3E7DBB225F8013B53
:104A9800DFE7FFF70DFF0028EBD122682169526894
:104AA8006B1C09B102F07F022A701D46D1E7202352
:104AB80084F83A3084F838100846BDE8F0810120BF
:104AC800BDE8F0810220BDE8F0817047FEE7FEE70F
:104AD800FEE7FEE7704708B5FFF77EF9BDE8084036
:104AE800FEF790BB0F4AD2F8883043F47003C2F83F
:104AF80088300D4B196841F0010119600021996057
:104B0800186820F0847020F48030186007485860D6
:104B1800186820F480201860D9604FF00063936013
:104B2800704700BF00ED00E000380240103000245C
:104B3800064A13681968064B11B94FF0FF3203E0B3
:104B48001268D268D26852681A607047040F002051
:104B5800EC0F00200E4B1A6810B550600D4A126811
:104B68009042044607D20C4A10681968BDE8104004
:104B78000431FEF784BB094A106819680431FEF74E
:104B88007EFB074B1A68944238BF1C6010BD00BFFB
:104B9800CC0F0020E80F0020240F0020040F002075
:104BA800EC0F00202DE9F84F0A9D0B9F0C9E8A46BA
:104BB80093469946804640B94FF0500383F31188D5
:104BC800BFF36F8FBFF34F8FFEE7062D08D94FF065
:104BD800500383F31188BFF36F8FBFF34F8FFEE746
:104BE80036B99000FEF718FB0646002800F0A280B0
:104BF8006020FEF711FB044678B14FEA8B0B066381
:104C08005A463046A52139F06FFF236BABF1040BF0
:104C18009B442BF0070B002606E03046FEF708FB06
:104C280088E00136102E08D0A3191AF8062083F858
:104C380034201AF80630002BF3D1002604F1040AB8
:104C4800504684F84360E562E5642665FEF708FB94
:104C580004F11800FEF704FBC5F10703A6652461FB
:104C6800A3616462666584F85C60584641464A46BA
:104C7800FEF710FC206007B13C60FEF72DFC2F4BBF
:104C88002F4E1A68DFF8E48001321A60376817BBC4
:104C980034601B68012B26D108EB07001437FEF798
:104CA800D4FA8C2FF8D1DFF8C890264F4846FEF783
:104CB800CCFA3846FEF7C9FA2348FEF7C6FA234865
:104CC800FEF7C3FA2248FEF7C0FA224BC3F8009059
:104CD800214B1F6007E0214B1B6823B93368DB6A4F
:104CE800AB4298BF34601E4A1368013313601D4AF3
:104CF8006364E36A1168012404FA03F00143142091
:104D0800116000FB03805146FEF7ADFAFEF706FC82
:104D1800124B1B685BB13368DB6AAB4207D2124B9C
:104D28004FF080521A60BFF34F8FBFF36F8F01208F
:104D3800BDE8F88F4FF0FF30BDE8F88FF40F002082
:104D4800CC0F0020F80F0020D00F0020B80F002053
:104D58000C100020040F0020240F0020080F002052
:104D6800F00F00202010002004ED00E02C0F0020A0
:104D7800100F002006292DE9F04104460D4608D9F8
:104D88004FF0500383F31188BFF36F8FBFF34F8F3A
:104D9800FEE7FEF7A1FB0CB9294B1C68E36CAB429C
:104DA80049D09D42264A09D911688C420BD0126815
:104DB800D66AB54234BF0026012605E01668A21B54
:104DC8005642564100E00026E76A1E48E564BB42A9
:104DD800A36908BFE5621422002B6369A8BFC5F167
:104DE800070502FB0702A8BFA5619342804619D1B7
:104DF800251D2846FEF75BFA38B9134B01211A68BE
:104E080001FA07F722EA07071F600F4AE36A1068EA
:104E18000121994001431420116000FB03802946B9
:104E2800FEF721FA3EB1094B4FF080521A60BFF3EA
:104E38004F8FBFF36F8FBDE8F041FEF76FBB00BF28
:104E4800CC0F00202C0F00202010002004ED00E0E3
:104E58001FB5002300930193029303931548164945
:104E68008022FFF79FFE012816D14FF0500383F3ED
:104E78001188BFF36F8FBFF34F8F104B4FF0FF3286
:104E88001A600F4B01221A600E4B00221A6005B0FF
:104E98005DF804EBFEF7B0BB40B94FF0500383F365
:104EA8001188BFF36F8FBFF34F8FFEE705B05DF832
:104EB80004FB00BF615100089CFF0308EC0F0020B1
:104EC800080F0020E80F0020024B1A6801321A6010
:104ED800704700BFE40F00203A4B1B682DE9F047EC
:104EE800002B3ED1384B1A6801321A601E68BEB9D1
:104EF800364B1A68126842B14FF0500383F3118899
:104F0800BFF36F8FBFF34F8FFEE7314A1968106800
:104F18001860304B11601A6801321A60FFF708FEFA
:104F28002D4FDFF8C4803B68DFF8C0909E424FF0F9
:104F380000040BD3254B1A681268002A37D01B6867
:104F4800DB68DD686B689E4211D23B60D9F800309F
:104F5800DB6A1422534358F80330012B88BF01241D
:104F680028E01E4B1A6801321A60002422E005F17D
:104F7800040A5046FEF79BF9AB6A1BB105F118000D
:104F8800FEF795F9164AEB6A10680121994001432A
:104F98001420116000FB03805146FEF764F9D9F82C
:104FA8000030EA6ADB6A9A4228BF0124C2E74FF060
:104FB800FF33CAE70B4B1B68002B18BF01242046A0
:104FC800BDE8F087E40F0020E80F0020040F002060
:104FD800240F0020000F0020EC0F0020280F0020D5
:104FE80020100020241000202C0F0020CC0F0020BF
:104FF80070B5304C236843B94FF0500383F31188E0
:10500800BFF36F8FBFF34F8FFEE7FEF765FA236894
:10501800013B236023680BB1002446E0264B1B6844
:10502800002BF9D0254B1A680AB3DB68DC68261D0B
:1050380004F11800FEF73BF93046FEF738F9204A2C
:10504800E36A1168012505FA03F0014311601D4A5E
:10505800142000FB03203146FEF705F91A4BE26ADB
:105068001B68DB6A9A4224BF184B1D60DAE7184CAC
:105078002368B3B9154B1B68012BCDD1154B4FF0E5
:1050880080521A60BFF34F8FBFF36F8F01240CE07B
:10509800FFF722FF10B10D4B01221A602368013B74
:1050A80023602368002BF3D1E4E7FEF737FA2046A4
:1050B80070BD00BFE40F0020F40F0020D00F0020C7
:1050C800201000202C0F0020CC0F002024100020DE
:1050D800280F002004ED00E038B5044640B9194B0C
:1050E8004FF080521A60BFF34F8FBFF36F8F38BDF8
:1050F800154B1B6843B14FF0500383F31188BFF37E
:105108006F8FBFF34F8FFEE7FFF7DEFE0F4B1D6873
:1051180025440F4C20680430FEF7C9F848B90D4BF8
:1051280019682268D26A012000FA02F221EA020212
:105138001A602846FFF70EFDFFF75AFF0028CED069
:1051480038BD00BF04ED00E0E40F0020E80F0020A8
:10515800CC0F00202010002008B5174D2B68F3B1A4
:10516800164CFFF7B1FE2668FFF742FF002EF4D079
:10517800FEF7B2F9E368DC68201DFEF798F8104BDB
:105188001A68013A1A602B68013B2B60FEF7C6F9D2
:10519800206BFEF74DF82046FEF74AF8DDE7094B8D
:1051A8001B68012BD9D9084B4FF080521A60BFF306
:1051B8004F8FBFF36F8FD0E70C0F0020B80F002080
:1051C800F40F00202C0F002004ED00E01B4B1A68A0
:1051D8001B4B10B512B101221A6010BD194C1A6090
:1051E8002268236812681B6B9A4204D820682168D9
:1051F8003431FDF7F2FC144B1A68B2FA82F2D2B2DB
:105208001423C2F11F0211495A438B188A5842B914
:105218004FF0500383F31188BFF36F8FBFF34F8FA5
:10522800FEE75A68526803F108018A425A6004BFCF
:1052380052685A605B68DB68236010BDE40F002089
:1052480024100020CC0F0020201000202C0F00205C
:1052580038B50D4640B94FF0500383F31188BFF3BA
:105268006F8FBFF34F8FFEE7114C21681831FEF79F
:1052780006F820680430FEF71AF848B90D4B19688B
:105288002268D26A012000FA02F221EA02021A60B8
:10529800691C06D1216808480431BDE83840FDF78B
:1052A800E2BF064B18682844BDE83840FFF752BCF7
:1052B800CC0F0020201000200C100020E80F002048
:1052C80038B5C368DC6844B94FF0500383F31188DC
:1052D800BFF36F8FBFF34F8FFEE704F11805284621
:1052E800FDF7E5FF114B1B687BB9251D2846FDF727
:1052F800DEFF0F4AE36A10680121994001431160FB
:105308000C4A142000FB032000E00B482946FDF757
:10531800AAFF0A4BE26A1B68DB6A9A4203D9084B68
:105328000120186038BD002038BD00BFE40F002000
:10533800201000202C0F0020D00F0020CC0F0020C0
:105348002410002040B94FF0500383F31188BFF3B5
:105358006F8FBFF34F8FFEE7034B1B680360034B50
:105368001B684360704700BF000F0020E80F002053
:1053780038B50D46044640B94FF0500383F3118801
:10538800BFF36F8FBFF34F8FFEE741B94FF0500364
:1053980083F31188BFF36F8FBFF34F8FFEE7FEF7DC
:1053A8009BF80E4B1A682B68591C10D00C490868DA
:1053B80021688842616801D08A420AD2501A98420C
:1053C80007D28A1A13442B602046FFF7BBFF00243C
:1053D80000E00124FEF7A2F8204638BDE80F0020BF
:1053E800000F0020014B01221A6070472410002092
:1053F800054B1B6833B1054B186800280CBF022009
:105408000020704701207047080F0020E40F00209B
:105418002DE9F041044600283BD01F4DC36A2A6895
:10542800D26A934235D28269002A04DB2A68D26A9A
:10543800C2F107028261194F62694FF0140808FB34
:1054480003739A4222D1261D3046FDF730FF144BD4
:1054580060B9E26A08FB02F857F8081031B9196810
:10546800012000FA02F221EA02021A602A6818688A
:10547800D26A0121914001431420E262196000FBC5
:1054880002703146BDE8F041FDF7EDBE2B68DB6ADE
:10549800E362BDE8F08100BFCC0F00202C0F002094
:1054A8002010002070B5044608B9002070BD234BB9
:1054B8001B68984208D04FF0500383F31188BFF35C
:1054C8006F8FBFF34F8FFEE7036D43B94FF0500363
:1054D80083F31188BFF36F8FBFF34F8FFEE7C16A65
:1054E800C26C013B91420365DFD0002BDDD1051D65
:1054F8002846FDF7DCFE1249124B58B9E26A14201F
:105508005043085830B91868012606FA02F220EA12
:1055180002021A60E26CC2F10700E262A061186838
:10552800012404FA02F630431860142000FB02102C
:105538002946FDF798FE204670BD00BFCC0F00201D
:105548002C0F002020100020044B1A681AB11A688A
:10555800116D013111651868704700BFCC0F00202C
:10556800014B0360704700BF90000408002070479B
:1055780001207047012070470120704700221A60FF
:10558800012070472AB1044B0448012A08BF184675
:1055980070470348704700BFEB010408E719040887
:1055A800D301040801207047A0F14400FFF7FABFB7
:1055B8008068704780687047014B0360704700BF80
:1055C800900004087047704710B5034B0446036009
:1055D80038F028FC204610BD9000040810B5034B95
:1055E8000446036038F01EFC204610BD90000408F5
:1055F80010B5054B03F108025033044602604364BA
:1056080024F038FF204610BD30010408A0F1440002
:10561800FFF7EEBF10B5044B036000230446836018
:1056280008F004F9204610BDA800040810B5044687
:10563800FFF7F0FF204638F0F5FB204610BD0000CC
:1056480010B5044B036000230446836008F0EEF8AD
:10565800204610BDD800040810B50446FFF7F0FF37
:10566800204638F0DFFB204610BD000010B5044688
:1056780024F0DAFE054B03F108025033636400237B
:105688002260C4F89430204610BD00BF30010408E1
:10569800D0F89400FDF71CBE38B5144C23681BBB2A
:1056A8002046134906F0F8FA12480368DB071BD4B2
:1056B80038F088FAC0B1104B104A1D461A60FFF73F
:1056C800EBFF294606F004FB0A4838F09BFA284607
:1056D8000B490C4A37F0A8FB06E00B4B05482B603A
:1056E80038F08CFA38F0D6FA206838BD2C10002033
:1056F800381000203010002028100020080104086D
:10570800C15500080000002090000408982810B532
:1057180002460B460ED129B1096818468C68114615
:10572800A04701E004F064F80446FFF7B5FF06F06F
:10573800D7FA00E00024204610BD10B59820FFF7E6
:10574800E5FF0446FFF792FF204610BD07B502AB00
:1057580043F8040D184604F029F8FFF79DFF06F0FA
:10576800CCFA03B05DF804FB10B50446FFF740FF20
:105778002046FFF7EBFF204610BDA0F14400FFF7DD
:10578800F3BF000010B50446A6B06846FFF76EFFE9
:1057980023680E4853F8043C59680B782A2B08BF35
:1057A800013105F005FA18B9FFF776FF044606E05F
:1057B800002404E06846FFF71BFF38F06BFA6846E0
:1057C800FFF716FF204626B010BD00BF9B01040856
:1057D800A84BA9492DE9F04F00241C60A74BA84FFE
:1057E800DFF8ACA33C704FF480521A604FF40053BA
:1057F8000B60A4494FF480400860A34901250D605F
:10580800A2494FF00208C1F80080A1498AF8008037
:10581800042008609F494FF00809C1F800909E498C
:10582800102008609D4920260E609D494020086090
:105838009C49802008609C494FF4807008609B490F
:105848004FF4007008609A494FF4806008609949E5
:105858004FF400600860984998480A60984A1360B5
:10586800984B1C60984B6FF002021A60974B6FF0D0
:1058780001021A60964A974B15704FF0030B83F894
:1058880000B04FF00402944B02704FF005001870FE
:10589800924B93484FF0060C83F800C0914B4FF0A1
:1058A80007021A70904B85B083F80090092362466E
:1058B800037021464B468D48CDF80CC004F058FAC9
:1058C80021469AF800208A48334604F051FA2146C6
:1058D8009AF800208748402304F04AFA9AF80020F2
:1058E800DFF8B0A284482146802304F041FA21461B
:1058F8003A782346504604F03BFA21463A787F48E6
:105908004B4604F035FA724B7D481A7821464B46CF
:1059180004F02EFA21463A787A48102304F028FA3F
:105928006B4B79481A782146102304F021FA214656
:105938003A787648334604F01BFA654B74481A786F
:105948002146334604F014FA21463A787148402338
:1059580004F00EFA5E4B70481A782146402304F092
:1059680007FA564B6D481A782946334604F000FA70
:10597800524B6B481A782146334604F0F9F9584BD4
:1059880068481A782146234604F0F2F9514B6648D4
:105998001A7821463346654E04F0EAF921466448F0
:1059A80004F0E4F92146301D04F0E0F9BAF80030BB
:1059B800F471B3805F4BB4711C705F4BB5601D70A0
:1059C8005E4BF56083F800805D4B356183F800B06D
:1059D800DDF80CC05B4B357583F800C05A4B34605A
:1059E8004FF007001870594B1C70594B1D70594BDC
:1059F80083F80080584B83F800B0584B1C70584B04
:105A08001D70584B584D83F80080584B83F800B0F0
:105A1800574B4FF004021A70564B4FF005001870A0
:105A2800554B204683F800C0FCF7ECFE2B68400677
:105A380000F0606623F060631E43B30C9B042B6088
:105A48002046FCF7DFFE800400F4E01006F06066F4
:105A5800064398232E6049490093494A494B4A48CE
:105A680005F0DCFEFFF718FE484B186005B0BDE8EE
:105A7800F08F00BFF4100020D81000200C12002076
:105A880034100020641100203011002088100020FC
:105A9800341200200012002048110020E8110020D4
:105AA8006C100020F41100207810002058110020FC
:105AB80048120020641200201C110020DC11002074
:105AC800D0110020A810002094100020B41000204D
