:020000040800F2
:10000000000005201D0300088B0500088D05000871
:100010008F05000891050008930500080000000006
:10002000000000000000000000000000A51D000806
:100030009505000800000000C51D00089705000890
:100040006D0300086D0300086D0300086D030008D0
:100050006D0300086D0300086D0300086D030008C0
:100060006D0300086D0300086D0300086D030008B0
:100070006D0300086D0300086D0300086D030008A0
:100080006D0300086D0300086D0300086D03000890
:100090006D0300086D0300086D0300086D03000880
:1000A0006D0300086D0300086D0300086D03000870
:1000B0006D0300086D0300086D0300086D03000860
:1000C0006D0300086D0300086D0300086D03000850
:1000D0006D0300086D0300086D0300086D03000840
:1000E0006D0300086D0300086D0300086D03000830
:1000F0006D0300086D0300086D0300086D03000820
:100100006D0300086D0300086D0300086D0300080F
:100110006D0300086D0300086D0300086D030008FF
:100120006D0300086D0300086D0300086D030008EF
:100130006D0300086D0300086D0300086D030008DF
:100140006D0300086D0300086D030008A905000891
:100150006D0300086D0300086D0300086D030008BF
:100160006D0300086D0300086D0300086D030008AF
:100170006D0300086D0300086D0300080000000017
:100180006D0300086D0300086D0300086D0300088F
:100190006D0300086D0300086D0300086D0300087F
:1001A0006D0300086D0300086D0300086D0300086F
:1001B0006D0300086D0300086D0300086D0300085F
:0801C0006D0300086D03000847
:1002000010B5054C237833B9044B13B10448AFF350
:1002100000800123237010BD4C0800200000000066
:10022000CC3E000808B5034B1BB103490348AFF3AC
:10023000008008BD0000000050080020CC3E0008EF
:1002400090F800F06DE9024520F007016FF0000C16
:1002500010F0070491F820F040F049804FF00004BE
:100260006FF00700D1E9002391F840F000F1080099
:1002700082FA4CF2A4FA8CF283FA4CF3A2FA8CF3D1
:100280004BBBD1E9022382FA4CF200F10800A4FA38
:100290008CF283FA4CF3A2FA8CF3E3B9D1E904238C
:1002A00082FA4CF200F10800A4FA8CF283FA4CF3C3
:1002B000A2FA8CF37BB9D1E9062301F1200182FA7D
:1002C0004CF200F10800A4FA8CF283FA4CF3A2FA83
:1002D0008CF3002BC6D0002A04BF04301A4612BA91
:1002E000B2FA82F2FDE8024500EBD2007047D1E994
:1002F000002304F00305C4F100004FEAC50514F023
:10030000040F91F840F00CFA05F562EA05021CBFF3
:1003100063EA050362464FF00004A9E7DFF834D032
:10032000002103E00C4B5B58435004310B480C4B4D
:1003300042189A42F6D30B4A02E0002342F8043BEB
:10034000094B9A42F9D301F0E3FD03F049F801F0BB
:100350009FF9704700000520283F0008000000209A
:100360004C0800204C08002090120020FEE708B541
:10037000D0F814320BB9022008BD1B68984700283A
:10038000FAD0F8E708B5D0F814325B689847002037
:1003900008BD38B500F502750446284602F075FB25
:1003A000012394F80812C4F8F431B4F80E32C4F8FA
:1003B000F83101F01F03012B0ED007D3022B10D010
:1003C00001F08001204601F03BFA03E02946204677
:1003D00002F0E2F9002038BD2946204602F0DEFA9C
:1003E000F8E72946204602F0F1FAF3E738B504466B
:1003F000154611BBD0F8F431032B0FD1D0F80C31D6
:10040000D0F8102193420BD99B1A29469A42C0F882
:100410000C3128BF1A4692B201F035FD002038BDDC
:10042000D0F814321B6923B190F8FC21032A00D1C3
:100430009847204601F02FFDF0E7D0F814329B6971
:10044000002BEBD090F8FC21032AE7D19847E5E791
:1004500070B5134604460E4600293DD1D0F8F4216C
:10046000022A0FD1D0E90752954214D9AA1A194687
:10047000C26192B201F0FFFC33461A46194620468B
:1004800001F00DFA94F80032012B02D1002384F818
:100490000032002070BD8369B3FBF2F502FB153515
:1004A00065B99A420AD8D0F8F821934206D22A4672
:1004B00001F0E1FCC4F8F8512B46DEE7D4F8143221
:1004C000DB682BB194F8FC21032A01D12046984720
:1004D000204601F0EBFCD5E7D0F814325B69002B25
:1004E000D7D090F8FC21032AD3D19847D1E7002236
:1004F00038B5044640251146402301F097F92B46B4
:10050000C4F8105100228021204601F08FF9012308
:10051000256284F8FC31D4F818322BB1D4F81432A7
:10052000204621795B689847002038BD017400207F
:10053000704790F8FC3180F8FD31042380F8FC31DD
:100540000020704790F8FD3180F8FC3100207047A2
:1005500008B590F8FC21032A04D1D0F81432DB69E5
:1005600003B19847002008BD002070470020704765
:10057000002070470122017908B580F8FC21D0F8ED
:10058000142252689047002008BD7047FEE7FEE73E
:10059000FEE7FEE7704708B500F03EFD00F00AF800
:1005A000BDE8084001F00EB8014801F00FBD00BFE2
:1005B000940B002008B502F061FB012803D0BDE8D0
:1005C000084001F031BC08BD70470000026882B0ED
:1005D000074B9A420AD103F50A331A6C42F0100213
:1005E0001A641B6C03F010030193019B02B0704767
:1005F000001000402E4A0368904212D0B0F1804FA4
:100600000FD0A2F57C4290420BD002F5806290425E
:1006100007D002F58062904203D002F57842904202
:1006200019D14A6823F070031343214A904229D01C
:10063000B0F1804F26D0A2F57C42904222D002F544
:10064000806290421ED002F5806290421AD002F57C
:100650007842904216D0174A904213D002F5806239
:1006600090420FD002F5806290420BD0A2F59832F2
:10067000904207D002F58062904203D002F580627A
:10068000904203D123F44073CA68134303608B681C
:10069000C3620B688362064B984203D003F5806304
:1006A000984201D10B69036301234361704700BF86
:1006B000000001400040014010B5044680B190F8B0
:1006C00039300BB9FFF782FF02232068211D84F81F
:1006D0003930FFF78FFF0123002084F8393010BD37
:1006E0000120FCE7704700007FB502680E4B9A427C
:1006F00017D103F5F63301A90C481A6C42F4002215
:100700001A6402221B6C03F400230093009B032352
:10071000CDE901320122CDE903230823059300F03E
:1007200089FA07B05DF804FB004C0040000002406D
:100730002DE9F041069D04460F461646984621686D
:10074000CA6937EA02030CBF01220022B24201D07B
:10075000002014E06B1CF3D09DB9236803201A68B5
:1007600022F4D0721A609A6822F001029A60202363
:1007700084F8693084F86A30002384F86830BDE872
:10078000F08100F051FCA0EB0800A842D7D3E4E7C9
:100790002DE9F3411F4690F8693004460D46202BA1
:1007A000904648D1002944D0002A42D090F86830C1
:1007B000012B40D0012380F868300023C366212339
:1007C00080F8693000F030FC0646A4F85080A4F8A8
:1007D0005280B4F8522062B9009733464021204637
:1007E000FFF7A6FF80B9202384F8680084F86930F9
:1007F0000BE0013A009733468021A4F852202046AE
:100800000022FFF795FF18B1032002B0BDE8F08188
:10081000A3682268B3F5805F07D123692BB935F847
:10082000023BC3F308039362D3E72B78013593624D
:10083000CFE70120E9E70220E7E7000038B5C26909
:1008400004460368816800691D68014360690143CB
:10085000904811432840256A0143E06819605968AF
:1008600021F4405101435960A1699868294320F45B
:1008700030600143996088498B4219D101F5943168
:100880008648D1F8901001F00301415CB2F5004FA9
:1008900040F0B580082900F2AF80DFE811F02700B2
:1008A000E000EB00AD00F700AD00AD00AD00420090
:1008B0007B498B4207D101F5FA317A48D1F8901083
:1008C00001F00C01E1E778498B4231D101F5F831B3
:1008D000D1F8901001F03001102900F0D48017D821
:1008E00000295AD1B2F5004F40F0928000F03AFE54
:1008F00061684A0802EB4003B3FBF1F39BB20020AE
:1009000023F00F02C3F3420321681343CB6038BDC9
:10091000202900F0AC8030293FD1B2F5004F40F0E3
:1009200094806068430803F5F41303F59063A7E02F
:100930005E498B420ED101F5F631D1F8901001F0ED
:10094000C001402900F09F80CAD9802900F08F8023
:10095000C029E1E756498B4210D101F5F431D1F8B5
:10096000901001F44071B1F5807F00F08C80B7D910
:10097000B1F5007F7BD0B1F5407FCDE74D498B428B
:1009800013D101F59231D1F8901001F44061B1F525
:10099000806F78D003D800295ED0102176E7B1F5BA
:1009A000006F64D0B1F5406FB6E743498B420FD179
:1009B00001F5E031D1F8901001F44051B1F5805FBC
:1009C00061D08DD9B1F5005F51D0B1F5405FA3E79B
:1009D0003A498B4246D101F5DE31D1F8901001F44D
:1009E0004041B1F5804F4ED07FF67AAFB1F5004F60
:1009F0003DD0B1F5404F8FE70120002380E7082963
:100A000033D8DFE801F0051114321F3232322200F0
:100A100000F0A8FDD4E9002300EB5300B0FBF3F095
:100A200080B2D060002072E700F0B4FDF2E76168A8
:100A30004A0802F5740202F51052B2FBF1F292B2CA
:100A4000DA60EFE700F0A4FCE4E761684A0802F529
:100A5000742202F51072F0E7B2F5004FE4D100F015
:100A600099FD45E7B2F5004FC6D001204FE7B2F53A
:100A7000004FDCD16068430803F1F47303F5904341
:100A8000B3FBF0F33AE7B2F5004FDBD100F080FCA6
:100A90002EE700BFF369FFEF00100140E43E0008BD
:100AA00000440040E83E000800480040004C004080
:100AB000005000400014014000780040007C0040DD
:100AC000436ADA0710B506D50168846A4A6822F4D9
:100AD000003222434A609C0706D50168C46A4A680E
:100AE00022F4803222434A60590706D50168046B1C
:100AF0004A6822F4802222434A601A0706D5016818
:100B0000446B4A6822F4004222434A60DC0606D560
:100B10000168846B8A6822F4805222438A609906B5
:100B200006D50168C46B8A6822F4005222438A60A9
:100B30005A0610D50168046C4A68B4F5801F22F487
:100B4000801242EA04024A6005D14A68446C22F4E9
:100B5000C00222434A601B0606D50268816C5368B6
:100B600023F400230B43536010BD73B500260446E5
:100B7000C66600F059FA236805461B681A0717D4A1
:100B800023681B685B070AD56FF07E4300224FF491
:100B90008001204600932B46FFF7CAFDA0B9202311
:100BA000002084F8693084F8680084F86A300CE02A
:100BB0006FF07E4332464FF4001100930346204607
:100BC000FFF7B6FD0028DBD0032002B070BD10B5E2
:100BD000044660B390F8693003F0FF021BB980F857
:100BE0006820FFF781FD22682423204684F86930BD
:100BF000136823F001031360FFF720FE012816D0CD
:100C0000636A13B12046FFF75BFF236820465A68EA
:100C100022F490425A609A6822F02A029A601A6876
:100C200042F00102BDE810401A60FFF79EBF0120AC
:100C300010BD00002DE9F04F0B6885B0DFF8C081D2
:100C4000019300236C4ADFF8BC914FF0010C019C2A
:100C50000CFA03FC04EA0C06B44540F0B3804C687F
:100C600024F01007022F16D14FEAD30A03F0070B26
:100C70004FF00F0E00EB8A0A4FEA8B0BDAF8205088
:100C80000EFA0BFE25EA0E0E0D6905FA0BF545EA84
:100C90000E05CAF820504FEA430A0325D0F800B0E9
:100CA00004F0030E05FA0AF5013F0EFA0AFEED43C1
:100CB000012F05EA0B0B4EEA0B0EC0F800E011D82D
:100CC000876807EA050BCF6807FA0AFE4EEA0B07AA
:100CD0008760476827EA0C0CC4F300179F4047EA77
:100CE0000C074760C7683D408F6807FA0AF73D4325
:100CF000C560E50066D5D8F8445023F0030703F03B
:100D0000030C4FF00F0E45F4804507F180474FEA82
:100D10008C0CC8F8445007F59C37D8F8445005F4BB
:100D200080450395039D0EFA0CF5D7F808A02AEA32
:100D3000050E324DA8424CD005F58065A8424AD038
:100D400005F58065A84248D005F58065A84246D0E3
:100D500005F58065A84244D0484544D005F50065B6
:100D6000A84242D005F58065A84240D005F58065CF
:100D7000A8423ED005F58065A84214BF0A25092582
:100D800005FA0CF514F4803F45EA0E05BD606FEAE4
:100D9000060715680CBF3D40354314F4003F15604D
:100DA00055680CBF3D40354314F4801F556095686D
:100DB0000CBF3D403543A4029560D56854BF3D400B
:100DC0003543D5600133102B7FF43FAF05B0BDE84C
:100DD000F08F0025D4E70125D2E70225D0E70325CF
:100DE000CEE70425CCE70525CAE70625C8E7072591
:100DF000C6E70825C4E700BF003C014000000240F0
:100E000000380240001402407047000010B504464C
:100E100011B1012916D010BD036A33B100F0D4FB23
:100E2000124A136923F0060313612268D4F8BC0345
:100E3000D2F8003E23F00103BDE81040C2F8003EA6
:100E4000FFF780BB0268D0F8BC03D2F8003E43F045
:100E50000103C2F8003EFFF76CFB236A002BDAD0D7
:100E6000024A136943F006031361D4E700ED00E082
:100E7000074A0002D36800F4E06023F4E0631B0437
:100E80001B0C43F0BF6343F400330343D36070474C
:100E900000ED00E0164B70B5DC684FF0FF36C4F390
:100EA0000224C4F10705231D042D28BF0425062BA9
:100EB00006FA05F38CBF033C0024002821EA030353
:100EC00003FA04F306FA04F422EA040443EA0403EE
:100ED0004FEA0313DBB204DA00F00F00054A1354A3
:100EE00070BD00F1604000F5614080F80033F7E725
:100EF00000ED00E014ED00E00138B0F1807F0AD28F
:100F0000064BF021064A5860002082F82310072281
:100F100098601A6070470120704700BF10E000E041
:100F200000ED00E0044B04281A680CBF42F00402F4
:100F300022F004021A60704710E000E043689A68EB
:100F40004B608A609A685160996003680861013358
:100F500003607047D0E9011203698A6082685160BA
:100F60005968814208BF5A6000220261186801383E
:100F700018607047704708B50320FFF779FF00221B
:100F80006FF00B001146FFF785FF00226FF00A009B
:100F90001146FFF77FFF00226FF009001146FFF7AF
:100FA00079FF00226FF004001146FFF773FF002263
:100FB0006FF003001146FFF76DFF00220F216FF065
:100FC0000100FFF767FF00220F214FF0FF30BDE85F
:100FD0000840FFF75FBF0000084B10B504461868D3
:100FE0004FF47A73B0FBF3F0FFF786FF002221463F
:100FF0004FF0FF30FFF74EFF002010BD040000202F
:1010000008B50320FFF734FF0F20FFF7E5FFFFF7D8
:10101000B2FF002008BD0000024A136801331360CC
:10102000704700BF540F0020014B1868704700BF85
:10103000540F002013B50190FFF7F6FF0446FFF7A9
:10104000F3FF019B001B9842F9D302B010BD0000D2
:101050000368F7B50446D80739D42368990700F127
:10106000898023681E0700F1D78023685D0728D593
:10107000964B974D1A6C42F080521A641B6C03F029
:1010800080530193019B2B6843F480732B60FFF71F
:10109000CBFF06462B68DA0540F1E380A3688B4D51
:1010A000012B40F0E5802B6F43F001032B6741F2E9
:1010B0008835FFF7B9FF854E0746336F9B0740F130
:1010C000FD80A269002A40F00581002015E07F4BD9
:1010D0009A6802F00C02042A07D09A6802F00C0207
:1010E000082A0CD15B685A0209D5784B1B689B0310
:1010F000B3D56368002BB0D1012003B0F0BD6368A5
:10110000724DB3F5803F11D12B6843F480332B60CF
:10111000FFF78AFF6D4D06462B689F039DD4FFF7AE
:1011200083FF801B6428F7D90320E6E79BB92B686F
:1011300023F480332B602B6823F480232B60FFF78C
:1011400073FF06462B68980387D5FFF76DFF801B5A
:101150006428F7D9E8E7B3F5A02F2B6803D143F44F
:1011600080232B60D0E723F480332B602B6823F49B
:101170008023CCE7554B9A6812F00C0F07D09A6881
:1011800002F00C02082A16D15B68590213D44F4BA7
:101190001A68920702D5E268012AADD11868F822D0
:1011A00092FAA2F2B2FA82F122698A4020F0F801A2
:1011B0000A431A6055E7E368444DE3B12B6843F0F6
:1011C00001032B60FFF730FF06462B689B070CD509
:1011D0002968F82393FAA3F3B3FA83F223699340BF
:1011E00021F0F80213432B603BE7FFF71DFF801B44
:1011F0000228EAD998E72B6823F001032B60FFF758
:1012000013FF06462B689F077FF52BAFFFF70CFFF8
:10121000801B0228F6D987E763692C4D83B16B6F79
:1012200043F001036B67FFF7FFFE06466B6F9807FD
:101230003FF51BAFFFF7F8FE801B0228F6D973E7D6
:101240006B6F23F001036B67FFF7EEFE06466B6FD3
:1012500099077FF50AAFFFF7E7FE801B0228F6D952
:1012600062E7FFF7E1FE801B64287FF613AF5BE7C0
:10127000B3B92B6F41F2883723F001032B672B6F33
:1012800023F004032B67FFF7CFFE06462B6F98076A
:101290007FF517AFFFF7C8FE801BB842F6D943E7CA
:1012A000052B2B6F03D143F004032B67FBE623F0E0
:1012B00001032B672B6F23F00403F7E6FFF7B4FE5F
:1012C000C01BA8427FF6F9AE2EE700BF00380240EF
:1012D000007000402D4DAB6803F00C03082B3FF469
:1012E0000BAF2B68022A23F080732B6040D1FFF7ED
:1012F0009BFE06462B68990134D447F6C07696FAD1
:10130000A6F64FF44032B6FA86F692FAA2F24FF001
:101310007061B2FA82F091FAA1F1D4E90732B1FA20
:1013200081F11343626A02FA06F6A26A5208334355
:10133000013A82401343E26A144C02FA01F10B4372
:101340006B602B6843F080732B60FFF76DFE0546E2
:1013500023689A013FF5B9AEFFF766FE401B0228ED
:10136000F6D9E1E6FFF760FE801B0228C2D9DBE672
:10137000FFF75AFE04462B689B017FF5A6AEFFF7E8
:1013800053FE001B0228F6D9CEE600BF003802400B
:10139000194A936803F00C03042B10B503D0082BF3
:1013A00003D0164800E0164810BD516847F6C074D7
:1013B000536801F03F0113F4800F536894FAA4F0CE
:1013C000B0FA80F003EA04034FF4403223FA00F34A
:1013D00014BF0B480948B0FBF1F05843064B5B685B
:1013E00092FAA2F2B2FA82F203F44033D34001330C
:1013F0005B00B0FBF3F0D7E7003802400024F400B4
:1014000000127A00504A136803F00F038B422DE953
:10141000F04104460D462ED32268960738D4D007F3
:101420003ED4494A136803F00F03AB4279D82268CF
:10143000510700F18180130707D5444A2169936859
:1014400023F4604343EAC1039360FFF7A1FF3F4BDE
:10145000F0229B6892FAA2F2B2FA82F203F0F00351
:10146000D3403B4AD35CD8403A4B18600F20FFF77B
:10147000B3FD00200AE0136823F00F030B43136051
:10148000136803F00F038B42C6D00120BDE8F08142
:101490002E49A0688B6823F0F00303438B60BEE7FE
:1014A00061682A4B01291A681CD112F4003FECD064
:1014B0009A6841F28838254F22F003020A439A6065
:1014C000FFF7B2FD63680646012B13D1BB6803F03A
:1014D0000C03042BA5D0FFF7A7FD801B4045F5D9D1
:1014E0000320D3E7022902D112F0007FDFE712F0D8
:1014F000020FDCE7022B0FD1BB6803F00C03082BB3
:101500008FD0FFF791FD801B4045F5D9E8E7FFF745
:101510008BFD801B4045E3D8BB6813F00C0FF6D160
:101520007FE7136823F00F032B431360136803F066
:101530000F03AB42A9D17AE70449E0688B6823F432
:10154000E05303438B6076E7003C024000380240E2
:10155000FE3E000804000020014B1868704700BFE1
:1015600004000020084B4FF4E0529B6892FAA2F26C
:10157000B2FA82F203F4E053D340044AD35C044A43
:101580001068D840704700BF003802400E3F000886
:1015900004000020084B4FF460429B6892FAA2F2CC
:1015A000B2FA82F203F46043D340044AD35C044AA3
:1015B0001068D840704700BF003802400E3F000856
:1015C00004000020704700002E4B012108201A6CF7
:1015D00042F0805230B51A64B5B01B6C022403F09F
:1015E00080530093009B284B1A6842F440421A60D3
:1015F0001B68119403F440430193019B4FF4803323
:10160000CDE907134FF48003CDE90D434FF4D873B0
:10161000CDE90F03092307A81293FFF719FD00B1C5
:10162000FEE700F09BFC00B1FEE70F254FF4A0524F
:101630004FF480530490072102A8CDE90254CDE96C
:101640000523FFF7DFFE00B1FEE7104B2790329035
:1016500013A8139301F022FB044600B1FEE7FFF745
:101660007BFF4FF47A73B0FBF3F0FFF745FC0420E7
:10167000FFF758FC224629464FF0FF30FFF70AFCDF
:1016800035B030BD0038024000700040000220003C
:1016900030B5A3B0FFF7B4FCFFF796FF2B4B2C48F7
:1016A0001A6B2C4942F080021A631A6B02F0800216
:1016B0000092009A1A6B42F001021A630C221B6B13
:1016C00003F001030193019B4FF4E133C0E90013E0
:1016D0000023C0E9023303614362C0E90523C0E986
:1016E0000733FFF774FA00B1FEE71B4C6B231B4A6C
:1016F000A0602046C4E9002340F2E733E360FEF730
:10170000DBFF00B1FEE7029002A90490204600F042
:10171000D9FB00B1FEE7124D124C8022002102A835
:1017200002F02EF9294602A802F092F902A8FEF76B
:1017300087FD421C4FF0FF3302A992B22068FFF7E9
:1017400027F86420FFF776FCE7E700BF0038024087
:10175000F80F0020004C0040BC0F0020001000409B
:10176000F53E00080000002000F56071D0F8BC03D1
:10177000FEF70FBE70471C2303FB0103D0F8BC0328
:10178000D3F8E421FEF732BE70471C2303FB0103AC
:10179000D0F8BC031A6CFEF75BBE7047D0F8BC03F0
:1017A000FEF7D6BE7047C168003110B5044618BFB9
:1017B0000121D0F8BC03FEF7B9FED4F8BC03BDE8A4
:1017C0001040FEF794BE704710B50446D0F8BC0335
:1017D000FEF7AFFE2268D2F8003E43F00103C2F8E4
:1017E000003E236A23B1034A136943F006031361E1
:1017F00010BD00BF00ED00E07047D0F8BC03FEF75D
:10180000A1BE7047D0F8BC03FEF7B0BE7047D0F859
:10181000BC03FEF7A9BE7047D0F8BC03FEF7A8BE14
:101820007047D0F8BC03FEF7A5BE704710B51C4644
:10183000D0F820021346224600F0C6FE002010BD5C
:1018400008B5D0F8200200F049FF002008BD08B517
:10185000D0F8200200F06FFF002008BD11F0800FCB
:10186000D0F820324FF01C0217BF01F07F0102FBBD
:10187000013102FB013191F8360008BF91F8DA011D
:10188000704708B5D0F8200200F08CFE002008BD9B
:1018900008B5D0F8200200F0F5FE002008BD08B51C
:1018A000D0F8200200F0BEFE002008BD8901074AE2
:1018B00041F020010161013A05D0036913F02003D2
:1018C000F9D1184670470320704700BF410D03004F
:1018D00000F50062D0F8080810F0060012D09368F6
:1018E00003F00603022B0CD0936803F00603062BCB
:1018F00007D0936803F00603042B14BF00200220D6
:1019000070470320704770B54B7800F500650E787E
:101910000124012BEB6904FA06F44FEA461218D1B0
:10192000A4B200F510601C43EC6183581C040ED473
:101930008B68C978C3F30A03845843F0805343F497
:10194000004343EA814343EA865323438350002004
:1019500070BD43EA044400F53060EC6183581B0419
:10196000F5D48B68C978C3F30A03845843F08053D5
:1019700043F4004343EA814323438350E7E70000F5
:101980002DE9F74391F801E00C78BEF1010F4B69A6
:101990004FEA4414CF78DFF88081DFF8809162D17C
:1019A00000F510652C44266993B906EA0806012A59
:1019B0002661266946F400262661266906EA09069C
:1019C00026612FD10C780E6905EB4414666129E07D
:1019D00006EA0906D1F808C0012F2661266906EA41
:1019E000080626610CEB0306D4F8108006F1FF36DA
:1019F000B6FBFCFC474E06EACC4646EA08062661E2
:101A0000C3F31206D4F810C046EA0C06266174D15E
:101A10002669012A26F0C0462661266946F000564E
:101A20002661CFD0CF780E78012F05EB46140AD16E
:101A3000D0F8085815F4807F25680CBF45F0005594
:101A400045F0805525602568012F45F00445256047
:101A500005D100929BB23246C96800F0CFF8002051
:101A600003B0BDE8F08300F5306CD1F808E00CEB72
:101A70000406356905EA09053561356905EA080591
:101A8000356113BB3569CEF312032B4333613369E0
:101A900043F400233361012A01D1CB687361012F24
:101AA0000CD1D0F8083813F4807F5CF804300CBFF8
:101AB00043F0005343F080534CF804305CF804309A
:101AC00043F004434CF80430C9E703EB0E05114B17
:101AD000D6F81080013DB5FBFEF503EAC543ADB273
:101AE00043EA080333610EFB05F3D6F81080C3F315
:101AF000120343EA08033361CDE7012A3FF462AFE2
:101B00000C78D0F834780EFA04F43C43C0F834482A
:101B100088E700BF0000F81FFFFF07E00000F8FFA4
:101B2000F0B54C7891F800E0012C4E694FEA4E1365
:101B3000304FDFF8C4C03DD100F5106423441D6967
:101B4000B6B93D40012A1D61186940F400201861B2
:101B50001D6905EA0C051D6101D10A695A610B78FE
:101B600004EB43131A6842F004421A600020F0BDEF
:101B700005EA0C051D611D693D401D618D68B5427A
:101B800038BF4D61012A1D694E6945F400251D616C
:101B9000C6F312051F6945EA07051D61DDD0002E59
:101BA000DDD00123D0F8342803FA0EF31343C0F834
:101BB0003438D4E700F53060C418256905EA0C050F
:101BC000256125693D4025618D6806B14D61266915
:101BD000C5F31205012A46F400262661266945EA66
:101BE0000605256101D1CA686261C25842F004420B
:101BF000C250BBE7FFFF07E00000F8FF10B59DF8FB
:101C000008403CB9033300F580509B1000EB0232D2
:101C1000A34201D1002010BD51F82400013410600E
:101C2000F6E70332002300F58050921010B593427E
:101C300002D101EB830010BD046841F82340013359
:101C4000F5E74A780B78012A4FEA431309D100F5EA
:101C50001060C258002A09DBC25822F08042C250EC
:101C600004E000F53060C258002AF5DAC25842F4A8
:101C70000012C250002070470B78CA7849785B0187
:101C8000023A0129D2B20CBF00F5106000F53060B5
:101C9000012AC15821F40011C15003D8C25842F0A2
:101CA0008052C25000207047D0F80038090123F458
:101CB000FE6301F4FE61C0F80038D0F80038194323
:101CC000C0F80018002070474269806910407047D2
:101CD000D0F8183800F50060C0691840000C704753
:101CE000D0F8183800F50060C069184080B270471D
:101CF00000F5306300F5006003EB41118A6840692C
:101D00001040704710B5D0F81048D0F8343800EBC8
:101D10004110CB4000F51060DB018068DBB223434B
:101D2000184010BD406900F001007047D0F800393C
:101D300023F4FF6323F00703C0F8003900F50063C4
:101D40009A6802F00602042A05D1D0F8002942F070
:101D50000302C0F800295A68002042F480725A60D9
:101D6000704710B500240129C0F8104BD0F8104B73
:101D700044F40024C0F8104BD0F8104B44F0180481
:101D8000C0F8104BD0F8104B44F0C044C0F8104BD2
:101D900005D14FF08023C0F8142BC0F8003B002081
:101DA00010BD0000064B19680868B0E8F04F80F3DA
:101DB0000988BFF36F8F4FF0000080F311887047E0
:101DC0006C080020EFF30980BFF36F8F154B1A6882
:101DD0001EF0100F08BF20ED108A20E9F04F1060B0
:101DE0004DF8043D4FF0500072B680F31188BFF3F8
:101DF0004F8FBFF36F8F62B600F004FF4FF000000B
:101E000080F3118808BC19680868B0E8F04F1EF02C
:101E1000100F08BFB0EC108A80F30988BFF36F8FF2
:101E2000704700BF6C08002008B5EFF311834FF036
:101E3000500272B682F31188BFF36F8FBFF34F8FDA
:101E400062B600F049FE18B1034B4FF080521A60A1
:101E5000002383F3118808BD04ED00E0134602223D
:101E600010B5C0F8F4210A460021C0E90633FFF797
:101E70000FFD002010BD08B513460A460021FFF7EC
:101E800007FD002008BD08B513460A460021FFF7EC
:101E900006FD002008BD08B50423C0F8F431002376
:101EA0001A461946FFF7F4FC002008BD08B50523C3
:101EB000C0F8F43100231A461946FFF7F0FC002061
:101EC00008BD000090F83830012B30B51CD00268F6
:101ED0000E4D5368AA42946803D005F58065AA4266
:101EE00003D123F470034D682B430D6823F0700376
:101EF000896824F080042B432143536000239160C0
:101F000080F83830184630BD0220FCE70000014060
:101F10000F490020D1F8883043F47003C1F88830AD
:101F20000C4B1A6842F001021A6098601A6822F09D
:101F3000847222F480321A60074A5A601A6822F4C6
:101F400080221A60D8604FF000638B60704700BF3A
:101F500000ED00E00038024010300024194B37B586
:101F60001A6C194C42F080521A641B6C03F08053B7
:101F70000193019B236843F480332360FFF754F8F7
:101F800005466368DA030CD5236843F40033236005
:101F9000FFF74AF80C4C054663689B030AD50020FE
:101FA00006E0FFF741F8401BB0F57A7FE9D903203E
:101FB00003B030BDFFF738F8401BB0F57A7FEBD99E
:101FC000F5E700BF00380240007000402DE9F04FF7
:101FD000066887B004463046FFF7A4FE0390002849
:101FE00040F042812068FFF76FFE002800F03C813E
:101FF0002068FFF769FE850702D5236802225A612F
:102000002068FFF761FE10F400250BD02068002542
:10201000FFF75EFE06F5306807464FF0100B002F05
:1020200040F025812068FFF74FFE410309D5206865
:102030002746FFF755FE00258246BAF1000F40F013
:1020400064812068FFF740FE002814DAD6F80438CF
:1020500023F00103C6F8043894F8B033012B40F0A4
:10206000F8810021204684F8B013FEF7CFFE2368E4
:102070004FF000425A612068FFF726FE02050AD59C
:10208000D6F80838DB0702D52046FFF79DFB23680A
:102090004FF400625A612068FFF716FE070113D55E
:1020A0004FF0006223685A6194F8B023002A40F090
:1020B000D4815B6D01212046C3F3830384F8B01300
:1020C000C4F8B433FEF7A2FE2068FFF7FDFDC0049C
:1020D00036D506F500677B680021206823F00103F0
:1020E0007B60FFF7E3FB616806F51063FF2203984E
:1020F000814240F0B6814FF0FF33BB61FB6943F092
:102100000113FB61E36A002B00F0B481D7F884303F
:1021100043F00B03C7F884307B6C43F00B037B6404
:10212000D6F8003804F56072217C23F4FE63206841
:10213000C6F80038FFF715FE23684FF480525A6145
:102140002068FFF7C1FD81041CD52068FFF7EEFD74
:102150002068C36823F47053C360FFF7B9FB0028FD
:1021600040F091814FF400732268E0606361D368AE
:1021700043F41053D3602046FFF715FB23684FF458
:1021800000525A612068FFF79FFDC3062BD52268D5
:10219000936923F010039361376AC7F3434307F051
:1021A0000F09022B40F0D08147F6F0731F4215D083
:1021B0004FF01C08C7F30A17304608FB09483A4697
:1021C000D8F8E411FFF72DFDD8F8E4313B44C8F806
:1021D000E431D8F8F0311F44C8F8F07122689369EF
:1021E00043F0100393612068FFF76EFD070705D5E4
:1021F0002046FFF7D3FA236808225A612068FFF7C8
:1022000063FDC60207D5E9B22046FFF700FB23684D
:102210004FF480125A612068FFF756FD800207D5FF
:10222000E9B22046FFF7EEFA23684FF400125A6134
:102230002068FFF749FD410006D52046FFF7ECFA7C
:1022400023684FF080425A612068FFF73DFD420746
:102250000AD523685D686B0702D52046FFF7E1FACF
:10226000226853682B43536007B0BDE8F08FF8072E
:1022700048D55FFA85FA20685146FFF739FD10F01E
:10228000010F814626D0012308EB45118B6023699D
:10229000012B0FD11C23096903FB0543C1F3120174
:1022A000D3F8E001411AC3F8F011D3F8E41108445F
:1022B000C3F8E40151462046FFF75DFA2169012980
:1022C00008D13DB9D4F8EC3123B904F56072206827
:1022D000FFF747FD19F0080F06D02046FFF744FA34
:1022E000082208EB45139A6019F0100F03D008EB91
:1022F0004513C3F808B019F0200F03D008EB4513BD
:1023000020229A6001357F0889E61AF0010F7FD0FC
:102310005FFA85FB20685946FFF7F4FC10F0010FC7
:10232000804623D00121D6F8343801222046A94026
:1023300023EA01035946C6F8343806F5106303EB67
:1023400045139A602369934202BFD7E90F239B1874
:102350003B64FFF71AFA2169012907D135B9A36C4B
:1023600023B904F560722068FFF7FBFC18F0080F32
:1023700005D006F51063082203EB45139A6018F0A8
:10238000100F05D006F51063102203EB45139A6079
:1023900018F0400F05D006F51063402203EB4513FB
:1023A0009A6018F0020F05D006F51063022203EBC5
:1023B00045139A6018F0800F2AD0D4F80090D7E91E
:1023C0001232A3EB0208FB6B0422984528BF984603
:1023D00008F1030393FBF2F3049309F5106303EB95
:1023E00045130593059B049A9B699BB2934204D9BC
:1023F000D7E91232934200D97BB9B8F1000F07DC5C
:102400000122D9F83438AA4023EA0203C9F8343843
:1024100001354FEA5A0A1C370FE6A3EB0208FB6BA3
:1024200004224846984528BF984608F1030393FBC9
:10243000F2F304935A46237C00931FFA88F3396C15
:10244000FFF7DCFB3B6C43443B64FB6C4344FB64A5
:10245000C8E72046FFF7D1F909E62046FFF7B4F9AF
:1024600032E60398203343F8182C0130C3F8E821F2
:1024700003903CE67B6943F02B037B613B6943F0AF
:102480000B033B614CE60323E36040236361FFF7EA
:1024900063F8354B354A03449342236804D8DA681D
:1024A00042F47052DA6066E6314A324902448A42A6
:1024B00003D8DA6842F46052F4E7A0F574022E49BA
:1024C000A2F510528A4203D8DA6842F45052E9E782
:1024D000A0F183722949A2F5E7428A4203D8DA685B
:1024E00042F44052DEE7264A264902448A4203D893
:1024F000DA6842F43052D5E7234A244902448A423A
:1025000003D8DA6842F42052CCE7214A2149024438
:102510008A4203D8DA6842F41052C3E7A0F1B772D6
:102520001D49A2F558528A4203D8DA6842F4005293
:10253000B8E71A4A1A4902448A42DA6894BF42F458
:10254000E05242F4C052ADE7062B7FF447AE4FF0A5
:102550001C08082204F560713046FFF762FB08FB97
:102560000948C7F30A1734E6405327FFFF340C002D
:10257000401E1BFF3F420F007F4F12001FD613006B
:1025800060B6E5FE5FE3160000D3CEFE3F771B008A
:10259000C05BB3FEBF9121001F753800E05459FEA7
:1025A000DF9C410090F87C33012B10B5044609D024
:1025B000012380F87C330068FFF776FB002084F865
:1025C0007C0310BD0220FCE770B54EB201F07F0520
:1025D00004461C20002EB4BF00FB054100FB014156
:1025E0004FEAD670B4BF343101F5EC71002EB8BF9C
:1025F000CD80022BCB7008BF00230D70487008BF40
:102600000B7194F87C338A60012B09D00123206878
:1026100084F87C33FFF777F9002084F87C0370BDE1
:102620000220FCE738B5044601F07F051C2000FBC2
:10263000054100FB054001F5EC71C0F8EC310023C9
:10264000C0F8E421C0F8F03180F8D93180F8D851D1
:102650002369012B08BFC0F8E82194F87C23012AE4
:102660000ED00122206884F87C23DAB22DB9FFF75E
:1026700057FA002084F87C0338BDFFF781F9F8E7AA
:102680000220F9E738B5044601F07F051C2000FB65
:10269000054100FB05403431836400230264C364B8
:1026A000012380F8345080F835302369012B08BFAE
:1026B000426494F87C23012A0ED00122206884F819
:1026C0007C23DAB22DB9FFF72BFA002084F87C03C3
:1026D00038BDFFF755F9F8E70220F9E738B54BB2F6
:1026E00001F07F051C220446002B4FEAD373B4BFD0
:1026F00002FB050102FB01014FF00102B4BF3431BE
:1027000001F5EC718A700D704B7090F87C33934238
:102710000FD080F87C230068FFF793FA2DB904F5F9
:102720006072217C2068FFF71CFB002084F87C038A
:1027300038BD0220FCE738B54BB205461C2201F03B
:102740007F00002B4FF000044FEAD373B5BF02FBAC
:10275000005102FB0151343101F5EC718C700870AD
:102760004B7095F87C33012B09D00123286885F83C
:102770007C33FFF781FA204685F87C4338BD022080
:10278000FCE710B504468021FFF75AF800212046E7
:10279000BDE81040FFF754B837B54B7804460D46F6
:1027A000092B7ED8DFE813F0D100ED007D00E100B9
:1027B0007D0075000A007D00C10095004B881A0A53
:1027C000013A0E2A6DD8DFE802F02024316C6C51FA
:1027D0005A6C6C6C6C6C6C6C0800D0F81032DB6955
:1027E0000DF10601207C9847BDF80620002A6BD029
:1027F000EB88002B68D09A42014628BF1A46ADF8F4
:1028000006202046FFF72AFB5EE0D0F810321B6856
:10281000E6E7027CD0F8143232B99B6A0DF106006B
:10282000984702234370DFE7DB6AF7E7DBB2052B4B
:1028300037D8DFE803F003070B0F1317D0F8103277
:102840005B68CDE7D0F810329B68C9E7D0F810324A
:10285000DB68C5E7D0F810321B69C1E7D0F8103249
:102860005B69BDE7D0F810329B69B9E7037CC3B957
:10287000D0F814320DF106005B6B9847B4E7037C87
:102880007BB9D0F814320DF106001B6B9847072373
:10289000C8E78B882BB9CB881BB990F8FC31032B88
:1028A00003D12046FFF76DFF0EE08D7805F07F0520
:1028B00080F8FE512946FEF7E4FF2046FFF7EBFAC9
:1028C0002DB1022384F8FC31002003B030BD012378
:1028D000F8E78978304D01292970E2D890F8FC3169
:1028E000022B0CD0032BDCD1B1B90223416080F85C
:1028F000FC31FDF747FD2046FFF7CDFAE4E700295C
:10290000F9D001210323416080F8FC312046FDF716
:102910002EFD0228EFD1C4E741680129EBD0C9B2EE
:10292000FDF730FD29786160F0E7CA88012AB8D147
:1029300090F8FC31022B03D0032BB2D1011D60E7CC
:102940000146002341F8083F5BE790F8FC31023B69
:10295000012BA6D80123C360D0F804320BB10323A6
:10296000C360022204F10C014BE74B88012BABD171
:10297000C4F804322946D4F8143220469B6898479C
:10298000B9E790F8FC31023B012B8AD84B88012B28
:102990009AD10023ECE700BF6808002038B590F812
:1029A000FC3104460D46032B0DD10B79012B0AD8BF
:1029B000D0F814329B689847EB8813B92046FFF78C
:1029C0006AFA002038BDFFF7DCFEFAE738B50B786D
:1029D00004460D4603F06003202B05D1D0F81432D5
:1029E0009B689847002038BD6A788B88012AD9B245
:1029F0001CD029D3032AF5D190F8FC31022B3DD00D
:102A0000032B03D02046FFF7BCFEEBE76B881BB916
:102A10004A0601D0FEF714FFD4F8143229462046A6
:102A20009B6898472046FFF736FADBE790F8FC31C1
:102A3000022B23D0032BE5D16B88002BD2D14B0680
:102A4000F0D0FEF704FFE7E790F8FC21022A15D04A
:102A5000032AD7D101F07F051B0600EB05154CBFFB
:102A6000143505F58275FEF7F9FE60B101232B6080
:102A7000022229462046FFF7F1F9B3E74A06B1D012
:102A8000FEF7DEFEAEE72860F2E70B7803704B78C6
:102A90004370CA788B7803EB022343804A790B7921
:102AA00003EB02238380CA798B7903EB0223C38073
:102AB00070470000064A13681968064B19B94FF0B1
:102AC000FF321A6070471268D268D2685268F8E71D
:102AD00070080020100900202DE9F84F3E4B1B68BC
:102AE000002B71D13D4B1A6801321A601D68CDB9B7
:102AF0003B4B1A68126852B14FF0500372B683F321
:102B00001188BFF36F8FBFF34F8F62B6FEE7354A70
:102B10001968106818601160334A13680133136034
:102B2000FFF7C8FF314C4FF0000B314F2368AB4229
:102B300011D93A682F4BD16A14224A439A58022A73
:102B400028BF4FF0010B2C4A1268002A0CBF5846D0
:102B50000120BDE8F88FDFF888A0DFF8A490DAF84C
:102B6000002012681AB94FF0FF322260E1E7DAF86C
:102B70000020D268D66871688D4201D22160D8E702
:102B800006F104084046FEF7E5F9B16A19B106F10D
:102B90001800FEF7DFF9F06A0122D9F800304FF093
:102BA000140C02FA00F11943124BC9F80010414607
:102BB0000CFB0030FEF7C2F93868F16AC26A914234
:102BC00028BF4FF0010BCAE70C4A4FF0000B136807
:102BD00001331360B7E700BF080900201C0900207B
:102BE000700800207408002014090020100900203B
:102BF0006C0800207808002020090020040900202B
:102C00000C090020184B1A68184B10B512B101229C
:102C10001A6010BD1A60164B1B68B3FA83F3DBB25F
:102C200014221449C3F11F035A438C58881854B90D
:102C30004FF0500372B683F31188BFF36F8FBFF369
:102C40004F8F62B6FEE74468083264680A449442D3
:102C5000446004BF62684260142202FB03135B6895
:102C6000DA68054BD4E700BF0809002020090020DE
:102C70000C090020780800206C080020054B1B6818
:102C800033B1054B1B68002B0CBF0220002070479E
:102C900001207047180900200809002003682DE969
:102CA000F34713F0010604460BD0BD4A916821F4A6
:102CB00000019160466B91683143B6FA86F6760959
:102CC000916013F4002512D0B549E56BD1F88C2042
:102CD000B5F5801F22F4401208BF012642EA050222
:102CE00016BFB5FA85F500256D09C1F88C20D9020B
:102CF00010D5AB48216CD0F88C20B1F5800F22F4B0
:102D0000400242EA0102C0F88C2000F00082002953
:102D100008BF012513F0807F18BF01269A0631D520
:102D20009F4BA04F1A6C42F080521A641B6C03F048
:102D300080530193019B3B6843F480733B60FEF733
:102D400073F980463B68DB0540F1E381944F3B6FAC
:102D500013F4407340F0E881236B03F44072B2F542
:102D6000407F8F4A40F00682916823F0704021F442
:102D7000F81120F4407001439160C3F30B03116F0D
:102D80000B4313672368DA060CD5854AD2F88C10FA
:102D900021F08071C2F88C10D2F88C10A06B014326
:102DA000C2F88C105F0408D57D49606ED1F8902080
:102DB00022F440320243C1F89020180408D5784923
:102DC000A06ED1F8902022F440220243C1F8902056
:102DD000D90308D57249E06ED1F8902022F4401250
:102DE0000243C1F890209A0308D56D49206FD1F8AD
:102DF000902022F440020243C1F890205F0608D5DB
:102E00006749606CD1F8902022F003020243C1F8B8
:102E10009020180608D56249A06CD1F8902022F0C5
:102E20000C020243C1F89020D90508D55C49E06C3A
:102E3000D1F8902022F030020243C1F890209A0588
:102E400008D55749206DD1F8902022F0C0020243E6
:102E5000C1F890205F0508D55149606DD1F89020E8
:102E600022F440720243C1F89020180508D54C495D
:102E7000A06DD1F8902022F440620243C1F8902066
:102E8000D90408D54649E06DD1F8902022F440528B
:102E90000243C1F890209A0408D54149206ED1F828
:102EA000902022F440420243C1F890205F0208D5EE
:102EB0003B49A06FD1F8902022F080620243C1F814
:102EC000902098020CD53648E16FD0F89020B1F1EF
:102ED000006F22F0006208BF01250A43C0F890206D
:102EE00013F0080F18BF0125590308D52C49606F4E
:102EF000D1F8902022F040720243C1F890201A02CB
:102F000009D52749D4F88000D1F8902022F08052CA
:102F10000243C1F89020012E00F03281B3F1007F0E
:102F200000F02E81012D40F0F0801D4D2B6823F024
:102F300080532B60FEF778F806462B689F0000F15F
:102F40003E8221680E0301D5E36B23B1CD024CD53F
:102F5000236C002B49D1124D4FF4403CD5F888002A
:102F60009CFAACFE4FF0E046BEFA8EFED5F8882003
:102F700096FAA6F747F6C073B7FA87F793FAA3F362
:102F8000B3FA83F99CFAACFC4FF07068BCFA8CFC85
:102F900098FAA8F8B8FA88F896FAA6F6636903E0F2
:102FA000003802400070004000F4403002F0E0427F
:102FB000B6FA86F603FA09F9A36920FA0EF0FA4088
:102FC00003FA08F800FA0CF0B24049EA0803034398
:102FD0001343C5F88830D5F88C30A26A23F4F8532F
:102FE000013A43EA0223C5F88C3088023ED5E36FEC
:102FF000B3F1006F3AD1614D4FF0706CD5F8880095
:103000009CFAACFE4FF0E046BEFA8EFED5F8882062
:1030100096FAA6F747F6C073B7FA87F793FAA3F3C1
:103020004FF44038B3FA83F998FAA8F8B8FA88F858
:103030009CFAACFCBCFA8CFC96FAA6F6636900F02C
:10304000706002F0E042B6FA86F603FA09F9236AE4
:1030500020FA0EF0FA4003FA08F800FA0CF0B24039
:1030600049EA080303431343C5F888300A0740D5EB
:1030700042484FF07065D0F8882095FAA5F64FF4D5
:10308000403CB6FA86F6D0F888109CFAACF847F6C1
:10309000C073B8FA88F893FAA3F3B3FA83F79CFAEB
:1030A000ACFCBCFA8CFC95FAA5F54FF0E04EB5FAF5
:1030B00085F59EFAAEFE6369BEFA8EFE01F44031DC
:1030C00002F07062BB40E76921FA08F1F24007FAAA
:1030D0000EF701FA0CF1AA403B430B431343C0F82F
:1030E0008830D0F88C30E26A23F440331343C0F8C0
:1030F0008C30224C236843F080532360FDF794FF0B
:10310000054623689B0040F16181002009E001260B
:1031100000E6FDF789FFA0EB080064287FF612AEF9
:10312000032002B0BDE8F087226B02F440729A429D
:103130003FF412AE3B6F3A6F23F4407342F4803297
:103140003A673A6F22F480323A673B673B6FD807A1
:103150007FF502AEFDF768FF41F2883980463B6F8C
:1031600099073FF5F9ADFDF75FFFA0EB0800484573
:10317000F5D9D5E7916821F4F811FDE50038024052
:10318000964E336823F080633360FDF74DFF0746AA
:1031900033681B0100F10C812268D7073CD5636BB3
:1031A000D3BBD6F884004FF4403E9EFAAEF84FF001
:1031B0007067B8FA88F8D6F8841097FAA7FC47F633
:1031C000C073BCFA8CFC93FAA3F3B3FA83FA9EFAA9
:1031D000AEFEBEFA8EFE97FAA7F74FF0E049B7FAB7
:1031E00087F799FAA9F96368B9FA89F900F44030C8
:1031F00001F0706103FA0AFAA36820FA08F021FAD4
:103200000CF103FA09F900FA0EF0B9404AEA090391
:1032100003430B43C6F88430160303D5E36BB3F5C1
:10322000801F05D0D00248D5236CB3F5800F44D160
:103230006A4E4FF4403ED6F884009EFAAEF84FF046
:10324000E047B8FA88F8D6F8841097FAA7FC47F652
:10325000C073BCFA8CFC93FAA3F3B3FA83FA9EFA18
:10326000AEFE4FF07069BEFA8EFE99FAA9F9B9FA6E
:1032700089F997FAA7F7636800F4403001F0E0415C
:10328000B7FA87F703FA0AFAE36820FA08F021FA96
:103290000CF103FA09F900FA0EF0B9404AEA090301
:1032A00003430B43C6F88430D6F88C10636A21F0D0
:1032B0001F01013B0B43C6F88C30D1013BD5474E73
:1032C0004FF0706ED6F884009EFAAEF84FF0E047EB
:1032D000B8FA88F8D6F8841097FAA7FC47F6C073B6
:1032E000BCFA8CFC93FAA3F34FF44039B3FA83FA97
:1032F00099FAA9F9B9FA89F99EFAAEFEBEFA8EFEDC
:1033000097FAA7F7636800F0706001F0E041B7FA40
:1033100087F703FA0AFA236920FA08F021FA0CF178
:1033200003FA09F900FA0EF0B9404AEA0903034327
:103330000B43C6F88430920128D547F6C07393FA40
:10334000A3F34FF44030B3FA83F690FAA0F04FF0B5
:103350007061B0FA80F091FAA1F14FF0E042B1FA59
:1033600081F192FAA2F26368B2FA82F2B34026695E
:1033700006FA00F00343E06800FA01F10B43A1688C
:1033800001FA02F21343154AC2F88430134E33682F
:1033900043F080633360FDF747FE074633681B0147
:1033A0003FF5C0ADFDF740FEC01B6428F6D9B7E677
:1033B000FDF73AFEC01B64287FF6EAAEB0E6FDF7E3
:1033C00033FE801B64287FF6B8ADA9E6FDF72CFE1E
:1033D000401B64287FF695AEA2E600BF003802408D
:1033E00070B50D4E0D4D761BB61006D0002401347D
:1033F00055F8043B9847A642F9D1094E094D761B72
:1034000000F064FDB61006D00024013455F8043BEA
:103410009847A642F9D170BD1C3F00081C3F000828
:10342000243F00081C3F0008024B0146186800F0CA
:1034300003B800BF080000202DE9F04F01F10B0593
:10344000162D83B0064623D8102900F2B98000F06B
:10345000E1FA102518230220C54F3B44A3F10802CE
:103460005C68944200F06681636823F003032344A0
:10347000D4E902515A68E96042F001028D60304699
:103480005A6000F0CDFA0834204603B0BDE8F08F52
:1034900035F0070500F19480A94200F2918000F018
:1034A000B9FAB5F5FC7FC0F083816B0A00F08F801C
:1034B000042B00F24681AB0903F1390003F1380C0B
:1034C000C300AB4F3B44A3F108015C68A14206D1A5
:1034D0000CE0002A80F21D81E468A14206D06368F6
:1034E00023F003035A1B0F2AF3DD60463C69DFF823
:1034F00094C2644571D0636823F003035A1B0F2AFA
:1035000000F34481002AC7E904CC80F22681B3F598
:10351000007F80F06981DB08591C7A6857F8318098
:10352000C4F808804FF0010E9B100EFA03F307EB6E
:10353000C10E1343AEF10802E2607B6047F83140F0
:10354000C8F80C408210012494409C424BD81C4285
:1035500006D120F0030064001C4200F10400FAD000
:1035600007EBC009CE468046DEF80C309E4507D1F9
:1035700022E1002A80F22981DB689E4500F01C814F
:10358000596821F003014A1B0F2AF2DDD3E9028EAC
:103590005C1945F001055D6042F00105C8F80CE0DA
:1035A0003046CEF80880C7E90444C4E902CC65601F
:1035B0005A50019300F034FA019B03F1080463E7C9
:1035C00000240C232046336003B0BDE8F08F4FF495
:1035D000007340204FF03F0C73E77B68821001249A
:1035E00094409C42B3D9BC68636823F00309A945A1
:1035F00003D3A9EB05030F2B7BDC5E4BDFF888A11F
:103600001A68DAF80030013305EB020800F048814F
:1036100008F5805808F10F0828F47F6828F00F0893
:103620004146304600F002FAB0F1FF3F834600F019
:10363000048104EB0900584500F2FD804E4A1368EE
:103640004344136000F04D81DAF8001001311BBFD4
:10365000ABEB00001B18CAF800B013601BF00703A7
:1036600000F03481C3F10801C3F580538B44083363
:10367000D844C8F30B08A3EB080841463046019232
:1036800000F0D4F9431C019A00F04681A0EB0B0135
:10369000414441F001011368C7F808B04344BC42FB
:1036A000CBF80410136015D0B9F10F0F40F2308140
:1036B0006068A9F10C0121F0070100F0010004EBA2
:1036C000010C08434FF0050E0F296060CCE901EEB4
:1036D00000F23A81294A2A481168BC688B42016885
:1036E00088BF136062688B4222F0030288BF0360C8
:1036F000A7E0621943F0010345F00105656030461B
:10370000BA60536000F08CF90834204603B0BDE87D
:10371000F08F2344E1685A68A56842F00102E9602D
:1037200030468D605A6000F07BF90834204603B0C3
:10373000BDE8F08FDC68A34208BF02303FF4D6AE8C
:1037400092E6142B71D9542B00F2AD802B0B03F1B0
:103750006F0003F16E0CC300B3E6234430465A6891
:1037600042F001025A60083400F05AF98CE600BFBA
:103770003804002054090020240900204C090020AE
:10378000500900204004002040080020611945F045
:10379000010E42F00105C4F804E03046C7E9041107
:1037A000C1E902CC4D60E25000F03AF908346BE612
:1037B000E80805F108034FE608F1010818F0030FC7
:1037C0000EF1080E7FF4D0AE52E019441C464A6850
:1037D000DB6854F8085F42F001024A603046EB6053
:1037E0009D6000F01DF94FE65A0A042A35D9142AC3
:1037F0006FD802F15C01C9005B3207EB010E79580A
:10380000AEF1080E8E4558D04A6822F003029A4263
:1038100002D989688E45F7D1D1F80CE07B68C4E9FC
:10382000021ECEF80840CC608CE603F15C0003F188
:103830005B0CC30045E6BC4272D0BC68626822F0F3
:1038400003029542A2EB050302D80F2B3FF751AFBD
:10385000304600F0E5F8002416E69A0902F1390135
:10386000C9003832C9E7D9F80090994540F0838003
:1038700010F0030FA9F1080300F1FF30F3D17B68CA
:1038800023EA04037B6064009C423FF6ACAE1CB9A3
:10389000A9E6640008F104081C42FAD040465FE63D
:1038A00008F11008BCE6B3F5AA7F26D8EB0B03F1AC
:1038B000780003F1770CC30003E67B6892104FF0A9
:1038C000010808FA02F213437B60A8E74FF4805323
:1038D000CEE6542A29D81A0B02F16F01C9006E32C4
:1038E0008BE7C0F30B0100297FF4AEAE09EB0802B1
:1038F000B96842F001024A60ECE640F25452934249
:103900001CD8AB0C03F17D0003F17C0CC300D8E59F
:103910000123CBF804309BE701214FF00008BAE601
:10392000164A1368434413608EE6B2F5AA7F14D892
:10393000DA0B02F17801C90077325EE74FF47E734B
:103940007F204FF07E0CBCE504F108013046019267
:1039500000F056F9019A1368BCE640F254518A42CD
:1039600005D89A0C02F17D01C9007C3245E74FF47D
:103970007E717E2241E77B6885E700BF2409002035
:10398000F0B4860743D0541E002A3ED0CAB2034684
:1039900002E014F1FF3438D303F8012B9D07F8D16E
:1039A000032C2BD9CDB245EA05250F2C45EA054558
:1039B00016D9A4F110073F0903F1200606EB0716FC
:1039C00003F1100242E9045542E902551032B242B5
:1039D000F8D104F00F040137032C03EB07130DD9C2
:1039E0001E462246043A032A46F8045BFAD8221FF0
:1039F00022F003020432134404F003042CB1C9B2D0
:103A00001C4403F8011B9C42FBD1F0BC70471446D8
:103A10000346C5E7014800F0E7B900BF781200206F
:103A2000014800F0E3B900BF7812002038B5074C18
:103A3000002305460846236000F03AFA431C00D0F4
:103A400038BD2368002BFBD02B6038BD8C120020C2
:103A500080EA0102844612F0030F4FD111F0030FE8
:103A600032D14DF8044D11F0040F51F8043B0BD046
:103A7000A3F101329A4312F0803F04BF4CF8043B9B
:103A800051F8043B16D100BF51F8044BA3F10132A9
:103A90009A4312F0803FA4F101320BD14CF8043B61
:103AA000A24312F0803F04BF51F8043B4CF8044B92
:103AB000EAD023460CF8013B13F0FF0F4FEA332303
:103AC000F8D15DF8044B704711F0010F06D011F8E2
:103AD000012B0CF8012B002A08BF704711F0020FD0
:103AE000BFD031F8022B12F0FF0F16BF2CF8022BBB
:103AF0008CF8002012F47F4FB3D1704711F8012BDE
:103B00000CF8012B002AF9D1704700BF024B13B10A
:103B1000024800F005B87047000000002D3B000887
:103B2000002301461A46184600F062B938B50A4C1F
:103B30000A4D641BA4100AD004F18043013B05EB3D
:103B40008305013C55F804399847002CF9D1BDE8AC
:103B5000384000F0C1B900BF283F0008243F0008EA
:103B6000F8B5244F0C460646FFF754FFBB685D6866
:103B7000C4F57E610F3125F00305294421F47F61EE
:103B800021F00F01A1F58054B4F5805F07DB00211F
:103B90003046FFF74BFFBB682B44984204D03046B9
:103BA000FFF73EFF0020F8BD61423046FFF73EFFC1
:103BB00001300DD0104BBA6819682D1B45F0010576
:103BC0003046091B55601960FFF72AFF0120F8BD38
:103BD00000213046FFF72AFFBA68831A0F2BDEDD7B
:103BE000064C0549246843F00103001B536008603C
:103BF000D5E700BF38040020240900204008002039
:103C0000002953D0F8B50C460646FFF703FF54F8D9
:103C100004CC714F2CF00101A4F108056B18B868B1
:103C20005A68984222F0030253D01CF0010F5A60E8
:103C300003EB02003BD154F808CC4068A5EB0C051F
:103C400007F1080EAC687445614400F0010075D0BE
:103C5000D5F80CC0C4F80CC0CCF8084060B341F0F3
:103C600001036B606950B1F5007F50D34B0A042B00
:103C700070D88B0903F13904E40003F138023819D4
:103C80003B590838984278D05A6822F003028A4299
:103C900071D99B689842F7D1C368C5E902039D605A
:103CA000C5603046BDE8F840FFF7BABE70474068CF
:103CB00000F001000028D2D19868484C1144A0427D
:103CC00041F0010262D0DB68C36098606A606950AD
:103CD000C9E71CF0010F0A4407D154F8083CED1A5B
:103CE0001A44D5E90213CB6099603D4B1B6842F042
:103CF000010193426960BD6004D83A4B30461968AF
:103D0000FFF72EFF3046BDE8F840FFF789BEC9082F
:103D100078684A1C012389108B40034307EBC201DA
:103D200057F832007B600839C5E9020147F8325084
:103D3000C5603046BDE8F840FFF772BE002845D1A7
:103D40000A44D3E9021342F00100CB609960686035
:103D5000AA50D7E7142B08D9542B1ED80B0B03F10C
:103D60006F04E40003F16E0289E703F15C04E400F0
:103D700003F15B0283E718468EE79310796801220E
:103D800002FA03F30B437B60034686E7C7E9045559
:103D9000C5E902006A606950B4E7B3F5AA7F06D8A6
:103DA000CB0B03F17804E40003F1770267E740F2FC
:103DB0005452934206D88B0C03F17D04E40003F1C6
:103DC0007C025CE74FF47E747E2258E741F00102EA
:103DD0006A60196096E700BF3804002040040020A4
:103DE0004408002054090020704700BF704700BFFE
:103DF0002DE9F8432B4D0646286898460F46914614
:103E0000FFF7F2FF284B1C68D4F84831002B3DD057
:103E10005A681F2A0DDC02F1010C16BB0232C3F8EE
:103E200004C0286843F82270FFF7E0FF0020BDE8D7
:103E3000F8831E4B7BB34FF4C870FFF7F5FA0346C7
:103E400048B3D4F848210021C0E900214FF0010C0B
:103E5000C4F848010A46C0F88811C0F88C11002E39
:103E6000DCD003EB82010124C1F88890D3F88801EB
:103E700094402043022EC3F88801C1F80881CDD1B7
:103E8000D3F88C110C43C3F88C41C7E704F5A67333
:103E9000C4F84831BCE72868FFF7A8FF4FF0FF30AF
:103EA000C5E700BF48080020183F00082934000873
:103EB000044A05491368002B08BF0B4618441060DC
:103EC000184670475809002090120020F8B500BF2E
:103ED000F8BC08BC9E467047F8B500BFF8BC08BCEB
:043EE0009E46704743
:103EE4000104020800101010041010100210101029
:103EF400086D616D6969690D0A0000000000000029
:103F04000000010203040607080900000000010282
:083F140003040000100000206E
:083F1C000D3B0008250200081E
:043F2400010200088E
:103F2800F80F00200024F40010000020000000001A
:103F380000000000FC02002064030020CC030020E5
:103F48000000000000000000000000000000000069
:103F58000000000000000000000000000000000059
:103F68000000000000000000000000000000000049
:103F78000000000000000000000000000000000039
:103F88000000000000000000000000000000000029
:103F98000000000000000000000000000000000019
:103FA8000000000000000000000000000000000009
:103FB80000000000000000000000000000000000F9
:103FC80000000000000000000000000000000000E9
:103FD80000000000000000000100000000000000D8
:103FE8000E33CDAB34126DE6ECDE05000B0000009D
:103FF80000000000000000000000000000000000B9
:1040080000000000000000000000000000000000A8
:104018000000000000000000000000000000000098
:104028000000000000000000000000000000000088
:1043680038040020380400204004002040040020C5
:104378004804002048040020500400205004002075
:104388005804002058040020600400206004002025
:1043980068040020680400207004002070040020D5
:1043A8007804002078040020800400208004002085
:1043B8008804002088040020900400209004002035
:1043C8009804002098040020A0040020A0040020E5
:1043D800A8040020A8040020B0040020B004002095
:1043E800B8040020B8040020C0040020C004002045
:1043F800C8040020C8040020D0040020D0040020F5
:10440800D8040020D8040020E0040020E0040020A4
:10441800E8040020E8040020F0040020F004002054
:10442800F8040020F8040020000500200005002002
:1044380008050020080500201005002010050020B0
:104448001805002018050020200500202005002060
:104458002805002028050020300500203005002010
:1044680038050020380500204005002040050020C0
:104478004805002048050020500500205005002070
:104488005805002058050020600500206005002020
:1044980068050020680500207005002070050020D0
:1044A8007805002078050020800500208005002080
:1044B8008805002088050020900500209005002030
:1044C8009805002098050020A0050020A0050020E0
:1044D800A8050020A8050020B0050020B005002090
:1044E800B8050020B8050020C0050020C005002040
:1044F800C8050020C8050020D0050020D0050020F0
:10450800D8050020D8050020E0050020E00500209F
:10451800E8050020E8050020F0050020F00500204F
:10452800F8050020F80500200006002000060020FD
:1045380008060020080600201006002010060020AB
:10454800180600201806002020060020200600205B
:10455800280600202806002030060020300600200B
:1045680038060020380600204006002040060020BB
:10457800480600204806002050060020500600206B
:10458800580600205806002060060020600600201B
:1045980068060020680600207006002070060020CB
:1045A800780600207806002080060020800600207B
:1045B800880600208806002090060020900600202B
:1045C8009806002098060020A0060020A0060020DB
:1045D800A8060020A8060020B0060020B00600208B
:1045E800B8060020B8060020C0060020C00600203B
:1045F800C8060020C8060020D0060020D0060020EB
:10460800D8060020D8060020E0060020E00600209A
:10461800E8060020E8060020F0060020F00600204A
:10462800F8060020F80600200007002000070020F8
:1046380008070020080700201007002010070020A6
:104648001807002018070020200700202007002056
:104658002807002028070020300700203007002006
:1046680038070020380700204007002040070020B6
:104678004807002048070020500700205007002066
:104688005807002058070020600700206007002016
:1046980068070020680700207007002070070020C6
:1046A8007807002078070020800700208007002076
:1046B8008807002088070020900700209007002026
:1046C8009807002098070020A0070020A0070020D6
:1046D800A8070020A8070020B0070020B007002086
:1046E800B8070020B8070020C0070020C007002036
:1046F800C8070020C8070020D0070020D0070020E6
:10470800D8070020D8070020E0070020E007002095
:10471800E8070020E8070020F0070020F007002045
:10472800F8070020F80700200008002000080020F3
:1047380008080020080800201008002010080020A1
:104748001808002018080020200800202008002051
:104758002808002028080020300800203008002001
:0C476800FFFFFFFF0000020068120020AD
:040000050800031DCF
:00000001FF
