:020000040800F2
:1000000000000520B92D00082D1E0008371E00082D
:10001000411E00084B1E0008551E0008000000008D
:100020000000000000000000000000005F1E00084B
:10003000691E000800000000731E00087D1E0008F5
:10004000092E0008092E0008092E0008092E0008B4
:10005000092E0008092E0008092E0008092E0008A4
:10006000092E0008092E0008092E0008092E000894
:10007000092E0008092E0008092E0008092E000884
:10008000092E0008092E0008092E0008092E000874
:10009000092E0008092E0008092E0008092E000864
:1000A000092E0008092E0008092E0008092E000854
:1000B000092E0008092E0008092E0008092E000844
:1000C000092E0008092E0008092E0008092E000834
:1000D000092E0008092E0008092E0008092E000824
:1000E000092E0008092E0008092E0008092E000814
:1000F000092E0008092E0008092E0008092E000804
:10010000092E0008092E0008092E0008092E0008F3
:10011000092E0008092E0008092E0008092E0008E3
:10012000092E0008092E0008092E0008092E0008D3
:10013000092E0008092E0008092E0008092E0008C3
:10014000092E0008092E0008092E0008092E0008B3
:10015000092E0008092E0008092E0008092E0008A3
:10016000092E0008092E0008092E0008092E000893
:10017000092E0008092E0008092E000800000000C2
:10018000092E0008092E0008092E0008092E000873
:10019000092E0008092E0008092E0008092E000863
:1001A000092E0008092E0008092E0008092E000853
:1001B000092E0008092E0008092E0008092E000843
:0801C000092E0008092E0008B9
:1001C8001C309FE51C009FE5033060E0060053E308
:1001D8001EFF2F9110309FE5000053E31EFF2F01F3
:1001E80013FF2FE1AF080020AC080020000000003A
:1001F80024109FE524009FE5011060E04111A0E173
:10020800A11F81E0C110B0E11EFF2F0110309FE552
:10021800000053E31EFF2F0113FF2FE1AC0800205D
:10022800AC0800200000000010402DE92C409FE59C
:100238000030D4E5000053E30600001ADFFFFFEBAF
:100248001C309FE5000053E318009F1500F02013B1
:100258000130A0E30030C4E51040BDE81EFF2FE1E7
:10026800AC08002000000000489B000808402DE969
:100278003C309FE5000053E338009F1538109F1568
:1002880000F0201334009FE5003090E5000053E3B0
:100298000100001A0840BDE8D4FFFFEA20309FE5BE
:1002A800000053E3FAFFFF0A0FE0A0E113FF2FE17C
:1002B800F7FFFFEA00000000489B0008B008002094
:1002C800AC08002000000000012051E21EFF2F01B1
:1002D8003600003A010050E12200009A020011E1C4
:1002E8002300000A0E0211E38111A0010830A003C7
:1002F8000130A013010251E3000051310112A03175
:100308000332A031FAFFFF3A020151E300005131F4
:100318008110A0318330A031FAFFFF3A0020A0E31A
:10032800010050E10100402003208221A10050E19A
:10033800A1004020A3208221210150E12101402079
:1003480023218221A10150E1A1014020A321822182
:10035800000050E32332B0112112A011EFFFFF1A61
:100368000200A0E11EFF2FE10100A0030000A0137E
:100378001EFF2FE1010851E32118A0211020A0231E
:100388000020A033010C51E32114A021082082226F
:10039800100051E32112A02104208222040051E31D
:1003A80003208282A12082903002A0E11EFF2FE16B
:1003B800000050E30000E013590000EA000051E398
:1003C800FAFFFF0A03402DE9BEFFFFEB0640BDE838
:1003D800920003E0031041E01EFF2FE1000051E30B
:1003E8004300000A01C020E000106142012051E2F0
:1003F8002700000A0030B0E100306042010053E1FC
:100408002600009A020011E12800000A0E0211E3FA
:100418008111A0010820A0030120A013010251E3CB
:10042800030051310112A0310222A031FAFFFF3A34
:10043800020151E3030051318110A0318220A03123
:10044800FAFFFF3A0000A0E3010053E10130432026
:1004580002008021A10053E1A1304320A2008021A5
:10046800210153E12131432022018021A10153E1DF
:10047800A1314320A2018021000053E32222B011C0
:100488002112A011EFFFFF1A00005CE30000604298
:100498001EFF2FE100003CE1000060421EFF2FE13B
:1004A8000000A033CC0FA001010080031EFF2FE144
:1004B800010851E32118A0211020A0230020A03317
:1004C800010C51E32114A02108208222100051E3DD
:1004D8002112A02104208222040051E303208282F9
:1004E800A120829000005CE33302A0E1000060429A
:1004F8001EFF2FE1000050E30201E0C30201A0B398
:10050800070000EA000051E3F9FFFF0A03402DE964
:10051800B3FFFFEB0640BDE8920003E0031041E0A3
:100528001EFF2FE11EFF2FE1021121E2000000EA69
:10053800023123E230402DE98140A0E18350A0E15F
:10054800050034E10200300100C0941102C0951189
:10055800C4CAF011C5CAF0118C00000AA44AA0E16F
:10056800A55A74E0005065B2060000DA054084E040
:10057800022020E0033021E0000022E0011023E007
:10058800022020E0033021E0360055E33040BD88EA
:100598001EFF2F81020111E30116A0E101C6A0E3AD
:1005A80021168CE10100000A000070E20010E1E26F
:1005B800020113E30336A0E123368CE10100000AAF
:1005C800002072E20030E3E2050034E16900000A2D
:1005D800014044E220E075E2050000BA12CEA0E135
:1005E800320590E00010A1E2130E90E05315B1E03F
:1005F800060000EA205045E220E08EE2010052E3C6
:1006080013CEA0E102C08C23530590E0C31FB1E0D4
:10061800025101E20200005A00C07CE20000F0E250
:100628000010E1E2010651E30F00003A020651E32F
:100638000600003AA110B0E16000B0E16CC0A0E192
:10064800014084E2842AA0E1010572E36B00002ADC
:1006580002015CE3A0C0B0010000B0E2041AA1E00E
:10066800051081E13040BDE81EFF2FE18CC0B0E1EC
:100678000000B0E00110A1E0010611E3014044E2EE
:10068800F2FFFF1A000031E31430A0133430A00346
:100698000010A0010000A0030120A0E1010852E31E
:1006A8002228A02110304322010C52E32224A02149
:1006B80008304322100052E32222A02104304322B2
:1006C800040052E302304322A2304330A23143E017
:1006D800202053E2070000AA0C2092E2040000DA6E
:1006E80014C082E20C2062E2110CA0E13112A0E1F8
:1006F800040000EA142082E220C062D21112A0E1B4
:10070800301C81D11002A0D1034054E0041A81A00A
:10071800051081A13040BDA81EFF2FA10440E0E1D3
:100728001F4054E20F0000AA0C4094E2060000CAE1
:10073800144084E2202064E23004A0E1110280E148
:10074800311485E13040BDE81EFF2FE10C4064E222
:10075800202064E23002A0E1110480E10510A0E14C
:100768003040BDE81EFF2FE13104A0E10510A0E1F3
:100778003040BDE81EFF2FE1000034E3013623E2DC
:100788000116210201408402015045128FFFFFEA41
:10079800C4CAF0E1C5CAF0111D00000A050034E121
:1007A800020030010400000A00C094E10310A00117
:1007B8000200A0013040BDE81EFF2FE1030031E137
:1007C8000010A0130000A0133040BD181EFF2F1109
:1007D800A4CAB0E10400001A8000B0E10110B1E041
:1007E800021181233040BDE81EFF2FE1014594E24C
:1007F800011681323040BD381EFF2F31025101E20F
:100808007F1485E30F1681E30000A0E33040BDE8C4
:100818001EFF2FE1C4CAF0E10310A0110200A011CD
:10082800C5CAF0010130A0110020A011014690E1D5
:100838000356920103003101021781133040BDE8CD
:100848001EFF2FE1000030E30010A0031EFF2F0160
:1008580030402DE9014BA0E3324084E20050A0E390
:100868000010A0E386FFFFEA000030E30010A003B9
:100878001EFF2F0130402DE9014BA0E3324084E2F6
:10088800025110E2000060420010A0E37CFFFFEA82
:100898008020B0E1C211A0E16110A0E1020EA0E148
:1008A800FF341212FF0433130E1321121EFF2F11EF
:1008B800000032E3FF0433131EFF2F0130402DE9FF
:1008C8000E4DA0E3025101E20211C1E36CFFFFEA01
:1008D800012090E11EFF2F0130402DE90050A0E3D8
:1008E800060000EA012090E11EFF2F0130402DE9AB
:1008F800025111E20100005A000070E20010E1E22A
:10090800014BA0E3324084E221CBB0E144FFFF0A6F
:100918000320A0E3ACC1B0E103208212ACC1B0E176
:1009280003208212AC2182E0203062E210C3A0E1F1
:100938003002A0E1110380E13112A0E1024084E01D
:1009480037FFFFEA70402DE9FFC0A0E307CC8CE336
:10095800214A1CE0235A1C100C0034110C003511DC
:100968007500000B054084E0036021E08C1AC1E1AA
:100978008C3AC3E1015690E103569211011681E3C6
:10098800013683E31D00000A90C28EE00050A0E308
:1009980091E2A5E0022106E290E3A5E00060A0E371
:1009A8009153A6E000003CE301E08E13FF4044E2CF
:1009B800020C56E3034CC4E20200002A8EE0B0E1C8
:1009C8000550B5E00660A6E0861582E1A51A81E12A
:1009D8008505A0E1AE0A80E18EE5A0E1FDC054E204
:1009E800070C5C831100008A02015EE3A0E0B001FD
:1009F8000000B0E2041AA1E07040BDE81EFF2FE13C
:100A0800026106E2011086E1020080E1031021E0A4
:100A1800AC4054E00C5074C0041A81C17040BDC889
:100A28001EFF2FC1011681E300E0A0E3014054E25C
:100A38005D0000CA360074E30000A0D3021101D2A1
:100A48007040BDD81EFF2FD1004064E2204054E220
:100A58001A0000AA0C4094E20C0000CA144084E278
:100A6800205064E21035A0E13004A0E1110580E1D6
:100A7800022101E20211C1E3A30F90E03114A2E0C8
:100A880083E09EE1A30FC0017040BDE81EFF2FE187
:100A98000C4064E2205064E21034A0E13005A0E18B
:100AA800110480E1021101E2A30F90E00010A1E21D
:100AB80083E09EE1A30FC0017040BDE81EFF2FE157
:100AC800205064E210E58EE13034A0E1113583E175
:100AD8003104A0E1021101E23104C0E1A30F80E07A
:100AE80083E09EE1A30FC0017040BDE81EFF2FE127
:100AF800000034E30800001A026101E28000B0E15E
:100B08000110A1E0010611E301404402FAFFFF0AC7
:100B1800061081E1000035E31EFF2F11026103E298
:100B28008220B0E10330A3E0010613E3015045023F
:100B3800FAFFFF0A063083E11EFF2FE10C0034E1C3
:100B4800235A0CE00C0035110700000A816090E17F
:100B580083609211E5FFFF1A031021E0021101E200
:100B68000000A0E37040BDE81EFF2FE1816090E126
:100B78000200A0010310A001836092111000000A76
:100B88000C0034E10100001A016690E10C00001A23
:100B98000C0035E10300001A036692E10200A0117F
:100BA8000310A0110600001A031021E0021101E24F
:100BB8007F1481E30F1681E30000A0E37040BDE8D5
:100BC8001EFF2FE17F1481E33E1781E37040BDE8EB
:100BD8001EFF2FE170402DE9FFC0A0E307CC8CE396
:100BE800214A1CE0235A1C100C0034110C0035114A
:100BF8005E00000B054044E003E021E0035692E16B
:100C08000116A0E14C00000A0336A0E10152A0E35E
:100C1800233285E1223C83E10224A0E1215285E1CF
:100C2800205C85E10064A0E102110EE2030055E1B9
:100C380002005601FD40A4E2034C84E20100002AB0
:100C4800A330B0E16220A0E1026056E00350C5E0A5
:100C5800A330B0E16220A0E10106A0E302C7A0E34F
:100C680002E056E003E0D5E0026046200E50A021E5
:100C78000C008021A330B0E16220A0E102E056E040
:100C880003E0D5E0026046200E50A021AC00802190
:100C9800A330B0E16220A0E102E056E003E0D5E035
:100CA800026046200E50A0212C018021A330B0E123
:100CB8006220A0E102E056E003E0D5E002604620B1
:100CC8000E50A021AC01802106E095E10D00000A3C
:100CD8000552A0E1265E85E10662A0E18331A0E12C
:100CE800A23E83E18221A0E12CC2B0E1DBFFFF1A22
:100CF800010611E30600001A001081E10000A0E3DC
:100D080002C1A0E3D5FFFFEA010611E3001081014B
:100D18000000A003FDC054E2070C5C8343FFFF8A78
:100D280003C055E002C05600A0C0B0010000B0E208
:100D3800041AA1E07040BDE81EFF2FE102E10EE2B7
:100D480021168EE1AC4094E00C5074C0041A81C1A5
:100D58007040BDC81EFF2FC1011681E300E0A0E36B
:100D6800014054E231FFFFEA06E085E12FFFFFEA88
:100D7800235A0CE00C0034E10C00350190FFFF0A07
:100D88000C0034E10600001A014690E18CFFFF1ABE
:100D98000C0035E183FFFF1A0200A0E10310A0E177
:100DA80087FFFFEA0C0035E10400001A035692E1C0
:100DB80068FFFF0A0200A0E10310A0E180FFFFEA3C
:100DC800816090E18360921148FFFF1A814090E1B1
:100DD80074FFFF1A835092E15EFFFF1A78FFFFEA63
:100DE80000C0E0E3020000EA01C0A0E3000000EA5E
:100DF80001C0A0E304C02DE581C0A0E1CCCAF0E1A8
:100E080083C0A0E1CCCAF0110E00000A04D08DE224
:100E180081C090E183C092010300311102003001CA
:100E28000000A0031EFF2F01000070E3030031E162
:100E38000300515102005001C30FA021C30FE0313C
:100E4800010080E31EFF2FE181C0A0E1CCCAF0E1E0
:100E58000100001A01C690E10400001A83C0A0E155
:100E6800CCCAF0E1E8FFFF1A03C692E1E6FFFF0AE9
:100E780004009DE41EFF2FE100C0A0E10200A0E1F4
:100E88000C20A0E101C0A0E10310A0E10C30A0E11A
:100E9800FFFFFFEA01402DE9D4FFFFEB000050E31C
:100EA800000070430140BDE81EFF2FE108E02DE57A
:100EB800F7FFFFEB0100A0030000A01308E09DE48A
:100EC8001EFF2FE108E02DE5F1FFFFEB0100A03345
:100ED8000000A02308E09DE41EFF2FE108E02DE5B7
:100EE800EBFFFFEB0100A0930000A08308E09DE466
:100EF8001EFF2FE108E02DE5DEFFFFEB0100A093C8
:100F08000000A08308E09DE41EFF2FE108E02DE526
:100F1800D8FFFFEB0100A0330000A02308E09DE408
:100F28001EFF2FE18120A0E1022692E20C00002A98
:100F38000900005A3E3EE0E3C22A53E00A00009A44
:100F48008135A0E1023183E3A03A83E1020111E394
:100F58003302A0E1000060121EFF2FE10000A0E3B1
:100F68001EFF2FE1010690E10200001A020111E2C2
:100F78000201E0031EFF2FE10000A0E31EFF2FE1A6
:100F8800000053E3000052030400001A000051E37C
:100F9800000050030010E0130000E01360FDFFEABA
:100FA80008D04DE200602DE9140000EB04E09DE557
:100FB80008D08DE20C00BDE81EFF2FE1F0472DE9B7
:100FC80020609DE50270A0E103A0A0E10040A0E13F
:100FD8000150A0E1190000EB0030A0E1970102E008
:100FE800978089E09A2323E0084054E0099083E041
:100FF8000950C5E0300086E8F047BDE81EFF2FE144
:10100800F0412DE918509DE50240A0E10380A0E1E0
:101018000060A0E10170A0E1660000EB900808E024
:10102800902483E0918424E0026056E0033084E059
:101038000370C7E0C00085E8F041BDE81EFF2FE15E
:10104800000051E3F84F2DE90040A0A10150A0A1F4
:1010580000A0A0A3530000BA000053E30280A0A19F
:101068000390A0A14B0000BA090055E10800540103
:101078000020A0330030A0333B00003A0910A0E163
:101088000800A0E1930000EB0510A0E100B0A0E18A
:101098000400A0E18F0000EB0B0060E020E040E2DC
:1010A8001970A0E1187E87E120C060E2387C87E1F2
:1010B800070055E11860A0E1060054010010A0E106
:1010C8000020A0330030A0330500003A0180A0E3DF
:1010D800064054E0183EA0E1383C83E10750C5E0E3
:1010E8001820A0E1000050E31F00000AA770B0E13B
:1010F8006660A0E1070000EA064054E00750C5E03A
:10110800044094E00550A5E0014094E20050A5E2B7
:10111800010050E20600000A050057E104005601EC
:10112800F4FFFF9A044094E00550A5E0010050E266
:10113800F8FFFF1A20C061E23401A0E1042092E028
:1011480020E041E2150C80E13541A0E1350E80E157
:101158001471A0E1107E87E11061A0E10530A3E0E1
:10116800307C87E1062052E00730C3E000009AE2B5
:101178000100A0130010A0E3004070E20050E1E27B
:10118800042022E0053023E0020090E00310A1E0F3
:10119800F84FBDE81EFF2FE1008072E20AA0E0E1EF
:1011A8000090E3E2AFFFFFEA004070E20050E1E2A6
:1011B80000A0E0E3A7FFFFEA030051E102005001AD
:1011C800F0472DE90040A0E10150A0E10280A0E134
:1011D8000390A0E10000A0330010A0333B00003AC8
:1011E8000310A0E10200A0E13A0000EB0510A0E125
:1011F80000A0A0E10400A0E1360000EB0A3060E0A6
:1012080020E043E21973A0E1187E87E120C063E281
:10121800387C87E1070055E11863A0E10600540116
:101228000320A0E10000A0330010A0330500003A1D
:101238000180A0E3064054E0181EA0E1381C81E1BB
:101248000750C5E01803A0E1000053E31F00000A9F
:10125800A770B0E16660A0E1070000EA064054E02C
:101268000750C5E0044094E00550A5E0014094E231
:101278000050A5E2013053E20600000A050057E1DC
:1012880004005601F4FFFF9A044094E00550A5E0DD
:10129800013053E2F8FFFF1A008094E00190A5E0C6
:1012A8003432A0E1201062E2200042E2153183E1ED
:1012B80035C2A0E1353083E11C72A0E1137087E1EB
:1012C8001362A0E1337187E1060058E00710C9E016
:1012D800F047BDE81EFF2FE110402DE9000051E363
:1012E8000200001A050000EB200080E2010000EA7D
:1012F8000100A0E1010000EB1040BDE81EFF2FE156
:101308001C10A0E3010850E32008A021101041227E
:10131800010C50E32004A02108104122100050E3E2
:101328002002A0210410412208208FE20000D2E709
:10133800010080E01EFF2FE1040302020101010108
:1013480000000000000000000010A0E10000A0E381
:1013580008402DE90020A0E10030A0E1700000EB7A
:101368000840BDE81EFF2FE138402DE934509FE5C5
:1013780034309FE5033065E04341B0E10550831008
:101388000500000A014044E2043035E50FE0A0E121
:1013980013FF2FE1000054E3F9FFFF1AED2100EBE2
:1013A8003840BDE81EFF2FE1B89D0008BC9D00082D
:1013B80070402DE964609FE564509FE5066065E034
:1013C8004661B0E10040A0130500000A014084E234
:1013D800043095E40FE0A0E113FF2FE1040056E18B
:1013E800F9FFFF1A3C609FE53C509FE5066065E009
:1013F800D22100EB4661B0E10040A0130500000ACD
:10140800014084E2043095E40FE0A0E113FF2FE1EE
:10141800040056E1F9FFFF1A7040BDE81EFF2FE1F6
:10142800B09D0008B09D0008B89D0008B09D000858
:10143800030010E310402DE93700000A000052E3D2
:10144800012042E23200000AFFC001E20030A0E1C0
:10145800020000EA000052E3012042E22C00000AE8
:1014680001C0C3E4030013E3F9FFFF1A030052E3CA
:101478002000009AFFE001E20EE48EE10F0052E343
:101488000EE88EE11000009A0240A0E110C083E24D
:10149800104044E20F0054E310E00CE50CE00CE5CA
:1014A80008E00CE504E00CE510C08CE2F7FFFF8AC9
:1014B80010C042E20FC0CCE30F2002E210C08CE261
:1014C800030052E30C3083E00A00009A0340A0E1D5
:1014D80002C0A0E104C04CE203005CE304E084E441
:1014E800FBFFFF8A04C042E203C0CCE304C08CE2E5
:1014F8000C3083E0032002E2000052E30400000AFB
:10150800FF1001E2022083E00110C3E4020053E16E
:10151800FCFFFF1A1040BDE81EFF2FE10030A0E1DC
:10152800D1FFFFEAD0C09FE5F0412DE900409CE5DE
:1015380048C194E500005CE353CF840204E09CE5D5
:1015480048C184051F005EE30160A0E10050A0E1EE
:101558000280A0E10370A0E101108ED20F0000DA32
:1015680098309FE5000053E32100000A190EA0E31C
:1015780000F020E300C050E21D00000A0000A0E3D4
:101588000110A0E300E0A0E1483194E504008CE5F7
:1015980000308CE548C184E588018CE58C018CE538
:1015A800000055E30500001A0000A0E302E08EE207
:1015B80004108CE50E618CE7F041BDE81EFF2FE1B9
:1015C8000100A0E30E318CE0888083E588419CE52A
:1015D800102EA0E1020084E188018CE5087183E502
:1015E800020055E38C319C05022083018C218C0577
:1015F800ECFFFFEA0000E0E3EEFFFFEA7C9B000857
:101608000000000008402DE910309FE5000053E37A
:101618000C009F154BFFFF1B0840BDE81EFF2FE184
:101628000000000070130008144B1A6B42F002020D
:10163800F0B51A6389B01B6B044603F0020310B9B6
:101648000193019B01E00293029B0D4B00250D4F76
:1016580003A933F81460012357F8240004930323E3
:1016680003960693059500F04BFA57F82400314687
:101678002A4600F031FB09B0F0BD00BF0038024037
:10168800809B00082C040020044A034652F82000DE
:10169800034A32F81310012200F01EBB2C0400206C
:1016A800809B0008044A034652F82000034A32F897
:1016B8001310002200F010BB2C040020809B0008AF
:1016C8002DE9F041069D04460E46174698462268C5
:1016D800D0693040831B58425841B8421DD1691C1B
:1016E800F6D09DB9236803201A6822F4D0721A60D4
:1016F8009A6822F001029A60202384F8693084F8FD
:101708006A30002384F86830BDE8F08101F03CFBC2
:10171800C8EB0000A842DAD3E4E70020BDE8F08176
:1017280038B504460568C369A26821692868114369
:1017380062690A4342EA0301884A0240206A0A436E
:101748002A606A6822F44051E2680A43A1696A6023
:101758000143AA6822F430620A43AA60804A95428B
:1017680007D102F594327F49D2F8902002F00302A3
:1017780009E07D4A95420CD102F5FA327B49D2F84C
:10178800902002F00C02B3F5004F8A5C40F0B8805C
:1017980072E0774A95420DD102F5F832D2F89020DE
:1017A80002F03002102A00F086805DD9202A78D015
:1017B800302A0EE06F4A95420DD102F5F632D2F882
:1017C800902002F0C002402A75D04DD9802A68D0F6
:1017D800C02A7CD087E0684A95420FD102F5F432DE
:1017E800D2F8902002F44072B2F5807F63D03BD9E2
:1017F800B2F5007F55D0B2F5407FEAE75F4A9542DF
:1018080012D102F59232D2F8902002F44062B2F579
:10181800806F50D002D8002A3DD064E0B2F5006F46
:101828003FD0B2F5406FD4E7554A95420FD102F543
:10183800E032D2F8902002F44052B2F5805F3AD0FC
:1018480012D9B2F5005F2CD0B2F5405FC1E74D4A1E
:10185800954248D102F5DE32D2F8902002F4404297
:10186800B2F5804F27D001D87AB13CE0B2F5004FED
:1018780017D0B2F5404FACE7082A37D8DFE802F0B6
:10188800080E14361E3636362A00B3F5004F40D1FE
:1018980000F01EFE14E0B3F5004F3DD100F030FE1D
:1018A8000EE0B3F5004F3AD16068420802F1F473D4
:1018B80003F5904312E0B3F5004F39D100F01CFD59
:1018C80063685A0802EB4000B0FBF3F308E0B3F595
:1018D800004F37D16068430803F58033B3FBF0F35A
:1018E8009BB2002004E0B3F5004F35D1012000235E
:1018F80023F00F01C3F3420322680B43D36038BDC2
:10190800082A29D8DFE802F005080B281428282817
:101918001E0000F0DDFD0DE000F0F2FD0AE0616858
:101928004A0802F5740303F51053B3FBF1F30FE013
:1019380000F0E2FC636800EB5300B0FBF3F080B208
:10194800E86007E06268530803F50043B3FBF2F36D
:101958009BB2EB60002038BD012038BDF369FFEF72
:1019680000100140869B0008004400408A9B000844
:1019780000480040004C0040005000400014014066
:1019880000780040007C0040436ADA0710B506D5AD
:101998000468626822F40031826A0A4362609C0724
:1019A80006D50468626822F48031C26A0A4362601C
:1019B800590706D50468626822F48021026B0A433D
:1019C80062601A0706D50468626822F40041426B17
:1019D8000A436260DC0606D50468A26822F48051D6
:1019E800826B0A43A260990606D50468A26822F4AD
:1019F8000051C26B0A43A2605A0610D50168046CF4
:101A08004A68B4F5801F22F4801242EA04024A6050
:101A180005D14A6822F4C004426C22434A601B067E
:101A280006D501684B6823F40022836C13434B608E
:101A380010BD73B500260446C66601F0A5F92368F3
:101A480005461B681A0704D423681B685B071AD568
:101A58000DE06FF07E4320464FF4001132460093AC
:101A68002B46FFF72DFE0028EED0032013E06FF081
:101A78007E4320464FF48001002200932B46FFF757
:101A88001FFE0028F1D12023002084F8693084F853
:101A9800680084F86A3002B070BD10B5044660B3BF
:101AA80090F8693003F0FF021BB980F8682000F055
:101AB80017F922682423204684F86930136823F034
:101AC80001031360FFF72CFE012816D0636A13B1D7
:101AD8002046FFF759FF236820465A6822F49042AF
:101AE8005A609A6822F02A029A601A6842F0010243
:101AF800BDE810401A60FFF79CBF012010BD000030
:101B08002DE9F34100220F680123934003EA0705FA
:101B18009D4240F0D4804C6824F0100CBCF1020FB8
:101B280014D14FEAD20E02F007064FF00F0800EB6F
:101B38008E0EB600DEF8203008FA06F823EA080808
:101B48000B69B34048EA0303CEF820304FEA420E4F
:101B5800032306680CF1FF3C03FA0EF3BCF1010FF6
:101B68006FEA030303EA060804F0030606FA0EF612
:101B780048EA0606066011D8866803EA060CCE68AD
:101B880006FA0EF64CEA06068660466826EA050C52
:101B9800C4F3001696404CEA06064660C66803EA97
:101BA800060C8B6803FA0EF64CEA0603C360E300E2
:101BB80040F18580454B02F0030C5E6C4FEA8C0CBB
:101BC80046F480465E6422F003065B6C06F18046AC
:101BD80003F4804306F59C360193019B0F23D6F846
:101BE80008E003FA0CF32EEA030E394B984226D08C
:101BF80003F58063984224D003F58063984222D08D
:101C080003F58063984220D003F5806398421ED084
:101C180003F5806398421CD003F5806398421AD07C
:101C280003F58063984218D003F58063984216D074
:101C380003F5806398420CBF09230A2310E00023B0
:101C48000EE001230CE002230AE0032308E004234A
:101C580006E0052304E0062302E0072300E008234A
:101C680003FA0CF314F4803F43EA0E03DFF864E050
:101C7800B3606FEA0506DEF8003014BF2B4333402B
:101C880014F4003FCEF80030DEF80430DFF844E00A
:101C980014BF2B43334014F4801FCEF80430DEF811
:101CA800083014BF2B433340A402CEF80830DEF8C6
:101CB8000C3054BF06EA03051D43064BDD600132B4
:101CC800102A7FF421AF02B0BDE8F081003802404D
:101CD80000000240003C014002B9090481617047DC
:101CE80030B51F4CABB00125236B09A843F008039E
:101CF8002363236B03F008030193019B236B43F0D9
:101D080008032363236B1A9503F008030293029BCD
:101D18004023099300F06AFC236C04A943F4802350
:101D28002364236CA4F530540695072503F4802317
:101D3800204608950393039B4FF480730493022372
:101D4800059303230793FFF7DBFE4FF40073204648
:101D580004A908950493FFF7D3FE2BB030BD00BF4C
:101D680000380240074A00F00700D36823F4E06314
:101D78001B041B0C43F0BF6343F4003343EA002306
:101D8800D360704700ED00E0194BDB68C3F3022312
:101D980070B5C3F107051C1D042D28BF0425062CAA
:101DA8004FF001048CBF033B0023002804FA03F61C
:101DB80004FA05F404F1FF3406F1FF3601EA0401E0
:101DC80002EA060201FA03F142EA01024FEA0212AC
:101DD80005DA00F00F00D2B2064B1A5470BD00F1BC
:101DE8006040D2B200F5614080F8002370BD00BFAA
:101DF80000ED00E014ED00E00138B0F1807F0AD278
:101E0800064BF021064A5860002082F8231007226A
:101E180098601A6070470120704700BF10E000E02A
:101E280000ED00E008B50120FFF72EFCFEE708B53D
:101E38000120FFF729FCFEE708B50120FFF724FC85
:101E4800FEE708B50120FFF71FFCFEE708B50120F3
:101E5800FFF71AFCFEE708B50120FFF715FCFEE7BF
:101E680008B50120FFF710FCFEE708B50120FFF7D1
:101E78000BFCFEE700F080BF30B5012393B00224CD
:101E8800002506934FF4A02306A8099507934FF45D
:101E980080030C940D93082310940E934FF4D87379
:101EA8000F930923119300F089F800F067FB0F23C3
:101EB800072101A801934FF4A053029404934FF40F
:101EC80080530395059300F057FA13B030BD000016
:101ED80008B5BFF34F8FBFF36F8F334B0021C3F8A3
:101EE80050125A6942F400325A61BFF34F8FBFF360
:101EF8006F8FC3F88410BFF34F8FD3F88020C2F3DD
:101F08004E33C2F3C902590143F6E0740C4011463E
:101F180044EA8175244811F1FF31C0F86052F7D2C4
:101F280013F1FF33EFD2BFF34F8F436943F480338C
:101F38004361BFF34F8FBFF36F8F00F00BFF4FF478
:101F48001654FFF799FF0120FFF76EFB0020FFF7FB
:101F58006BFB0020FFF798FB642000F01BFF0020BC
:101F6800FFF7A0FB642000F015FF0020FFF78CFBB3
:101F78000E480F4B4FF4C06280E81800026100233E
:101F88000C228360C36083614261C361FFF785FDF2
:101F980018B10120FFF778FBFEE7064800F032FF92
:101FA800054800F02FFFF8E700ED00E000090020E9
:101FB80000480040979B0008E49B0008036873B53D
:101FC8000446D80703D42368990753D4A5E0984B4F
:101FD8009A6802F00C02042A07D09A6802F00C02F0
:101FE800082A0BD15B685A0208D5914B1B689B03E2
:101FF800E9D56368002BE6D1012078E162688C4B53
:10200800B2F5803F13D05AB91A6822F480321A60A8
:102018001A6822F480221A6000F0B6FE054624E011
:10202800B2F5A02F1A6806D142F480221A601A6805
:1020380042F4803205E022F480321A601A6822F4F1
:1020480080221A6000F0A0FE0546794B1B689E03AB
:10205800B9D400F099FE401B6428F6D9032046E164
:1020680000F092FE401B6428F8D8714B1B68980357
:10207800F6D4A8E76E4B9A6812F00C0F07D09A684E
:1020880002F00C02082A16D15B68590213D4684B77
:102098001A68920702D5E268012AADD11968F820BA
:1020A80090FAA0F02269B0FA80F021F0F80182409D
:1020B8000A431A6031E0E2685D4BEAB11A6842F0FF
:1020C80001021A6000F060FE0546594803689B0744
:1020D80005D400F059FE401B0228F6D9BEE7026875
:1020E800F82191FAA1F12369B1FA81F122F0F802FD
:1020F8008B401343036010E01A6822F001021A6053
:1021080000F042FE05464A4B1B689E0705D500F0C5
:102118003BFE401B0228F6D9A0E723681D0703D41D
:10212800236858074AD524E06269414B82B15A6F47
:1021380042F001025A6700F027FE05463C4B5B6FF0
:102148009907EDD400F020FE401B0228F6D985E758
:102158005A6F22F001025A6700F016FE0546344B0A
:102168005B6F9A07DCD500F00FFE401B0228F6D9FA
:1021780074E72F4B1A6C42F080521A641B6C2D4A7C
:1021880003F080530193019B136843F48073136039
:1021980000F0FAFD0546274B1B68DB0512D5A2683F
:1021A800234B012A14D11A6F42F001021A6700F07A
:1021B800EBFD05461E4B1B6F9E0724D5A169002920
:1021C8003AD179E000F0E0FD401B6428E3D945E707
:1021D8005AB91A6F22F001021A671A6F22F0040224
:1021E8001A6700F0D1FD05461DE0052A1A6F03D1D4
:1021F80042F004021A67D6E722F001021A671A6F42
:1022080022F00402D2E700F0BFFD41F28833401B00
:102218009842CFD922E700F0B7FD41F28833401B3E
:1022280098423FF61BAF024B1B6F9807F3D4C5E7E4
:1022380000380240007000402E4B9A6802F00C02F1
:10224800082A3FF4D9AE1A68022922F080721A606F
:1022580040D100F099FD05462648036899012DD420
:1022680047F6C07696FAA6F64FF44035B6FA86F6E3
:1022780095FAA5F54FF07061B5FA85F591FAA1F1D7
:10228800E369B1FA81F1226A1A43636AB3401A43D7
:10229800A36A5B08013BAB401343E26A8A401343DD
:1022A8004360036843F08073036000F06DFD0446EB
:1022B800104B1B689A0107D5002018E000F064FD58
:1022C800401B0228C8D9C9E600F05EFD001B0228A1
:1022D800EED9C3E600F058FD0446064B1B689B0187
:1022E800EAD500F051FD001B0228F6D9B6E602B087
:1022F80070BD00BF0038024010B51C4CA36803F045
:102308000C03042B2ED0082B2ED1626847F6C0711F
:1023180002F03F03626812F4800F626891FAA1F13B
:1023280047F6C070B1FA81F100EA020008BF104A0E
:1023380020FA01F016BF0F49B2FBF3F2B1FBF3F23A
:1023480002FB00F3094A50684FF4403292FAA2F2B5
:10235800B2FA82F200F44030D04001304000B3FBC2
:10236800F0F010BD034810BD014810BD0038024010
:102378000024F40000127A00514A136803F00F0396
:10238800994270B504460D460AD82168880713D5C6
:102398004C48836823F0F002A368134383600BE082
:1023A800136823F00F030B431360136803F00F0344
:1023B8008B42EAD0012070BDC90706D4404A136891
:1023C80003F00F039D4247D350E062683D4B012A5A
:1023D800196802D111F4003F06E0022A02D111F077
:1023E800007F01E011F0020FE4D0996821F00301A9
:1023F8000A439A6000F0C8FC63680646012B0ED1B8
:10240800304B9B6803F00C03042BD7D000F0BCFCC6
:1024180041F28833801B9842F2D9032070BD022B09
:1024280014D1284B9B6803F00C03082BC6D000F08E
:10243800ABFC41F28833801B9842F2D9EDE700F0FB
:10244800A3FC41F28833801B9842E6D81D4B9B6859
:1024580013F00C0FF3D1B1E7136823F00F032B43EC
:102468001360136803F00F03AB42A3D121684A0736
:1024780006D51448836823F4E052E3681343836065
:102488000B0707D50F4A2169936823F4604343EA91
:10249800C1039360FFF730FF0A4BF0229B6892FA62
:1024A800A2F2B2FA82F203F0F003D340064AD35CF8
:1024B800D840064B18600F2000F038FC002070BD93
:1024C800003C024000380240099C00083804002003
:1024D800084B4FF4E0529B6892FAA2F2B2FA82F2E9
:1024E80003F4E053D340044AD35C044A1068D8404C
:1024F800704700BF00380240199C000838040020CB
:10250800084B4FF460429B6892FAA2F2B2FA82F248
:1025180003F46043D340044AD35C044A1068D840AB
:10252800704700BF00380240199C0008380400209A
:102538000F490020D1F8883043F47003C1F888307F
:102548000C4B1A6842F001021A6098601A6822F06F
:10255800847222F480321A60074A5A601A6822F498
:1025680080221A60D8604FF000638B60704700BF0C
:1025780000ED00E00038024010300024194B1A6CBE
:1025880042F0805213B51A641B6C174A03F080534B
:102598000193019B136843F48033136000F0F4FB4C
:1025A8000446114B5A68D20307D400F0EDFB001B18
:1025B800B0F57A7FF5D9032012E01A6842F40032A8
:1025C8001A6000F0E1FB0446074B5B689B0306D4E6
:1025D80000F0DAFB001BB0F57A7FF5D9EBE70020B5
:1025E80002B010BD003802400070004003682DE9B9
:1025F800F34713F0010604460BD0B64A916821F45C
:1026080000019160466B91683143B6FA86F6760907
:10261800916013F4002512D0AE49E56BD1F88C20F7
:10262800B5F5801F22F4401208BF012642EA0502D0
:1026380016BFB5FA85F500256D09C1F88C20D902B9
:1026480011D5A448216CD0F88C20B1F5800F22F464
:10265800400242EA0102C0F88C2003D0002908BFDA
:10266800012500E0012613F0807F18BF01269A0695
:102678005DD5984B1A6C42F080521A641B6C964ACE
:1026880003F080530193019B136843F48073136034
:1026980000F07AFB0746904B1B68DB0506D400F078
:1026A80073FBC01B6428F6D9032038E3894B1A6FE3
:1026B80012F440720FD1226B02F44073B3F5407FDD
:1026C800844B2BD1996822F0704021F4F81120F442
:1026D8004070014325E0216B01F440718A42EAD041
:1026E8001A6F196F22F4407241F480311967196F1B
:1026F80021F4803119671A671B6FDF07DBD500F0FB
:1027080043FB0746734B1B6F9807D4D400F03CFB80
:1027180041F28833C01B9842F4D9C5E7996821F47F
:10272800F8119960C2F30B02196F0A431A672368FC
:10273800D9060CD5674AD2F88C1021F08071C2F8FE
:102748008C10D2F88C00A16B0143C2F88C105A048B
:1027580008D56048D0F8902022F44031626E0A43D0
:10276800C0F890201F0408D55A48D0F8902022F4C9
:102778004021A26E0A43C0F89020D80308D55548D6
:10278800D0F8902022F44011E26E0A43C0F890205D
:10279800990308D54F48D0F8902022F44001226FC1
:1027A8000A43C0F890205A0608D54A48D0F8902025
:1027B80022F00301626C0A43C0F890201F0608D576
:1027C8004448D0F8902022F00C01A26C0A43C0F8CB
:1027D8009020D80508D53F48D0F8902022F0300145
:1027E800E26C0A43C0F89020990508D53948D0F81A
:1027F800902022F0C001226D0A43C0F890205A05AB
:1028080008D53448D0F8902022F44071626D0A430C
:10281800C0F890201F0508D52E48D0F8902022F443
:102828004061A26D0A43C0F89020D80408D5294811
:10283800D0F8902022F44051E26D0A43C0F890206D
:10284800990408D52348D0F8902022F44041226EFC
:102858000A43C0F890205A0208D51E48D0F89020A4
:1028680022F08061A26F0A43C0F890209F020CD525
:102878001848E16FD0F89020B1F1006F22F00062A3
:1028880008BF01250A43C0F8902013F0080F18BFAD
:102898000125580308D50F48D0F8902022F0407140
:1028A800626F0A43C0F89020190209D50948D0F888
:1028B800902022F08051D4F880200A43C0F890205C
:1028C800012E0BD0B3F1007F08D0012D40F0888194
:1028D80021E100BF0038024000700040C64A13687A
:1028E80023F08063136000F04FFA0746C24E336846
:1028F8001A0105D500F048FAC01B6428F6D9D3E6BA
:102908002068C3073CD5636BD3BBD6F884204FF44B
:10291800403C9CFAACF84FF07061B8FA88F8D6F8E9
:10292800843091FAA1FE47F6C079BEFA8EFE99FA74
:10293800A9F9B9FA89F99CFAACFCBCFA8CFC91FAB1
:10294800A1F14FF0E04AB1FA81F19AFAAAFAA76820
:10295800BAFA8AFA02F4403203F0706307FA0AFA04
:10296800676822FA08F223FA0EF307FA09F902FA5D
:102978000CF28B404AEA09073A431343C6F88430FD
:10298800070303D5E36BB3F5801F05D0C60248D50E
:10299800236CB3F5800F44D1974E4FF4403CD6F8E2
:1029A80084209CFAACF84FF0E041B8FA88F8D6F8E1
:1029B800843091FAA1FE47F6C079BEFA8EFE99FAE4
:1029C800A9F9B9FA89F99CFAACFC4FF0706ABCFA1B
:1029D8008CFC9AFAAAFABAFA8AFA91FAA1F1E7688B
:1029E80002F4403203F0E043B1FA81F107FA0AFA3F
:1029F800676822FA08F223FA0EF307FA09F902FACD
:102A08000CF28B404AEA09073A431343C6F884306C
:102A1800D6F88C30626A23F01F03013A1343C6F8D4
:102A28008C30C1013BD5744E4FF0706CD6F88420C1
:102A38009CFAACF84FF0E041B8FA88F8D6F8843040
:102A480091FAA1FE47F6C079BEFA8EFE99FAA9F965
:102A58004FF4403AB9FA89F99AFAAAFABAFA8AFA0C
:102A68009CFAACFCBCFA8CFC91FAA1F1276902F043
:102A7800706203F0E043B1FA81F107FA0AFA676875
:102A880022FA08F223FA0EF307FA09F902FA0CF20D
:102A98008B404AEA09073A431343C6F88430820157
:102AA80026D547F6C07696FAA6F64FF44037B6FA1A
:102AB80086F697FAA7F74FF07060B7FA87F790FA9B
:102AC800A0F04FF0E041B0FA80F091FAA1F122694C
:102AD800B1FA81F102FA07F36268B2401A43E36877
:102AE80083401A43A3688B401343434AC2F8843097
:102AF800414A136843F08063136000F045F90646C5
:102B08003D4B1B681B013FF5E0AE00F03DF9801B13
:102B18006428F5D9C8E5384A136823F08053136050
:102B280000F032F90546344B1B689F005AD42168DF
:102B38000E035DD4CD0261D4880200F1A8800A0793
:102B480041D52D4D4FF07061D5F8883091FAA1F735
:102B58004FF44030B7FA87F7D5F8882090FAA0FCF0
:102B680047F6C07EBCFA8CFC9EFAAEFEBEFA8EFE1C
:102B780090FAA0F0B0FA80F091FAA1F14FF0E04895
:102B8800B1FA81F198FAA8F8E669B8FA88F802F477
:102B9800403203F0706306FA08F8666922FA0CF20C
:102BA800FB4006FA0EF682408B4048EA060632439E
:102BB8001343C5F88830D5F88C3023F44032E36AE3
:102BC8001343C5F88C300C4A136843F080531360E4
:102BD80000F0DAF80446084B1B689B0040F1988027
:102BE80000209CE000F0D0F8401B64289BD95BE5EE
:102BF800E36B33B19EE700BF00380240236C002B23
:102C08009AD1484D4FF4403ED5F888209EFAAEF848
:102C18004FF0E040B8FA88F8D5F8883090FAA0F775
:102C280047F6C07CB7FA87F79CFAACFCBCFA8CFC78
:102C38009EFAAEFE4FF07069BEFA8EFE99FAA9F9B7
:102C4800B9FA89F990FAA0F0A66902F4403203F0C3
:102C5800E043B0FA80F006FA09F9666922FA08F248
:102C6800FB4006FA0CFC02FA0EF2834049EA0C0615
:102C780032431343C5F88830D5F88C30A26A23F460
:102C8800F853013A43EA0223C5F88C3054E7E36F5E
:102C9800B3F1006F7FF453AF224D4FF0706ED5F84B
:102CA80088209EFAAEF84FF0E040B8FA88F8D5F8D8
:102CB800883090FAA0F747F6C07CB7FA87F79CFAF5
:102CC800ACFC4FF44039BCFA8CFC99FAA9F9B9FA72
:102CD80089F99EFAAEFEBEFA8EFE90FAA0F0266A38
:102CE80002F0706203F0E043B0FA80F006FA09F9E6
:102CF800666922FA08F2FB4006FA0CFC02FA0EF2A8
:102D0800834049EA0C0632431343C5F8883016E776
:102D180000F03AF8001B64287FF65DAFC4E402B007
:102D2800BDE8F0870038024070470000084B10B536
:102D3800044618684FF47A73B0FBF3F0FFF75CF8B9
:102D48004FF0FF3021460022FFF71EF8002010BD8B
:102D580038040020074A032008B5136843F40073B9
:102D68001360FEF7FFFF0F20FFF7E0FFFFF7DCFF20
:102D7800002008BD003C0240024A1368013313607A
:102D8800704700BF70090020014B1868704700BFEA
:102D98007009002013B50190FFF7F6FF0446FFF70E
:102DA800F3FF019B001B9842F9D302B010BD00004D
:102DB800DFF834D0002103E00C4B5B58435004315A
:102DC8000B480C4B42189A42F6D30B4A02E00023F8
:102DD80042F8043B094B9A42F9D3FFF7A9FBFEF7E7
:102DE800E7FAFFF775F8704700000520BC9D00085A
:102DF80000000020AC080020AC0800207809002062
:102E0800FEE700000F002DE904E02DE52C309FE5DA
:102E18000CD04DE2000093E514C08DE2081090E557
:102E28000C30A0E110209DE504C08DE5040000EB06
:102E38000CD08DE204E09DE410D08DE21EFF2FE15E
:102E480028040020F04F2DE941DF4DE20340A0E1C6
:102E58001C108DE520208DE50050A0E124008DE5B3
:102E6800DC1000EB003090E50300A0E154308DE564
:102E7800401600EB000055E358008DE530408DE525
:102E88000200000A383095E5000053E3D300000A39
:102E98001C309DE5BC20D3E1020A12E30230A0E118
:102EA8000600001A022A82E30230A0E11C009DE518
:102EB800641090E5021AC1E3BC20C0E1641080E50B
:102EC800080013E39500000A1C209DE5102092E5F8
:102ED800000052E39100000A1A3003E20A0053E3AB
:102EE8009800000A0030A0E3C0A08DE248308DE5CC
:102EF8005C308DE564308DE528308DE54C308DE50E
:102F080050308DE594308DE590308DE58CA08DE5C1
:102F1800949F9FE520209DE50030D2E5250053E3EE
:102F280000005313B000000A0130F2E5250053E316
:102F380000005313FBFFFF1A20109DE5015052E0DB
:102F48000240A0E10C00000A90309DE594209DE528
:102F5800013083E2070053E3052082E022008AE87B
:102F680090308DE594208DE508A08AD2850000CAAE
:102F780028309DE5053083E028308DE50030D4E524
:102F8800000053E38700000A0030A0E30070E0E38C
:102F98000320A0E16F30CDE52C308DE518308DE5AC
:102FA8000160D4E5011084E2013081E2201046E29C
:102FB800580051E301F19F97570200EA383800089A
:102FC800243900082439000850380008243900083A
:102FD8002439000824390008243900082439000855
:102FE80024390008FC38000868380008243900082B
:102FF800E0330008903400082439000878380008C5
:103008009038000890380008903800089038000878
:103018009038000890380008903800089038000868
:103028009038000824390008243900082439000899
:1030380024390008243900082439000824390008F4
:10304800243900082439000824390008B435000858
:103058000036000824390008003600082439000822
:10306800243900082439000824390008B03600083B
:103078002439000824390008C83600082439000813
:1030880024390008243900082439000824390008A4
:103098000C37000824390008243900085037000884
:1030A8002439000824390008243900082439000884
:1030B8002439000824390008243900082439000874
:1030C8002439000824390008B8370008D434000827
:1030D800003600080036000800360008843500086D
:1030E800D43400082439000824390008243500089D
:1030F8002439000850350008F8330008B8380008AB
:103108009C350008243900082834000824390008B0
:10311800FC3100082439000824390008F837000871
:1031280024009DE51C109DE5920700EB000050E38C
:103138001000001A1C309DE5BC30D3E11A3003E2C0
:103148000A0053E366FFFF1A1C309DE5FE30D3E109
:10315800000053E362FFFFBA1C108DE224009DE5D6
:10316800060091E80430A0E1570700EB41DF8DE24B
:10317800F04FBDE81EFF2FE10000E0E341DF8DE2E4
:10318800F04FBDE81EFF2FE124009DE51C109DE5D2
:103198008C208DE2BA1500EB000050E30700001AFE
:1031A800C0A08DE271FFFFEA94309DE5000053E373
:1031B80024009D151C109D158C208D12B015001B28
:1031C8001C309DE5BC30D3E1400013E3E9FFFF1A52
:1031D80028009DE541DF8DE2F04FBDE81EFF2FE19D
:1031E80024009DE5DC0E00EB28FFFFEA20409DE56A
:1031F80061FFFFEA20308DE518309DE5200013E3DC
:103208004601000A30309DE5073083E20730C3E30A
:10321800082083E230208DE50120A0E3300093E808
:103228000030A0E30380A0E140708DE56F30CDE56C
:10323800000057E318309DA58030C3A318308DA532
:10324800053094E10130A0130030A003000057E3DB
:1032580001308313000053E3BF02000A010052E368
:10326800D203000A020052E38103001A5C009DE5C4
:10327800C0B08DE22432A0E1053E83E12512A0E131
:103288000F2004E20150A0E10340A0E10230D0E7A2
:10329800052094E101306BE5F5FFFF1AC0208DE2AF
:1032A8003CB08DE502506BE00030A0E3070055E12B
:1032B8000570A0A144308DE5000058E30000000A25
:1032C800017087E218309DE5023013E234308DE555
:1032D80018309DE502708712843013E238308DE58E
:1032E800A401001A2C309DE503B067E000005BE301
:1032F800A00100DA10005BE30E0600DAA08B9FE560
:103308000830A0E160608DE50A00A0E10780A0E137
:1033180005A0A0E10B70A0E11040A0E394109DE58A
:1033280090209DE524509DE51C609DE503B0A0E13B
:10333800020000EA107047E2100057E3140000DAB8
:10334800012082E2583B9FE5070052E3101081E21A
:10335800180080E890208DE594108DE5080080D253
:10336800F3FFFFDA0500A0E10610A0E18C208DE252
:10337800431500EB000050E390FFFF1A107047E27E
:10338800100057E3C0008DE294109DE590209DE564
:10339800EAFFFFCA0B30A0E10A50A0E107B0A0E1A4
:1033A80000A0A0E10870A0E10380A0E160609DE5B5
:1033B800012082E201408BE0070052E390208DE576
:1033C80094408DE500098AE8620100CA08A08AE2F3
:1033D8006F80DDE5680100EA0310A0E118009DE5B3
:1033E800040080E318008DE50060D3E5EDFEFFEAF8
:1033F80020308DE518309DE5205013E2B600000A14
:1034080030309DE5073083E20730C3E3082083E2CC
:1034180030208DE5300093E80020A0E37FFFFFEA2D
:103428000040A0E320308DE530309DE5002093E595
:10343800040052E10750A0E13C208DE56F40CDE546
:10344800047083E2D405000A000055E33C009DE5C2
:10345800B00500BA0410A0E10520A0E18E1100EB30
:10346800000050E31806000A3C209DE5005062E089
:1034780030708DE540408DE5C57FC5E144408DE560
:103488006F80DDE58BFFFFEA0060D3E52A0056E395
:10349800011083E27A06000A300046E2090050E390
:1034A8000130A0E10070A0E3BFFEFF8A0160D3E411
:1034B800077187E0877080E0300046E2090050E33A
:1034C800F9FFFF9AC77F87E1B7FEFFEA20308DE555
:1034D80018309DE5200013E36F20CDE53A00000A7F
:1034E80030309DE5073083E20730C3E3030093E8FB
:1034F8000040A0E10150A0E1083083E230308DE5C2
:10350800000050E30030D1E2200400BA6F80DDE50E
:1035180040708DE50120A0E344FFFFEA0060D3E599
:1035280018109DE56C0056E32010810310108113DC
:1035380018108D0518108D15011083020160D30530
:103548000310A01197FEFFEA20308DE518309DE5A5
:10355800200013E36F20CDE57204000A30309DE5AA
:1035680028209DE5001093E5043083E230308DE596
:10357800C23FA0E10C0081E865FEFFEA18109DE556
:10358800401081E318108DE50310A0E10060D3E539
:1035980084FEFFEA18109DE5201081E318108DE5E0
:1035A8000310A0E10060D3E57EFEFFEA20308DE540
:1035B80018309DE5103083E318308DE518309DE50F
:1035C800200013E36F20CDE5C4FFFF1A18309DE5F6
:1035D800100013E36704000A30309DE5004093E5CE
:1035E800C45FA0E1043083E230308DE50400A0E13F
:1035F8000510A0E1C1FFFFEA20308DE518309DE5F8
:10360800080013E330309DE5073083E26F20CDE5F5
:103618000730C3E36A04000A082083E230208DE5FE
:10362800002093E5043093E54C208DE550308DE57E
:103638004C008DE2030090E8EE1300EB010050E32C
:103648004C008DE2030090E8D703001A0030A0E395
:103658000020A0E31AF6FFEB000050E32D30A01382
:103668000380A0116F30CD150030A0E30320A0E146
:1036780040308DE508389FE56F80DD05470056E34B
:1036880000B89FE50370A0E303B0A0D118109DE532
:103698008010C1E318108DE50750A0E144208DE5A6
:1036A8003CB08DE503FFFFEA18109DE5081081E3A3
:1036B80018108DE50310A0E10060D3E539FEFFEA9C
:1036C80020308DE518309DE5103083E318308DE506
:1036D80018309DE5205013E248FFFF1A18309DE589
:1036E800103013E22904000A30309DE5004093E5CC
:1036F800043083E20520A0E130308DE50050A0E3DE
:10370800C6FEFFEA20308DE518309DE5103083E3D2
:1037180018308DE518309DE5200013E3B8FEFF1A38
:1037280018309DE5100013E33804000A30309DE599
:10373800004093E5043083E20120A0E330308DE5BA
:103748000050A0E3B5FEFFEA20308DE538379FE54D
:103758005C308DE518309DE5200013E36F20CDE542
:103768002900000A30309DE5073083E20730C3E3C3
:10377800082083E230208DE5300093E818309DE57D
:10378800010013E34C02000A053094E14A02000AE2
:103798003030A0E318209DE5022082E318208DE553
:1037A8007160CDE57030CDE50220A0E39BFEFFEA15
:1037B80020308DE50030A0E30170A0E330109DE5D6
:1037C8000380A0E1002091E56F30CDE540308DE524
:1037D80044308DE5043081E230308DE598308DE25B
:1037E8009820CDE50750A0E13C308DE5B4FEFFEA16
:1037F80020308DE594369FE55C308DE518309DE5E9
:10380800200013E36F20CDE5D5FFFF1A18309DE5A2
:10381800100013E3F103000A30309DE5004093E502
:10382800043083E230308DE50050A0E3D2FFFFEA98
:10383800000052E3B803001A0060D3E50310A0E1CA
:103848002020A0E3D7FDFFEA18109DE5011081E3D1
:1038580018108DE50310A0E10060D3E5D1FDFFEA63
:103868000060D3E50310A0E12B20A0E3CDFDFFEA23
:1038780018109DE5801081E318108DE50310A0E174
:103888000060D3E5C7FDFFEA0010A0E3300046E280
:103898000160D3E4011181E0811080E0300046E24C
:1038A800090050E3F9FFFF9A2C108DE5BEFDFFEAF1
:1038B80020308DE53030A0E37860A0E318209DE546
:1038C80030109DE5022082E37030CDE5BC359FE5E0
:1038D80018208DE5042081E230208DE5004091E537
:1038E8000050A0E37160CDE55C308DE50220A0E3D7
:1038F8004AFEFFEA30109DE5000091E5000050E324
:103908002C008DE5041081E2370400BA30108DE5F3
:103918000310A0E10060D3E5A2FDFFEA000056E332
:1039280020308DE56F20CDE51EFEFF0A0030A0E3B4
:103938000170A0E30380A0E16F30CDE540308DE554
:1039480044308DE598308DE29860CDE50750A0E1D0
:103958003C308DE55AFEFFEA24009DE51C109DE5EC
:103968008C208DE2C61300EB000050E313FEFF1A13
:103978006F80DDE5C0A08DE294409DE5000058E32E
:103988000B00000A0120A0E390309DE5023083E09F
:10399800070053E3024084E090308DE56F308DE2FC
:1039A80004208AE500308AE594408DE508A08AD293
:1039B800920100CA34309DE5000053E30B00000A71
:1039C8000220A0E390309DE5013083E2070053E335
:1039D800024084E090308DE570308DE204208AE565
:1039E80000308AE594408DE508A08AD27A0100CAA1
:1039F80038309DE5800053E3E300000A40309DE540
:103A0800038065E0000058E3380000DA100058E34E
:103A1800880300DA90249FE538608DE534208DE531
:103A28000860A0E10420A0E10580A0E110B0A0E3B7
:103A380090309DE524409DE51C509DE5020000EA7C
:103A4800106046E2100056E3130000DA013083E20A
:103A5800070053E3102082E2000A8AE890308DE5DF
:103A680094208DE508A08AD2F4FFFFDA0400A0E1D3
:103A78000510A0E18C208DE2811300EB000050E3DB
:103A8800CEFDFF1A106046E2100056E3C0A08DE29A
:103A980094209DE590309DE5EBFFFFCA0240A0E130
:103AA8000850A0E10680A0E138609DE5013083E27E
:103AB800070053E390308DE534309DE5084084E0FD
:103AC80008018AE894408DE508A08AD2070000DA48
:103AD80024009DE51C109DE58C208DE2681300EB09
:103AE800000050E3B5FDFF1A94409DE5C0A08DE2AB
:103AF80018309DE5010C13E34D00001A90309DE548
:103B08003C209DE5013083E2054084E0070053E353
:103B180094408DE524008AE890308DE54B0100CA79
:103B280008A08AE218309DE5040013E33400000A77
:103B38002C309DE5035067E0000055E3300000DAC3
:103B4800100055E31E0400DA0420A0E11060A0E391
:103B580090309DE548839FE524B09DE51C409DE598
:103B6800020000EA105045E2100055E3140000DAA4
:103B7800013083E228139FE5070053E3102082E217
:103B880042008AE890308DE594208DE508A08AD21D
:103B9800F3FFFFDA0B00A0E10410A0E18C208DE216
:103BA800371300EB000050E384FDFF1A105045E284
:103BB800100055E3C0A08DE294209DE590309DE56E
:103BC800EAFFFFCA0240A0E1013083E2054084E039
:103BD800070053E390308DE594408DE500808AE539
:103BE80004508AE5060000DA24009DE51C109DE5D6
:103BF8008C208DE2221300EB000050E36FFDFF1ACA
:103C080094409DE528309DE52C209DE5020057E174
:103C1800073083A0023083B0000054E328308DE5DC
:103C2800E200001A0030A0E3C0A08DE290308DE5DC
:103C3800B7FCFFEA650056E39C0000DA4C008DE211
:103C4800030090E80020A0E30030A0E396F4FFEB27
:103C5800000050E31A01000A0120A0E390309DE51E
:103C68002C129FE5023083E0024084E0070053E312
:103C780000108AE504208AE594408DE590308DE5B2
:103C880008A08AD2EF0200CA74309DE548209DE55D
:103C9800020053E1020000BA18309DE5010013E369
:103CA8009FFFFF0A90309DE558209DE5013083E293
:103CB80054109DE5024084E0070053E306008AE8BB
:103CC80094408DE590308DE508A08AD24C0300CA57
:103CD80048309DE5015043E2000055E390FFFFDACC
:103CE800100055E3CE0000DABC219FE51060A0E388
:103CF80090309DE534208DE524809DE51CB09DE540
:103D0800020000EA105045E2100055E3C70000DA4F
:103D1800013083E2070053E3104084E200908AE513
:103D280004608AE590308DE594408DE508A08AD23C
:103D3800F3FFFFDA0800A0E10B10A0E18C208DE270
:103D4800CF1200EB000050E31CFDFF1A90308DE20B
:103D5800C0A08DE2180093E8E9FFFFEA000052E3F3
:103D68009900001A18309DE5010013E31901000AB3
:103D78003030A0E301BC8DE241306BE5C0308DE20C
:103D880003506BE03CB08DE546FDFFEA2C309DE525
:103D9800038067E0000058E317FFFFDA100058E3DC
:103DA800C50300DA00219FE538608DE534208DE5F4
:103DB8000860A0E10420A0E10580A0E110B0A0E324
:103DC80090309DE524409DE51C509DE5020000EAE9
:103DD800106046E2100056E3130000DA013083E277
:103DE800070053E3102082E2000A8AE890308DE54C
:103DF80094208DE508A08AD2F4FFFFDA0400A0E140
:103E08000510A0E18C208DE29D1200EB000050E32C
:103E1800EAFCFF1A106046E2100056E3C0A08DE2EB
:103E280094209DE590309DE5EBFFFFCA0240A0E19C
:103E38000850A0E10680A0E138609DE5013083E2EA
:103E4800070053E390308DE534309DE5084084E069
:103E580008018AE894408DE508A08AD2E6FEFFDAD8
:103E680024009DE51C109DE58C208DE2841200EB5A
:103E7800000050E3D1FCFF1AC0A08DE294409DE5FC
:103E8800DDFEFFEA349C0008389C0008449C0008CA
:103E9800589C0008749C00083C9C0008409C000842
:103EA8006C9C0008789C000867666666249C00087D
:103EB80048309DE5010053E3560100DA0130A0E3E4
:103EC80090509DE53C209DE5035085E0034084E04B
:103ED800070055E300208AE504308AE594408DE523
:103EE80090508DE508A08AD2620100CA58309DE53D
:103EF800015085E254209DE5070055E3034084E026
:103F08000C008AE890508DE594408DE508A08AD28F
:103F1800620100CA4C008DE2030090E80020A0E393
:103F28000030A0E3E0F3FFEB000050E3AD00001A1F
:103F380048309DE53C209DE5015085E2013043E293
:103F480001B082E2034084E0070055E390508DE51C
:103F580000B08AE594408DE504308AE5630100CA23
:103F680008A08AE264209DE5015085E2024084E0D1
:103F78007C308DE2070055E390508DE594408DE547
:103F880004208AE500308AE5E4FEFFDA24009DE596
:103F98001C109DE58C208DE2391200EB000050E3E7
:103FA80086FCFF1AC0A08DE294409DE5DCFEFFEA86
:103FB80024009DE51C109DE58C208DE2301200EB5D
:103FC800000050E316FFFF0A7CFCFFEA0350A0E163
:103FD800C0308DE23C308DE5B2FCFFEA24009DE55F
:103FE8001C109DE58C208DE2251200EB000050E3AB
:103FF80072FCFF1AC0A08DE294409DE57BFEFFEAAB
:1040080024009DE51C109DE58C208DE21C1200EB20
:10401800000050E369FCFF1AC0A08DE294409DE5C2
:1040280063FEFFEA80211FE590309DE534208DE591
:10403800013083E290308DE5070053E334309DE58D
:10404800054084E094408DE528008AE8B3FEFFDA55
:1040580024009DE51C109DE58C208DE2081200EBE4
:10406800000050E355FCFF1A94409DE5C0A08DE286
:10407800ABFEFFEAC0108DE2A421A0E1852E82E10B
:10408800A501A0E1073004E20050A0E10240A0E150
:10409800303083E2052094E1013061E5F5FFFF1A35
:1040A80018209DE5010012E33C108DE52B01001A54
:1040B800C0308DE2035061E07AFCFFEA0220A0E301
:1040C80056FCFFEA74509DE5000055E3E60100DA6E
:1040D80044208DE20C0092E8020053E10250A0A1B6
:1040E8000350A0B13C209DE5000055E3038082E029
:1040F800080000DA90309DE5013083E2054084E055
:10410800070053E324008AE894408DE590308DE55C
:1041180008A08AD28B0200CA44309DE5000055E30E
:10412800033065A0000053E30350A0E1650000DA06
:10413800100053E3390300DA94221FE51060A0E36E
:1041480034208DE590309DE50420A0E124B09DE564
:104158001C409DE5020000EA105045E2100055E3BE
:10416800460000DA013083E2070053E3102082E2C0
:1041780000908AE504608AE590308DE594208DE50D
:1041880008A08AD2F3FFFFDA0B00A0E10410A0E137
:104198008C208DE2BA1100EB000050E307FCFF1AF7
:1041A800C0A08DE294209DE590309DE5E9FFFFEAEF
:1041B800000055E309005403D600008A01BC8DE2D3
:1041C800304084E241406BE5C0308DE203506BE043
:1041D8003CB08DE533FCFFEAC0308DE20250A0E12F
:1041E8003C308DE52FFCFFEA48309DE5016043E255
:1041F800000056E35AFFFFDA100056E358331FD584
:1042080034308DD5B10000DA64331FE538708DE5A0
:104218001080A0E30670A0E134308DE524B09DE560
:104228001C609DE5020000EA107047E2100057E3A9
:10423800A40000DA015085E2070055E3104084E24B
:1042480000908AE504808AE590508DE594408DE5DC
:1042580008A08AD2F3FFFFDA0B00A0E10610A0E164
:104268008C208DE2861100EB000050E3D3FBFF1A8F
:10427800C0A08DE294409DE590509DE5E9FFFFEADE
:104288000240A0E1013083E2070053E390308DE55E
:1042980034309DE5054084E028008AE894408DE5A7
:1042A80008A08AD2070000DA24009DE51C109DE5CD
:1042B8008C208DE2721100EB000050E3BFFBFF1A67
:1042C80094409DE5C0A08DE248309DE574509DE581
:1042D80044209DE5030055E13C309DE502B083E0B4
:1042E800370000BA18309DE5010013E33400001AC6
:1042F80048309DE508806BE0035065E0080055E113
:104308000560A0B10860A0A1000056E3090000DA2A
:1043180090309DE5013083E2064084E0070053E3D6
:1043280000B08AE504608AE594408DE590308DE51B
:1043380008A08AD20C0200CA000056E3055066A005
:10434800000055E3F6FDFFDA100055E334FFFFDA0D
:10435800AC241FE51060A0E390309DE534208DE586
:1043680024809DE51CB09DE5020000EA105045E25E
:10437800100055E32DFFFFDA013083E2070053E315
:10438800104084E200908AE504608AE590308DE56B
:1043980094408DE508A08AD2F3FFFFDA0800A0E177
:1043A8000B10A0E18C208DE2351100EB000050E3EA
:1043B80082FBFF1A90308DE2C0A08DE2180093E8CE
:1043C800E9FFFFEA90309DE558209DE5013083E242
:1043D80054109DE5024084E0070053E306008AE894
:1043E80094408DE590308DE508A08AD2BFFFFFDAB2
:1043F80024009DE51C109DE58C208DE2201100EB2A
:10440800000050E36DFBFF1AC0A08DE274509DE5DB
:1044180094409DE5B5FFFFEA18309DE5010013E3E0
:10442800A5FEFF1A0130A0E390509DE53C209DE5D4
:10443800035085E0034084E0070055E394408DE590
:1044480000208AE590508DE504308AE5C3FEFFDA46
:1044580024009DE51C109DE58C208DE2081100EBE1
:10446800000050E355FBFF1AC0A08DE294409DE583
:1044780090509DE5BAFEFFEA24009DE51C109DE5DD
:104488008C208DE2FE1000EB000050E34BFBFF1A7E
:10449800C0A08DE294409DE590509DE592FEFFEA14
:1044A80024009DE51C109DE58C208DE2F41000EBA6
:1044B800000050E341FBFF1AC0A08DE294409DE547
:1044C80090509DE592FEFFEA0760A0E138709DE5F7
:1044D800015085E234309DE5064084E0070055E34D
:1044E80090508DE594408DE548008AE89BFEFFDA00
:1044F80024009DE51C109DE58C208DE2E01000EB6A
:10450800000050E32DFBFF1A94409DE590509DE577
:10451800C0A08DE292FEFFEAC0B08DE20400A0E1E7
:104528000510A0E10A20A0E30030A0E393F2FFEB1E
:10453800302082E20400A0E10510A0E101206BE533
:104548000030A0E30A20A0E38CF2FFEB0040A0E1DA
:104558000150A0E1053094E1EFFFFF1A4EFBFFEA9E
:10456800300053E33030A0133C209D153C209D05BE
:1045780001204212C0308D02C0008D12035062002B
:104588003C208D15005062100130411545FBFFEAB3
:104598002D80A0E3004074E20050E5E26F80CDE595
:1045A80040708DE50120A0E320FBFFEA111000EB2D
:1045B800000050E3F000000A010077E32080C6E322
:1045C8000670A0031701000A470058E300005703CC
:1045D8001401001A50309DE500B053E218309DE5F3
:1045E800013C83E34780A0E30170A0E338308DE508
:1045F800FA0100BA0030A0E34C509DE534308DE557
:104608000200A0E374108DE281008DE808108DE5AA
:1046180078008DE284108DE20C008DE50520A0E184
:104628000B30A0E110108DE524009DE51F0300EB81
:10463800470058E33C008DE51F02001A18309DE53D
:10464800010013E3F301000A3C309DE5074083E0D5
:104658000030A0E30500A0E10B10A0E10020A0E3DA
:1046680011F2FFEB000050E30430A0110900001A1A
:1046780084309DE5030054E10600009A3010A0E361
:10468800012083E284208DE50010C3E584309DE598
:10469800030054E1F9FFFF8A3C209DE5470058E3F9
:1046A800033062E048308DE574309DE57301001AEF
:1046B800030073E3030057A1026046B2880100BA01
:1046C8006760A0E344308DE544208DE20C0092E859
:1046D800020053E1C70100CA18309DE5010013E349
:1046E8000250A0010530A00144309D1501508312ED
:1046F800C33FC301C53FC51134209DE5000052E307
:104708005601001A0370A0E138309DE540208DE580
:1047180018308DE56F80DDE5E6FAFFEA0310A0E1C9
:104728000060D3E51FFAFFEA18309DE5100013E397
:104738000900001A18309DE5400013E30600000A3E
:1047480030209DE5003092E5042082E230208DE59E
:10475800B822DDE1B020C3E1EDF9FFEA30209DE5A4
:10476800003092E5042082E230208DE528209DE586
:10477800002083E5E6F9FFEA18309DE5400013E3E1
:1047880030309DE57500000AF040D3E193FBFFEA65
:1047980018209DE5402012E230109D150120A0113F
:1047A800B040D2110320A0110130A01130309D0576
:1047B80000409305043083E230308DE50050A0E3DB
:1047C80096FAFFEA002093E54C208DE5042093E556
:1047D800083083E250208DE530308DE593FBFFEA09
:1047E80018309DE5400013E330309DE5B040D3110B
:1047F80000409305043083120430830230308D1555
:104808000050A0130050A00330308D05DAFBFFEAFA
:1048180018309DE5400013E330309DE5C3FBFF0AE7
:10482800B040D3E1043083E20120A0E330308DE5CD
:104838000050A0E379FAFFEA94291FE590309DE53E
:1048480034208DE598FCFFEA24009DE51C109DE5C9
:104858008C208DE20A1000EB000050E357FAFF1A93
:10486800C0A08DE294409DE506FDFFEA0120A0E38B
:1048780090309DE5E8191FE5023083E0024084E0AE
:10488800070053E300108AE504208AE594408DE58B
:1048980090308DE508A08AD2490000CA48309DE5CD
:1048A800033095E14200000A90309DE558209DE5CF
:1048B800013083E254109DE5024084E0070053E391
:1048C80006008AE894408DE590308DE508A08AD2EC
:1048D800370100CA005065E2000055E3820000DAA3
:1048E800100055E3402A1FD534208DD56C0000DA1E
:1048F8004C2A1FE51060A0E334208DE524809DE557
:104908001CB09DE5020000EA105045E2100055E396
:10491800630000DA013083E2070053E3104084E2C9
:1049280000908AE504608AE590308DE594408DE535
:1049380008A08AD2F3FFFFDA0800A0E10B10A0E17B
:104948008C208DE2CE0F00EB000050E31BFAFF1A1B
:1049580090308DE2C0A08DE2180093E8E9FFFFEAED
:10496800004093E5043083E2C45FA0E10400A0E1C5
:104978000510A0E130308DE5E0FAFFEAEC3A1FE5DA
:10498800470056E3F0BA1FE50370A0E303B0A0D1D7
:1049980018109DE58010C1E340008DE518108DE5E5
:1049A80044008DE50750A0E13CB08DE56F80DDE562
:1049B80040FAFFEA18309DE5010013E358FCFF0AAE
:1049C800B8FFFFEA24009DE51C109DE58C208DE2D0
:1049D800AB0F00EB000050E3F8F9FF1AC0A08DE21E
:1049E80074509DE594409DE5ABFFFFEA2C009DE5E2
:1049F800000060E230108DE52C008DE50310A0E189
:104A080075FAFFEA24009DE51C109DE58C208DE2D7
:104A18009B0F00EB000050E3E8F9FF1AC0A08DE2FD
:104A280094409DE5A9FCFFEA50309DE500B053E2B3
:104A380018309DE5013C83E338308DE5E70000BA86
:104A48000030A0E34C509DE534308DE5460058E336
:104A58005E00000A450058E3E8FEFF1A0200A0E3E2
:104A680074108DE200008DE508108DE578008DE268
:104A780084108DE2014087E20C008DE50520A0E15D
:104A88000B30A0E104408DE510108DE524009DE574
:104A9800060200EB3C008DE53C309DE5044083E0D8
:104AA800EAFEFFEA013083E234209DE5070053E384
:104AB800054084E024008AE890308DE594408DE537
:104AC80008A08AD2080000DA24009DE51C109DE5A4
:104AD8008C208DE26A0F00EB000050E3B7F9FF1A53
:104AE80090308DE2180093E8C0A08DE2013083E297
:104AF80048209DE5070053E390308DE53C309DE567
:104B0800024084E094408DE500308AE504208AE57F
:104B180002FCFFDA4DFDFFEA40408DE5150F00EB82
:104B280030708DE50050A0E1C07FC0E144408DE5C4
:104B38006F80DDE5DFF9FFEA94109DE590209DE5A3
:104B4800A48C1FE519FAFFEA24009DE51C109DE5D9
:104B58008C208DE24A0F00EB000050E397F9FF1A12
:104B6800C0A08DE294409DE56AFDFFEA24009DE522
:104B78001C109DE58C208DE2410F00EB000050E3F6
:104B88008EF9FF1A74509DE548309DE594409DE5E7
:104B9800035065E0C0A08DE2E6FDFFEA060055E39C
:104BA8000650A0230C3D1FE530708DE50280A0E182
:104BB800C57FC5E140208DE544208DE53C308DE57D
:104BC800BCF9FFEA90309DE52C8D1FE5FDFBFFEA5F
:104BD80003E0A0E374C08DE284108DE278008DE2DA
:104BE8000520A0E10B30A0E100E08DE508C08DE5CF
:104BF8000C008DE510108DE504708DE524009DE511
:104C0800AA0100EB0040A0E100C0D4E530E04CE28E
:104C180000C07EE20EC0ACE03C008DE50030A0E3B1
:104C28000500A0E10B10A0E10020A0E340C08DE545
:104C38009DF0FFEB000050E3074084E00130A0E363
:104C480040C09DE50030A01303001CE174309D05B1
:104C58000130671274308D15034084E07BFEFFEA53
:104C68000370A0E138309DE52D80A0E318308DE574
:104C78000030A0E36F80CDE540308DE58FF9FFEA85
:104C8800650056E3160000DA660056E344308DE509
:104C98008CFEFF1A000053E36F0000DA000057E3B0
:104CA8006800001A18309DE5010013E36500001A3A
:104CB80044509DE5C53FC5E18EFEFFEA182E1FE56D
:104CC80090309DE534208DE55BFCFFEA30708DE582
:104CD80040008DE544008DE56F80DDE5C57FC5E1C9
:104CE80074F9FFEA013043E2000053E32D20A0B33A
:104CF8002B20A0A374308DE5003063B2090053E384
:104D08007C60CDE57D20CDE5480000DA8B008DE2A2
:104D18000010A0E174CE1FE5932CCCE0C32FA0E1D6
:104D28004CC162E00C218CE0822043E0302082E21A
:104D380009005CE30C30A0E1012061E5F4FFFFCA43
:104D48000120A0E130308CE2FF3003E2013062E55F
:104D5800020050E15A00009A7EC08DE20120A0E1D5
:104D6800000000EA0130D2E4000052E10130CCE456
:104D7800FBFFFF1A8C308DE2033061E07E208DE26C
:104D8800033082E048109DE57C208DE2033062E02C
:104D9800010051E364308DE5035081E0400000DA02
:104DA8000020A0E3015085E2C53FC5E144208DE520
:104DB80050FEFFEA24009DE51C109DE58C208DE245
:104DC800AF0E00EB000050E3FCF8FF1A90308DE2C4
:104DD800C0A08DE274509DE5180093E8BCFEFFEA80
:104DE80050309DE502B183E22D30A0E34C509DE5A3
:104DF80034308DE514FFFFEA44309DE5000053E3AD
:104E08000150A0C3025063D248309DE5035085E0AD
:104E1800C53FC5E137FEFFEA84309DE51DFEFFEA88
:104E28007C2F1FE590309DE534208DE514FDFFEAC9
:104E38003020A0E3023083E07F30CDE57E20CDE551
:104E480080308DE2CEFFFFEA44309DE5015087E2D5
:104E5800055083E0C53FC5E126FEFFEA000057E3A1
:104E68000400001A18309DE5010013E30130A00387
:104E78000350A0011FFEFF0A025087E2C53FC5E1AB
:104E88001CFEFFEA30009DE5007090E5040080E21A
:104E9800000057E30160D3E530008DE50070E0B312
:104EA80040F8FFEA18309DE5013013E2BBFFFF1A16
:104EB80044308DE5C53FC5E10EFEFFEA0740A0E19D
:104EC800F4FEFFEA7E308DE2ADFFFFEAF0472DE900
:104ED8000140A0E101EBA0E30060A0E3BCC0D1E188
:104EE80046DE4DE208D04DE2247094E5BEA0D4E140
:104EF800649094E51C8094E502C0CCE3BCC0CDE18D
:104F08000D10A0E168C08DE224708DE518608DE574
:104F1800BEA0CDE164908DE51C808DE508E08DE5AF
:104F280014E08DE500C08DE510C08DE50070A0E1AE
:104F3800C3F7FFEB006050E2040000BA0700A0E1ED
:104F48000D10A0E1110700EB000050E30060E01332
:104F58000600A0E1BC30DDE1400013E3BC30D41111
:104F680040308313BC30C41146DE8DE208D08DE298
:104F7800F047BDE81EFF2FE138402DE94C319FE591
:104F8800003093E5000053E30050A0E10140A0E1A8
:104F98000200000A382093E5000052E33200000ABC
:104FA800BC20D4E1080012E30230A0E10C00000AA2
:104FB800100094E5000050E31300000A012013E2FA
:104FC8001A00001A020013E314209405000050E3AD
:104FD800082084E50000A0131C00000A3840BDE842
:104FE8001EFF2FE1100012E33200000A040012E352
:104FF8002000001A100094E5082082E3000050E326
:105008000230A0E1BC20C4E1EBFFFF1A0A2D03E245
:10501800020C52E3E8FFFF0A0500A0E10410A0E13A
:105028006F0800EBBC30D4E1100094E5E2FFFFEA22
:105038000020A0E3143094E5000050E3003063E260
:10504800183084E5082084E50000A013E2FFFF1A69
:10505800BC30D4E1800013E340308313BC30C4116A
:105068000000E0133840BDE81EFF2FE10300A0E177
:10507800390700EBC9FFFFEA301094E5000051E35F
:105088000700000A403084E2030051E10200000AF0
:105098000500A0E1760700EBBC20D4E10030A0E3D6
:1050A800303084E50030A0E3100094E52420C2E30A
:1050B800090084E8CFFFFFEA0930A0E3402082E33B
:1050C800003085E50000E0E3BC20C4E1C2FFFFEA50
:1050D80028040020F04F2DE9103090E5105091E59C
:1050E800030055E10CD04DE20000A0C36B0000CADC
:1050F800015045E2144081E200108DE5051194E766
:10510800149080E20060A0E1011081E2050199E7B6
:105118006CECFFEB05A1A0E10A3089E0007050E2D9
:105128000A8084E004308DE52F00000A0010A0E317
:1051380004B0A0E10900A0E10130A0E104C09BE4B3
:105148000C28A0E122E8A0E12CC8A0E19E1722E0EB
:105158009C0701E000C090E5221881E00228A0E148
:10516800223843E00CE8A0E10128A0E12E3883E0D2
:105178002228A0E12C2862E003C8A0E1433882E09D
:105188002C28A0E1032882E10B0058E1042080E4E8
:105198004338A0E12118A0E1E7FFFF2A0A3099E788
:1051A800000053E31000001A04209DE5043042E299
:1051B800030059E10B00002A043012E5000053E314
:1051C8000800001A083042E2030000EA002093E5D4
:1051D800000052E3043043E20200001A030059E1E0
:1051E800015045E2F8FFFF3A105086E500109DE5B2
:1051F8000600A0E14E0C00EB000050E3260000BAC8
:1052080009C0A0E10030A0E3017087E2042094E423
:1052180000009CE50218A0E1213843E00018A0E155
:10522800211883E02228A0E1202862E00108A0E1FB
:10523800413882E02028A0E1032882E1040058E1F7
:1052480004208CE44338A0E1EFFFFF2A053199E7F9
:10525800000053E3053189E00F00001A042043E2FF
:10526800020059E10B00002A042013E5000052E374
:105278000800001A083043E2030000EA002093E522
:10528800000052E3043043E20200001A030059E12F
:10529800015045E2F8FFFF3A105086E50700A0E10B
:1052A8000CD08DE2F04FBDE81EFF2FE1000000009A
:1052B800F04F2DE9401090E564D04DE2000051E335
:1052C8000040A0E102A0A0E103B0A0E194509DE558
:1052D8000600000A0130A0E3442090E51332A0E163
:1052E8000C0081E9940A00EB0030A0E3403084E52B
:1052F80000005BE30130A0B30030A0A3003085B507
:10530800003085A504359FE50B90A0E10320A0E1BE
:105318000291CBB3093003E009B0A0B1020053E118
:105328001300000A0020A0E30030A0E30A00A0E177
:105338000B10A0E1DCEEFFEB008050E21E00000A3B
:105348000130A0E398209DE5000052E390209DE500
:10535800003082E59C00000AB4049FE598309DE582
:10536800000083E5010040E264D08DE2F04FBDE823
:105378001EFF2FE19C349FE590209DE500005AE335
:10538800003082E57F00000A8C049FE598309DE597
:10539800000053E3F3FFFF0A0330D0E598209DE5B2
:1053A800000053E30830801203308002003082E5A9
:1053B80064D08DE2F04FBDE81EFF2FE15C208DE246
:1053C80058308DE20C008DE80400A0E10A20A0E12D
:1053D8000B30A0E1440C00EB295AB0E114008DE534
:1053E8006F00001A413EE0E358809DE55C509DE562
:1053F800055088E0030055E1413E85A21C049FA5A5
:105408001C049FB5023083A23A33A0A1000065A016
:10541800000065B0190083A11A00A0B108EDFFEBE8
:105428000130A0E344308DE5015045E21F1641E20A
:105438000020A0E3EC339FE53CECFFEBED3F8FE26F
:105448000C0093E83EEDFFEB3B3E8FE20C0093E847
:1054580037ECFFEB0060A0E10500A0E10170A0E1DE
:1054680000EDFFEBE73F8FE20C0093E834EDFFEB34
:105478000020A0E10130A0E10600A0E10710A0E1B2
:105488002BECFFEB0060A0E10170A0E1A4EEFFEBC4
:105498000710A0E108008DE50020A0E30600A0E1C8
:1054A8000030A0E386EEFFEB000050E39601001AFF
:1054B80008309DE5160053E30130A0832C308D851C
:1054C8000D00008A08209DE570339FE5823183E056
:1054D800030093E80A20A0E10B30A0E18AEEFFEB7D
:1054E800000050E308309D150130431208308D1537
:1054F8000030A0132C008D052C308D15085065E068
:10550800013055E20C308DE50030634218308D458E
:105518000030A0530030A04318308D550C308D4515
:1055280008309DE5000053E36E0100BA0C209DE5AC
:1055380028308DE5032082E00030A0E30C208DE5C3
:1055480020308DE588309DE5090053E32000008A6E
:10555800050053E30150A0D30050A0C3043043C258
:1055680088308DC588309DE5023043E2030053E35F
:1055780003F19F976E0100EAA05F0008605F0008D2
:105588001C5C000838690008FF94C9E388329FE56D
:105598000F96C9E3000059E38C029FE50300A011B0
:1055A80079FFFFEAFF34CBE30F36C3E3FF5F45E241
:1055B800FF3583E344808DE50A00A0E1035045E20E
:1055C800031683E358809DE598FFFFEA5C029FE598
:1055D80064FFFFEA0010A0E30400A0E1441084E5A2
:1055E8008C108DE5B00900EB0030E0E340308DE52C
:1055F80010308DE50130A0E38C209DE51C008DE581
:10560800400084E588208DE524308DE508209DE55F
:105618005C309DE50E0052E30020A0C30120A0D31A
:10562800000053E30020A0B3000052E39300000AF7
:105638008C309DE5A32FA0E110309DE5000053E3D9
:105648000020A0C3012002D2F0319FE5000052E300
:1056580008209DE5823183E0000393E85002001A98
:105668000820A0E10930A0E10A00A0E10B10A0E1A8
:1056780057EDFFEB2AEEFFEB0A60A0E100A0A0E1E6
:1056880078ECFFEB0820A0E10930A0E1ACECFFEBDF
:105698000020A0E10130A0E10600A0E10B10A0E18C
:1056A800A2EBFFEB10C09DE51CE09DE501005CE36B
:1056B80030C08AE20020A0E10130A0E100C0CEE5C0
:1056C80001508EE23000000A0020A0E374319FE50B
:1056D8009BECFFEB0020A0E30030A0E30060A0E11A
:1056E8000170A0E1F0EDFFEB000050E3EC00001AC0
:1056F80010B09DE51CA09DE50C408DE5090000EA71
:105708000020A0E33C319FE58DECFFEB0020A0E3F7
:105718000030A0E30060A0E10170A0E1E2EDFFEB42
:10572800000050E31B04001A0820A0E10930A0E1A2
:105738000600A0E10710A0E125EDFFEBF8EDFFEB77
:105748000040A0E147ECFFEB0820A0E10930A0E110
:105758007BECFFEB0020A0E10130A0E10600A0E116
:105768000710A0E171EBFFEB30E084E201E0C5E453
:1057780005E06AE00E005BE10020A0E10130A0E155
:10578800DEFFFF1A04A0A0E10C409DE50200A0E1A5
:105798000310A0E166EBFFEB0060A0E10170A0E15F
:1057A8000800A0E10910A0E10620A0E10730A0E16F
:1057B800C3EDFFEB000050E30800001A0800A0E169
:1057C8000910A0E10620A0E10730A0E1B6EDFFEB4B
:1057D800000050E3B200000A01001AE3B000000A1A
:1057E80008309DE550308DE5016055E5012045E222
:1057F8001C309DE5180000EA61436F63A787D23F1C
:10580800B3C8608B288AC63FFB799F501344D33FA7
:105818000000F07F759C00080F270000949C00088A
:105828000EFCFFFFEEFBFFFF0000F83F889C00081E
:10583800749C00080000F03F00001440809D0008A0
:10584800A89C00080000E03F0000244000001C4025
:10585800030052E1AF03000A016072E5390056E324
:10586800015082E2F9FFFF0A50309DE508308DE5CE
:10587800013086E2FF3003E20030C2E5880000EA2A
:1058880024209DE5000052E3BF00001A20709DE52A
:1058980018509DE524609DE50C309DE5000053E31C
:1058A800000055C3080000DA050053E10320A0E119
:1058B8000530A0A118109DE5055063E0011063E0D4
:1058C800023063E018108DE50C308DE520309DE541
:1058D800000053E3160000DA24309DE5000053E38E
:1058E8006003000A000057E30E0000DA0610A0E18A
:1058F8000720A0E10400A0E10E0A00EB0060A0E18F
:1059080014909DE50610A0E10920A0E10400A0E1A3
:105918008C0900EB0080A0E10910A0E10400A0E1DF
:10592800050900EB14808DE520309DE5072053E044
:105938007F03001A0400A0E10110A0E3780900EB3E
:1059480028309DE5000053E30070A0E1A80100DACB
:105958000010A0E10320A0E10400A0E1F50900EB9C
:1059680088309DE5010053E30070A0E1750300DA7B
:105978000080A0E3103097E5033187E0100093E53D
:105988002B0900EB200060E20C309DE5030080E06D
:105998001F0010E2FE01000A203060E2040053E319
:1059A800DF0300DA1C0060E218309DE5003083E078
:1059B80018308DE50C309DE5003083E00C308DE526
:1059C800005085E018309DE5000053E3040000DA3C
:1059D80014109DE50320A0E10400A0E1160A00EBE5
:1059E80014008DE50C309DE5000053E3040000DA57
:1059F8000710A0E10320A0E10400A0E10E0A00EBDB
:105A08000070A0E12C309DE5000053E36102001A0C
:105A180088309DE510209DE5020053E30130A0C3C6
:105A28000030A0D3000052E30030A0C3000053E3CD
:105A38009801000A10309DE5000053E36701001A41
:105A48000710A0E10520A0E30400A0E1C10800EBD5
:105A58000070A0E114009DE50710A0E1340A00EBF6
:105A6800000050E35D0100DA3130A0E308209DE535
:105A7800012082E208208DE51C209DE50030C2E56A
:105A8800015082E20710A0E10400A0E1AA0800EB9F
:105A9800000056E30200000A0610A0E10400A0E19D
:105AA800A50800EB14109DE50400A0E1A20800EB96
:105AB8000020A0E398109DE508309DE50020C5E58D
:105AC800020051E190209DE5013083E2003082E53B
