:020000040800F2
:1000000000000220B9270008AD500008AF500008DA
:10001000B1500008B3500008B550000800000000BF
:10002000000000000000000000000000D1350008C2
:10003000B7500008000000005D360008B950000805
:1000400009280008092800080928000809280008CC
:1000500009280008092800080928000809280008BC
:1000600009280008092800080928000809280008AC
:10007000092800080928000809280008092800089C
:10008000092800080928000809280008092800088C
:10009000092800080928000809280008092800087C
:1000A000092800080928000809280008092800086C
:1000B000092800080928000809280008092800085C
:1000C000092800080928000809280008092800084C
:1000D000092800080928000809280008092800083C
:1000E000092800080928000809280008092800082C
:1000F000092800080928000809280008092800081C
:10010000092800080928000809280008092800080B
:1001100009280008092800080928000809280008FB
:1001200009280008092800080928000809280008EB
:1001300009280008092800080928000809280008DB
:10014000092800080928000809280008C9500008E3
:1001500009280008092800080928000809280008BB
:1001600009280008092800080928000809280008AB
:1001700009280008092800080928000800000000D4
:08018000092800080928000805
:1001880008B540F64C60074BC2F200001B1A062B5C
:1001980000D808BD40F20003C0F20003002BF8D0DD
:1001A8009847F6E74F0E002008B540F64C6040F639
:1001B8004C63C2F20003C2F200001B1A9B1003EB4F
:1001C800D373591000D108BD40F20002C0F20002FA
:1001D800002AF8D09047F6E710B540F65064C2F20E
:1001E8000004237873B9FFF7CBFF40F20003C0F295
:1001F80000032BB149F68810C0F60400AFF3008065
:100208000123237010BD00BF08B540F20003C0F2FF
:1002180000034BB149F6881040F65461C0F604005B
:10022800C2F20001AFF3008040F64C60C2F2000059
:1002380003682BB140F20003C0F2000303B19847F2
:10024800BDE80840B0E700BF844641EA000313F068
:1002580003036DD1403A41D351F8043B40F8043BC5
:1002680051F8043B40F8043B51F8043B40F8043B88
:1002780051F8043B40F8043B51F8043B40F8043B78
:1002880051F8043B40F8043B51F8043B40F8043B68
:1002980051F8043B40F8043B51F8043B40F8043B58
:1002A80051F8043B40F8043B51F8043B40F8043B48
:1002B80051F8043B40F8043B51F8043B40F8043B38
:1002C80051F8043B40F8043B51F8043B40F8043B28
:1002D80051F8043B40F8043B403ABDD2303211D3C8
:1002E80051F8043B40F8043B51F8043B40F8043B08
:1002F80051F8043B40F8043B51F8043B40F8043BF8
:10030800103AEDD20C3205D351F8043B40F8043BC7
:10031800043AF9D2043208D0D2071CBF11F8013BC5
:1003280000F8013B01D30B8803806046704700BF8B
:10033800082A13D38B078DD010F003038AD0C3F19A
:100348000403D21ADB071CBF11F8013B00F8013B7C
:1003580080D331F8023B20F8023B7BE7043AD9D33B
:10036800013A11F8013B00F8013BF9D20B78037010
:100378004B7843708B7883706046704740EA010C75
:100388001CF0070F23D1BDF1100DCDE90245CDE9D1
:1003980000676FF000064FF0000700BFF0E8022387
:1003A800F1E80245A24282FA46FCA7FA86FC08BF99
:1003B800BCF1000F40F0D780AB4283FA46FCA7FAA5
:1003C80086FC08BFBCF1000F40F0CA80E6E710F0D9
:1003D800030C21D020F0030050F8042B5FEACC7CFA
:1003E80008D00FD211F801CB5FFA92F3B3EB0C0CE3
:1003F80010D17BB111F801CB5FFAA2F3B3EB0C0C6F
:1004080008D13BB111F801CB5FFAB2F3B3EB0C0C96
:1004180000D10BB960467047BDF1100DCDE902451A
:10042800CDE900676FF000064FF0000711F0030CEC
:100438002DD110F0040F0DD050F8042B51F8044BB7
:10044800A24282FA46FCA7FA86FC08BFBCF1000F5C
:1004580040F0898011F0040F9FD051F8045B00BF71
:10046800F0E80223AA4282FA46FCA7FA86FC08BFF3
:10047800BCF1000F71D1F1E80245A34283FA46FCB2
:10048800A7FA86FC08BFBCF1000F63D1E8E721F0AA
:100498000301BCF1020F1ED03BDA51F8045B00BF28
:1004A80050F8043B4FEA152583FA46FCA7FA86FC68
:1004B800B7EB0C2F03EA162208BFAA424DD151F818
:1004C800045BBCF1000F82EA03034FEA056208BF30
:1004D80093423CD1E4E751F8045B00BF50F8043B79
:1004E8004FEA154583FA46FCA7FA86FCB7EB0C4F92
:1004F80003EA164208BFAA422FD151F8045BBCF1A7
:10050800000F82EA03034FEA054208BF93421ED157
:10051800E4E751F8045B00BF50F8043B4FEA156567
:1005280083FA46FCA7FA86FCB7EB0C6F03EA16625F
:1005380008BFAA4211D151F8045BBCF1000F82EA4E
:1005480003034FEA052208BF934200D1E4E719BA32
:1005580012BA0AE019BA22BA07E011BA2ABA04E0B4
:1005680019BA2ABA01E011BA22BA9CFA8CF0DDE96C
:100578000067DDE902451DF1100D38B1B0FA80F0D1
:10058800C0F1180021FA00F122FA00F2012091428C
:1005980098BF8041704700BFD0400B1CD1409C469B
:1005A800203AD34018435242634693401843704759
:1005B8009140031C90409C46203A93401943524274
:1005C8006346D3401943704781F0004102E000BF01
:1005D80083F0004330B54FEA41044FEA430594EAFB
:1005E800050F08BF90EA020F1FBF54EA000C55EA36
:1005F800020C7FEA645C7FEA655C00F0E2804FEA07
:100608005454D4EB5555B8BF6D420CDD2C4480EAE8
:10061800020281EA030382EA000083EA010180EA18
:10062800020281EA0303362D88BF30BD11F0004F66
:100638004FEA01314FF4801C4CEA113102D040429C
:1006480061EB410113F0004F4FEA03334CEA1333D7
:1006580002D0524263EB430394EA050F00F0A780EF
:10066800A4F10104D5F1200E0DDB02FA0EFC22FAEA
:1006780005F2801841F1000103FA0EF2801843FADE
:1006880005F359410EE0A5F120050EF1200E012ACF
:1006980003FA0EFC28BF4CF0020C43FA05F3C0180D
:1006A80051EBE37101F0004507D54FF0000EDCF186
:1006B800000C7EEB00006EEB0101B1F5801F1BD32F
:1006C800B1F5001F0CD349085FEA30004FEA3C0C33
:1006D80004F101044FEA445212F5800F80F09A8029
:1006E800BCF1004F08BF5FEA500C50F1000041EB2D
:1006F800045141EA050130BD5FEA4C0C404141EB31
:10070800010111F4801FA4F10104E9D191F0000F57
:1007180004BF01460020B1FA81F308BF2033A3F1DA
:100728000B03B3F120020CDA0C3208DD02F1140CD1
:10073800C2F10C0201FA0CF021FA02F10CE002F10C
:100748001402D8BFC2F1200C01FA02F120FA0CFC05
:10075800DCBF41EA0C019040E41AA2BF01EB04514E
:10076800294330BD6FEA04041F3C1CDA0C340EDC4C
:1007780004F11404C4F1200220FA04F001FA02F38F
:1007880040EA030021FA04F345EA030130BDC4F14D
:100798000C04C4F1200220FA02F001FA04F340EA42
:1007A8000300294630BD21FA04F0294630BD94F0F3
:1007B800000F83F4801306BF81F480110134013DDA
:1007C8004EE77FEA645C18BF7FEA655C29D094EA4B
:1007D800050F08BF90EA020F05D054EA000C04BFC9
:1007E8001946104630BD91EA030F1EBF00210020B4
:1007F80030BD5FEA545C05D14000494128BF41F053
:10080800004130BD14F580043CBF01F5801130BDB6
:1008180001F0004545F0FE4141F470014FF0000041
:1008280030BD7FEA645C1ABF194610467FEA655CF2
:100838001CBF0B46024650EA013406BF52EA033594
:1008480091EA030F41F4002130BD00BF90F0000F82
:1008580004BF0021704730B54FF4806404F13204BE
:100868004FF000054FF0000150E700BF90F0000F77
:1008780004BF0021704730B54FF4806404F132049E
:1008880010F0004548BF40424FF000013EE700BF6E
:1008980042004FEAE2014FEA31014FEA02701FBFFE
:1008A80012F07F4393F07F4F81F06051704792F0D0
:1008B800000F14BF93F07F4F704730B54FF460744A
:1008C80001F0004521F0004120E700BF50EA010295
:1008D80008BF704730B54FF000050AE050EA010242
:1008E80008BF704730B511F0004502D5404261EBB2
:1008F80041014FF4806404F132045FEA915C3FF4F3
:10090800DCAE4FF003025FEADC0C18BF03325FEA8B
:10091800DC0C18BF033202EBDC02C2F1200300FA40
:1009280003FC20FA02F001FA03FE40EA0E0021FA65
:1009380002F11444C1E600BF70B54FF0FF0C4CF44F
:10094800E06C1CEA11541DBF1CEA135594EA0C0F05
:1009580095EA0C0F00F0DEF82C4481EA030621EA40
:100968004C5123EA4C5350EA013518BF52EA03357B
:1009780041F4801143F4801338D0A0FB02CE4FF02D
:100988000005E1FB02E506F00042E0FB03E54FF05D
:100998000006E1FB03569CF0000F18BF4EF0010E55
:1009A800A4F1FF04B6F5007F64F5407404D25FEA51
:1009B8004E0E6D4146EB060642EAC62141EA555104
:1009C8004FEAC52040EA5E504FEACE2EB4F1FD0C46
:1009D80088BFBCF5E06F1ED8BEF1004F08BF5FEAC4
:1009E800500E50F1000041EB045170BD06F0004676
:1009F80046EA010140EA020081EA0301B4EB5C0423
:100A0800C2BFD4EB0C0541EA045170BD41F480111A
:100A18004FF0000E013C00F3AB8014F1360FDEBF3F
:100A2800002001F0004170BDC4F10004203C35DA1B
:100A38000C341BDC04F11404C4F1200500FA05F39E
:100A480020FA04F001FA05F240EA020001F000423F
:100A580021F0004110EBD37021FA04F642EB0601B5
:100A68005EEA430E08BF20EAD37070BDC4F10C04DF
:100A7800C4F1200500FA04F320FA05F001FA04F2A3
:100A880040EA020001F0004110EBD37041F100018F
:100A98005EEA430E08BF20EAD37070BDC4F120059A
:100AA80000FA05F24EEA020E20FA04F301FA05F202
:100AB80043EA020321FA04F001F0004121FA04F2AA
:100AC80020EA020000EBD3705EEA430E08BF20EA7A
:100AD800D37070BD94F0000F0FD101F000464000B4
:100AE80041EB010111F4801F08BF013CF7D041EA36
:100AF800060195F0000F18BF704703F0004652003A
:100B080043EB030313F4801F08BF013DF7D043EA0A
:100B18000603704794EA0C0F0CEA135518BF95EAC0
:100B28000C0F0CD050EA410618BF52EA4306D1D147
:100B380081EA030101F000414FF0000070BD50EA66
:100B4800410606BF1046194652EA430619D094EAF0
:100B58000C0F02D150EA013613D195EA0C0F05D1DA
:100B680052EA03361CBF104619460AD181EA03012E
:100B780001F0004141F0FE4141F470014FF00000E6
:100B880070BD41F0FE4141F4780170BD70B54FF081
:100B9800FF0C4CF4E06C1CEA11541DBF1CEA135501
:100BA80094EA0C0F95EA0C0F00F0A7F8A4EB0504E3
:100BB80081EA030E52EA03354FEA013100F08880DA
:100BC8004FEA03334FF0805545EA131343EA1263A3
:100BD8004FEA022245EA111545EA10654FEA002658
:100BE8000EF000419D4208BF964244F1FD0404F511
:100BF800407402D25B084FEA3202B61A65EB03056D
:100C08005B084FEA32024FF480104FF4002CB6EB29
:100C1800020E75EB030E22BFB61A754640EA0C00A9
:100C28005B084FEA3202B6EB020E75EB030E22BFE9
:100C3800B61A754640EA5C005B084FEA3202B6EB2A
:100C4800020E75EB030E22BFB61A754640EA9C00E9
:100C58005B084FEA3202B6EB020E75EB030E22BFB9
:100C6800B61A754640EADC0055EA060E18D04FEA77
:100C7800051545EA16754FEA06164FEAC30343EA17
:100C880052734FEAC2025FEA1C1CC0D111F4801FE4
:100C98000BD141EA00014FF000004FF0004CB6E7DD
:100CA80011F4801F04BF01430020B4F1FD0C88BF7C
:100CB800BCF5E06F3FF6AFAEB5EB030C04BFB6EB87
:100CC800020C5FEA500C50F1000041EB045170BD7A
:100CD8000EF0004E4EEA113114EB5C04C2BFD4EBA7
:100CE8000C0541EA045170BD41F480114FF0000E2B
:100CF800013C90E645EA060E8DE60CEA135594EAA7
:100D08000C0F08BF95EA0C0F3FF43BAF94EA0C0FA9
:100D18000AD150EA01347FF434AF95EA0C0F7FF41E
:100D280025AF104619462CE795EA0C0F06D152EA72
:100D380003353FF4FDAE1046194622E750EA410656
:100D480018BF52EA43067FF4C5AE50EA41047FF467
:100D58000DAF52EA43057FF4EBAE12E74FF0FF3CCC
:100D680006E000BF4FF0010C02E000BF4FF0010C9D
:100D78004DF804CD4FEA410C7FEA6C5C4FEA430C16
:100D880018BF7FEA6C5C1BD001B050EA410C0CBF65
:100D980052EA430C91EA030F02BF90EA020F0020C7
:100DA800704710F1000F91EA030F58BF994208BF2E
:100DB80090422CBFD8176FEAE37040F001007047EB
:100DC8004FEA410C7FEA6C5C02D150EA013C07D142
:100DD8004FEA430C7FEA6C5CD6D152EA033CD3D08D
:100DE8005DF8040B704700BF8446104662468C4687
:100DF8001946634600E000BF01B5FFF7B7FF0028BA
:100E080048BF10F1000F01BD4DF808EDFFF7F4FFE2
:100E18000CBF012000205DF808FB00BF4DF808ED6D
:100E2800FFF7EAFF34BF012000205DF808FB00BF90
:100E38004DF808EDFFF7E0FF94BF012000205DF8B2
:100E480008FB00BF4DF808EDFFF7CEFF94BF012067
:100E580000205DF808FB00BF4DF808EDFFF7C4FF60
:100E680034BF012000205DF808FB00BF4FEA4102B3
:100E780012F5001215D211D56FF47873B3EB6252E4
:100E880012D94FEAC12343F0004343EA505311F00B
:100E9800004F23FA02F018BF404270474FF000009D
:100EA800704750EA013005D111F0004008BF6FF0DB
:100EB800004070474FF00000704700BF4A0011D251
:100EC80012F5001211D20DD56FF47873B3EB62529C
:100ED8000ED44FEAC12343F0004343EA505323FAA8
:100EE80002F070474FF00000704750EA013002D11D
:100EF8004FF0FF3070474FF0000070474FEA410253
:100F0800B2F1E04324BFB3F5001CDCF1FE5C0DD95F
:100F180001F0004C4FEAC0024CEA5070B2F1004FA9
:100F280040EB830008BF20F00100704711F0804FAC
:100F380021D113F13872BCBF01F00040704741F471
:100F480080114FEA5252C2F11802C2F1200C10FA75
:100F58000CF320FA02F018BF40F001004FEAC12359
:100F68004FEAD32303FA0CFC40EA0C0023FA02F3FD
:100F78004FEA4303CCE77FEA625307D150EA0133D3
:100F88001EBF4FF0FE4040F44000704701F00040A3
:100F980040F0FE4040F40000704700BF80F0004081
:100FA80002E000BF81F0004142001FBF5FEA410339
:100FB80092EA030F7FEA226C7FEA236C6AD04FEA39
:100FC8001262D2EB1363C1BFD2184140484041407E
:100FD800B8BF5B42192B88BF704710F0004F40F430
:100FE800000020F07F4018BF404211F0004F41F44C
:100FF800000121F07F4118BF494292EA030F3FD018
:10100800A2F1010241FA03FC10EB0C00C3F120032A
:1010180001FA03F100F0004302D5494260EB4000B9
:10102800B0F5000F13D3B0F1807F06D340084FEA24
:10103800310102F10102FE2A51D2B1F1004F40EB19
:10104800C25008BF20F0010040EA03007047490081
:1010580040EB000010F4000FA2F10102EDD1B0FA4C
:1010680080FCACF1080CB2EB0C0200FA0CF0AABF41
:1010780000EBC25052421843BCBFD04018437047DF
:1010880092F0000F81F4000106BF80F400000132E5
:10109800013BB5E74FEA41037FEA226C18BF7FEABC
:1010A800236C21D092EA030F04D092F0000F08BFFE
:1010B8000846704790EA010F1CBF0020704712F0E5
:1010C8007F4F04D1400028BF40F00040704712F124
:1010D80000723CBF00F50000704700F0004343F089
:1010E800FE4040F4000070477FEA226216BF0846BF
:1010F8007FEA23630146420206BF5FEA412390EA82
:10110800010F40F4800070474FF0000304E000BF77
:1011180010F0004348BF40425FEA000C08BF704728
:1011280043F0964301464FF000001CE050EA0102EC
:1011380008BF70474FF000030AE000BF50EA010201
:1011480008BF704711F0004302D5404261EB4101EE
:101158005FEA010C02BF84460146002043F0B64313
:1011680008BFA3F18053A3F50003BCFA8CF2083A38
:10117800A3EBC25310DB01FA02FC634400FA02FC41
:10118800C2F12002BCF1004F20FA02F243EB020048
:1011980008BF20F00100704702F1200201FA02FCAA
:1011A800C2F1200250EA4C0021FA02F243EB02009D
:1011B80008BF20EADC70704773B96AB9002908BF14
:1011C8000028BCBF00204FF00041C4BF6FF00041B1
:1011D8004FF0FF3001F056B882B0EC462DE90050D0
:1011E80000F090F8DDF804E002B00CBC704700BFD6
:1011F8004BB942B9002908BF002802D04FF0FF318F
:10120800084601F03FB882B0EC462DE9005000F0E6
:1012180091F8DDF804E002B00CBC704707EE900AC4
:10122800F5EEC07AF1EE10FA08B503D4BDE808402F
:1012380000F022B8F1EE677A17EE900A00F01CF879
:10124800404261EB410108BD38B500220023054644
:101258000C46FFF7E3FD28B928462146BDE838408B
:1012680000F02EB8284604F1004100F029F8404269
:1012780061EB410138BD00BF70B5FFF709FB0023E2
:101288000022C3F6F05304460D46FFF755FBFFF75F
:1012980015FE0646FFF7DAFA00230022C4F2F0131F
:1012A800FFF74AFB02460B4620462946FFF790F90E
:1012B800FFF704FE002242EA00042046314670BDD2
:1012C800002370B50022C3F6F05304460D46FFF71D
:1012D80033FBFFF7F3FD0646FFF7B8FA00230022B9
:1012E800C4F2F013FFF728FB02460B4620462946B6
:1012F800FFF76EF9FFF7E2FD002242EA00042046FC
:10130800314670BD2DE9F041069C154606460F464C
:10131800984600F0B9FF05FB01F300FB0838A5FB70
:1013280000234344B21A67EB0303C4E90023BDE872
:10133800F08100BF2DE9F041069C154606460F4690
:10134800984601F0F7F800FB08F8A0FB052305FB19
:1013580001884344B21A67EB0303C4E90023BDE8DC
:10136800F08100BF03685A004CBF43F0004323F0EC
:1013780000431844704700BF2DE9F04F064683B07C
:10138800914621B3013901918846002707EB0804EB
:1013980004EBD4746410E50006EB050B5846FFF720
:1013A800E1FF019B8246A34205F10800304419D0B1
:1013B800FFF7D8FFCA4500F1FF3004D9BC420BD073
:1013C80004F1FF38E2E7484502D2671CDEE78B46A6
:1013D800584603B0BDE8F08F4FF0000B584603B0F5
:1013E800BDE8F08FCA45E9D8F2E700BF01280AD066
:1013F80002280DD041F61D33C0F6000300280CBFAB
:1014080018460020704741F62130C0F600007047AA
:1014180041F62530C0F60000704700BF30B540F2F5
:101428000003C0F2000383B004468D1E002B42D097
:10143800284601A9AFF30080034643B32A46019921
:10144800FFF79AFF054638B3FFF78CFF6B68A06477
:10145800012B16D0002B05F10400BEBF0123E06468
:10146800236504DBFFF77EFF0023E0642365036840
:10147800002B16DBFFF776FF00232061184603B028
:1014880030BD002323610523184603B030BD236116
:101498000923184603B030BD09232061184603B05C
:1014A80030BDC3F30360FFF7A1FF206100280CBF24
:1014B80009230023E2E74EF6DC534CF6F470C0F63D
:1014C8000403C0F604001B1ADB100193B6E700BF43
:1014D800036810B50446D80706D4990704F14800F4
:1014E80009D500F06DFC23685A0709D518070ED5F1
:1014F800D90613D510BD00F05BFC23685A07F5D454
:1015080004F1D00000F064FC23681807F0D404F557
:10151800A87000F065FC2368D906EBD404F5E870E0
:10152800BDE8104000F0A0BC03680BB11844704738
:101538001846704709207047704700BF70B50446C9
:101548000D4608E02A6C23696261012021462A467B
:101558009847082808D12046296CFFF75FFF064600
:101568000028EFD03EF044FC0728FBD13046296C18
:10157800FFF7E2FF281D00F00FFC00BF2DE9F04740
:101588000C1D054617460FCCADF5727D03AE0FC690
:101598000FCC0FC60FCC0FC694E80F0002AC4FF06B
:1015A800000ED5F80C80D5F8189086E80F0028466C
:1015B800216CC4F800E0774514BF0A270927FFF714
:1015C8002DFF06468EB1A06B0094CDF804902A46F4
:1015D800606447F010012B460120C04700282FD136
:1015E80030460DF5727DBDE8F087236C21466B61AE
:1015F8004FF4F0727AA8FEF727FE2B6929467AAADB
:1016080038469847889B82468DE8100239466364BD
:1016180001202A462B46C04790B920467AA94FF4A4
:10162800F072FEF711FEBAF1080F06D12846216CB8
:10163800FFF7F4FE09270646C4E7BAF1070F04D0FE
:1016480009200DF5727DBDE8F0873046216CFFF763
:1016580073FF03A800F0A0FB406C7047CB6BF0B59C
:101668000B640E1D0F4604460FCEF9B001AD0FC531
:101678000FCE0FC50FCE0FC596E80F004FF0FF36FF
:1016880085E80F00009606E0236921466A469847D8
:101698000828054608D120461099FFF7BFFE002804
:1016A800F2D0092079B0F0BD6846FFF711FF062D8A
:1016B800F7D120463946FFF741FF00BF30B4DD6B54
:1016C800C160826119461D64002230BC56E700BF24
:1016D80070B54369C6680B6404460D4626B10122FD
:1016E800FFF74CFF3EF084FB0369214602202A469F
:1016F8009847072807D0082803D120462946FFF72E
:101708001DFF3EF075FB3046296CFFF715FF281DBD
:1017180000F042FBC26810B42AB1CC6B00220C6402
:101728005DF8044B2AE75DF8044B97E7704700BF64
:1017380008B5836813B101460120984708BD00BF6A
:1017480010B404290FD8DFE801F007030E030300E3
:1017580001205DF8044B70470F2A98BF002B0CBF7F
:101768000023012303D002205DF8044B704700EBEF
:10177800820218465368019A5DF8044B136070475B
:1017880000B585B00A4603AB002100930B46FFF76E
:10179800D7FF039805B05DF804FB00BF10B4042917
:1017A8000FD8DFE801F007030E03030001205DF8FE
:1017B800044B70470F2A98BF002B0CBF002301234E
:1017C80003D002205DF8044B704700EB82020198B9
:1017D8005DF8044B016818465160704710B584B035
:1017E80004AB0C4643F8042D0021009322460B4617
:1017F800FFF7D4FF04B010BDD36BF0B51364151D0B
:1018080007460E460FCDADF50F7D17AC0FC40FCDB3
:101818000FC40FCD0FC495E80F004FF0FF3584E8D3
:101828000F00169510E016A8FFF7D8FF314616A846
:10183800B847694616AA78B9049B0820984709282A
:1018480018BF0528044608D026996846FFF7E6FD24
:101858006A460C210028E6D0092416A8FFF738FEAE
:1018680020460DF50F7DF0BD2DE9F04FCE6C8BB005
:101878000C46316804361D4690460791089600F0DC
:101888000307002B40F089800902032307918DF894
:1018980025508DF82430236D022F08BFA66B13F056
:1018A80001036ED100F00800C0B204F158010193A1
:1018B80003900291BA463768002F64D0022D0CBFFE
:1018C800D6F80490B6F80290A36C18BF378829F0B0
:1018D800010B40464FF00F010CBF083604369B44FD
:1018E800FFF74EFF834588BF002006D827F0010385
:1018F8009B4458452CBF0020012009F0010907F03E
:10190800010747EA4907012F71D066D3022F40D15A
:10191800336823F0004BBAF1000F4ED1002854D0A1
:101928000399002918BFBBF1000F4ED1BBF1000F7E
:101938001DD00595371DD146CDF810A0029D02E0B7
:10194800DA4514D0D14638460695FFF7EDFD00225A
:10195800014606AB20463DF027FF09F1010A04378E
:101968000028EDD0CB45DDF810A0059D2CD14046D0
:101978000D21FFF705FF069B2062A6626362062021
:1019880008E000230193022D4BDDFFF7D3FD00286B
:101998004DD009200BB0BDE8F08F022B3FF77BAF8D
:1019A8000B0C5FFA83FE090402228DF8253006EB42
:1019B8008E0607918DF824206DE740460D21276A91
:1019C800FFF7DEFE874262D03368002BB8BF0436CB
:1019D8000BF1010B06EB8B066DE7BAF1000F0CBF9C
:1019E800002000F0010000286CD1043663E7BAF14A
:1019F800000F33D198B196E80C00D70F9A1CC8D0C5
:101A0800029A0133069253D0301DFFF78DFD3A46F6
:101A1800014606AB20463DF0C7FE00286AD10836CD
:101A280049E7404607A900F0B7FA0028B1D1019963
:101A380008200029AED00F214046FFF7A1FE0E2155
:101A480002464046FFF7CAFE4FF621224046C0F63E
:101A580003020F21FFF7C2FE07209BE740460D2136
:101A6800276AFFF78DFE8742D9D1A36A9E42D6D155
:101A78003046FFF777FC0F2102464046FFF7AEFEDF
:101A8800404622460021FFF7A9FE072082E7A36A05
:101A98009E4299D10422B3180021C4F828B0E1620B
:101AA8002263636333688B421FDB012201928FE755
:101AB80040460D21FFF764FE2062069B6362A66222
:101AC800062067E73046FFF74DFC04360546A66357
:101AD80020463DF0C1FE00283FF45BAF40462A4651
:101AE8000F21FFF77BFE072054E70BF1010006EBFF
:101AF8008000BEE703460D2140460093FFF740FEF5
:101B0800009B2062022BD8D12346069A43F82C2F3B
:101B18006362D4E70023A7E60123A5E60223A3E630
:101B28002DE9F0410446C4B0042907D8DFE801F0E4
:101B3800B32E06030A00032B00F0C880022044B02D
:101B4800BDE8F081102A98BF002BF7D12368D90689
:101B580000F1E38022AE3046019200F08FF9A56BC8
:101B6800019A0023012000FA03F111421CBF2968E1
:101B780046F8231003F1010318BF0435042BF2D1F2
:101B88003046A56300F070F90020D8E703F0FB01A8
:101B98000129D3D1150C96B27219012B14BF20213B
:101BA80010219142CAD3B3F1010CDCF1000757EBC5
:101BB8000C070F2D94BF002101210F42BED1B04662
:101BC80021B9102A40F2CB80A2F11008B8F1000F19
:101BD80018BF052BB2D10F2D0FD82268D0070CD50E
:101BE80022F00101052B2160204600F0CD8022F073
:101BF800030240F8482B00F0DFF8B8F1000F03D0DB
:101C08002368590700F19B80002F40F0B6800F2D04
:101C180040F28D80B8F1000F40F0A9803346A66BE2
:101C2800002B314610DD4FEA430C22AB03EBC50015
:101C3800801B0CF1FF31331F53F8042F0139C250B8
:101C48004A1CF9D106EB8C01B8F1000F16D044A854
:101C5800102D2CBF2E46102600EBC6064FEA480C66
:101C6800A6F5C4760CF1FF33084650F8042B013B67
:101C780046F8042B5A1CF8D101EB8C01002F70D1C7
:101C88000F2DA16357D9B8F1000F02D002A800F0B8
:101C98009FF8002053E7002B7FF450AFA56B96B256
:101CA800012000FA03F131421CBF2F6804EB8301C5
:101CB80003F101031CBF04354F60102BF1D112F45E
:101CC800005008BFA5633FF43AAFE2E7150C97B29E
:101CD8007B19102B3FF632AF23681E0737D422AE8C
:101CE800304600F09FF8D4F838E07F0006EBC500D6
:101CF8007B1E72465FB1CEEB0000AEF1040252F8D3
:101D0800041F013B5D1C8150F9D10EEB8702304660
:101D1800A26300F065F8002011E723F010032360A8
:101D280004F5E870019200F0A9F8019A12E722A8D8
:101D380000F04AF86EE722A800F042F8A3E7204630
:101D480023F0040340F8D03B00F046F85CE723F0AA
:101D58000803236004F5A87000F064F8BFE788461C
:101D680039E70431A16322A800F022F891E702A81C
:101D780000F032F8C5F1100351E722A800F01CF872
:101D8800B8F1000FF6D149E741F0020140F8481BCD
:101D980000F01AF831E700BF00F1340191E838008B
:101DA8009C46A6464CF8045D90E8FF0FE54600BD4A
:101DB80090EC210B704700BF80EC210B704700BFEF
:101DC80090EC200B704700BF80EC200B704700BFE1
:101DD800D0EC200B704700BFC0EC200B704700BF51
:101DE800F0EC0201F0EC0211F0EC0221F0EC02310F
:101DF800F0EC0241F0EC0251F0EC0261F0EC0271FF
:101E0800F0EC0281F0EC0291F0EC02A1F0EC02B1EE
:101E1800F0EC02C1F0EC02D1F0EC02E1F0EC02F1DE
:101E2800704700BFE0EC0201E0EC0211E0EC022197
:101E3800E0EC0231E0EC0241E0EC0251E0EC02613E
:101E4800E0EC0271E0EC0281E0EC0291E0EC02A12E
:101E5800E0EC02B1E0EC02C1E0EC02D1E0EC02E11E
:101E6800E0EC02F1704700BFB0FC0181B0FC0191C9
:101E7800B0FC01A1B0FC01B1704700BFA0FC01811A
:101E8800A0FC0191A0FC01A1A0FC01B1704700BF1A
:101E9800EC4600B52DE900502DE9FF1F4FF0000377
:101EA8002DE90C0001A9FFF7D9FBDDF840E012B0DD
:101EB800704700BFEC4600B52DE900502DE9FF1F23
:101EC8004FF000032DE90C0001A9FFF701FCDDF834
:101ED80040E012B0704700BFEC4600B52DE9005055
:101EE8002DE9FF1F4FF000032DE90C0001A9FFF7B2
:101EF80011FCDDF840E012B0704700BFEC4600B5B9
:101F08002DE900502DE9FF1F4FF000032DE90C00CB
:101F180001ABFFF7D3FBDDF840E012B0704700BF1C
:101F2800EC4600B52DE900502DE9FF1F4FF00003E6
:101F38002DE90C0001AAFFF75FFCDDF840E012B0C4
:101F4800704700BF037A1BB9437A43B9B020704782
:101F58000268013B037213020360100E7047416868
:101F6800013B43720A680323037204311302416080
:101F78000360100E704700BF00B585B003AB0021A9
:101F880000930C220B46FFF7DBFB039805B05DF8C6
:101F980004FB00BFF0E700BF2DE9F041064684B01E
:101FA8000D4600272846FFF7CDFFB028044600F06D
:101FB800B18020F07F0212F0FF0120D000F0F00283
:101FC800802A75D0902A37D0A02A43D0B02A57D07B
:101FD800C02A00F0858000F0F803D02B0BD100F068
:101FE8000704621C42F40022304601210523FFF752
:101FF80097FD0028D6D0092004B0BDE8F08103AAD7
:102008004FEA800800920B4630460D22FFF798FBF6
:102018005FFA88F8039B08F1040860064CBFC8EB18
:1020280003034344039303AB0021009330460B465C
:102038000D22FFF7B3FBB5E700F00D030D2BDAD047
:1020480003AA002100920B4600F00F023046FFF76A
:1020580077FBE8E7C2434FF47F6302F0070243FAD5
:1020680002F2010702EA03024FF0000148BF42F4FE
:1020780080420B463046FFF753FD0028BBD191E75D
:10208800B1285CD0B22865D0B32800F0918000F068
:10209800FC03B42BAFD000F007020132012142F457
:1020A80000220B463046FFF73BFD0028A3D179E715
:1020B8002846FFF747FF24022043B0F5004F9AD087
:1020C80004014FF6F072002122400B463046FFF71C
:1020D80027FD00288FD114F4004F18BF012761E7AE
:1020E800C62871D0C7287BD000F0F803C02B00F0B9
:1020F8008A80C82800F08E80C9287FF47CAF2846E3
:10210800FFF720FF00F00F03013300F0F00243EA6D
:10211800023269E70020002F7FF46EAF03AC394626
:102128000E223B4600943046FFF70AFB00943046E7
:1021380039460F223B46FFF731FB38465CE7284615
:10214800FFF700FF024600283FF455AF10F0F001FA
:10215800A7D050E7002103AA00920B460D22304673
:10216800FFF7EEFA2846FFF7EDFE02064FF00204ED
:102178000CD5039B00F07F00A0400344284603933E
:10218800FFF7E0FE030604F10704F2D4039B00F016
:102198007F0003AA00FA04F403F5017300211C442C
:1021A80000920B4630460D220394FFF7F7FAF9E642
:1021B8002846FFF7C7FE00F00F03013300F0F002D6
:1021C800012143EA02326CE72846FFF7BBFE00F024
:1021D8000F03013300F0F002032143EA023260E703
:1021E8002846FFF7AFFE024600283FF404AF10F080
:1021F800F0037FF400AF30460421FFF791FC00287C
:102208007FF4F9AECEE600F00F020132032142F46A
:10221800202246E72846FFF795FE00F0F00200F07E
:102228000F031032013343EA0232DDE610B5C36C06
:1022380084B003225C688DF80C20DA7908460833EC
:10224800240201A901948DF80D200293FFF7A4FE42
:1022580004B010BD08B5FFF79DFE806C08BD00BF37
:1022680008B5FFF797FEC36CDA7903EB82000830F4
:1022780008BD00BF08B53DF0BBFD00BF08B53DF087
:10228800B7FD00BF704700BF00292DE9F00FA8BFB8
:102298000026C0F2A980002BC0F2A1808946904692
:1022A8009C46144605460F46002B47D18A425BD907
:1022B800B2FA82F353B1C3F1200201FA03F720FA0C
:1022C80002F208FA03F4174300FA03F5210CB7FBEE
:1022D800F1F22B0C01FB127CA0B243EA0C4700FB85
:1022E80002F3BB4209D93F1902F1FF3C04D2BB42B9
:1022F80084BF023A3F1900D86246FF1AB7FBF1F3D0
:10230800ADB201FB137145EA014100FB03F08842BD
:1023180008D9091903F1FF3703D2884288BF023B65
:1023280000D83B4643EA024300221846114616B13C
:10233800404261EB4101BDE8F00F70478B4284BF1A
:1023480000221346F1D8BCFA8CF1002940F09080A5
:10235800CC4528BF80458CBF002201229CBF0123A9
:102368000A46E2D91346E0E712B90123B3FBF2F4B7
:10237800B4FA84F3002B3DD13F1B200C1FFA84FCD8
:102388000122B7FBF0F12B0C00FB117743EA07475A
:102398000CFB01F3BB420AD93F1901F1FF3880F069
:1023A800C180BB4284BF02393F1940F2BB80FF1A8B
:1023B800B7FBF0F3ADB200FB137045EA00400CFB2D
:1023C80003FC844508D9001903F1FF3703D284457B
:1023D80088BF023B00D83B4643EA0143A5E7F643E2
:1023E800524263EB430359E7404261EB41014FF02E
:1023F800FF3650E79C40C3F1200227FA02F1200C77
:1024080025FA02F29F401743B1FBF0F24FEA174852
:1024180000FB12111FFA84FC48EA01410CFB02F888
:10242800884505FA03F508D9091902F1FF337FD267
:10243800884584BF023A09197AD9C8EB0101B1FB72
:10244800F0F300FB1311BFB247EA01470CFB03F19D
:10245800B94209D93F1903F1FF3804D2B94284BF00
:10246800023B3F1900D843467F1A43EA024288E7F5
:10247800C1F1200328FA03F20CFA01FC42EA0C0C21
:1024880029FA03F44FEA1C4A20FA03F309FA01F97E
:1024980043EA0900B4FBFAF70AFB1744030C1FFAD6
:1024A8008CF943EA044409FB07FBA34508FA01F247
:1024B80009D914EB0C0407F1FF3337D2A34584BFC5
:1024C800023F644432D9CBEB0404B4FBFAF30AFBB1
:1024D800134480B240EA044009FB03F4844209D95A
:1024E80010EB0C0003F1FF381ED2844284BF023B7C
:1024F800604419D943EA0747001BA7FB0223984207
:102508000DD314BF0023012305FA01F191422CBF1A
:10251800002203F001023B46002A3FF406AF7B1E6F
:10252800002202E7414642E74346E3E71F46CAE77F
:102538001A4682E72DE9F003144605460E46002B9D
:1025480041D18A4254D9B2FA82F34BB1C3F1200681
:10255800994020FA06F602FA03F40E4300FA03F54E
:10256800220CB6FBF2F02B0C02FB1061A7B243EA77
:10257800014607FB00F3B34209D9361900F1FF31D0
:1025880004D2B34284BF0238361900D80846F61A76
:10259800B6FBF2F3ADB202FB136245EA024207FB57
:1025A80003F7974209D9121903F1FF3180F0EA8045
:1025B800974288BF023B40F2E58043EA0040002191
:1025C800BDE8F00370478B4284BF00210846F7D866
:1025D800B3FA83F4002C49D18B4228BF82428CBFC6
:1025E800002101219CBF01202146E9D90846E7E7DF
:1025F80012B90124B4FBF2F4B4FA84F7002F40F0C6
:1026080082800B1B260CA7B20121B3FBF6F02A0C23
:1026180006FB103342EA034307FB00F29A420AD949
:102628001B1900F1FF3C80F0AF809A4284BF02384A
:102638001B1940F2A9809B1AB3FBF6F2ADB206FB58
:10264800123345EA034507FB02F7AF4209D92C19B3
:1026580002F1FF3380F09A80A74288BF023A40F225
:10266800958042EA0040BDE8F0037047C4F12005B8
:1026780022FA05F6A34033434FEA134821FA05F638
:10268800A14020FA05F5B6FBF8FC0D4308FB1C66D3
:10269800290C1FFA83F941EA064609FB0CF7B742F1
:1026A80002FA04F204D9F6180CF1FF3176D38C46FD
:1026B800F61BB6FBF8F708FB1766ADB245EA064508
:1026C80009FB07F6AE4204D9ED1807F1FF315FD3D5
:1026D8000F4647EA0C47AD1BA7FB02239D420DD3CB
:1026E80000FA04F114BF0025012591422CBF0021F6
:1026F80005F00101384600293FF462AF781E002139
:10270800BDE8F0037047BC40C7F1200321FA03FC81
:10271800260CB94020FA03F30B43BCFBF6F11A0C64
:1027280006FB11CC1FFA84F842EA0C4C08FB01F2B4
:10273800624500FA07F509D91CEB040C01F1FF30DA
:1027480033D2624584BF0239A4442ED9C2EB0C0CA3
:10275800BCFBF6F29BB206FB12CC43EA0C4308FB27
:1027680002F0984209D91B1902F1FF3704D29842A6
:1027780084BF023A1B1900D83A461B1A42EA0141A3
:10278800474642E70B4618E7604654E71A4668E7AB
:10279800AE4284BF023FED189BD899E7B74284BF89
:1027A800ACF1020CF61883D881E70146CEE700BFEA
:1027B800DFF834D0002103E00C4B5B584350043160
:1027C8000B480C4B42189A42F6D30B4A02E00023FE
:1027D80042F8043B094B9A42F9D303F00BF93DF058
:1027E80039FB00F05DFE70470000022078EF040816
:1027F800000000204C0E0020500E0020A05F00209A
:10280800FEE7000001238360C36003610375044B86
:102818001B880022C271026082718380704700BFEA
:10282800CA0E002070B514468CB006460D4601A8A5
:10283800002109F02BFB23680093A3798DF806305B
:10284800A388ADF80430237D8DF81430E3798DF832
:102858000730A3680293E3680393236907A800215C
:10286800049309F013FB0E4B1A6806929A798DF8B7
:102878001E209A88ADF81C201A7D8DF82C20DA7954
:102888008DF81F209A680892DA681B690992304609
:1028980029466A460A930FF012FA0CB070BD00BFC1
:1028A800FC0E0020C0B2072828BF07207047000090
:1028B8009D4B2DE9F74F00241C609C4B9C499D4E75
:1028C8004FF480521A604FF400530B609A493470E9
:1028D8004FF480400860994901270F6098494FF0EC
:1028E800020AC1F800A097490420086096494FF0F1
:1028F8000808C1F8008095491020086094492025EF
:102908000D6094494FF04009C1F800909249802029
:10291800086092494FF48070086091494FF4007044
:10292800086090494FF4806008608F494FF4006058
:1029380008608E498E480A608E4A13608E4B1C6070
:102948008E4B6FF002021A608D4B6FF001021A6015
:102958008C4A8D4B17708D4A83F800A04FF0040302
:102968004FF0030C13708A4B80F800C04FF005003D
:102978001870884B88484FF0060B83F800B0874BD7
:102988004FF007021A70864B83F800800923037002
:1029980021465A4643468348CDF804C009F078FAE0
:1029A800794B81481A7821462B4609F071FA764B03
:1029B8007E481A7821464B4609F06AFA724B7C48E1
:1029C8001A782146802309F063FA2146327879483B
:1029D800234609F05DFA214632787748434609F0E4
:1029E80057FA684B75481A782146434609F050FA59
:1029F800214632787248102309F04AFA614B71482F
:102A08001A782146102309F043FA214632786E4895
:102A18002B4609F03DFA5B4B6C481A7821462B4649
:102A280009F036FA2146327869484B4609F030FAFF
:102A3800544B68481A7821464B4609F029FA534BFB
:102A480065481A7839462B4609F022FA4F4B6348F5
:102A58001A7821462B4609F01BFA4F4B60481A7822
:102A68002146234609F014FA414B5E481A7821465C
:102A78002B465D4D09F00CFA21465C4809F006FA30
:102A88002146281D09F002FA2846FFF7BBFE584BDD
:102A9800584D1C70584B1F70584B83F800A0DDF838
:102AA80004C0574B83F800C0564B83F800B0564B10
:102AB8004FF007001870554B1C70554B1F70554B45
:102AC80083F800A0544B83F800C0544B1C70544B3F
:102AD8001F70544B83F800A0534B83F800C0534B2E
:102AE8004FF004021A70524B4FF005001870514B0A
:102AF800204683F800B0FFF7D5FE2B68400600F0AB
:102B0800606623F060631E43B30C9B042B60204671
:102B1800FFF7C8FE800400F4E01006F06066064384
:102B28002E6003B0BDE8F08FB00E0020F80E002034
:102B3800A40E00206C0E0020D80E0020C40E002029
:102B4800840E00201C0F0020F40E0020CC0E002064
:102B5800EC0E0020780E0020F00E00207C0E0020E5
:102B6800D40E0020A40F0020AC0F00208C0E0020F3
:102B7800980E0020E40E0020940E0020880E0020FD
:102B8800A00E00201A0F0020720E0020E80E002070
:102B9800B20F0020B60E0020D00E0020DD0E00205F
:102BA800E90E0020B40E0020A80E0020AA0E002076
:102BB8009E0E0020CA0E00209A0E0020A00F0020B2
:102BC800BA0E0020700E00206E0E0020E00E0020CD
:102BD800BE0E0020760E0020740E0020A80F0020E4
:102BE800180F0020160F0020FC0E0020C80E002031
:102BF800800E0020AC0E0020900E0020B10F0020A7
:102C0800DE0E00206D0E0020B80E0020C10E002040
:102C1800B00F0020B70E0020140F0020910E0020E6
:102C28009C0E0020BC0E0020990E0020DC0E002017
:102C3800C00E0020EA0E002010B5802292B00C468B
:102C48001D4800213DF0D4FC802207A81A4919F03C
:102C580091FF07A80022002319F036FF02A80021DF
:102C680009F014F901A8FFF7CDFD00238DF80A300B
:102C7800124B13491B88019407A801AAADF8083024
:102C8800FFF7D0FD07A819F0D6FE0130019003F038
:102C98002FFD48B1084801A9002203F04FFD07A8FD
:102CA80019F0EEFE12B010BD03F028FDF2E707A8F8
:102CB80019F0E6FE3CF072FD200F0020740E002093
:102CC80030150408806870477047000010B5044B41
:102CD80003600023044683600CF002FE204610BD0A
:102CE8008015040810B50446FFF7F0FF20463CF0B5
:102CF8001DFE204610BDFEE71FB50C4803AC09F0C9
:102D0800A9FB4FF400630A490293204608F02EFFFE
:102D180001238DE818000748074B002102AA3BF061
:102D280057FC002005493BF02DFBFAE7412C000831
:102D38003010002065310008B31504080000F03F8A
:102D4800A84B2DE9F74F00241C60A74BA749A84FB3
:102D5800DFF8A8A33C704FF480521A604FF4005378
:102D68000B60A4494FF480400860A34901250D6019
:102D7800A2494FF00208C1F80080A1498AF80080F2
:102D8800042008609F494FF00809C1F800909E4947
:102D9800102008609D4920260E609D49402008604B
:102DA8009C49802008609C494FF4807008609B49CA
:102DB8004FF4007008609A494FF4806008609949A0
:102DC8004FF400600860984998480A60984A136070
:102DD800984B1C60984B6FF002021A60974B6FF08B
:102DE80001021A60964A974B15704FF0030B83F84F
:102DF80000B04FF00402944B02704FF005001870B9
:102E0800924B93484FF0060C83F800C0914B4FF05B
:102E180007021A70904B83F80090092362460370EA
:102E280021464B468D48CDF804C009F031F82146BB
:102E38009AF800208A48334609F02AF821469AF879
:102E480000208848402309F023F89AF80020DFF88A
:102E5800B0A285482146802309F01AF821463A781D
:102E68002346504609F014F821463A787F484B46E5
:102E780009F00EF8724B7E481A7821464B4609F045
:102E880007F821463A787B48102309F001F86C4B83
:102E980079481A782146102308F0FAFF21463A7833
:102EA8007648334608F0F4FF654B75481A78214692
:102EB800334608F0EDFF21463A787248402308F07F
:102EC800E7FF5F4B70481A782146402308F0E0FF7F
:102ED800564B6E481A782946334608F0D9FF534BAB
:102EE8006B481A782146334608F0D2FF584B694898
:102EF8001A782146234608F0CBFF524B66481A78C9
:102F080021463346654E08F0C3FF2146644808F061
:102F1800BDFF2146301D08F0B9FFBAF80030F47142
:102F2800B380604BB4711C705F4BB5601D705F4B14
:102F3800F56083F800805E4B356183F800B0DDF8FA
:102F480004C05C4B357583F800C05B4B34604FF0B0
:102F580007001870594B1C70594B1D70594B83F85A
:102F68000080594B83F800B0584B1C70584B1D70AB
:102F7800584B594D83F80080584B83F800B0584B94
:102F88004FF004021A70574B4FF005001870564B5B
:102F9800204683F800C0FFF785FC2B68400600F048
:102FA800606623F060631E43B30C9B042B602046CD
:102FB800FFF778FC800400F4E01006F06066214614
:102FC80006434A4C2E604A4808F0CEFD20461AF0C7
:102FD800C1FA4849484A204603B0BDE8F04F3BF0E3
:102FE800A7BC00BFF80F002044100020EC0F002001
:102FF800B30F0020201000200C100020CC0F002060
:103008006C10002040100020141000203810002000
:10301800C00F00203C100020C40F00201C1000200E
:10302800741000207C100020D40F002069100020AC
:103038002C100020DC0F0020D00F0020E80F00200B
:1030480068100020E00F0020AD100020FE0F0020C7
:10305800181000202510002034100020FC0F00203C
:1030680070100020F20F0020E60F0020E20F002071
:103078006210002002100020B80F0020B60F0020B8
:103088002810002006100020BE0F0020BC0F0020D2
:1030980078100020661000206410002048100020DE
:1030A80010100020C80F0020D80F0020AC100020FE
:1030B80026100020B40F0020001000200910002066
:1030C800F00F0020FF0F002060100020D90F002013
:1030D800E40F002004100020F40F0020E10F00206E
:1030E8002410002008100020351000208010002037
:1030F80030100020BDD5010800000020BA0F0020C4
:103108001210002038B503680D46DB68044698475E
:103118002B6828461B69984780B1204629460CF041
:10312800F2FB606820B10649064A00233CF0BCF96E
:10313800A06018B923682046DB689847204638BD48
:1031480040620408F88F040810B504460CF0A1FB8F
:1031580018B1A068003018BF012010BD30B5424832
:10316800ADF5577D09F04EFE451C07A81CF0C6F8C2
:103178002C203CF089FA3C492A46044619F024FDE3
:1031880023682046996A00220023884710A8214610
:1031980007AA002325F0A2F910A824F08DFF2368C0
:1031A80005465B68204698475DB10CF087F80446F1
:1031B8000DF05AFA23682046DB6807A998470546A8
:1031C80000E02C4604A80CF0B3FB284B0493002322
:1031D800059306931DB368460CF0AAFB02A8214686
:1031E800234A6B460CF012FA04A802A9FFF78AFFDB
:1031F80002A80CF075FB68460CF072FB04A8FFF7F8
:10320800A3FF60B1069831F0B9F840B106981949A2
:103218000368DB69984710B1069830F0A7F804A84E
:10322800FFF754FD10A825F045F907A81BF0BAFFD1
:103238000DF5577D30BD20463CF078FB0FE002A825
:103248000CF04EFBFFE768460CF04AFBFFE704A8CA
:10325800FFF73CFDFFE710A825F02CF9FFE707A8CA
:103268001BF0A0FF3CF09AFAC41504088015040866
:10327800471B0408541B0408002282600CF021BB81
:1032880037B504460CF0B2FB054670B1606820B152
:103298000D490E4A00233CF007F90546A06078B9AD
:1032A80020460CF00EFBA5600AE0094B0948009384
:1032B80009490A4A4FF48A7309F0A6F8284600E03B
:1032C800012003B030BD00BF40620408F88F040835
:1032D800A81504080C1000205B1B0408861B0408B2
:1032E80008B502F03DFD002008BD30B5B0F9084032
:1032F800028A87B0842C0B4690E8220014BF03345E
:103308000024009405A80024019002940394284600
:1033180002F0D0FB01280CBF0598204607B030BD4D
:1033280008B502F0EDFF012803D0BDE8084000F021
:10333800C1B908BD10B5044602F04EFD20463CF068
:10334800B7FD044602F0DCFD204610BD10B504466A
:1033580040B102F041FD20463CF0B2FDBDE810400E
:1033680002F0CEBD10BD00F1080343604FF0FF32FC
:10337800C360036100238260036070470023036118
:10338800704743689A684B608A609A685160996090
:103398000368086101330360704730B50C68631C2B
:1033A80001D1036907E000F108035A681568A542CE
:1033B80001D81346F9E75A684A6091608B605960F2
:1033C800036808610133036030BD4168826803699E
:1033D8008A60826851605968814208BF5A60002239
:1033E800026118680138186070470000004870478B
:1033F800000C024030B595B00022274B0192196CA1
:1034080041F0805119641B6C03F080530193019BB8
:10341800224B02921A6842F480421A601B6803F435
:1034280080430293029B0123089309934FF480037E
:103438000F93082310934FF4A8730224119308A83C
:1034480007230E941294139301F0CCFB00B1FEE70E
:103458004FF4A053059006930F254FF4805303A80B
:10346800052104940395079301F05CFD044600B11F
:10347800FEE701F011FE4FF47A73B0FBF3F000F0B1
:103488009FFD042000F0B2FD4FF0FF302946224690
:1034980000F058FD15B030BD003802400070004003
:1034A80070B588B0002400F005FDFFF7A3FF1F4B9F
:1034B80000941A6B1E481F4E42F080021A631A6B62
:1034C80002F080020092009A01941A6B42F00802FE
:1034D8001A631A6B02F008020192019A02941A6B9D
:1034E80042F001021A631B6B03F0010322460293A8
:1034F8004FF48051029B00F069FE4FF47043039330
:103508000B480594012303A90493069400F07AFD5F
:103518000FCE03AD0FC5336803A821462B60FFF714
:10352800E4FE054B1860FFF7DBFEFEE700380240BB
:10353800000C0240B0130408945F0020FEE700006E
:103548000A4B1B68013308D04FF0500383F31188EE
:10355800BFF36F8FBFF34F8FFEE74FF0500383F336
:103568001188BFF36F8FBFF34F8FFEE70400002071
:1035780006480068006880F3088862B661B6BFF341
:103588004F8FBFF36F8F00DF00BF000008ED00E032
:10359800DFF80C00016841F4700101607047000019
:1035A80088ED00E04FF0807300E90A00054B40F811
:1035B800202C40F80C3C6FF0020340F8243C4438BF
:1035C800704700BF49350008064B19680868B0E81D
:1035D800F04F80F30988BFF36F8F4FF0000080F33E
:1035E80011887047801100204FF0500383F3118831
:1035F800BFF36F8FBFF34F8F0A4A13680133012B54
:1036080013600DD1084B1B6813F0FF0F08D04FF063
:10361800500383F31188BFF36F8FBFF34F8FFEE71B
:10362800704700BF0400002004ED00E0084A13685A
:1036380043B94FF0500383F31188BFF36F8FBFF383
:103648004F8FFEE7013B13600BB983F31188704776
:1036580004000020EFF30980BFF36F8F144B1A6842
:103668001EF0100F08BF20ED108A20E9F04F1060FF
:103678004DF8043D4FF0500080F31188BFF34F8F91
:10368800BFF36F8F02F02AFD4FF0000080F311881E
:1036980008BC19680868B0E8F04F1EF0100F08BFA2
:1036A800B0EC108A80F30988BFF36F8F704700BFB2
:1036B8008011002008B5EFF311834FF0500282F318
:1036C8001188BFF36F8FBFF34F8F02F08DFB18B1D6
:1036D800034B4FF080521A60002383F3118808BD12
:1036E80004ED00E0064B1A684FF47A73B2FBF3F26C
:1036F800044B013A1A60072243F8042C704700BFB4
:103708000800002014E000E0304B07B51968304A83
:10371800914208D14FF0500383F31188BFF36F8FA4
:10372800BFF34F8FFEE71A682A4B9A4208D14FF031
:10373800500383F31188BFF36F8FBFF34F8FFEE7FA
:10374800254B1A78D2B20192FF221A701B78DBB28D
:103758008DF803309DF80320204B02F050021A70B8
:103768001F4A072313609DF80310090603F1FF3071
:1037780007D59DF803305B00DBB28DF803300346B4
:10378800F1E71B0203F4E0631360019A124BD2B213
:103798001A70D3F8202942F47002C3F82029D3F80C
:1037A800202942F07042C3F82029FFF79BFF0D4BF8
:1037B80000221A60FFF7ECFE0B4B1A6842F04042F9
:1037C8001A60FFF7D5FEFFF7BBFE00BF00ED00E073
:1037D80071C20F4170C20F4100E400E0AE1000203A
:1037E800B01000200400002034EF00E0EFF3058360
:1037F8000F2B0ED9104A9B5C104A12789A4208D9AE
:103808004FF0500383F31188BFF36F8FBFF34F8FCF
:10381800FEE70B4B1A680B4B1B6802F4E0629A42F6
:1038280008D94FF0500383F31188BFF36F8FBFF3AC
:103838004F8FFEE7704700BFF0E300E0AE100020B6
:103848000CED00E0B010002038B51546026C0446B7
:1038580032B9056845BB406802F0ACFD656024E0FC
:103868006DB98068FCF7F0FCA268236C13446268A9
:10387800A360934218D323682846A36015E0C06864
:10388800FCF7E2FC236CE26821685B421A448A4236
:10389800E26002D262681344E360022D04D1A36B94
:1038A80013B1A36B013BA3630020A36B0133A36394
:1038B80038BD026C30B503466AB1C4684568144423
:1038C800AC42C46024BF0468C460BDE83040084608
:1038D800D968FCF7B9BC30BD10B50446FFF784FEC3
:1038E800A36C002B0CDD636A53B104F1240002F0D1
:1038F8006FFC08B102F0FEFCA36C013BA364EFE788
:103908004FF0FF33A364FFF791FEFFF76DFE636C82
:10391800002B0CDD236953B104F1100002F058FCB0
:1039280008B102F0E7FC636C013B6364EFE74FF01A
:10393800FF336364BDE81040FFF778BE38B50D4625
:10394800044640B94FF0500383F31188BFF36F8FDB
:10395800BFF34F8FFEE7FFF747FE226CE06B23684B
:103968005043821A1918A36013446160E360002170
:103978004FF0FF33A1636364A36485B92369B3B1CE
:1039880004F1100002F024FC012810D10A4B4FF07A
:1039980080521A60BFF34F8FBFF36F8F07E004F1B7
:1039A8001000FFF7E0FC04F12400FFF7DCFCFFF750
:1039B8003DFE012038BD00BF04ED00E0F8B50D461E
:1039C8001746064640B94FF0500383F31188BFF3FA
:1039D8006F8FBFF34F8FFEE711B14843013000E00E
:1039E80008465430FFF7A6FC044630B10DB92060F4
:1039F8000CE000F15403036008E04FF0500383F338
:103A08001188BFF36F8FBFF34F8FFEE7E66325641E
:103A180020460121FFF792FF84F850702046F8BD38
:103A280010B50C4640B94FF0500383F31188BFF32B
:103A38006F8FBFF34F8FFEE7814208D94FF05003D5
:103A480083F31188BFF36F8FBFF34F8FFEE7002119
:103A58000222FFF7B3FF08B1846310BD4FF0500393
:103A680083F31188BFF36F8FBFF34F8FFEE700001A
:103A78002DE9FF410E4601921D46044640B94FF01C
:103A8800500383F31188BFF36F8FBFF34F8FFEE7A7
:103A980051B9036C43B14FF0500383F31188BFF35E
:103AA8006F8FBFF34F8FFEE7022D0BD1E36B012B16
:103AB80008D04FF0500383F31188BFF36F8FBFF323
:103AC8004F8FFEE702F01CFC10B9019B002B72D14E
:103AD8000027FFF789FDA26BE36B9A4201D3022D01
:103AE8001AD1204631462A46FFF7AEFE636A33B143
:103AF80004F1240002F06CFB012809D100E038B180
:103B0800334B4FF080521A60BFF34F8FBFF36F8F64
:103B1800FFF78CFD012057E0DDF80480B8F1000FB5
:103B280002D1FFF783FD44E017B902A802F092FB27
:103B3800FFF77CFD02F050F9FFF756FD636C013387
:103B480004BF00236364A36C013304BF0023A36490
:103B5800FFF76CFD02A801A902F092FB20BBFFF75A
:103B680043FDD4F83880E76BFFF760FDB84515D101
:103B780004F11000019902F0F3FA2046FFF7ACFEB9
:103B880002F0BEF908B10127A3E7114B4FF08052AC
:103B98001A60BFF34F8FBFF36F8FF4E72046FFF72C
:103BA8009BFE02F0ADF9EEE72046FFF795FE02F026
:103BB800A7F9002008E04FF0500383F31188BFF302
:103BC8006F8FBFF34F8FFEE704B0BDE8F08100BFF1
:103BD80004ED00E070B50D46044640B94FF05003BF
:103BE80083F31188BFF36F8FBFF34F8FFEE7036C2A
:103BF80043B14FF0500383F31188BFF36F8FBFF3C6
:103C08004F8FFEE703680BB943684BBBFFF7EEFD28
:103C1800EFF311864FF0500383F31188BFF36F8FD2
:103C2800BFF34F8FA26BE36B9A4217D2A36B01339A
:103C3800A363A36C01330AD1636A5BB104F1240066
:103C480002F0C6FA30B12DB10120286003E0A36C60
:103C58000133A364012086F3118870BD0020FAE7C0
:103C68004FF0500383F31188BFF36F8FBFF34F8F6B
:103C7800FEE700002DE9FF410D46019298460446F3
:103C880040B94FF0500383F31188BFF36F8FBFF330
:103C98004F8FFEE751B9036C43B14FF0500383F3E4
:103CA8001188BFF36F8FBFF34F8FFEE702F028FB39
:103CB80018B9019B002B40F084800026FFF794FC84
:103CC800A36B63B320462946E668FFF7F2FDB8F117
:103CD800000F10D1A36B013BA363236813B902F053
:103CE800BBFB60602369B3B104F1100002F070FA05
:103CF800012810D107E0636AE66063B104F124008B
:103D080002F066FA38B1354B4FF080521A60BFF3B3
:103D18004F8FBFF36F8FFFF789FC01205AE0019F97
:103D280017B9FFF783FC4AE016B902A802F092FA25
:103D3800FFF77CFC02F050F8FFF756FC636C013388
:103D480004BF00236364A36C013304BF0023A3648E
:103D5800FFF76CFC02A801A902F092FA50BBFFF72A
:103D680043FCA66BFFF762FCF6B9236833B9FFF78B
:103D78003BFC606802F0D4FAFFF758FC04F1240019
:103D8800019902F0EDF92046FFF7A6FD02F0B8F818
:103D980008B1012692E7114B4FF080521A60BFF329
:103DA8004F8FBFF36F8FF4E72046FFF795FD02F0C2
:103DB800A7F8EEE72046FFF78FFD02F0A1F80020F4
:103DC80008E04FF0500383F31188BFF36F8FBFF300
:103DD8004F8FFEE704B0BDE8F08100BF04ED00E0BE
:103DE8000023074A02EBC3014968814203D100213D
:103DF80042F8331070470133082BF2D1704700BFE7
:103E0800305B002010B5044640B94FF0500383F3EF
:103E18001188BFF36F8FBFF34F8FFEE7FFF7E0FF07
:103E28002046BDE81040FFF791BA704708B5032057
:103E380000F076F800210A466FF00B0000F082F8D7
:103E480000210A466FF00A0000F07CF800210A46BB
:103E58006FF0090000F076F800210A466FF00400C0
:103E680000F070F800210A466FF0030000F06AF8CD
:103E78006FF001000F21002200F064F84FF0FF30CE
:103E88000F210022BDE8084000F05CB8084B10B5CF
:103E9800044618684FF47A73B0FBF3F000F090F81A
:103EA8004FF0FF302146002200F04CF8002010BDF2
:103EB8000800002008B50B4B1A6842F400721A601B
:103EC8001A6842F480621A601A6842F480721A60B2
:103ED800032000F025F80F20FFF7D8FFFFF7A6FF13
:103EE800002008BD003C0240024B1A6801321A60EB
:103EF800704700BF185B0020014B1868704700BF6F
:103F0800185B002013B50190FFF7F6FF0446FFF792
:103F1800F3FF019B001B9842F9D302B010BD0000CB
:103F2800074AD1684FF6FF030B4043F0BF6343F4E1
:103F3800003300F0070043EA0023D360704700BF56
:103F480000ED00E0164BDB68C3F3022370B51D1DBE
:103F5800C3F10704042C28BF0424062D4FF00105E3
:103F68008CBF033B002305FA04F405FA03F6013C71
:103F7800013E2140324001FA03F3134300284FEA7F
:103F8800031305DADAB200F00F00064B1A5470BDBD
:103F980000F1604000F56140DBB280F8003370BD8D
:103FA80000ED00E014ED00E04209012300F01F00DD
:103FB80003FA00F0014B43F82200704700E100E0EB
:103FC8000138B0F1807F0AD2064B074A5860F021C9
:103FD80082F823100020072298601A607047012099
:103FE800704700BF10E000E000ED00E0044B1A68E5
:103FF80004280CBF42F0040222F004021A60704741
:1040080010E000E02DE9F7430F68002301229A40F1
:1040180002EA0705954240F0CA804A6822F0100675
:10402800022E16D14FEAD30C00EB8C0C03F00708D4
:10403800DCF820404FEA88084FF00F0909FA08F920
:1040480024EA09090C6904FA08F849EA0804CCF8D2
:1040580020405C004FF0030CD0F800900CFA04FCF0
:104068006FEA0C0C02F003080CEA090908FA04F8D4
:10407800013E49EA0808012EC0F8008010D8866879
:104088000CEA0608CE68A64048EA06068660466836
:1040980026EA0508C2F300169E4048EA060646606E
:1040A800C6680CEA060C8E68A6404CEA0604C46092
:1040B800D4007CD5414E00240194D6F844C04CF479
:1040C800804CC6F844C0766C06F480460196019E82
:1040D80023F0030606F1804606F59C3603F0030C30
:1040E800D6F808904FEA8C0C4FF00F0808FA0CF835
:1040F80029EA0808DFF8D090484528D0304CA0427B
:104108001AD004F58064A04218D004F58064A04257
:1041180016D004F58064A04214D004F58064A0424F
:1041280012D004F58064A04210D004F58064A04247
:1041380014BF082407240AE0012408E0022406E04A
:10414800032404E0042402E0052400E0062404FA21
:104158000CF444EA0804B4601A4ED6F800C0EC43E4
:1041680012F4803F14BF45EA0C0C04EA0C0CC6F8A4
:1041780000C0766812F4003F14BF45EA060C04EA52
:10418800060C104EC6F804C0D6F808C012F4801FFA
:1041980014BF45EA0C0C04EA0C0CC6F808C0F66813
:1041A8009202084A54BF04EA06053543D560013334
:1041B800102B7FF42BAF03B0BDE8F083003802402A
:1041C80000040240003C01400000024002B909041A
:1041D800816170477047000010B50368B3F1A04FC4
:1041E80086B025D14FF4C0530193022302930323D1
:1041F800002404930F4803940A2301A90593FFF7A9
:1042080001FF0D4B5A6B42F080025A6300945A6CBE
:1042180042F480425A645B6C03F480430093432069
:1042280021462246009BFFF78DFE4320FFF7BCFE88
:1042380006B010BD00000240003802402DE9F041F0
:1042480006468AB0002864D00323344680F88133B8
:10425800FFF7C2FF54F8100B00F08DFF0FCC6D462E
:104268000FC50FCC0FC594E8030085E8030006F1DD
:10427800040898E80E00306800F040FF002130681C
:1042880000F07FFF06F1100533460021012283F874
:104298003810D987013183F839200F294FF00002EF
:1042A80083F83B201A645A64DA6403F11C03EDD1E5
:1042B800D6F800E0334602F1400183F8DC21DA87C2
:1042C8000EEB8101013200270F2A83F8DD7183F894
:1042D800DF71C3F8E471C3F8E871C3F8F0714F6097
:1042E80003F11C03E7D10FCD6C460FC40FCD0FC4EB
:1042F80095E8030084E80300704698E80E0000F093
:1043080081FF012386F88133306801F0FCFA3846D2
:1043180000E001200AB0BDE8F08190F88033012B5D
:1043280010B504460CD0012380F88033006801F0F2
:10433800DEFA206800F019FF002084F8800310BD21
:10434800022010BD70471C2303FB0103D0F8B403FF
:10435800D3F8E82102F018BB70471C2303FB0103C4
:10436800D0F8B4035A6C02F03FBB7047014601F520
:104378006171D0F8B40302F0DABA7047D0F8B40328
:1043880002F0B1BB704710B5C16804460031D0F8DF
:10439800B40318BF012102F094FBD4F8B403BDE8BC
:1043A800104002F06FBB00007047000010B50446D3
:1043B800D0F8B40302F088FB2368D3F8002E42F04B
:1043C8000102C3F8002E236A23B1034B1A6942F095
:1043D80006021A6110BD00BF00ED00E07047D0F87A
:1043E800B40302F07ABB7047D0F8B40302F089BB7B
:1043F8007047D0F8B40302F082BB7047D0F8B4031A
:1044080002F081BB7047D0F8B40302F07EBB000015
:104418002DE9F04F056887B00446284601F0AAFA4E
:10442800002840F08782206801F079FA002800F01F
:104438008182206801F073FA820704D523685A69DB
:1044480002F002025A61206801F069FA10F40020B3
:104458004DD0206801F067FA05F530668146A04620
:104468000027B9F1000F43D019F0010F38D05FFAD7
:1044780087FB2068594601F065FA10F0010F824663
:1044880021D00123B3602369012B0CD13269D8F8FC
:10449800E431C2F312029A1AC8F8F421D8F8E821D4
:1044A8001344C8F8E83159462046FFF74CFF216904
:1044B800012908D13FB9D4F8F03123B9206804F5AF
:1044C800617201F077FA1AF0080F04D02046FFF75E
:1044D8004DFF0823B3601AF0100F1CBF1023B36000
:1044E80001374FEA5909203608F11C08B9E7074691
:1044F800206801F014FA430340F1A680206801F017
:1045080019FA2646824605F510680027BAF1000F09
:1045180000F09A801AF0010F00F08F805FFA87FB95
:104528002068594601F016FA10F0010F814620D094
:10453800D5F83428012303FA07F122EA0102C5F865
:104548003428C8F808302369012B03D1726C336C06
:104558001344736459462046FFF7FFFE2169012979
:1045680007D137B9E36C23B9206804F5617201F00B
:1045780021FA19F0080F1CBF0823C8F8083019F0F1
:10458800100F1CBF1023C8F8083019F0400F1CBFCB
:104598004023C8F8083019F0020F1CBF0223C8F8DE
:1045A800083019F0800F48D0336DF26CD4F800C091
:1045B800D21A336C9A4234BF9146994609F10303E3
:1045C8009B0804930CF5106303EB47130593059AB6
:1045D8009369049A9BB293420BD8B9F1000F2CD17E
:1045E800DCF834280123BB4022EA0303CCF8343832
:1045F80023E0326DF36C9A42EFD2002BEDD0316C90
:10460800C2EB0309894528BF894609F103039B08C2
:104618000493237C00936046716CCDF80CC01FFA9C
:1046280089F35A4600F0CBFF736C4B447364336DC7
:104638004B443365DDF80CC0C9E701374FEA5A0A25
:104648001C3608F1200861E7206801F068F90028A5
:104658000DDAD5F8043823F00103C5F804382046EC
:10466800FFF7BDFE23685A6902F000425A612068CC
:1046780001F055F906050BD5D5F80838D80702D545
:104688002046FFF793FE23685A6902F400625A61D4
:10469800206801F044F9C1044CD5D5F804382068E5
:1046A80023F00103C5F80438002100F081FD60689B
:1046B80005F5006605F510630022824206D0FF2149
:1046C80099600132C3F808122033F6E74FF0FF3340
:1046D800C5F81838D5F81C3843F00113C5F81C384C
:1046E800236B63B1D5F8843843F00B03C5F88438DD
:1046F800D5F8443843F00B03C5F8443809E0D5F839
:10470800143843F00B03C5F81438336943F00B032E
:104718003361D5F800382068217C23F4FE63C5F89E
:10472800003804F5617201F045F923685A6902F40A
:1047380080525A61206801F0F2F8820478D5206826
:1047480001F01CF92068C36823F47053C36000F0BB
:10475800F1FD28B94FF400736361E060236845E018
:104768000323E3604023636100F096FC734B744AB3
:1047780003449342236803D8DA6842F470524EE047
:10478800704A714902448A4203D8DA6842F4605296
:1047980045E0A0F574016D4AA1F51051914203D886
:1047A800DA6842F450523AE0A0F18371684AA1F500
:1047B800E741914203D8DA6842F440522FE0654A53
:1047C800654902448A4203D8DA6842F4305226E046
:1047D800624A634902448A4203D8DA6842F42052A2
:1047E8001DE0604A604902448A4203D8DA6842F40C
:1047F800105214E0A0F1B7715C4AA1F558519142EA
:1048080003D8DA6842F4005209E0594A5949024487
:104818008A42DA6894BF42F4E05242F4C052DA6045
:104828002046FFF7B0FD23685A6902F400525A6126
:10483800206801F074F8C30636D523689A6922F017
:1048480010029A61D5F820801C2608F00F0306FB99
:104858000346C8F34343022B06F5EE7612D147F61A
:10486800F07208EA0202D2B14FEA1218424628460C
:10487800F16800F0CBFFF368B26943444244F36047
:10488800B2610CE0062B0AD1284604F561710822B2
:1048980000F0BCFFB369C8F30A184344B361236846
:1048A8009A6942F010029A61206801F038F8060708
:1048B80007D52046FFF762FD23685A6902F008020F
:1048C8005A61206801F02BF8C50208D52046F9B2D4
:1048D800FFF78FFD23685A6902F480125A61206835
:1048E80001F01DF8800208D52046F9B2FFF77CFDDB
:1048F80023685A6902F400125A61206801F00FF81F
:10490800410007D52046FFF779FD23685A6902F070
:1049180080425A61206801F002F842070AD52368EC
:104928005D686B0702D52046FFF76DFD23685A685E
:1049380015435D6007B0BDE8F08F00BF405327FF07
:10494800FF340C00401E1BFF3F420F007F4F120038
:104958001FD6130060B6E5FE5FE3160000D3CEFE57
:104968003F771B00C05BB3FEBF9121001F75380065
:10497800E05459FEDF9C410090F88033012B10B5BC
:10498800044609D0012380F88033006800F09FFFB7
:10499800002084F8800310BD022010BD70B5CDB290
:1049A80015F0800F04464FF01C0601F07F0015BF7C
:1049B80006FB004106FB0141383101F5EE71C0B23A
:1049C800ED0908704D708A60CB7005B1C880022B64
:1049D80004BF00230B7194F88033012B09D0012305
:1049E80084F88033206800F0C2FC002084F880033B
:1049F80070BD022070BDCBB213F0800F01F07F02B2
:104A080010B504464FF01C0015BF00FB024100FB27
:104A18000141383101F5EE71DB090A704B7094F8E9
:104A28008033012B09D0012384F88033206800F0FB
:104A3800E3FC002084F8800310BD022010BD38B5C7
:104A480004461C2501F07F0005FB004505F5EE71C5
:104A58004B6100234B70CA608B6185F8DC012369C8
:104A6800012B08BF0A6194F88023012A0FD0012284
:104A780084F88023DAB218B9206800F0F8FC02E064
:104A8800206800F0AFFD002084F8800338BD0220C4
:104A980038BD01F07F011C2303FB0100B0F8F401CD
:104AA800704738B504461C2501F07F00454338356A
:104AB80061194B6100238B6101234B70CA606055FB
:104AC8002369012B08BF0A6194F88023012A0FD0BB
:104AD800012284F88023DAB218B9206800F0C7FCF4
:104AE80002E0206800F07EFD002084F8800338BDD5
:104AF800022038BDCAB238B512F0800F01F07F0528
:104B08004FF01C0315BF03FB050103FB01013831FE
:104B180001F5EE710123D209EDB28B700D704A7068
:104B280090F880239A4204460FD080F880330068BA
:104B380000F07DFE2DB92068217C04F5617200F03B
:104B480039FF002084F8800338BD022038BD38B50D
:104B5800CBB213F0800F01F07F0204464FF01C0027
:104B680015BF00FB024100FB0141383101F5EE7130
:104B7800DB0900258D700A704B7094F88033012B87
:104B880009D0012384F88033206800F082FE84F87D
:104B98008053284638BD022038BD036830B55C6AAA
:104BA80019B944EA02449C6216E0986A04EB10447E
:104BB80000204D1EA84209D200F1400503EB8505EF
:104BC80001306D68C0B204EB1544F2E73F3103EBE6
:104BD800810344EA02445C60002030BD0368002081
:104BE800596270470368F7B5D907044603D42368A8
:104BF8009A0737D479E0A14B9A6802F00C02042A8C
:104C080007D09A6802F00C02082A0BD15B685B0295
:104C180008D59A4B1B689F03E9D56368002BE6D13A
:104C2800012028E1964B22791A7063686BB1FFF76F
:104C380063F90546914B1B689E03D8D4FFF75CF9CE
:104C4800401B6428F6D9032015E1FFF755F90546FE
:104C58008A4B1B689803CAD5FFF74EF9401B642896
:104C6800F6D9F0E7854B9A6812F00C0F07D09A68CE
:104C780002F00C02082A0AD15B68590207D47F4B5C
:104C88001A68920715D5E268012AC9D111E0E268CD
:104C98007C4BE2B101221A60FFF72EF90546774BEB
:104CA8001A68970705D4FFF727F9401B0228F6D999
:104CB800C9E71A68F82191FAA1F12369B1FA81F1DB
:104CC80022F0F8028B4013436C4A13600DE01A601F
:104CD800FFF712F90546694B1B689E0705D5FFF7D4
:104CE8000BF9401B0228F6D9ADE72368180703D44F
:104CF8002368590744D51FE06269634B72B10122EA
:104D08001A60FFF7F9F805465C4B5B6F9A07EFD41A
:104D1800FFF7F2F8401B0228F6D994E71A60FFF76C
:104D2800EBF80546554B5B6F9B07E1D5FFF7E4F8B9
:104D3800401B0228F6D986E7002301934F4B1A6CD3
:104D480042F080521A641B6C03F080530193019B5C
:104D58004E4B1A6842F480721A60FFF7CDF8054688
:104D68004A4B1B68DF050ED5494B227A1A70A36897
:104D7800BBB1FFF7C1F80546404B1B6F9E0708D52E
:104D8800A369EBB95CE0FFF7B7F8401B0228E7D945
:104D980059E7FFF7B1F841F28833401B9842EBD945
:104DA80051E7FFF7A9F80546344B1B6F9807E7D57D
:104DB800FFF7A2F841F28833401B9842F4D942E742
:104DC8002E4A926802F00C02082A3FF429AF022BFF
:104DD800304B4FF000021A6040D1FFF78DF80546BE
:104DE800264B1B6899012DD447F6C07797FAA7F789
:104DF8004FF44036B7FA87F796FAA6F64FF0706583
:104E0800B6FA86F695FAA5F5A36A206AE169626A98
:104E1800E46A5B080143BA40013B0A43B340B5FA70
:104E280085F51A43AC40154B22435A60194B0122B1
:104E38001A60FFF761F80446104B1B689A0107D502
:104E4800002018E0FFF758F8401B0228C8D9FAE6F6
:104E5800FFF752F8001B0228EED9F4E6FFF74CF8EA
:104E68000446064B1B689B01EAD5FFF745F8001B73
:104E78000228F6D9E7E603B0F0BD00BF00380240CB
:104E88000238024000004742800E4742007000404E
:104E980070380240600047421F4B9A6802F00C02CB
:104EA800042A10B536D0082A01D01C4810BD59680C
:104EB8005A685C6812F4800F01F03F0147F6C0722F
:104EC8000CD092FAA2F2B2FA82F347F6C0722240EC
:104ED800DA40134BB3FBF1F353430BE092FAA2F21F
:104EE80047F6C0730D48B2FA82F22340D340B0FBB4
:104EF800F1F14B43084A50684FF4403292FAA2F25B
:104F0800B2FA82F200F44030D04001304000B3FBE6
:104F1800F0F010BD024810BD003802400024F40033
:104F280000127A00584B1A6802F00F02914270B5CD
:104F380004460D460AD823689A0710D5534AA16833
:104F4800906820F0F0000143916008E0CAB21A703E
:104F58001B6803F00F038B42EDD0012070BDDE0704
:104F680006D4494B1A6802F00F0295425BD361E000
:104F78006368464A012B03D1126812F4003F08E027
:104F8800991E0129126802D812F0007F01E012F080
:104F9800020FE2D03D4A916821F003010B43936070
:104FA800FEF7AAFF6368012B06460ED1374B9B68B4
:104FB80003F00C03042BD4D0FEF79EFF41F2883394
:104FC800801B9842F2D9032070BD022B0DD12F4BC4
:104FD8009B6803F00C03082BC3D0FEF78DFF41F24A
:104FE8008833801B9842F2D9EDE7032B0CD0274B6E
:104FF8009B6813F00C0F0ED1B3E7FEF77DFF41F26B
:105008008833801B9842DED8204B9B6803F00C0342
:105018000C2BF2D1A5E7FEF76FFF41F28833801B16
:105028009842E4D9CFE7EAB21A701B6803F00F037D
:10503800AB4292D123685D0706D5144AE1689068AF
:1050480020F4E05001439160180707D50F4B216900
:105058009A6822F4604242EAC1029A60FFF71CFF94
:105068000A4BF0229B6892FAA2F2B2FA82F203F09B
:10507800F003D340064AD35CD840064B18600F2093
:10508800FEF704FF002070BD003C024000380240DB
:10509800411C040808000020014B1868704700BF35
:1050A800080000207047FEE7FEE7FEE7FEE77047CE
:1050B80008B5FEF719FFBDE80840FEF731B9000052
:1050C8000148FFF7A5B900BF405700200A4B013B34
:1050D80001D1032070470269002AF8DA036943F016
:1050E80001030361044B013BF3D0026912F0010292
:1050F800F9D11046704700BF410D030084B038B5A0
:1051080005AD85E80E000A9B012B044618D1836B78
:1051180023F480338363C36823F4840323F04003B8
:10512800C360C36823F44013C360119B012B03D1F0
:10513800C36843F48013C3602046FFF7C7FF08E045
:10514800C36843F04003C360FFF7C0FF4FF48033E8
:10515800A363089B012B03D1A36843F02003A3603A
:10516800BDE83840002004B07047836843F001036D
:10517800836000207047836823F001038360002068
:10518800704708B5C368012923F0C043C36004D140
:10519800C36843F00053C36004E019B9C36843F01F
:1051A8008043C3603220FEF7ADFE002008BD00003A
:1051B800890141F02001064B0161013B05D00269DC
:1051C80012F02002F9D1104670470320704700BF43
:1051D800410D030010230361054B013B05D0026913
:1051E80012F01002F9D1104670470320704700BF33
:1051F800410D0300D0F800381943C0F8001800200A
:105208007047000084B02DE9F041044607A880E803
:105218000E00A36B119E0A9F43F400238846A363E4
:105228001EB9A36B43F40013A3630023C4F8003E24
:10523800D4F80038C4F800380C9B012B04F500653D
:1052480006D10999204629B11946FFF7D3FF03E093
:1052580020460321FFF7CEFF10212046FFF7A8FFC5
:105268002046FFF7B7FF00224FF0FF332A61C4F84A
:105278001428C4F81838C4F81C2804F510634245EB
:105288000FD019680029B8BF4FF090404FF00001C7
:10529800ACBF196018601961FF2199600132203391
:1052A800EDE704F53063002242450FD01968002964
:1052B800B8BF4FF090404FF00001ACBF19601860C4
:1052C8001961FF21996001322033EDE72B69012F25
:1052D80023F480732B6108D1144B2B632B6B43F49D
:1052E800803343F003032B632B6B0023A3616FF020
:1052F800804363611FB9A36943F01003A361A269E6
:105308000B4B1343A3610D9B1BB1A36943F0080327
:10531800A361012E05D1A36943F0804343F0040340
:10532800A361BDE8F041002004B07047000180008F
:1053380000383C80D0F8083813F0060F01D100205F
:105348007047D0F8083803F00603022B0DD0D0F8C8
:10535800083803F00603062B07D0D0F8083803F006
:105368000603042BEBD1022070470320704730B5A9
:105378004A780B78012A1FD1D0F81C4802FA03F3A7
:105388009BB22343C0F81C380A784FF4106303EB30
:1053980042131C5824042DD41D588C68C97845F034
:1053A800805545F40045C4F30A042C4344EA81447B
:1053B80044EA82521A501DE0D0F81C284FF4803479
:1053C80004FA03F31343C0F81C380A784FF4306327
:1053D80003EB42131A5812040CD41C588A68C97873
:1053E80044F0805444F40044C2F30A02224342EADF
:1053F80081421A50002030BD4B780A78012B10B535
:10540800D0F83C4819D103FA02F292B224EA020217
:10541800C0F83C280C78D0F81C28A3409BB222EA9C
:105428000303C0F81C380A784FF4106303EB4213E7
:105438001A5822F400421A5017E0012303FA02F224
:1054480024EA0242C0F83C280C78D0F81C28A34073
:1054580022EA0343C0F81C380A784FF4306303EBA0
:1054680042131A5822F400421A50002010BD4B78FB
:10547800012BF0B54D690E7861D120244FF41063EB
:1054880014FB06360644B5B9356925F0FF5525F4F1
:10549800C01535610D7814FB053505442E6946F4B1
:1054A80000262E610D7814FB053303441D69ED0CAD
:1054B800ED041D6126E03769FF0CFF0437610E78A3
:1054C80014FB063303441C6924F0FF5424F4C0146D
:1054D8001C618B689D420D7888BF4B614FF4106446
:1054E800202313FB054505442E6946F400262E614A
:1054F8000D7813FB054303444C691D69C4F312047A
:105508002C431C61012A0B7805D100EB43130A696F
:10551800C3F8142909E04A693AB1D0F834280124BB
:1055280004FA03F31343C0F834380A784FF41063CD
:1055380003EB4213C25842F00442C2503DE020231C
:105548004FF4306713FB067606443469E40CE40430
:1055580034610C7813FB04740444266926F0FF5662
:1055680026F4C01626611C468E6805B14E610D787A
:105578004FF4306314FB05350544C6F312062F6952
:1055880047F400272F610D7814FB05340444012AE1
:10559800256946EA0506266106D10A78202414FB07
:1055A80002330344CA685A610A784FF4306303EB44
:1055B8004213C25842F00442C2500020F0BD30B538
:1055C8009DF80C4064B9033300EB02329B0802F5E6
:1055D80080529C4204D051F8245001341560F8E7F9
:1055E800002030BD2DE9F7434B780E78012B4FF0A2
:1055F80020054B6940F09A804FF4106415FB06466D
:1056080006443769ABB927F0FF5727F4C01737614D
:105618000E7815FB06460644376947F400273761BC
:105628000E7815FB064404442669F60CF604266138
:105638003EE0FF0CFF0437610E7815FB0646064472
:10564800376927F0FF5727F4C01737618E680F783E
:1056580003EB060808F1FF3815FB07470744B8FBBA
:10566800F6F64FEAC648684ED7F810C008EA0606AC
:1056780046EA0C063E610E7815FB06460644C3F35F
:10568800120C37694CEA07073761CE78012E0FD123
:105698000E7815FB06460644376927F0C047376180
:1056A8000E7815FB06440444256945F0005525612C
:1056B800012A0C7805D100EB44140D69C4F814597B
:1056C8000BE0CD78012D08D03BB1D0F83458012635
:1056D80006FA04F42C43C0F83448CC78012C11D1D4
:1056E800D0F8084814F4807F0C784FF410654FF018
:1056F800200616FB045425580CBF45F0005545F00C
:10570800805525500D784FF4106404EB4514055965
:1057180045F004450551CC78012C71D10C780092E4
:10572800C96822469BB2FFF74AFF69E04FF430642C
:1057380015FB064687193E69F60CF6043E610E789D
:1057480015FB06460644376927F0FF5727F4C017AC
:10575800376191F800C08E6815FB0C4C7BB900EBE3
:105768000C03C6F312061F693E431E610B7815FB36
:1057780003440444236943F4002323611AE03344B7
:10578800013B8444B3FBF6F39BB21F4FDCF8108057
:105798004FEAC34909EA070747EA0807CCF8107037
:1057A8000F7815FB0744044473432569C3F31203B8
:1057B8002B432361012A05D10A78CB6800EB4212FA
:1057C800C2F8143BCB78012B11D1D0F8083813F468
:1057D800807F0B784FF430624FF0200414FB0323D2
:1057E800C2580CBF42F0005242F08052C2500A78B0
:1057F8004FF4306303EB4213C25842F00442C250E4
:10580800002003B0BDE8F0830000F81F10B5033294
:105818009208002393424FEA830406D000F580548F
:10582800246841F823400133F4E7081910BD4B7888
:105838000A78012B10B54FF0200314D14FF41064EF
:1058480013FB0243C258002A03DBC25822F08042ED
:10585800C2500A784FF4106303EB4213C25842F463
:105868000012C25013E04FF4306413FB0243C258D5
:10587800002A03DBC25822F08042C2500A784FF453
:10588800306303EB4213C25842F40012C2500020A6
:1058980010BD30B54B780C78012B0CBF4FF410625B
:1058A8004FF43062202313FB0424255825F40015F7
:1058B8002550CC78023CE4B2012C06D8097813FBB9
:1058C80001231A5842F080521A50002030BDD0F8F7
:1058D800003823F4FE63C0F80038D0F80038090116
:1058E80001F4FE610B43C0F800380020704708B58A
:1058F800D0F8043823F00203C0F804380320FEF778
:1059080001FB002008BD08B5D0F8043843F00203B5
:10591800C0F804380320FEF7F5FA002008BD4369F3
:10592800806918407047D0F81838D0F81C0818401B
:10593800000C7047D0F81828D0F81C3802EA030089
:1059480080B2704700EB4111D1F8083BD0F8140839
:1059580018407047D0F8102810B5D0F8344800EB3C
:105968004110D0F8083924FA01F0C001C0B2104340
:10597800184010BD406900F001007047D0F80039A8
:1059880023F4FF6323F00703C0F80039D0F8083880
:1059980003F00603042B05D1D0F8003943F00303C4
:1059A800C0F80039D0F8043843F48073C0F80438DC
:1059B8000020704710B50024C0F8104BD0F8104BE9
:1059C80044F40024C0F8104BD0F8104B44F01804ED
:1059D800C0F8104BD0F8104B012944F0C044C0F86F
:1059E800104B05D14FF08023C0F8142BC0F8003BB2
:1059F800002010BD0F4AD2F8883043F47003C2F873
:105A080088300D4B196841F0010119600021996037
:105A1800186820F0847020F48030186007485860B7
:105A2800186820F480201860D9604FF000639360F4
:105A3800704700BF00ED00E000380240103000243D
:105A4800064A13681968064B11B94FF0FF3203E094
:105A58001268D268D26852681A607047B81000207D
:105A6800A01100200E4B1A6810B550600D4A12683C
:105A78009042044607D20C4A10681968BDE81040E5
:105A88000431FDF78ABC094A106819680431FDF72A
:105A980084FC074B1A68944238BF1C6010BD00BFD5
:105AA800801100209C110020D8100020B810002080
:105AB800A01100202DE9F84F0A9D0B9F0C9E8846E7
:105AC80093469A46814640B94FF0500383F31188B4
